:020000041000EA
:1000000000B5324B212058609868022188439860DF
:10001000D860186158612E4B002199600221596106
:100020000121F02299502B49196001219960352056
:1000300000F044F80222904214D00621196600F024
:1000400034F8196E01211966002018661A6600F04E
:100050002CF8196E196E196E052000F02FF8012189
:100060000842F9D1002199601B49196000215960AB
:100070001A491B48016001219960EB211966A021F2
:10008000196600F012F800219960164914480160C1
:100090000121996001BC002800D000471248134993
:1000A000086003C880F30888084703B5996A0420EC
:1000B0000142FBD001200142F8D103BD02B5186610
:1000C0001866FFF7F2FF186E186E02BD00000240BE
:1000D000000000180000070000035F00212200005C
:1000E000F4000018222000A00001001008ED00E03C
:1000F00000000000000000000000000074B24E7A12
:1001000000200420F7010010C3010010C5010010F9
:10011000C1010010C1010010C1010010C101001097
:10012000C1010010C1010010C1010010C701001081
:10013000C1010010C1010010C9010010CB01001065
:10014000CD010010CD010010CD010010CD01001037
:10015000CD010010CD010010CD010010CD01001027
:10016000CD010010CD010010CD010010CD01001017
:10017000CD010010CD010010CD010010CD01001007
:10018000CD010010CD010010CD010010CD010010F7
:10019000CD010010CD010010CD010010CD010010E7
:1001A000CD010010CD010010CD010010CD010010D7
:1001B000CD010010CD010010CD010010CD010010C7
:1001C00000BE00BE00BE00BE00BE00BEEFF3058054
:1001D000103800BEF2EB887130860110588601108D
:1001E0003402001090A31AE700201F49086006C8D7
:1001F00081F3088810471D48006800282FD10DA4FE
:100200000ECC002902D000F012F8F9E71849194A7B
:10021000002000E001C19142FCD1174988471749ED
:1002200088471749884700BEFDE701C901C29A42C5
:10023000FBD3704758860110C000002084130020B3
:100240001C99011000000420000004201C990110DA
:10025000001004200010042000000000704709482E
:100260000BF022FD0047000008ED00E0000000D088
:10027000881300206C29022055A900109108001055
:1002800015A900105756000006005250ABB360533A
:10029000246E011006005250861C03023C6E0110B1
:1002A000060052505422A29D446E01100500525087
:1002B000DE65F4681C990110F8B5C0460448054B8A
:1002C00010B5834203D0044B002B00D0984710BDDB
:1002D0008413002084130020000000000648074912
:1002E000091A8B10C90FC91810B5491003D0044B57
:1002F000002B00D0984710BD8413002084130020E9
:100300000000000010B5074C2378002B09D1FFF73F
:10031000D5FF054B002B02D0044800E000BF0123AD
:10032000237010BD4015002000000000A041011006
:10033000054B10B5002B03D00449054800E000BF71
:10034000FFF7CCFF10BDC0460000000044150020A0
:10035000A0410110002070470020704710B5040034
:10036000282200210CF04AFD200010BD10B50348E2
:1003700000210CF031FF00BE10BDC046A0410110AD
:1003800010B5034800210CF027FFFFF7EFFF10BD69
:10039000C441011010B5064B18680023002200214B
:1003A00010F0E0FD013843425841C0B210BDC046D4
:1003B000C815002010B50121044B1868494210F0FF
:1003C000F5FF013843425841C0B210BDC8150020A6
:1003D00010B58CB0040011F0EBFB0B9020680368A3
:1003E0005B68984721680B689B6868469847A368D4
:1003F000186800230A22694610F0B4FD218A0BA870
:1004000011F050FDEAE7000010B50A000348002192
:100410000CF0E2FEFFF7AAFF10BDC046DC41011060
:1004200070B505000C0008F087FA200008F084FA87
:100430000321280008F080F90321200008F07CF94E
:1004400000220121280008F08FF90022012120005C
:1004500008F08AF9044805490FF09CFC012010F0CF
:1004600053FE034B186070BD080E0020A0860100EB
:10047000C815002070B5040000220821022010F0E9
:1004800029FD206000221021022010F023FD606071
:1004900000222421282010F01DFDA060002202214E
:1004A000022010F017FDE06000220421022010F06D
:1004B00011FD606100222021032010F00BFD20615E
:1004C000992080000CF0A6FC050000230370982200
:1004D0009200835001F0A8F9A561200070BD0000D2
:1004E000F0B5C64600B504008846164B03600025EB
:1004F0000571154B036077270773144B0360702059
:100500000CF088FC0600702200210CF077FC6C23B4
:10051000F754266100236361A361E361236224230E
:10052000E5540133E554A5620733E5544346002BF7
:1005300003D1200080BCB846F0BD0321200000F0AC
:10054000A9FCF6E7D4420110E8420110A8470110C7
:10055000F8B504000D00214B036000260671204B06
:100560000360692303731F4B03601F4B02001032AB
:1005700083CB83C203CB03C220004C300622002170
:100580000CF03CFC20005230062200210CF036FC1E
:1005900020005830062200210CF030FC5E23E65289
:1005A000200060300C2200210CF028FC20006C3070
:1005B0000C2200210CF022FC200078300C220021BB
:1005C0000CF01CFC84230022E250002D01D12000FD
:1005D000F8BD0321200000F0A3FDF8E7D44201108C
:1005E000E84201101C4901100843011070B52E4863
:1005F0000CF0C2FD05210420FFF712FF0FF04CFCA8
:100600000C200CF007FC0400284E06600025057144
:10061000274B036000F004FF264B1C6018200CF0F1
:10062000F9FB0400012100F0B7FA234B1C603020D5
:100630000CF0F0FB04000121FFF752FF1F4B1C6080
:1006400088200CF0E7FB04000121FFF781FF1C4B21
:100650001C6010200CF0DEFB040006600571194BD5
:100660000360032100F0FCFD174B1C600C200CF014
:10067000D1FB040006600571144B0360032100F0F8
:1006800033FB134B1C601C200CF0C4FB0400FFF771
:10069000F1FE104B1C6010480CF06EFD0F4B1868FB
:1006A000012110F0E7F970BD04420110D44201109D
:1006B000FC420110081F0020EC1E0020381D002005
:1006C0001023002048490110142300202845011060
:1006D000341D0020801E002018420110FC1E002046
:1006E000F0B5D6464F464646C0B5A2B0FFF77EFFEE
:1006F0001DAD1422002128000CF080FB504B1E93EE
:10070000FE239B059A462093FA239B0099462B8251
:100710004C4B1B681D934C4B98461B681F938026BF
:10072000B6004A494A4C1CAB0193022700972B00A4
:100730003200200011F050F917AD142200212800DA
:100740000CF05CFB434B189353461A934B462B8299
:10075000414B1B68179343461B68043319933F4969
:1007600016AB019300972B003200200011F034F9F2
:1007700011AD1422002128000CF040FB384B1293DD
:10078000384B149332232B82374B1B68119343460B
:100790001B6808331393354910AB019300972B0066
:1007A0003200200011F018F90BAD142200212800AE
:1007B0000CF024FB2E4B0C9353460E934B462B828E
:1007C0002C4B1B680B9343461B680C330D932A4933
:1007D0000AAB019300972B003200200011F0FCF8C7
:1007E00005AD1422002128000CF008FB234B0693D2
:1007F000534608934B462B82214B1B680593434677
:100800001B68143307931F4904AB019300972B0017
:100810003200200011F0E0F880221B491B4803AB96
:100820000193032300930023520111F0D5F8002017
:1008300011F00EF922B0E0BCBA46B146A846F0BDB0
:100840003C420110EC1E0020801E0020444201109A
:10085000D103001050420110381D002058420110F1
:10086000644201100000A0411023002068420110E2
:1008700074420110142300207C42011090420110A8
:10088000341D00209C420110B4420110291F0010A9
:1008900000B583B00CF0ACFC0C490D2040420FF0C9
:1008A00039FB10F04AF80A4B1860802209490A48BF
:1008B00000230193043300930023D20011F08CF83D
:1008C00011F02EF9002003B000BDC04681030010D6
:1008D000FC1E0020C4420110E106001010B584B0D7
:1008E0000A22002101A80CF089FA002418E001ABCB
:1008F00000221A550A200CF00BFC05E00A200CF02F
:1009000007FC01AB00221A5501A812F077FC04B0D5
:1009100010BD002C17DD0E480CF05EFC023C0134CB
:10092000092CF1D8E3D00CF06BFCC3B20D2BE5D051
:100930000A2BE3D0082BECD001AA1355FF23184053
:100940000CF0E6FBEBE707200CF0E2FB013CE6E7EE
:100950001C43011070B505000C00080013F0C2F92B
:1009600002002100280013F0B7F843425841C0B2FA
:1009700070BD10B5002905D0FA22920000230BF0BB
:1009800025FA03E0FA2189000BF0E2F910BD70B5F9
:1009900004000D00282200210CF030FA2B6923609E
:1009A0006B696360200070BD10B5002B02DB026034
:1009B000436010BD024B034A03483F2109F0AEFFDC
:1009C000204301103C4301107443011010B5040092
:1009D00009F000FA02000B002000FFF7E5FF2000FD
:1009E00010BD000010B584B00400FFF7E3FC217BCC
:1009F0000B4896239B0001930023009301330F22A1
:100A00006A440FF02AFA002806D0FFF7C3FC0F2330
:100A10006B44187804B010BDFFF7BCFCFF20F9E769
:100A2000080E002070B505000E00002406E00A2024
:100A300009F0B1F80A34A4B2322C0CD82800FFF720
:100A4000D1FF000605D5002EF1D00A2011F086FA5C
:100A5000F0E7012000E0002070BD0000F0B5CE46B8
:100A6000474680B585B005000E0003799846002BF7
:100A700007D000239846404605B0C0BCB946B046F2
:100A8000F0BD642009F087F803AB394A118819805A
:100A900092789A700B236B44AC221A70002405E004
:100AA00034480CF069FB731EBB4255D82700B44292
:100AB0005AD201343048320021000CF08DFB2F480F
:100AC0000CF05AFB297B2E4896239B0001930023B0
:100AD000009301330B226A440FF094F9142009F0BB
:100AE0005AF800212800FFF79DFF0028D8D025489C
:100AF0000CF042FB297B224896239B0001930023A4
:100B00000093033303AA0FF07DF900212800FFF7BB
:100B100089FF8146002808D02800FFF763FF0307FC
:100B200011D419480CF028FBBDE712480CF024FB47
:100B3000FA20C00009F02FF8731EBB42B6D9134843
:100B40000CF01AFBB2E7124B010018000CF044FB4A
:100B500001232B71C8468EE7FA20C00009F01BF86C
:100B60000A480CF009FBA1E70A480CF005FB82E7F4
:100B7000E44401100C440110B8430110EC4301108F
:100B8000080E00202C44011068440110504401104C
:100B900088440110C044011010B504000A4B0360E2
:100BA00000230371094B036038230373084B036070
:100BB000002303614361002901D1200010BD0321FE
:100BC000FFF74CFFF9E7C046D4420110E84201109C
:100BD000F4440110F0B589B004000579002D02D16C
:100BE000280009B0F0BDFFF7E5FB2D4B1A886946D8
:100BF0008A839B788B77217B2A4896239B000193DD
:100C000000230093033307AA0FF0FCF8FFF7C2FBA1
:100C100001212000FFF706FF051EE1D0FFF7CAFB08
:100C200005AE217B1F4896239B0001930023009370
:100C3000063332000FF011F9FFF7ACFB72781202A5
:100C4000B37813431B01F1780F091F430F220A40A9
:100C50001202337913431B02707918430BF069FFBA
:100C600011490BF02AFFD62189050BF026FF0F4909
:100C70000BF003FF206138000BF05BFF0C490BF019
:100C80001CFFD62189050BF018FF606102A8FFF751
:100C90009DFE02980399FFF76CFEA060A0E7C04696
:100CA000E8440110080E00200000484300004842BC
:100CB0000000C84201207047024A136801331360E4
:100CC0007047C0465C15002070B50400054B1D68D8
:100CD00000221A60283200210CF090F825602000D4
:100CE00070BDC0465C15002010B50379002B01D003
:100CF000002010BD0B480CF03FFA062007F01CFE48
:100D0000D0231B0640229A6200220121062007F010
:100D10002BFD054B01220421062007F099FD01203F
:100D2000E7E7C04600450110B90C001010B50029D6
:100D300005D0FA22920000230BF048F803E0FA21D4
:100D400089000BF005F810BD70B504000D002822D5
:100D500000210CF053F86B692360AB696360EB69A9
:100D6000A3602B6AE360200070BD000010B5002B6B
:100D700002DB0260436010BD024B034A03483F217F
:100D800009F0CCFD204301103C43011074430110D5
:100D900010B5040009F01EF802000B002000FFF758
:100DA000E5FF200010BD000010B5531DD8B2072884
:100DB0001BD883000F48C3589F460F480CF00CFA0D
:100DC00010BD0E480CF008FAFAE70D480CF004FAD2
:100DD000F6E70C480CF000FAF2E70B480CF0FCF9CF
:100DE000EEE70A480CF0F8F9EAE709480CF0F4F9E4
:100DF000E6E7C0464846011034450110544501104D
:100E000080450110B0450110D4450110F84501108E
:100E10002046011030B589B004000079002801D1C6
:100E200009B030BD6846FFF7B3FF00980199FFF79E
:100E30007DFF0500206902A901F016FA0028EFD015
:100E400002AB049A6261059AE261069AA261079A6E
:100E5000226219782C22A1545978083AA1549A7820
:100E60002523E254A3685B1BA362D9E710B5962142
:100E700064224900FFF7CEFF10BD30B583B006AC49
:100E8000247807AD2D7800690195009401F072F97E
:100E900003B030BDF0B5D6464F464646C0B582B029
:100EA00007000E0003799946002B08D000239946CD
:100EB000484602B0E0BCBA46B146A846F0BD0A209A
:100EC00008F069FE002405E023480CF055F9731E74
:100ED000434535D8A046A6423AD901341F483200CE
:100EE00021000CF079F9386901F07EF9051EEBD08C
:100EF00039690800503002F00DFA82463869184905
:100F00005246FFF751FF5346002B03D015480CF013
:100F100033F9DCE714480CF02FF914480CF02CF9E5
:100F20000223019301240094033308220021380096
:100F3000FFF7A3FF0E480CF01FF93C71A946B7E775
:100F4000FA20C00008F027FE0A480CF015F9C1E7A6
:100F500009480CF011F9ABE79C46011068460110F6
:100F6000BC460110CC460110F44601101847011090
:100F70003C470110644701107C47011070B5040024
:100F80000D00282200210BF039FF2B6E23606B6EC1
:100F90006360AB6EA360EB6EE3602B6F23616B6FDE
:100FA0006361AB6FA361EB6FE3618023EB58236256
:100FB000200070BDF0B5CE46474680B585B0040030
:100FC0000500103502002A3201002431280007F004
:100FD0006BFB2200363221003031280007F004FB81
:100FE0002200423221003C31280007F06EFB210034
:100FF0008431280007F07AFB002531E02B002433F0
:101000005B00E3180420185E0BF098FDE2218905CF
:101010000BF053FD2B0018339B00E0502B002833BE
:101020005B00E3180220185E0BF088FD36490BF0D8
:101030002EFD2B001A339B00E31858602B002C3335
:101040005B00185F0BF07AFD30490BF020FD304952
:101050000BF033FD2B001E339B00E0500135EDB249
:10106000022DCBD9206E636E9846A36E99460BF085
:10107000C1FD06000F00274D48460BF0BBFD029056
:10108000039140460BF0B6FD0090019132003B0009
:1010900028000CF0A1F8E06E236F9846636F994624
:1010A0000BF0A8FD06000F001B4D48460BF0A2FDFB
:1010B0000290039140460BF09DFD0090019132009B
:1010C0003B0028000CF088F8A06FE56F8023E35800
:1010D00098460BF08FFD06000F00104C40460BF0B9
:1010E00089FD02900391281C0BF084FD0090019172
:1010F00032003B0020000CF06FF8012005B0C0BCAE
:10110000B946B046F0BDC046000003430000A04110
:1011100000004040B4470110DC47011004480110B2
:10112000F8B5CE46474680B507000D0003799946CD
:10113000002B06D0002399464846C0BCB946B046AD
:10114000F8BD642008F027FD002427E01421404664
:1011500007F030F939003631404607F007FA3623F8
:10116000F95E3823FA5E3A203B5E1C480CF034F8F6
:1011700039002A31404607F049FA2A23F95E2C2328
:10118000FA5E2E203B5E16480CF026F815480BF050
:10119000F3FF01233B719946CEE73400AC4218DAE5
:1011A000661C11482A0031000CF016F810239846EE
:1011B000B844404607F01CF80028C7D06B1EA34275
:1011C000EBDDFA20C00008F0E6FC08480BF0D4FF85
:1011D000E3E707480BF0D0FFAEE7C04660480110D8
:1011E00088480110B04801102C480110D84801105F
:1011F000F048011002000079002810D0084B1B684D
:10120000E021C9010B4007490B60074B042119601D
:10121000034B1B68DB05FBD5014B5B689381704773
:1012200000C0044000D0044000E0044070B5040059
:101230000D00282200210BF0E1FDAB892380200066
:1012400070BD10B504001F2107F076FA00220021BE
:10125000200007F089FA0021200007F055FB10BD9F
:1012600010B504000EF018FE1A20FFF7EAFF012364
:10127000237102480BF080FF012010BD28490110A6
:1012800082B000226B46D91D06E08369DB06FCD4E0
:1012900003680B7001320131002AF6D06B46D87911
:1012A00002B0704700B59DB0304B186801235B4217
:1012B00000930233002201210FF04CFB642010F058
:1012C0004DFE2B49152007F08BFC0121152007F05E
:1012D0005DFC284B50229A635A6B38231340264AF0
:1012E000136008E003A812F0FDFC0200234B03A9E1
:1012F000180011F017FF0122214B1868524203A970
:101300000FF0ACFF0128F6D11E4903A8FFF722FB1E
:101310000028E7D11C4903A8FFF71CFB0028E1D1F6
:101320001A4903A8FFF716FB0028DBD1184903A8C8
:10133000FFF710FB0028D5D1164903A8FFF70AFBD9
:101340000028CFD1144903A8FFF704FB0028C9D116
:10135000124903A8FFF7FEFA0028C3D1104903A8D9
:10136000FFF7F8FA0028C6D0BCE7C046FC1E0020F4
:10137000A513001000800340349003408813002020
:10138000C4150020544901105C4901106449011042
:101390006C490110744901107C4901108449011005
:1013A0008C49011000B583B002E0184B00221A707E
:1013B000174B9B69DB0626D4002301931448FFF7E3
:1013C0005FFF124A1378D9B20133DBB21370114BAD
:1013D00058540A2803D01378DBB2622BE8D90B4BA0
:1013E0001B78DBB20B490022CA540B4B1868002350
:1013F00001AA0FF095FE019B002BD6D0074B80224F
:1014000052051A60D1E703B000BDC0466029022032
:101410000080034060150020C415002004ED00E0AA
:1014200010B582B00379002B02D0002002B010BDAD
:101430001E480BF0A1FE96211D4C8901200008F0EA
:10144000EFFF0221082007F077F90221092007F0B9
:1014500073F9002301220821200008F0AFFF0021CA
:10146000200008F0C1FF13480BF086FE124811F06F
:1014700052FE12480BF080FE002264210A200FF079
:1014800029FD0F4B18600F480BF076FE80220E49A5
:101490000E4800230193023300930023920010F0C2
:1014A0009BFA0B480BF068FE0120BFE7944901103E
:1014B00000800340B449011088130020D449011072
:1014C000C4150020F4490110104A0110A5120010A3
:1014D0001C4A011010B50400282200210BF08EFCDC
:1014E000084B18685968206061609868D968A060E6
:1014F000E160186959692061616121229B5C237652
:10150000200010BD8813002070B50400274B1B6815
:101510009E6931005931FF3112F0A0FB051E15D034
:10152000224B1B6898698D30FF30210006F0B3FC18
:10153000831C14D0002817DB1D4821000BF04CFE43
:10154000002D16D0002010F083FA70BD83239B007D
:10155000F11830008D30FF3006F00EFDE0E7154841
:1015600021000BF039FEEBE7134821000BF034FEAD
:10157000E6E70E4C2368986902005932FF32832552
:10158000AD0041198D30FF300C4B06F097FC2368FD
:10159000986941198D30FF3006F014FD2368996970
:1015A0005931FF3106480BF017FECBE7801E0020B3
:1015B000744A0110344A0110544A01100305000016
:1015C000A44B011070B505000C0009480BF0D4FDC8
:1015D000084928008D30FF3006F026FC002C02D18F
:1015E000002CFDD170BD04480BF0C6FDF8E7C046E5
:1015F000884A0110B80C0020B04A0110F8B53B4CE5
:10160000236898698326B60081198D30FF3006F073
:10161000B3FC236898698D30FF3006F02BFC2368FB
:1016200098690021FFF7CEFF2368986930498D3013
:10163000FF3006F00CFC2368986904232D4A011D35
:101640008D30FF30FF3306F039FC23689869982706
:10165000BF00C219011D8D30FF30042306F0DAFCF3
:1016600023689A690121D1519869011D8D30FF309D
:1016700006F02CFD23689869C219011D8D30FF30DA
:10168000042306F0F5FC23689869011D8D30FF30B6
:1016900006F072FC23689B69D95917480BF09CFD32
:1016A00023689B6918005930FF30DA5913490AF052
:1016B000BBFA2368986902005932FF3281198D30D4
:1016C000FF300F4B06F0FAFB2368986981198D30C3
:1016D000FF3006F077FC236899695931FF310948DA
:1016E0000BF07AFD002010F0B3F9F8BD801E002049
:1016F000B80C00204C4B0110584B0110904B0110BE
:1017000003050000984B011070B50324002C15DB75
:10171000A0000019400001238340013B8B4201DD02
:10172000013CF3E7002C0AD00325064BA400E35844
:101730000A000241044829000BF04EFD70BD04254B
:10174000F3E7C04658500110B84B011030B5D1B086
:1017500004000A0005008D35FF3543A9280006F076
:10176000C9FC00280CD051B030BD13480BF034FD3B
:1017700002992000FFF7C8FF104803A90BF02CFDC9
:1017800001AA43A9280006F0F2FC0028EBDB0DD0EB
:1017900001AB1B78012BE8D0022B03D008480BF0DB
:1017A0001BFDE5E707480BF017FDE1E743A928001B
:1017B00006F0CAFCD7E7C046C04B0110B04B011081
:1017C000D04B0110C84B011070B504008D30FF30B4
:1017D00006F0E2FC050328000BF0ABF9D6218905E1
:1017E0000BF06BF9061C0D480BF0F6FC29002000ED
:1017F000FFF78AFF2F200BF08BFC8021490320008C
:10180000FFF782FF0649301C0BF057F90BF0F2F995
:1018100002000B0003480BF0DFFC70BDD84B011039
:101820000000C842E84B0110F0B5CE46474680B5EF
:1018300083B004004C480BF09FFC4C480BF09CFC20
:1018400001200FF061FC4A4B186025008D35FF35F3
:101850004849280006F0FBFA002800D06EE0464810
:101860000BF08AFC2300583344490B600023984650
:101870008B60261D0433424A0091FF33310028005B
:1018800006F04AFB98239B009946A14404234A464C
:101890003100280006F0BEFB9827BF00E359013352
:1018A000E3513100280006F011FC04234A463100C0
:1018B000280006F0DDFB3100280006F05DFBE15951
:1018C00030480BF089FC5536FF36E2592E4930007E
:1018D0000AF0AAF983239B00E7182C4B3200390049
:1018E000280006F0EBFA3900280006F06BFB2848C8
:1018F00031000BF071FC27492000FFF727FF264835
:101900000BF06AFC2000FFF75FFF24480BF034FC6B
:101910008022234923484346019302330093002346
:10192000D20010F059F820480BF026FC0123237058
:10193000012003B0C0BCB946B046F0BD1B480BF057
:101940001BFC1B480BF018FC1A4808F024F91A4835
:101950000BF012FC074E3100280006F065FA31004A
:10196000280006F074FA7AE7F44B01100C4C0110D1
:10197000001F0020B80C00208C4C0110CC1500205A
:101980004C4B0110584B0110904B01100305000007
:10199000984B0110A04C0110A44C0110B44C011044
:1019A000D44C0110891C0010E84C01102C4C011083
:1019B000484C011060EA0000704C011082B070B514
:1019C0000492059305008D35FF3583239B00C418D1
:1019D000473BFF3B9B0004AA2100280006F048FB80
:1019E0002100280006F0EEFA70BC08BC02B01847CF
:1019F000F0B5DE4657464E464546E0B5964CA54402
:101A000006000A00954B1900F1A80AF00DF9C6234B
:101A10005B009846B0448C3BFF3BF1AADCA94046F2
:101A200006F04CFA831C06D0002809DB8C48F1A98B
:101A30000BF0D2FBE5E08B48F1A90BF0CDFB01E107
:101A40008948F1A90BF0C8FBFCE0F30016AA944604
:101A5000634458689B6899460BF0CCF804000D006D
:101A6000824F48460BF0C6F80090019122002B00EF
:101A700038000BF0B1FB0136002EE6DD7C480BF0A0
:101A8000ABFB5B200BF044FB0024002C09DD784805
:101A90000BF0A2FB5B200BF03BFB002443461593AD
:101AA0006DE0230116AA94466344D8681D69013489
:101AB000230163445E689F680BF09CF810901191BD
:101AC000381C0BF097F804900591301C0BF092F83D
:101AD00002900391281C0BF08DF800900191109A50
:101AE000119B64480BF078FBCFE7E3001B199B00C8
:101AF00016AA94466344D8691A6A1092596A8B46AA
:101B0000996A8A460134E20012199200624491688F
:101B100088461D6B5E6B9F6BDB6B99460BF06AF81A
:101B20001290139148460BF065F80E900F91381CF7
:101B30000BF060F80C900D91301C0BF05BF80A90E4
:101B40000B91281C0BF056F80890099140460BF0B9
:101B500051F80690079150460BF04CF8049005910F
:101B600058460BF047F80290039110980BF042F89A
:101B700000900191129A139B3F480BF02DFB132C00
:101B8000B3DD159B98463A480BF026FB5B200BF023
:101B9000BFFA00240BE023007533FF335B0016AA65
:101BA00094466344998835480BF016FB0134002CA9
:101BB000F1DD2F480BF010FB5B200BF0A9FA00249D
:101BC000002C31DD2A4F38000BF006FB5B200BF0B8
:101BD0009FFA16AAC4239B00D15CD49AD59B2848AF
:101BE0000491D89CD99D02940395D69CD79D0094CE
:101BF00001950BF0F1FA38000BF0EEFA0A200BF029
:101C000087FAC624A400230016AADCA9404606F0E1
:101C100001FAA04212D316991A480BF0DDFA5B20A4
:101C20000BF076FA002627E72300BC339B0016AAA8
:101C3000995812480BF0D0FA0134C1E7DCA94046AC
:101C400006F09AF9FF239B009D44F0BCBB46B246C8
:101C5000A946A046F0BDC04604FCFFFF904B011012
:101C6000004D0110344A0110544A01101C4D01105E
:101C7000284D01102C4D0110404D0110704D0110E8
:101C8000784D0110144D011010B5C4B04D49D1224A
:101C90000FA80BF0B9F80FA80BF09EFA0BE04A481A
:101CA0000BF09AFA494B1B689C69FEF717FE01007E
:101CB0002000FFF79DFE282010F050F944480BF05B
:101CC0008BFA0BF09DFAFF2101400B00623B132BB6
:101CD00074D89B003F4AD3589F463C4B1B689A6977
:101CE00098239B00D1583C480BF076FAE3E73B4839
:101CF0000BF072FA0BF084FAC0B2592803D03848BE
:101D00000BF03AFAD7E737480BF066FA0BF078FA9F
:101D1000C0B24328F3D139380BF0FAF980223249A6
:101D200032480023019314330093002392000FF0F4
:101D300053FEC0E72E480BF04FFAFEF7CFFD02002E
:101D40002C4902A809F070FF2B4802A90BF044FAB5
:101D50002A480BF041FA0BF053FAC0B2592803D0CD
:101D600027480BF009FAA6E74F380BF0D1F980228B
:101D700024492548002301931533009302AB9200B8
:101D80000FF02AFE97E721480BF026FA93E7204848
:101D90000BF0F2F90D4B1B6898691E49FFF7D6FC52
:101DA00089E71D480BF018FA084B1B689869FFF784
:101DB0000BFD80E70FA80BF00FFA7CE717480BF03C
:101DC0000BFA78E7284F01108C4D0110801E00207F
:101DD000884D0110FC4F0110A04D0110B84D0110AD
:101DE0001C4E0110E04D01100C4E0110FD150010AD
:101DF000384E0110904B0110604E0110784E0110CA
:101E0000B04E0110A44E011009150010C84E01106B
:101E1000D04E0110A04C0110E84E0110FC4E0110F4
:101E20000020704710B5074B1868002300220021DE
:101E30000FF098F8012801D1002010BD0120404288
:101E4000FBE7C046001F002010B5064B18681421A0
:101E50000FF0ACFA012801D1002010BD0120404252
:101E6000FBE7C046001F002010B5436A594380229B
:101E700052038818EFF3108472B6190012F038F983
:101E800084F31088002010BD10B50C001900436ABF
:101E90005C4380235B03E0188018EFF3108472B674
:101EA000029A12F00DF984F31088002010BD000092
:101EB00010B5406A41430548844661448918029A36
:101EC00018000AF0A1FF002010BDC046000010104D
:101ED00010B5002905D0FA229200002309F076FF00
:101EE00003E0FA21890009F033FF10BD10B5002B83
:101EF00002DB0260436010BD024B034A03483F21EE
:101F000008F00CFD204301103C4301107443011004
:101F100010B5040007F05EFF02000B002000FFF781
:101F2000E5FF200010BD000030B5664CA544FA2046
:101F3000800010F013F898E00134002C16DC282201
:101F40000021C6A80AF05AFF5F4B1B6818680A22D6
:101F5000C6A90FF083F90128EED1E300D0AA944678
:101F600063440433C6AA21CA21C3E5E70024002C38
:101F700001DD00241BE028220021C6A80AF03EFF54
:101F8000514B1B6858680A22C6A90FF067F901284F
:101F900001D00134EBE72301D0AA94466344C6AADA
:101FA0000C3323CA23C312681A60F2E70134132CDE
:101FB0001CDC28220021C6A80AF020FF424B1B6827
:101FC00098680A22C6A90FF049F90128EED1E3006A
:101FD0001B199B00D0AA94466344C6AA1C3323CA8B
:101FE00023C323CA23C323CA23C3DFE7002400E09B
:101FF0000134002C18DC28220021C6A80AF0FEFEBD
:10200000314B1B68D8680A22C6A90FF027F90128AE
:10201000EED123007533FF335B00D0AA94466344AE
:10202000C6AA12889A80E3E70024002C32DDC6A8F5
:10203000FFF750FA2022C6A9C720C00068440AF062
:10204000E3FE214B1B689C69C4229200D2A968461A
:102050000AF0DAFED09AD19B2000FFF7AFFCFA21FC
:1020600089001A4868440FF01DFF0FF0A1FD174BBF
:102070006B441860C62292000021D0A80AF0BEFE70
:10208000C4A8FFF745FFC498C599FFF721FFD0907A
:10209000002452E728220021C6A80AF0AFFE0A4B0E
:1020A0001B6858690A22C6A90FF0D8F8012801D088
:1020B0000134BAE72300BC339B00C699D0AA9950DB
:1020C000F6E7C0469CF9FFFF801E00205C0600007A
:1020D00010B5002107F052FD10BD0000B0B582B070
:1020E00002AF1500531C0832D208D2006C46A21A67
:1020F000954602AA1070002003E00C1801302478E5
:102100001454A842F9D3084896218900019100216E
:10211000009177310DF076FE023002D00020BD46EE
:10212000B0BD0120FBE7C046080E0020F0B585B029
:102130000D0016000F226A4410700D4C9627BF0048
:10214000019701230093772120000DF05BFE01979A
:102150000023009333002A00772120000DF07DFE3C
:10216000023002D0002005B0F0BD0120FBE7C046E0
:10217000080E002070B5040004A8057805A80078B2
:102180005326A155542162545022A3545223E5549E
:10219000013BE05420005030210001F04BF9104980
:1021A00000222000FEF700FE58230122E2540233F1
:1021B0002C32FF32E2520233C83AE2522100583147
:1021C0002200012001F0C4FA0500064902002000A7
:1021D000FEF7EAFD002D01D1012070BD0020FCE7D3
:1021E000685001107850011030B583B0040001230D
:1021F0000373184B0364184B4364184B8364142314
:10220000837301F06BF80500154902002000FEF70A
:10221000CBFD002D02D0002003B030BD2000503097
:10222000210001F077F805000E4902002000FEF7BA
:10223000BBFD002D01D00020EEE702230193013BFE
:1022400000930433082200212000FFF793FF0120B0
:10225000E2E7C0462D210010DD200010D120001043
:1022600090500110BC460110F0B5C64600B582B0D2
:1022700005008846FEF79EF82900012001F07AF853
:102280000200070023492800FEF78EFD002F33D1FE
:10229000290050312A00012001F06EF95C23EA5A2E
:1022A00053019B1A9B009B18DB00C418FEF772F8C1
:1022B000FA218900200009F04BFD01300FF04EFE9D
:1022C0000026042E1CDCFEF775F82B006A46073248
:1022D0004146012001F096F904000700FEF75AF884
:1022E0000D4922002800FEF75FFD002C08D00120D8
:1022F0000FF034FE0136E4E7FEF74CF8002002E070
:10230000002F04D1012002B080BCB846F0BD0020EF
:10231000F9E7C0469C500110B0500110F8B50C0010
:102320000AF007FC061CE22189050AF0C6FB071C1F
:10233000E08B0AF0FEFB051CEA2189050AF0BDFBD3
:10234000011C381C0AF099FB071C2023E05E0AF0F0
:10235000F5FB011C381C0AF0B0FB071CDC218905C9
:10236000301C0AF0AAFB061CE4218905281C0AF08F
:10237000A4FB011C301C0AF080FB011C0AF09DFB31
:10238000051C2223E0560AF0D9FB8321C9050AF077
:1023900094FB011C281C0AF090FB011C381C0AF05D
:1023A00071FBA06301490AF072FBF8BD0000A04573
:1023B000F0B5C64600B582B007000C00886BFC2162
:1023C00089050AF07AFB6C490AF057FB051C011CD1
:1023D0000AF073FB061C2E23E0560AF0AFFBDC214B
:1023E00089050AF06AFB011C301C0AF066FB061C1A
:1023F0002C23E05E0AF0A2FB291C0AF05EFB011C04
:102400000AF040FB311C0AF03DFBFA2189050AF075
:1024100054FB061C2A23E05E0AF090FB8F21C905BD
:102420000AF04BFB011C301C0AF02CFB0190282306
:10243000E0560AF083FB291C0AF03FFB291C0AF036
:102440003CFBE22189050AF038FB061C2623E05EEE
:102450000AF074FB291C0AF030FB011C301C0AF046
:1024600011FBD82189050AF028FBE02189050AF033
:1024700024FBFE2189050AF005FB051CA08C0AF04F
:1024800058FB011C281C0AF018FB051C38000AF038
:1024900050FB011C9320C0050AF0EFFA071C281C12
:1024A0000AF06EFB002864D0E621890501980AF045
:1024B00004FB011C381C0AF0E0FA30490AF0FDFA6E
:1024C000291C0AF0E4FA051C3223E05E0AF036FB10
:1024D000291C0AF0F2FA291C0AF0EFFAC02189053A
:1024E0000AF0EBFA071C3023E05E0AF027FBE0213C
:1024F00089050AF0E2FA291C0AF0DFFA8046EE218B
:102500008905281C0AF0D9FA061C011C0AF0D5FA24
:10251000011C301C0AF0D1FA061C3423E05C0AF0DE
:102520000DFBDC2189050AF0C8FA011C301C0AF0F9
:10253000C4FA061C4146381C0AF0A4FA311C0AF001
:10254000A1FA061C2F23E0560AF0F8FA8621C905E5
:102550000AF0B3FA011C301C0AF094FAF62189053E
:102560000AF0ABFA291C0AF08DFA02B080BCB8461A
:10257000F0BD0020F9E7C04600007A470050C3458F
:10258000F0B5C64600B506000C00886B44490AF059
:102590007EFA051C30000AF0CCFA061C208A0AF0EC
:1025A000C8FA8321C9050AF088FA071C14202056AE
:1025B0000AF0C4FAFC2189050AF07FFA291C0AF006
:1025C0007CFA011C381C0AF05DFA011C301C0AF070
:1025D00054FA061C608A0AF0ACFADA2189050AF07E
:1025E0006CFA071C152020560AF0A8FAE22189058A
:1025F0000AF063FA291C0AF060FAFE2189050AF044
:1026000041FA8046162020560AF098FAD62189050C
:102610000AF053FA291C0AF050FA291C0AF04DFA64
:10262000011C40460AF02EFA011C381C0AF045FA3B
:10263000311C0AF042FA061CE07D0AF07AFAE22127
:1026400089050AF03AFA071C182020560AF076FA93
:10265000D42189050AF031FA011C281C0AF02DFA50
:10266000391C0AF00FFA311C0AF027FA311C0AF063
:1026700024FA311C0AF006FA041C0A490AF054FA3A
:10268000002807D10021201C0AF048FA002802D0B7
:10269000002400E0034C201C80BCB846F0BDC046BE
:1026A0000000A0450000C842F0B5CE46474680B5C0
:1026B000A1B00C0017000AF03CFA80460120A040AF
:1026C0000AF037FA814610AE264D4022290030002C
:1026D0000AF09AFB29004031402268460AF094FB38
:1026E0003E23F8560AF02AFA1F490AF0E6F91F4974
:1026F0000AF0C8F9051CA400A0591D490AF0C7F941
:10270000FE2189050AF0BEF9291C0AF0D6F9051C3C
:102710006B46E05816490AF0BAF9FE2189050AF01D
:10272000B1F914490AF0C9F949460AF0C6F9041C7E
:102730008821C90540460AF0A0F9291C0AF0A7F92A
:10274000FE2189050AF09EF9011C201C0AF0B5F94A
:10275000011CFE2080050AF09AF921B0C0BCB946E0
:10276000B046F0BDC85001100000A0400080A74452
:102770000000C842BD37063470B503008020C00297
:10278000C8400B4A944663445C00E41880235B0114
:102790009C4664440AF0CDF906490AF08EF9051CFE
:1027A00020000AF0CBF9011C281C0AF070F970BD5A
:1027B00000FEFFFF00247449F0B5C64600B50500D1
:1027C0000C00C8235B00984200D91D001920205638
:1027D0000AF0B4F9F62189050AF06FF932490AF0D6
:1027E00051F9071C1A23E05E0AF0A8F9E0218905D7
:1027F0000AF063F92D490AF060F92D490AF042F90F
:1028000080461C2020560AF099F9EA2189050AF031
:1028100054F9061C28000AF08CF941460AF04DF9DB
:10282000FE2189050AF02EF9391C0AF046F9051C2B
:102830000E2020560AF082F9311C0AF03EF9291CBC
:102840000AF020F9051C3C23E05C0AF072F98121B2
:10285000C9050AF017F9011C8120C0050AF017F913
:10286000291C0AF02AF9051C3D23E0560AF066F9F6
:1028700010490AF022F9FE2189050AF003F9011C2A
:10288000FE2080050AF003F9011C281C0AF015F946
:1028900009490AF0F2F809490AF00FF90AF0A2F919
:1028A000C0B280BCB846F0BD000044426F12033A8B
:1028B00075021A3B6F12033B0000C8419A995940B8
:1028C000FC231B0198420CD2002302E08008013354
:1028D000DBB23F28FAD8C0B29B01DBB2C018C0B24D
:1028E0007047FF20FCE700280AD0036C002B0AD0B9
:1028F000436C002B0AD0836C002B0AD00020704759
:1029000001204042FBE701204042F8E7012040421D
:10291000F5E701204042F2E770B582B006000C00F6
:102920000800FFF7E0FF051E25D176B2002E25DB5B
:102930001023627B9A421ED06373266C6368012267
:1029400069460731F320B0474C23E054002817D1E3
:102950006B46D91D0B78102293430B70607B0240AD
:1029600013430B70666C636801227320B0474C23DD
:10297000E054002807D1280002B070BD0023D8E73A
:1029800002256D42F7E702256D42F4E770B582B08B
:102990000400FFF7A8FF051E0FD1266C6368012213
:1029A00069460731F320B0474C23E054002807D193
:1029B0006B46DA79102313406373280002B070BDB0
:1029C00002256D42F9E770B504000E0015001000F5
:1029D000FFF789FF002C0BD000280CD12378B342DD
:1029E00005D926704D22AB5C01210B43AB5470BD61
:1029F00001204042FBE701204042F8E710B50E4BB2
:102A0000984216D843011B1A9B001818C000DE21FB
:102A1000FF3109F09DF980B2002302E08008013304
:102A2000DBB23F28FAD8C0B29B01DBB2C018C0B2FB
:102A300010BDFF20FCE7C046820700008000101890
:102A4000036889005218116801601360704770B5FF
:102A500083009C58A6788B009B589D78247864B29C
:102A6000002C04DB1B785BB2002B0FDB70BD002455
:102A70001C57002CF6DAAD1BABB202339BB2012B14
:102A800001D9022DF2DDFFF7D9FFEFE7FFF7D6FFFF
:102A9000ECE7F0B5DE4657464E464546E0B587B012
:102AA00081468B4690461E001422002101A80AF0A0
:102AB000A5F93000FFF717FF8246002849D14B46A1
:102AC000002B4AD05B46002B4BD04346013B092BE1
:102AD00001D8002410E004235B429A4631E06300F1
:102AE0004A46515D01AAD154630001335A46515DF3
:102AF00001AAD1540134A4B22500444510D2337B3D
:102B0000002BECD14B465F19585D3100FFF704FFF5
:102B10008246630039787F220A4001A9CA54E3E75C
:102B20005346002B0DD1746C43465A007368013A2A
:102B300001A9087869460531A0474C23F0540028C4
:102B400013D1504607B0F0BCBB46B246A946A046DA
:102B5000F0BD01235B429A46F3E701235B429A46AC
:102B6000EFE701235B429A46EBE702235B429A467A
:102B7000E7E7F0B5D646474680B58FB005000F00B1
:102B80001400019298462E2302AA944663446E22B2
:102B90001A70643A00210BA80AF030F90A220021C9
:102BA00008A80AF02BF90A22002105A80AF026F944
:102BB0000A22002102A80AF021F9022F4BD0032F8C
:102BC00024D0012F00D08FE00BAB5A221A706888F6
:102BD0004146FFF7F1FD08AB187005AB64221A708F
:102BE000A888FFF76DFE02AB1870002323704346E0
:102BF0003A0008A90BA8FFF74CFF061E00D16BE0B6
:102C000030000FB0C0BCBA46B046F0BDEE68002E32
:102C10006CD0AB68002B6CD0002416E022005A3236
:102C20000BAB1A55AB686700D85B4146FFF7C4FD94
:102C300008AB18552200643205AB1A55F05BFFF75C
:102C40003FFE02AB18550134E4B22F7CA742E5D811
:102C5000019B1F70CBE7EB689A46002B4CD0AB680A
:102C6000002B4CD06B8A002B02D00026002417E0EA
:102C70000326FBE722005A320BAB1A55AB686700FC
:102C8000D85B4146FFF798FD08AB18552200643227
:102C900005AB1A555346DB5D02AA13550134E4B265
:102CA0002B7CA342E6D8019A13702F7C688AFFF729
:102CB000A5FE2F2302AA944663441870002E9FD1CC
:102CC000434601222F2161442E206044FFF7E1FE9C
:102CD000061E00D094E78AE743463A0002A905A8F9
:102CE000FFF7D7FE06008BE7012689E7012676422B
:102CF00086E70126764283E70126764280E70126B1
:102D000076427DE7F8B5CE46474680B507000E000F
:102D100090461C001800FFF7E6FD051E1FD1002E8F
:102D200020D0237B002B0FD0236C9946636842464A
:102D300031003800C8474C23E054002815D1280042
:102D4000C0BCB946B046F8BD21003800FFF7E4FD2D
:102D5000051EE9D180235B421F43FFB2E4E7012552
:102D60006D42ECE701256D42E9E702256D42E6E799
:102D700010B582B004006B46D91D00230B70030010
:102D80000122F020FFF7BEFF002803D16B46073376
:102D90001B78A36002B010BD70B58CB004000300B6
:102DA000172201A98A20FFF7ADFF002800D176E0A5
:102DB000002872D101AB2022995CDA7F09020A4314
:102DC000E28359781A7809020A43228402229A5629
:102DD0002226A25559791A7909020A43A284D9797F
:102DE0009A7909020A43E284082159562822A154FB
:102DF000D97A9A7A09020A436285597B1A7B0902B9
:102E00000A43A2850F2159562E22A1540E2159564C
:102E10000132A154D97C9A7C09020A432286597D49
:102E20001A7D09020A436286997D3422A1545D7E8F
:102E30001A7E0F2111402D0129432182D97D0901DC
:102E400012090A4362821A229A5622751B229A5646
:102E500062751C229A56A2755A7FE2751E229A56F6
:102E6000227623229A566276995D21229A5C090283
:102E70000A43628324229A5622772722995C0932D8
:102E80000A4012113C216254252299561832A1544D
:102E9000143A9B561B111532A3540CB070BD23007D
:102EA0000E221B216944E130FFF72CFF0028F4D1EA
:102EB0002300052229216944FFF724FF78E7000059
:102EC000F0B5DE4657464E464546E0B58BB08246E5
:102ED0000C0091461122002105A809F08FFF05265C
:102EE000002510E01F32134062461A43130022707F
:102EF00005AA117C10220A40134323705BE0002DC9
:102F000066D0013EF6B2002E00D1A2E0002D00D026
:102F10009FE05346180150441D30C0B24B46112269
:102F200005A9FFF7EFFE0500002C00D18FE005ABEF
:102F300018787F22010091438C4621700F221040A7
:102F400060705978A17099780903DF783F0139439F
:102F50001F793F0939430091597909039F793F014E
:102F60003943DF793F0939430191197A09025F7AC0
:102F700039438B465F7BBF00997B8A093A430292B3
:102F8000DF7BBF001B7C9A0917430F220A40039284
:102F90000F221A4090464A469268012AA2D0202366
:102FA0000B4062461A431300227005AA917B10223F
:102FB0000A40134323700023E356002B9FDB002DB0
:102FC0009FD14B469B6C4A4651682648984798E7E4
:102FD000E11C5A304B460122FFF794FE051E1BD020
:102FE000002D8ED149460198FFF798F9A060494617
:102FF0000098FFF7DDF9E06049465846FFF7C0FA50
:1030000020614B469B68012B1BD04A4603990298CE
:10301000FFF74AFB60611CE06078211D5030C0B2B0
:103020004B460122FFF76EFE051E00D069E760786F
:10303000611D6430C0B24B460122FFF763FE0500FC
:10304000CEE741463800FFF797FB606101E00125BC
:103050006D4228000BB0F0BCBB46B246A946A04664
:10306000F0BDC04610270000F0B5DE4657464E467C
:103070004546E0B59FB00400069089463322002102
:1030800011A809F0BBFE1E22002109A809F0B6FE16
:103090002368002B0BD04B46332211A91D20FFF7CC
:1030A00031FE019000280DD000231D0057E0636819
:1030B000002BF0D1069B9B68002BECD101235B42D7
:1030C0000193F1E74B461E2209A95020FFF71AFE93
:1030D0000190E9E721688A460978202002401143DF
:1030E0005246117021680A7811A8C35C9C461023CF
:1030F0006046034013430B702368597809AA515C5A
:10310000197121684B780A33D35CCB7021684B78F6
:103110001433D35C4B7123689A4649460398FFF7F2
:10312000FDF85346986023689A4649460298FFF78F
:103130003FF95346D860266849463800FFF720FA21
:1031400030614B469B68012B00D185E024684A46DC
:1031500005990498FFF7A8FA60610135EDB2022DD8
:1031600000D980E0019B002B7DD12B01EB18DBB255
:1031700011AAD15CAC0006988446644420687F267E
:10318000B1430170D05C26680F21084070705E1C4E
:103190002068965D8670981C165C3603D81C105CFF
:1031A00000010643181D105C000906430296581DD5
:1031B000105C00039F1DD75D3F013843DF1DD75DC5
:1031C0003F09384303901F000837D75D3F020920AD
:1031D00084469C446046105C07430D2084469C4412
:1031E0006046105C800084460E2083469B4458460F
:1031F000105C824680098046604646463043049013
:103200000F2084469C446046105C80008446103346
:10321000D25C900980466046464630438046504620
:10322000084005901140079149468968012900D15D
:1032300050E721680B7820225046024013430B7060
:103240002268137811A95846095C8C461021604603
:1032500001400B4313704FE7246807994046FFF77E
:103260008BFA606179E701981FB0F0BCBB46B246AB
:10327000A946A046F0BD000030B583B005006B46FE
:10328000E022DA716B462A3A9A71FFF72CFB041E92
:1032900004D12B7B002B04D0002C07D0200003B0DE
:1032A00030BD2800FFF772FB0400F5E72B00012278
:1032B0006946063168460730FFF7EBFB041EEDD187
:1032C000AB6C6968044898472B7B002BE6D128003B
:1032D000FFF75CFB0400E1E71027000010B50400D5
:1032E000FFF7CAFF230001222100D020FFF70AFDCB
:1032F000002807D12378612B09D12000FFF738FD82
:10330000002800D010BD2000FFF746FDFAE703209B
:103310004042F7E710B582B004000B000522694671
:103320007120FFF7EFFC002C20D0002819D16B464C
:103330005A7807231A4022706A46127992101A406E
:10334000E2706A46D2785109617092101340A370FE
:103350006B461B785BB2002B05DB6B461B795B0968
:10336000237102B010BD08232371FAE70120404207
:10337000F7E70000F0B583B007000D006B4674223C
:103380009A71002603E0002E22D0002C20D12B00C1
:103390000122694607317420FFF7B4FC041EF2D104
:1033A0006B46DA7903231E001640134210D06B4699
:1033B000D91D03239A430A702B0001226846063068
:1033C000FFF767FB0400AB6C69680E489847DAE7C3
:1033D000002F01D0002C02D0200003B0F0BD6B46BE
:1033E000DB79032293433A4013436A46D3712B009F
:1033F00001226946073168460630FFF74AFB0400A0
:10340000EAE7C0461027000030B583B004000B0087
:1034100000280CD06A46D51D012229007420FFF730
:1034200071FC2A7803231340237003B030BD0120C0
:103430004042FAE7F0B585B005000C004D4B1A6824
:1034400002921A7902AB1A7105220021684609F02E
:10345000D5FC21000F206844FFF7D6FF00280ED0CE
:10346000002D00D17EE000280DD00F236B441B7887
:10347000002B02D0002800D177E005B0F0BD21007C
:10348000FFF778FFECE702AB1878230005226946C6
:10349000FFF738FC4D230022E254002851D00028C9
:1034A000E3D1A81C22000521FFF78DFA0028DCD10A
:1034B000220005212800FFF786FA0028D5D1281D13
:1034C00022000821FFF77FFA0028CED16B461A7937
:1034D000EB789B001C261C210B40B2431A436B4621
:1034E0001A71DF7868781F233B4040010343DBB249
:1034F0006846C370A87880000140B3430B43694617
:10350000CB704B78287807218B4301400B436946E9
:103510004B702979082922D000201F23134049012C
:103520000B436A46137112787F231340C001034393
:103530006A46137023000522694602A8FFF7A9FA1C
:1035400093E7E81C22000721FFF73DFA002800D08E
:103550008BE7681C22000521FFF735FA9FE7012061
:103560000021DAE7012040427FE721001800FFF741
:1035700001FF82E7C050011070B582B006000C0058
:1035800015001C4B1A6800929B886A46938000299C
:103590002AD0481C2A000521FFF715FA002814D06C
:1035A000002824D163786A46D25CA3786946CB5C54
:1035B0009B1822788A5CD2180F4B53430F4A9818F5
:1035C000022E12D00E4A98180FE0A01C2A000521E6
:1035D000FFF7F9F9002801D0002006E02A000521B4
:1035E0002000FFF7F0F9DBE7002002B070BD0020FB
:1035F000FBE7C04648510110AB070000C5100000B2
:10360000AD140000F0B5D6464F464646C0B596B05C
:1036100004008A46160098460C22002113A809F0DF
:10362000EDFB01AD48220021280009F0E7FB1395CE
:1036300007AB14930DAB15934046FFF754F90028E0
:1036400000D079E05346002B00D179E0012C11D055
:10365000023CE4B2012C1DD9002401239846002E1F
:1036600000D171E03470404616B0E0BCBA46B146B5
:10367000A846F0BD42465146FFF722FC804600288E
:1036800058D153461B785BB2002BE8DB00240223A1
:103690009846E4E7414613A8FFF7E6FC804600247D
:1036A000002301E00133DBB2022B25D84246002A79
:1036B00009D19A0013A95258127852B2002AF1DAAD
:1036C0000134E4B2EEE700250CE013AA49462800D5
:1036D000FFF7BDF94B460133DBB299464B46022B4F
:1036E000F3D93D00012D0BD84346002B06D16B1CAE
:1036F000DBB21F009946F1E70025F3E7002100E067
:103700000021022911D84346002B0ED18A0013ABA9
:10371000D3584D006D18ED0055442A00A1CBA1C22D
:10372000A1CBA1C20131C9B2EBE7002C97D1022392
:10373000984694E7002492E701235B42984692E77B
:1037400001235B4298468EE701235B4298468AE755
:1037500070B582B005000E0014006B460022DA71CD
:10376000234B6A46138000293FD021000020FFF739
:1037700001FE002801D002B070BD23006A46073266
:1037800029003000FFF7F5F90028F4D123000222C8
:1037900001A97030FFF7B6FA0028ECD13278012A7F
:1037A0001CD00022012001A90B78C0000825AB43E2
:1037B00003430B704B786846C5790F20834328403C
:1037C00003434B70120130200240834313434B707C
:1037D000230002226846FFF75CF9CCE7A368012BBF
:1037E00001D00020DFE70132DDE701204042C2E7DF
:1037F0007071000030B503680A68934204D04968CC
:103800008B4207D0002030BD45684C68A542F6D1F8
:103810000120F8E743689A4201D00020F3E7012035
:10382000F1E730B5002306E09D00441922684D59A8
:103830006A4022600133022BF6DD30BD03681B0DA8
:10384000E022D20013420FD043680A6893420DD0A1
:103850008068496888420BD08B420BD0824201D0ED
:10386000002002E0012000E0002070470120FCE77A
:103870000120FAE70120F8E782B0019001AB1B6854
:10388000002B03D08B42FAD1012000E0002002B0CF
:103890007047283000E018000368002B03D08B42EB
:1038A000F9D11B6803607047836A0B6081627047BF
:1038B000004870470100020010B5FFF7F9FF000C47
:1038C00010BD10B5FFF7F4FF80B210BDC36E0366E4
:1038D000704710B500238365C365FFF7F7FF10BD80
:1038E00010B50400406D081AE16E401808F030FA77
:1038F000A36D8B4208D9646EC808235C072211406F
:10390000063A8A4013432354002010BD30B5CB0043
:103910001BD5194C03681A004A40144217D09A0567
:103920009215013213D0144C0C40144D1D40144A12
:103930002A4394420BD00C0DE022D2002240802575
:10394000ED00AA4207D0002004E00E4CE2E700237D
:103950000360012030BD890A8905890D9A0A920504
:10396000920D8A4205D364B2A4021B1903600020A1
:10397000F0E70020EEE7C04600FCFF7F00FC0F00F0
:103980000000F04F00FC0F708B059B1501335A426D
:1039900053415B189B059B0D04330268D3180360E9
:1039A0000020704710B5836EDB6A002B0ADD886843
:1039B0000130591C0123194308F0CAF9002903D02A
:1039C000002000E0002010BD0120FCE710B5FFF74B
:1039D00060FF002010BD0B6B9B0301D4C86A7047C9
:1039E000CB6A486B9842FAD21800F8E7036B034A97
:1039F000134049020B4303637047C046FFFDFFFFBE
:103A000030B5036B0D4C23400D4CA1420FD08D02FD
:103A10000C4C2C4323430363094B994209D0136890
:103A20004363074B994206D05368836330BD00243B
:103A3000F0E70023F4E70023F7E7C046FF03008028
:103A4000FF0300000000F04F036801330360002013
:103A50007047000010B5C36E8B4205D9806EC368F5
:103A60009847002807DC10BD064B074A8A21074803
:103A7000490006F053FF064B034A8B2103484900D7
:103A800006F04CFF3C520110A45E01105051011091
:103A90008051011010B5026B93059C0D002B01D1D4
:103AA000002911DBFF235B009C4201D9002911DCB6
:103AB000891801634B005B0889054A1E9141C907BB
:103AC0000B430363002010BD054B064A0648074917
:103AD00006F024FF064B034A0348064906F01EFF82
:103AE0008C510110745E011050510110D112000070
:103AF000C4510110D212000010B50C00CB68826EC8
:103B0000126BFF21180009F079F901235B42236051
:103B100010BDF8B50F000E68836E5C6A083C21008A
:103B2000300008F015F9A64212D3013808F0B6F8B3
:103B300002308000301A210008F00AF905004443E1
:103B4000341B08F0ABF88000241A3C602800F8BD54
:103B50000020FCE7F0B5DE4657464E464546E0B548
:103B600087B080468B4617000393109B9946119EA1
:103B7000139BF218836E5B6A9A4200D9E9E0C36E28
:103B8000002B00D1E1E04B4500D8E5E04D4694E044
:103B90005B465C689B68E218B24224D9B44207D9FC
:103BA000A21B0492139B9A4200D892E0049390E0E7
:103BB000A21B99469144139B994500D999465B46AF
:103BC000D968341B09194A46129809F01DF9129B4D
:103BD0004B4412934E44139B4A469B1A13936CE03A
:103BE000139B049375E0139B049372E07B68BA689F
:103BF0009918B14270D9B34205D99B1B049A9A42D5
:103C00006AD9049368E0991B91468944049A9145C6
:103C100000D99146F968F31AC9184A46129809F072
:103C2000F3F8129B4B4412934E44139B4A469B1A43
:103C3000139342E0129A524412925644059B049CFC
:103C40001C1B139B9C46A4446346139335E04346D8
:103C5000DB6E002B01D0AB426BD93D6043469B6EBF
:103C6000D969300008F074F80491731A9A467B60A1
:103C7000039BF41843469B6E9946D9696418013C2E
:103C8000200008F065F8641A4B465B6AA34200D92D
:103C90002300049A921B4946096BD2188A4200D924
:103CA0000A00BA604346986E4468FB680092524628
:103CB0002900A047002842DC34D1139B002B46D0BA
:103CC0005B46002B8CD01B68AB4200D160E7139B96
:103CD00004933B68AB4289D0139B039A9342B6D3BB
:103CE00043469B6E9946DB699A461900300008F0FE
:103CF0002FF80029ABD1139B9A45A8D85146049CB4
:103D0000200008F025F80591621A92464A4652684A
:103D1000140052460092129B320029004846A047E8
:103D2000002887D007B0F0BCBB46B246A946A046E3
:103D3000F0BD0B4B0B4A0C486B2106F0EFFD0B4B13
:103D4000084A0948762106F0E9FD4D46B5E700200E
:103D5000E8E754204042E5E754204042E2E7C0460D
:103D6000FC510110CC5E0110505101108051011026
:103D7000F0B5DE4657464E464546E0B589B080462A
:103D80008A4691469B46CE680B6907933C30FFF705
:103D900055FD002800D182E04B469B0A9B0500D1CF
:103DA0007FE04346DB6B9B0A9B059B0D5A46920ABC
:103DB0009205920D934276D9002706E005975B465F
:103DC000DB1B63404A461A4245D0079CA505AD154A
:103DD0006B1C5A4253411B199B059B0D1A0008325C
:103DE000B24262D80433F61A53461B680422039287
:103DF00007AA0292019600930423424600214046FE
:103E0000FFF7A8FE002852D1079B1BBA63405B0056
:103E10005B0807934B469B0A9B05CFD0220DE023FE
:103E2000DB0013408021C9008B42C7D1A10A89055C
:103E3000890D05975B46DB1B980A8005800D88423B
:103E4000BCD32149194021480143A14236D052B286
:103E50009202BF18B2E7013533D0A3059B0D149D24
:103E60009D4200D91D0053461A68129BF318039512
:103E7000139902910433019300922B0042460021D2
:103E80004046FFF767FE002811D1149B5A1B139B75
:103E90005819002108F0B2FF059B181907E0002708
:103EA00093E7002791E70A4F8FE70220404209B0CD
:103EB000F0BCBB46B246A946A046F0BD0220404237
:103EC000F5E702204042F2E700FC0F00000010403E
:103ED00000FCFFFF10B584B09C05A40D0294069C65
:103EE000019400240094FFF743FF04B010BD0000CC
:103EF00010B586B0140003AB0093084B084AFFF7D7
:103F0000E9FF002803DA831C06D1002004E003A99E
:103F10002000FFF786FC002006B010BD0C00F07FEB
:103F20000000F07FF0B5DE4657464E464546E0B508
:103F300089B081468A4693461C00139E149F129BAB
:103F4000002B07D1002009B0F0BCBB46B246A94601
:103F5000A046F0BD013B079307A9FFF7DAFD050076
:103F600021003800B0470028EDD1002DEBD001230F
:103F70002B409846022342469B1A9B00039305AAB6
:103F800002920022019200945A4651464846FFF799
:103F9000E1FD041ED7D10123AB43A34208DDA300FA
:103FA00005AA99583800B0470028CCD10134F2E76F
:103FB0009B0005AA9C584346023BED18D0E770B51C
:103FC00086B00400006801001031836E5B6A1568DA
:103FD00052680826039604AE0296019200950200EC
:103FE000FFF7B8FD00280ED1049B62689A4208D002
:103FF000059DA1688D4204D08B4202D0AA4200D018
:104000000130431E984106B070BD0000F0B5DE4699
:1040100057464E464546E0B5ADB008900E000592B5
:104020001C00369B9B463AAB1B8899463BAB1B88D2
:1040300006933CAB00229B5E9A46082200210BA807
:1040400008F0DCFE00255F46A3059B1501335A42AC
:1040500053411B199B059B0D0433059A90469844C8
:10406000F36898455BD3379B002B00DCF9E03B6895
:104070000D937B689B460837379B013B37930D9820
:10408000A64B389A1340399A4240190011400791C3
:104090001342D9D1389B9B0A9B0500D108E1022D20
:1040A0005FD80EAB98462A01531B9B0041465E50D9
:1040B0000992531B9B004344059A5A609C60DF6041
:1040C000379A1A61389A5A61399A9A614A469A839C
:1040D000069ADA8352461A843D9A5A623E9A9A6246
:1040E000D8625A461A630BAA343303CA03C3099A27
:1040F000521B920028324244131D3E930135079B08
:1041000039933893864B3D9300239A4606939946FC
:104110009AE7079D54465F46B246464694E73368A1
:10412000042203920DAA02924246019200930423B4
:10413000089A00211000FFF70DFD002800D0E5E0EF
:104140000D9B1BBA6340802424061C430D943368E6
:104150000B93434604330C93434605930BAB9B46AA
:104160008DE7704B704A7148714906F0D7FB6C4B74
:104170003D9A9A4200D167E72B0109935B1B9B0094
:104180000EAA904698443C220021404608F036FE94
:10419000099B5B1B9B0006AA20215218D650434660
:1041A000059A5A609C60DF60379A1A61389A5A61A2
:1041B000399A9A614A469A83069ADA8352461A8451
:1041C0003D9A5A623E9A9A620135079A93059B0D71
:1041D0009946930A9B059B0D4A46013206924A4630
:1041E0009B1A9BB253441BB29A465E4680239B05A2
:1041F0003993504B389300233793002701246442AE
:10420000059321E7002307951D00B0465646A246B8
:104210005C46BB463D9F0D9B9A05920D95421AD276
:104220006900491989006218615CC02080008446D9
:10423000614409059B0A9B059B0DF3189B021943DA
:104240009368526819433E98B84700285EDB00D057
:104250005FE70135DFE7079D54465F46B2464646B5
:10426000F2E60020002D51D0013D0EAB2A01511B7A
:104270008900CE585B185A6805929C68DF681A69F5
:1042800037925A6938929A6939929A8B9146DA8BA9
:10429000069220215A5E92465A6A3D929A6A3E924E
:1042A000DA6A0D921A6B93460BAA343303CB03C21E
:1042B000389B9B0A9B050AD00D9B9B0A9B059B0D77
:1042C000994500D9C0E6069A9A4200D8BCE60D9BF3
:1042D00007931B0D5B055A0D002B00D1B4E602239A
:1042E000FF339A4200D142E781235B009A4289D092
:1042F00053469902079B9C4661445A463E983D9B13
:104300009847002802DB00D19EE6ABE72DB0F0BC59
:10431000BB46B246A946A046F0BDC0460000F07FAD
:104320000D3900102C520110445E01105051011043
:10433000B303000000FC0F60F0B5DE4657464E4662
:104340004546E0B585B080468B4692461D00119FDC
:10435000139BFA18836E5B6A9A4255D954204042E7
:104360007DE053465A689B68D118B94221D9BA42B8
:1043700005D9D21B139B9A4250D91A004EE0D41B88
:104380001C19139B9C4200D91C005346D968BA1AC9
:1043900089182200129808F037FD129B9C46A4440D
:1043A000634612933F19139B1B1B13932CE0139A24
:1043B00034E0139A32E002235B422B6043469B6E4B
:1043C000D969380007F0C4FC7E1A6E600E9BFC1899
:1043D00043469B6E9946D9696418013C200007F05A
:1043E000B7FC641A4B461B6BA34200D92300AB6099
:1043F000EA68029301920096109B0F9A5946404634
:10440000FFF7B6FC00282ADB139B002B26D053466F
:10441000002BCCD01B680233A3D0139A2B68023335
:10442000C9D16B68AC681919B942C4D9BB42C2D8AA
:10443000D91B6418944200D91400E968FB1AC91802
:104440002200129808F0E0FC129B9C46A4446346AC
:1044500012933F19139B1B1B1393D5E7002005B044
:10446000F0BCBB46B246A946A046F0BDF0B5DE465C
:1044700057464E464546E0B587B0894690461F00F0
:10448000109B9B46139E00243B0007009A4619E0B0
:1044900053461B1B039504AA0292119AA21801927B
:1044A0005A460092424649463800FFF753FB00281F
:1044B00016D1129B19192A0004A80FF063FA0028DC
:1044C00007D16419B4420AD2351B082DE0D908255A
:1044D000DEE7002801DB022002E0012000E00020EE
:1044E00007B0F0BCBB46B246A946A046F0BD0000EE
:1044F000F0B5D646474680B587B007000C00059258
:1045000004930E68F31C40D8C36E9E4231D28D686E
:10451000836E9A46196A6D18013D280007F018FC51
:104520006D1A53469B689846E368626800953100AF
:104530005046C047061E22DC002827D1049B002BD2
:1045400012D001235B42059A1360E368039502933E
:1045500063680193236800932B0000213800FFF764
:1045600085FF002818DB19D121003800FFF7C4FAB5
:104570000CE00C4B0C4A0D48B32106F0CFF90C4B64
:10458000094A0A48B72106F0C9F90026300007B0E9
:10459000C0BCBA46B046F0BD0600F7E754267642E6
:1045A000F4E7C04634520110885E011050510110EA
:1045B00080510110F0B5DE46474680B583B0070054
:1045C0000C00009201930A9B98460B9D0D9E0233AE
:1045D00002D0C36E43450AD9AB19BA6E526A9342F0
:1045E00018D92D4B2D4A2E48E92106F097F92D4B6D
:1045F0002A4A2B48E82106F091F901333ED143467F
:104600002360BB6E196A280007F0A2FB691A61607B
:104610000023A360002E38D023684345EDD16268A3
:10462000AA42EAD8B96E096B5018A842E5D9531BC3
:104630008B469B44B34500D9B346E068AA1A80185C
:104640005A460C9908F0E0FB0C9B5B440C935D44CC
:104650005B46F61A6268AA1AA368934200D2130056
:10466000A360BA6E126B9A42D4D1019B009A2100CA
:104670003800FFF73DFF002808D1CBE70A4B074A77
:1046800083210748490006F049F9002003B0C0BC67
:10469000BB46B046F0BDC04690520110985E011076
:1046A0005051011058520110B452011010B50400BD
:1046B0000120404210602000FFF71AFF002804D1BB
:1046C000A06E03699847002800DC10BD024B034A26
:1046D0000348DD2106F022F980510110385E0110F7
:1046E0005051011070B584B00600150000688905AE
:1046F0008C0DB368A34200D923002A68696803932C
:10470000756802950191009202000021FFF7AEFE4C
:10471000002804D1B368A34201D002D2013004B012
:1047200070BD0220FBE7F0B5CE46474680B589B0A4
:104730000700884691460593109B002B0BD1013B47
:10474000129A13600023139A1360002009B0C0BCB2
:10475000B946B046F0BD109B013B079307A9FFF790
:10476000D8F9050011A93800FFF7D3F9060012E0C7
:104770000423039305AB0293A3000193059B0093CD
:1047800004234A4641463800FFF7E4F90028DDD10A
:104790000123A340ED1AB5420BD9A81B07F072FA0A
:1047A0001F24241A280007F073FA8442E0D9040079
:1047B000DEE7059B129A1360119B139A1360002089
:1047C000C4E70000F0B5CE46474680B589B08046C4
:1047D0000C0017004A6BC96A8A426DD28A1A914648
:1047E0009A4200D999464E4637E0DB0241D5022372
:1047F0005B42A363636BE363226B8023DB0213439F
:10480000236343469B6E5B6AE06B1D1AB54200D979
:104810003500226BD2023FD521000831A2889202D6
:10482000944622004032079205950497039025484C
:10483000624610430290244801900093079B002297
:104840004046FFF779FD002837D1636B5B1963633E
:10485000E36B5B19E3637F19761B002E2AD0236B71
:104860005A03C2D5E16B4246926E526A9142C8D158
:10487000BBE7A36A2200403221003C310391043996
:104880000291616B0191E16A009100214046FFF7BE
:104890004AFF0028B0D010E0220040320395029772
:1048A0000190A16B009100214046FFF753F90028C9
:1048B000CBD002E0484600E0002009B0C0BCB946B9
:1048C000B046F0BD0000102000FCF7FFF0B5DE465A
:1048D00057464E464546E0B587B083468A469146E0
:1048E0009846129E139F002417E043461B1B039516
:1048F00004AA0292119AA2180192109A00924A46B2
:1049000051465846FFF726F900280ED138682A008C
:1049100004A903F053FC38606419B44204D2351B77
:10492000082DE2D90825E0E7002007B0F0BCBB461F
:10493000B246A946A046F0BDF0B5DE4657464E4603
:104940004546E0B597B005000E0092460693C36E4B
:10495000002B08D01268934200D879E25246526880
:10496000934200D878E200231293139300279846CD
:10497000A9460DE0791CC80F091801230B401B1A2A
:104980009B0012A95B58D21A002A00DDB8460137F5
:10499000012F18DCBC0012AD2B19042203920293E4
:1049A0000023019353461B59009304234A460021D8
:1049B0004846FFF7CFF862590028DBD00300543394
:1049C000E5D083463CE24D464346D90F5B180122B1
:1049D0001340591A89005346CB583360434601337C
:1049E000D80F1B181A40131A99469B0052469B5821
:1049F000736012ABCB58B3600023F3609A46013B5F
:104A00009B46B0465346012B00DD0BE20EAAA14B9C
:104A100011CB11C24146083101277F4204223800E0
:104A200003F0CCFB0B905B4607930023089309939C
:104A30000593002644463DE1A0460300543301D1CE
:104A4000002322E08346FBE1A0463B0DF022D2008A
:104A50001340914A944663445A425341DBB214E0F6
:104A6000042203920DAA0292321D01922268009242
:104A70002A0000212800FFF76DF800284DD10D9A7B
:104A80000B9B9A424FD0A04600234246D468002C8C
:104A900000D18AE146460022B275002B0AD0AF6EE3
:104AA000396A200007F054F9002903D1089B002B34
:104AB00000D088E128003C303100FEF7BFFE00281E
:104AC0000FD0EB6B9B0A9BB259468A0A92B2100038
:104AD0005840800500D093E180231B065A461A43B4
:104AE0009346219B002B09D05B469B0A9B05B28A0B
:104AF0009B0D934200D91300219A13805B46002B33
:104B000000DB9DE19B0A9B059B0DB28A9A4200D86F
:104B100085E102235B429B4692E1A04603005433A9
:104B2000B2D083468CE10C9F3F0DFF0743467B408C
:104B30001F00E86A04220BA903F040FBE8620C9A0C
:104B400093059B15013359424B419B189B059B0DC7
:104B500004339B19E3602761059BA3820E9BA3612D
:104B60000F9BE361099BE37501235B420B93079B5A
:104B70009B469FE0A0460300543301D1002384E705
:104B800083465DE18021C90088421FD0C023DB003D
:104B9000984242D05205520D404B9A4200D0E9E073
:104BA000AB6E5B6A0822039210AA029201972268F8
:104BB00000922A0000212800FEF7CCFF002848D0F0
:104BC000543000D1EEE001230893D3E052B291B209
:104BD00005988446614489B2059131480799084097
:104BE000304901438B4212D00798411C00D1C1E0EB
:104BF0009B0A9B059B0D810A8905890D994200D26C
:104C0000B8E092028446944463460793B2E080235E
:104C10001B06079A1A430792ACE001231A40099237
:104C2000AB6E5B6A082203920EAA02920197226879
:104C300000922A0000212800FEF78CFF002800D1F6
:104C400098E0A0460300543301D100231DE78346BA
:104C5000F6E0012308938DE0A0460300543301D110
:104C6000002312E78346EBE00C9B079F3A005F406E
:104C70000D490F421AD002281BD1990A8905890DC6
:104C8000920A9205920D8A4213D3802212061A4389
:104C900007920EE0F05E011000FBFFFFFF05000031
:104CA00000FC0F000000F04F00FCFF7F01235B427F
:104CB00007934746BB059B1501335A425341DB1905
:104CC0009B059B0D0433F618AB6E5B6A04220392BE
:104CD0000CAA02920196226800922A000021280064
:104CE000FEF738FF002800D0A6E60B9804220CA996
:104CF00003F064FA0B900C9B1BBA7B4098460C9314
:104D000000D5A1E69A059215013253425A41424418
:104D10009205920D111D7118AB6E5B6A99423ED8D7
:104D20004146090DF020C0000140A020C000814292
:104D300000D195E6371D0BA90391029201972268D5
:104D400000922A0000212800FFF7C0FD002800D0B3
:104D500010E70C9B1A0DE021C900100008400A4220
:104D600000D00FE79B0A9B059B0D059A9A4201D83C
:104D7000013305930C99209B4B40069A1A4298D117
:104D800023681493159714AA2398229B9847002808
:104D900000DA61E700D067E70C9B079389E7A0463C
:104DA000002372E6A04600236FE61368526841466E
:104DB0000A604B604B469B0012AA9B588B600123F4
:104DC0009C46E2441EE601235B420D937B6A0DAADA
:104DD0000392109A02920194326800922A002800ED
:104DE000FFF774FD002804D00300543301D083463C
:104DF00026E0119A0D9B9B1A5A425341B37559E60E
:104E00005846013000D16CE69B059B0D9205920D32
:104E10009A4200D865E6124B9B468B4461E600231C
:104E20009B460DE0464633680E490F480F4A0192F3
:104E3000726800920E4A08F0CFF954235B429B46F9
:104E4000584617B0F0BCBB46B246A946A046F0BDD6
:104E500054235B429B46F3E754235B429B46EFE7B8
:104E600000FCFFFF50510110D85201107C45011089
:104E700056050000F0B5D6464F464646C0B58AB046
:104E800007000E001400002393610133D36105AACB
:104E9000284B21CB21C201239846012539E0264B1E
:104EA00026492748274A08F097F9542040423BE01A
:104EB00053460593E369069343465B0098460025F5
:104EC0000FE0012300E00123002B2BD1182399468A
:104ED000A14405A94846FEF78DFC0028DFD14545D1
:104EE000E6D0013507AB07973268089272680992DD
:104EF0000393154B029300230193144B0093144B1F
:104F00004A4621003800FFF717FD002801D0831C16
:104F10000AD1A3699A460133D5D0E3690133D0D0D1
:104F20000023D1E7022040420AB0E0BCBA46B146B5
:104F3000A846F0BDF05E01107C45011050510110F3
:104F400010530110B0120000BF3F001008000020F5
:104F5000FF03F07F10B584B001235B42002403946B
:104F6000029401940093FFF7E7FC04B010BD000029
:104F7000F0B5DE4657464E464546E0B593B00500CF
:104F80000E0005929946202200210AA807F036FF5C
:104F90000123119308AA624B11CB11C201239B4636
:104FA0000127109C631C00D180E0119B013300D1CC
:104FB0007AE00023002B00D07AE008A910A8FEF7C1
:104FC00019FC00280FD15F4516D001370024012CB1
:104FD0001ADCA31D9B000AAA99580598B04700281F
:104FE0001ED10134F3E74F4B4F495048504A08F067
:104FF000F3F85420404213E00894119B09935B4658
:105000005B009B460027E0E710AA0AA92800FFF7EB
:10501000A1FF8246002803D1002417E0831C13D08F
:1050200013B0F0BCBB46B246A946A046F0BD069BF5
:10503000059A02920196079A00922A000021280000
:10504000FEF770FF0028EBD10134A4B20AAB9B8AB3
:10505000A342A6D9A202374B134306AA0092364AAE
:105060000AA92800FEF736FF0028D7DB000D40050F
:10507000400D324B9842DAD04B46002BE4D08023CF
:105080009B009842E0D1D04602E001239C46E044D8
:105090004346012BD8DC43469B0006AAD15805980D
:1050A000B0470028F1D0BBE7012383E7012381E764
:1050B000AC6A0FE021004031A36A059A0292019682
:1050C000E26A00922A002800FEF72CFF00280ED08A
:1050D000A6E72468002C21D0A379012BF9D1236BFA
:1050E000882252031340802252029342E2D0236B63
:1050F000902252031340802292029342E9D1210070
:105100004031A36B059A02920196626B00922A00CD
:105110002800FEF707FF0028DBD081E700207FE7AB
:10512000F05E01107C450110505101101053011028
:10513000111200000800002000FC0F7002020000A5
:1051400070B50400406DE36DC018E16E06F000FE1E
:1051500061650023E365A26E536B216EDB008B4219
:1051600000D90B00A365606E526B002107F046FE6C
:105170000649012322002000FFF7FAFE051E01D197
:10518000280070BD2000FEF7A4FBF9E7E13800100D
:1051900030B583B004000D00E36DA26D934226D2BA
:1051A000616EDA088A5C07201840C240D20705D534
:1051B0000133E365236E013B2366EDE7606DC018A4
:1051C000E16E06F0C5FD2960E36D0133E365226EF3
:1051D000013A2266A26D934224D2616EDA088A5C9B
:1051E00007210B40DA40D207EED400201BE0226EEC
:1051F000002A05D02000FFF7A3FF0028CCD012E042
:10520000606D1818A36E996A06F0A2FD0B00074C9A
:105210000748084A0092084A210007F0DDFF1C20D9
:10522000404200E0002003B030BDC04650510110A4
:105230003C5301107C450110B102000070B584B0F0
:1052400006000C000025012D0DDC0135EB0FEA18DE
:1052500001211140C91A890061183000FFF798FF39
:105260000028F0D02FE00023A360220008320421A0
:1052700003910292019323680093042332000021DA
:105280003000FEF767FCA568002802D00300543305
:1052900019D1B26ED16A002909DD01310122114311
:1052A0006D18013D280006F053FD6D1AA56004231A
:1052B000E360053B23610022A282A361E361002336
:1052C000A375E375002004B070BD0000F0B5C646BC
:1052D00000B58AB005000E005BE031004031131BC1
:1052E000012203921A3202A8844662440292019477
:1052F000B26B00922A002800FEF72CFC002858D13F
:1053000029001031012303931A3302AA94466344FF
:1053100002930194099B009301232A002800FFF7C0
:1053200049F9002827D10134F26BA24247D9336BE7
:10533000DB02D2D531000831B3889B029C46330092
:1053400040330793012005901A3002AB9846404441
:10535000049003942848634618430290274801901C
:10536000121B0092079B00222800FEF7E5FF002891
:10537000C6D007003BE0030054331CD1099B2049F1
:105380002048214A0092214A07F026FF01235B4270
:105390002B6109A92800FFF7FBFE071E27D10999F9
:1053A0002800FEF757FB071E07D003005433E5D053
:1053B0001DE007001BE0070019E00024B4E7F06CD3
:1053C000E969AB6E1A6B07F01FFD2B6933646B69DB
:1053D0007364AB69B364290010312800FEF78CFBBD
:1053E000099BB363326B80239B0213433363380002
:1053F0000AB080BCB846F0BD0000102000FCF7FFEA
:1054000050510110685301107C450110D60C00006A
:1054100070B505000C004B6BCB63FEF757FA21000B
:105420002800FFF753FF002803D1236B014A1340E4
:10543000236370BDFFFFEFFFF0B5DE4657464E46D3
:105440004546E0B58BB004008846150099464EE00D
:10545000149B002B33D0149B013B089308A9200018
:10546000FEF757FB089B01330893A26E526A9342E2
:105470005ED000274B46B1461E00089BBB4248D970
:10548000DB1B0122039209AA0292019700962A00CF
:1054900000212000FEF75EFB002838D10123039392
:1054A00009AB02930197079B009301232A00414611
:1054B0002000FFF77FF8002808D10137DDE7079BC0
:1054C000159A13600023169A136029E0B146030071
:1054D00054331CD1079BBA2238493948394E0096BB
:1054E000120107F079FE01235B424246136007A9CF
:1054F0002000FFF74DFE061E12D107992000FEF78F
:10550000A9FA061EA4D003005433E3D008E0060035
:1055100006E04E46079B159A1360089B169A136087
:1055200030000BB0F0BCBB46B246A946A046F0BD69
:10553000013006F0ADFB8246431C9B464B46099367
:1055400000270593B1462E00250009E02C00350008
:10555000059B994603005433BCD00600E0E70137B1
:105560005F4522D2BC000423039309AB029301944C
:10557000079B00930123320041462800FFF71AF8E9
:10558000099B0028E2D15745E9D00422039209AAD9
:105590000292019400930423320000212800FEF7B8
:1055A000D9FA0028DBD00600BAE74E46079B159AC9
:1055B00013605B469B00169A1360B1E750510110CF
:1055C000685301107C450110F0B5C64600B588B09F
:1055D00006000C00150019000593236BDB0209D5AA
:1055E000636BE26A8C466344934200D21300F26F0D
:1055F0009A4231D3059B98464346002B00D19DE04B
:10560000236B8022920219001140134204D0E06BF8
:10561000B26E526A904255D1DB0249D4002902D1C0
:10562000626B002A24D13000FEF750F9A36B2100F1
:10563000403122003C320292043A0192626B0092A5
:1056400032003000FFF7F8FE002836D0226B8023AE
:105650001B03134323635FE021003000FFF7D8FEF4
:105660000028C7D0226B80231B031343236353E01E
:1056700027004037A36AE16A0020079007A803903B
:10568000200038300290013A019200913A00002146
:105690003000FFF748F8002804D139003000FEF749
:1056A0002BFAC0E7226B80231B031343236333E0F1
:1056B00002235B42A363636BE363226B80239B0241
:1056C00013432363B36E5F6AE36BFF1A474500D948
:1056D00047462100403103970295E36B0193A36B8A
:1056E0000093012332003000FEF764FF002817D03A
:1056F000030054330BD121003000FFF7E7FD0028F1
:10570000E7D0226B80231B031343236304E0226B47
:1057100080231B031343236308B080BCB846F0BD4D
:10572000636BDB196363E36BDB19E363ED194346DA
:10573000DB1B98463000FEF7C9F85DE70598EBE7FC
:10574000F0B599B005000C000B6B5A0307D5DA02CF
:1057500002D4012252420A64374A13402363236B66
:105760009A0365D5666BDB024ED45422002103A850
:1057700007F044FBA36A0D93E36A0E9301230F9392
:10578000636B109313AB2A0083CA83C312681A6039
:1057900001235B422B60626BE36A9A4219D20123B8
:1057A0000B226A4403A92800FFF70CF8002840DB0D
:1057B00001230B226A4421002800FFF705FF00287F
:1057C00037DB2B680133E6D001235B4213932B6058
:1057D000E1E72100403101232A002800FEF788FE7E
:1057E000002816D00300543323D1A36B1349144867
:1057F000144A0092144A07F0EFFC21002800FFF73A
:1058000065FD0028E5D014E0E36AB34200D233001E
:105810006363A36BA362636BE362236B0B4A134066
:10582000236380225202134323636663002000E057
:10583000002019B0F0BDC046FFFFFBFF5051011022
:10584000685301107C450110250D0000FFFFFDFF8E
:10585000F8B505000C0016001F00096BCB070DD52D
:10586000890304D52100FFF76BFF002805D13B0019
:10587000320021002800FEF7A5FFF8BD034B044AC3
:10588000DB210448090105F049F8C0468C5301109A
:10589000A85D011050510110F0B583B005000C0057
:1058A00016004F6B002B04D0012B21D0022B23D0EC
:1058B0003E006B6FB34237D3BE4224D0236B9B03B1
:1058C0000CD4019701A92800FEF723F907000096E0
:1058D00069462800FEF71DF9874216D021002800EE
:1058E000FFF72EFF002801D16663300003B0F0BD42
:1058F000D74216D4D619DCE7FEF76DF88619D8D54D
:1059000016204042F2E73000F0E7636C009A9342C1
:10591000E4D8A16C5B189A42E0D26663E26330007F
:10592000E4E716204042E1E716204042DEE710B5EA
:1059300000230022FFF7B0FF002800DB002010BD8D
:10594000F0B585B006000D0001921F000B6B9A07A1
:1059500023D55B0327D42B6B1A0504D5696BEA6A40
:10596000914200D26A636C6BE119726F91422DD83B
:105970009B031DD4EB6A9C421AD96B636B6B9C42F0
:1059800016D902ABDA1D0023137001332900300051
:10599000FFF71AFE0028F1DA16E00E4B0E4A0F4808
:1059A0000F4904F0BBFFFFF7CBFE0028D3D00BE07C
:1059B0003B00019A29003000FFF706FE002803DBB8
:1059C0002B6B084A13402B6305B0F0BD1B204042EF
:1059D000FAE7C046BC530110885D01105051011018
:1059E000170E0000FFFFF7FF00B583B000230193FF
:1059F000044901AAFFF7BCFA002800D1019803B0BE
:105A000000BDC046493A0010F0B5D646474680B5BD
:105A100085B001900E001400002393610133D3611F
:105A200002AA284B81CB81C201250127A369984690
:105A3000013336D0E369013331D00023002B32D15A
:105A400018239A46A24402A95046FDF7D3FE002827
:105A500015D1AF421CD001373368434526D0E169E8
:105A60007268914228D0424528D0994228D05246A7
:105A700021000198FFF76EFA0028D7D017E0124BEB
:105A800012491348134A07F0A7FB542040420EE086
:105A900043460293E36903936D000027DBE701238C
:105AA000CCE70123CAE70220404200E0002005B015
:105AB000C0BCBA46B046F0BD0020F8E70020F6E7CB
:105AC0000020F4E7F05E01107C45011050510110F8
:105AD000105301106F120000F0B585B00C001700D4
