:020000041000EA
:1000000000B5324B212058609868022188439860DF
:10001000D860186158612E4B002199600221596106
:100020000121F02299502B49196001219960352056
:1000300000F044F80222904214D00621196600F024
:1000400034F8196E01211966002018661A6600F04E
:100050002CF8196E196E196E052000F02FF8012189
:100060000842F9D1002199601B49196000215960AB
:100070001A491B48016001219960EB211966A021F2
:10008000196600F012F800219960164914480160C1
:100090000121996001BC002800D000471248134993
:1000A000086003C880F30888084703B5996A0420EC
:1000B0000142FBD001200142F8D103BD02B5186610
:1000C0001866FFF7F2FF186E186E02BD00000240BE
:1000D000000000180000070000035F00212200005C
:1000E000F4000018222000A00001001008ED00E03C
:1000F00000000000000000000000000074B24E7A12
:1001000000200420F7010010C3010010C5010010F9
:10011000C1010010C1010010C1010010C101001097
:10012000C1010010C1010010C1010010C701001081
:10013000C1010010C1010010C9010010CB01001065
:10014000CD010010CD010010CD010010CD01001037
:10015000CD010010CD010010CD010010CD01001027
:10016000CD010010CD010010CD010010CD01001017
:10017000CD010010CD010010CD010010CD01001007
:10018000CD010010CD010010CD010010CD010010F7
:10019000CD010010CD010010CD010010CD010010E7
:1001A000CD010010CD010010CD010010CD010010D7
:1001B000CD010010CD010010CD010010CD010010C7
:1001C00000BE00BE00BE00BE00BE00BEEFF3058054
:1001D000103800BEF2EB8871D0740110F874011071
:1001E0003402001090A31AE700201F49086006C8D7
:1001F00081F3088810471D48006800282FD10DA4FE
:100200000ECC002902D000F012F8F9E71849194A7B
:10021000002000E001C19142FCD1174988471749ED
:1002200088471749884700BEFDE701C901C29A42C5
:10023000FBD37047F8740110C00000207413002035
:10024000AC8701100000042000000420AC870110DE
:10025000001004200010042000000000704709482E
:100260000AF074FE0047000008ED00E0000000D036
:100270007813002030290220F99B0010D5060010C9
:10028000B99B00105756000006005250ABB36053A4
:10029000C45C011006005250861C0302DC5C011095
:1002A000060052505422A29DE45C011005005250F9
:1002B000DE65F468AC870110F8B5C0460448054B0C
:1002C00010B5834203D0044B002B00D0984710BDDB
:1002D0007413002074130020000000000648074932
:1002E000091A8B10C90FC91810B5491003D0044B57
:1002F000002B00D0984710BD741300207413002009
:100300000000000010B5074C2378002B09D1FFF73F
:10031000D5FF054B002B02D0044800E000BF0123AD
:10032000237010BD3015002000000000583301106C
:10033000054B10B5002B03D00449054800E000BF71
:10034000FFF7CCFF10BDC0460000000034150020B0
:1003500058330110002070470020704710B504008A
:10036000202200210BF062FE200010BD10B50348D2
:1003700000210CF049F800BE10BDC04658330110F2
:1003800010B5034800210CF03FF8FFF7EFFF10BD58
:100390007C33011010B58AB0040010F003FD099001
:1003A000206803685B68984721680B689B6868460B
:1003B0009847A368186800230A2269460FF0D2FE06
:1003C000218A09A810F068FEE7E7000010B50A00CE
:1003D000034800210CF018F8FFF7C8FF10BDC04615
:1003E0009433011070B505000C0007F0F7FB2000F6
:1003F00007F0F4FB0321280007F0A6FB03212000EF
:1004000007F0A2FB00220121280007F0B5FB002223
:100410000121200007F0B0FB024803490EF0D2FD95
:1004200070BDC046F80D0020A086010070B5040024
:100430000022082102200FF04DFE20600022102132
:1004400001200FF047FE6060002202210A200FF019
:1004500041FEA0600022202103200FF03BFEE0605F
:10046000992080000BF0EEFD050000230370982218
:100470009200835000F072FF2561200070BD0000E3
:10048000F0B5C64600B504008846164B036000254B
:100490000571154B036077270773144B03607020B9
:1004A0000BF0D0FD0600702200210BF0BFFD6C2385
:1004B000F754266100236361A361E361236224236F
:1004C000E5540133E554A5620733E5544346002B58
:1004D00003D1200080BCB846F0BD0321200000F00D
:1004E000B5FBF6E7583401106C340110E438011004
:1004F00070B523480BF058FF05210420FFF772FF69
:100500000EF0CAFD0C200BF09DFD04001D4E066090
:10051000002505711C4B036000F022FD1B4B1C6085
:1005200018200BF08FFD0400012100F051FA184B48
:100530001C6030200BF086FD04000121FFF7A0FFB6
:10054000144B1C6010200BF07DFD0400066005714B
:10055000114B0360032100F023FC104B1C6014209E
:100560000BF070FD0400FFF761FF0D4B1C600D48A0
:100570000BF01AFF0C4B186801210FF07BFB70BDCC
:10058000BC3301105834011080340110E41E0020E7
:10059000C81E00201C1D002010390110EC22002074
:1005A0005C1E0020D0330110D81E0020F0B5CE46CE
:1005B000474680B597B0FFF79BFF11AC142200218E
:1005C00020000BF033FD354B1293FE239B05149353
:1005D000FA239B002382324B1B681193314B9946BF
:1005E0001B6813938027BF002F49304D10AB019338
:1005F00002239846009323003A00280010F0EAFAFC
:100600000BAC1422002120000BF010FD284B0C93A2
:10061000FC239B050E93FA23DB002382254B1B68EA
:100620000B934B461B6804330D9323490AAB01938C
:100630000326009623003A00280010F0CBFA05AC00
:100640001422002120000BF0F1FC1C4B06931C4BE4
:100650000893C82323821B4B1B6805934B461B68DA
:1006600008330793184904AB0193434600932300D2
:100670003A00280010F0AEFA80221449144803AB67
:10068000019300960023520110F0A4FA002010F00C
:10069000DDFA17B0C0BCB946B046F0BDF433011066
:1006A000C81E00205C1E0020FC33011095030010C2
:1006B000083401101C1D0020103401101C340110DE
:1006C0000000A040EC220020243401103834011036
:1006D0004119001000B583B00BF0A2FE0C490D20AB
:1006E00040420EF017FD0FF028FA0A4B18608022E6
:1006F00009490A4800230193043300930023D200E0
:1007000010F068FA10F00AFB002003B000BDC046EC
:1007100081030010D81E002048340110AD050010E0
:1007200010B584B00A22002101A80BF07FFC002440
:1007300018E001AB00221A550A200BF001FE05E07B
:100740000A200BF0FDFD01AB00221A5501A811F0A3
:1007500031FE04B010BD002C17DD0E480BF054FE26
:10076000023C0134092CF1D8E3D00BF061FEC3B296
:100770000D2BE5D00A2BE3D0082BECD001AA1355A2
:10078000FF2318400BF0DCFDEBE707200BF0D8FD52
:10079000013CE6E78C34011070B505000C00080040
:1007A00012F07CFB02002100280012F071FA434293
:1007B0005841C0B270BD10B5002905D0FA22920090
:1007C00000230AF055FC03E0FA2189000AF012FC2C
:1007D00010BD70B504000D00202200210BF026FC96
:1007E0002B6923606B696360200070BD10B5002B1E
:1007F00002DB0260436010BD024B034A03483F2105
:1008000009F0DEF990340110AC340110E434011029
:1008100010B5040008F030FC02000B002000FFF7C8
:10082000E5FF200010BD000000B585B0017B0A483F
:1008300096239B0001930023009301330F226A4407
:100840000EF00BFC002804D00F236B44187805B081
:1008500000BDFF20FBE7C046F80D002070B5050085
:100860000E00002406E00A2008F0E7FA0A34A4B2D9
:10087000322C0CD82800FFF7D7FF000605D5002E34
:10088000F1D00A2010F064FCF0E7012000E0002025
:1008900070BD0000F0B5CE46474680B585B0050076
:1008A0000E0003799846002B07D000239846404657
:1008B00005B0C0BCB946B046F0BD642008F0BDFA32
:1008C00003AB394A1188198092789A700B236B44D4
:1008D000AC221A70002405E034480BF065FD731E4D
:1008E000BB4255D82700B4425AD2013430483200B6
:1008F00021000BF089FD2F480BF056FD297B2E4877
:1009000096239B0001930023009301330B226A443A
:100910000EF084FB142008F090FA00212800FFF765
:100920009DFF0028D8D025480BF03EFD297B2248AA
:1009300096239B00019300230093033303AA0EF038
:100940006DFB00212800FFF789FF8146002808D0B1
:100950002800FFF769FF030711D419480BF024FDA5
:10096000BDE712480BF020FDFA20C00008F065FA40
:10097000731EBB42B6D913480BF016FDB2E7124BFB
:10098000010018000BF040FD01232B71C8468EE7D3
:10099000FA20C00008F051FA0A480BF005FDA1E763
:1009A0000A480BF001FD82E7543601107C35011036
:1009B000283501105C350110F80D00209C35011020
:1009C000D8350110C0350110F8350110303601104E
:1009D00010B504000A4B036000230371094B036048
:1009E00038230373084B036000230361436100292C
:1009F00001D1200010BD0321FFF74CFFF9E7C046ED
:100A0000583401106C34011064360110F0B589B00F
:100A100004000579002D02D1280009B0F0BD2A4B51
:100A20001A8869468A839B788B77017B27489623AF
:100A30009B00019300230093033307AA0EF0EEFA04
:100A400001212000FFF70AFF051EE5D005AE217B3E
:100A50001E4896239B000193002300930633320027
:100A60000EF0FBFA72781202B37813431B01F1788F
:100A70000F091F430F220A401202337913431B024E
:100A8000707918430BF06DF911490BF02EF9D6214E
:100A900089050BF02AF90F490BF007F9206138009E
:100AA0000BF05FF90C490BF020F9D62189050BF00A
:100AB0001CF9606102A8FFF7ABFE02980399FFF7EB
:100AC0007AFEA060A8E7C04658360110F80D002055
:100AD00000004843000048420000C84210B5002909
:100AE00005D0FA22920000230AF0C2FA03E0FA21AC
:100AF00089000AF07FFA10BD70B504000D002022B5
:100B000000210BF093FA6B692360AB696360EB69BA
:100B1000A3602B6AE360200070BD000010B5002BBD
:100B200002DB0260436010BD024B034A03483F21D1
:100B300009F046F890340110AC340110E43401108F
:100B400010B5040008F098FA02000B002000FFF72F
:100B5000E5FF200010BD000010B5531DD8B20728D6
:100B60001BD883000F48C3589F460F480BF04CFC1E
:100B700010BD0E480BF048FCFAE70D480BF044FCA2
:100B8000F6E70C480BF040FCF2E70B480BF03CFC9E
:100B9000EEE70A480BF038FCEAE709480BF034FCB2
:100BA000E6E7C04684370110703601109036011018
:100BB000BC360110EC36011010370110343701102B
:100BC0005C37011030B589B004000079002801D1EC
:100BD00009B030BD6846FFF7B3FF00980199FFF7F1
:100BE0007DFF0500206996226423520002A900F0CF
:100BF000E1FF0028ECD002AB049A6261059AE26141
:100C0000069AA261079A226219782C22A154597877
:100C1000083AA1549A782523E254A3685B1BA36287
:100C2000D6E710B5962164224900FFF7CBFF10BD2F
:100C300030B583B006AC247807AD2D7800690195F6
:100C4000009400F059FF03B030BD0000F0B5D64667
:100C50004F464646C0B582B007000E00037999465C
:100C6000002B08D000239946484602B0E0BCBA46A3
:100C7000B146A846F0BD0A2008F0DFF8002405E0E0
:100C800023480BF091FB731E434535D8A046A6427E
:100C90003AD901341F48320021000BF0B5FB386906
:100CA00000F048FF051EEBD039690800503001F014
:100CB000DDFF8246386918495246FFF74DFF53461B
:100CC000002B03D015480BF06FFBDCE714480BF04A
:100CD0006BFB14480BF068FB022301930124009482
:100CE0000333082200213800FFF7A2FF0E480BF063
:100CF0005BFB3C71A946B7E7FA20C00008F09DF8FD
:100D00000A480BF051FBC1E709480BF04DFBABE77C
:100D1000D8370110A4370110F83701100838011036
:100D2000303801105438011078380110A038011003
:100D3000B838011002000079002810D0084B1B6859
:100D4000E021C9010B4007490B60074B04211960E2
:100D5000034B1B68DB05FBD5014B5B689381704738
:100D600000C0044000D0044000E0044070B504001E
:100D70000D00202200210BF059F9AB8923802000BF
:100D800070BD10B504001F2106F0DEFE0022002118
:100D9000200006F0F1FE0021200006F007FF10BD44
:100DA00010B504000EF078F91A20FFF7EAFF0123CE
:100DB000237102480BF0F8FA012010BDF038011041
:100DC00082B000226B46D91D06E08369DB06FCD4A5
:100DD00003680B7001320131002AF6D06B46D879D6
:100DE00002B0704700B59DB0304B186801235B42DC
:100DF00000930233002201210EF0ACFE642010F0BB
:100E0000A7F92B49152007F03DF80121152007F01F
:100E10000FF8284B50229A635A6B38231340264A06
:100E2000136008E003A812F039F80200234B03A96D
:100E3000180011F053FA0122214B1868524203A9FD
:100E40000FF00CFB0128F6D11E4903A8FFF7A4FC04
:100E50000028E7D11C4903A8FFF79EFC0028E1D138
:100E60001A4903A8FFF798FC0028DBD1184903A80A
:100E7000FFF792FC0028D5D1164903A8FFF78CFC98
:100E80000028CFD1144903A8FFF786FC0028C9D158
:100E9000124903A8FFF780FC0028C3D1104903A81A
:100EA000FFF77AFC0028C6D0BCE7C046D81E002059
:100EB000E50E0010008003403490034078130020BA
:100EC000B01500201C390110243901102C390110F3
:100ED000343901103C390110443901104C390110EA
:100EE0005439011000B583B002E0184B00221A708B
:100EF000174B9B69DB0626D4002301931448FFF7A8
:100F00005FFF124A1378D9B20133DBB21370114B71
:100F100058540A2803D01378DBB2622BE8D90B4B64
:100F20001B78DBB20B490022CA540B4B1868002314
:100F300001AA0FF0F5F9019B002BD6D0074B8022B8
:100F400052051A60D1E703B000BDC0462429022033
:100F5000008003404C150020B015002004ED00E097
:100F600010B582B00379002B02D0002002B010BD72
:100F70001E480BF019FA96211D4C8901200008F03B
:100F8000A1FB0221082006F0DFFD0221092006F066
:100F9000DBFD002301220821200008F061FB002175
:100FA000200008F073FB13480BF0FEF9124811F013
:100FB0008EF912480BF0F8F9002264210A200FF094
:100FC00089F80F4B18600F480BF0EEF980220E499C
:100FD0000E480023019302330093002392000FF088
:100FE000F9FD0B480BF0E0F90120BFE75C39011077
:100FF000008003407C390110781300209C390110D7
:10100000B0150020BC390110D8390110E50D0010D1
:10101000E439011030B5084B1C685D680460456018
:101020009C68DD688460C5601C695D690461456118
:1010300021229B5C037630BD7813002070B504003C
:10104000274B1B681E6931005931FF3111F0E2FE58
:10105000051E15D0224B1B6818698D30FF3021000A
:1010600006F0C5FB831C14D0002817DB1D482100A7
:101070000BF0CAF9002D16D000200FF0E7FD70BD6F
:1010800083239B00F11830008D30FF3006F020FCE8
:10109000E0E7154821000BF0B7F9EBE71348210012
:1010A0000BF0B2F9E6E70E4C2368186902005932DA
:1010B000FF328325AD0041198D30FF300C4B06F017
:1010C000A9FB2368186941198D30FF3006F026FC12
:1010D000236819695931FF3106480BF095F9CBE7C0
:1010E0005C1E00203C3A0110FC3901101C3A011032
:1010F000030500006C3B011070B505000C000948A9
:101100000BF052F9084928008D30FF3006F038FB0B
:10111000002C02D1002CFDD170BD04480BF044F925
:10112000F8E7C046503A0110B00C0020783A0110A0
:10113000F8B53B4C236818698326B60081198D30B9
:10114000FF3006F0C5FB236818698D30FF3006F0CC
:101150003DFB236818690021FFF7CEFF236818695B
:1011600030498D30FF3006F01EFB236818690423D8
:101170002D4A011D8D30FF30FF3306F04BFB2368F5
:1011800018699827BF00C219011D8D30FF30042354
:1011900006F0ECFB23681A690121D1511869011D81
:1011A0008D30FF3006F03EFC23681869C219011D1E
:1011B0008D30FF30042306F007FC23681869011DF9
:1011C0008D30FF3006F084FB23681B69D95917481E
:1011D0000BF01AF923681B6918005930FF30DA59EF
:1011E000134909F073FE2368186902005932FF326F
:1011F00081198D30FF300F4B06F00CFB2368186906
:1012000081198D30FF3006F089FB23681969593147
:10121000FF3109480BF0F8F800200FF017FDF8BD7A
:101220005C1E0020B00C0020143B0110203B01107C
:10123000583B011003050000603B011070B503240A
:10124000002C15DBA0000019400001238340013B66
:101250008B4201DD013CF3E7002C0AD00325064B4D
:10126000A400E3580A000241044829000BF0CCF81E
:1012700070BD0425F3E7C046703F0110803B0110AC
:1012800030B5D1B004000A0005008D35FF3543A903
:10129000280006F0DBFB00280CD051B030BD13480D
:1012A0000BF0B2F802992000FFF7C8FF104803A91D
:1012B0000BF0AAF801AA43A9280006F004FC0028B4
:1012C000EBDB0DD001AB1B78012BE8D0022B03D058
:1012D00008480BF099F8E5E707480BF095F8E1E7C7
:1012E00043A9280006F0DCFBD7E7C046883B011085
:1012F000783B0110983B0110903B011070B5040041
:101300008D30FF3006F0F4FB050328000AF029FDBC
:10131000D62189050AF0E9FC061C0D480BF074F88B
:1013200029002000FFF78AFF2F200BF009F8802109
:1013300049032000FFF782FF0649301C0AF0D5FC64
:101340000AF070FD02000B0003480BF05DF870BD61
:10135000A03B01100000C842B03B0110F0B5CE46E2
:10136000474680B583B004004B480BF01DF84B484E
:101370000BF01AF801200EF0C7FF494B186025004A
:101380008D35FF354749280006F00DFA00286CD14D
:1013900045480BF009F82300583344490B600023FB
:1013A00098468B60261D0433414A0091FF3331007B
:1013B000280006F05DFA98239B009946A144042377
:1013C0004A463100280006F0D1FA9827BF00E359B9
:1013D0000133E3513100280006F024FB04234A4680
:1013E0003100280006F0F0FA3100280006F070FA0B
:1013F000E15930480BF008F85536FF36E2592E49CE
:10140000300009F063FD83239B00E7182B4B32006B
:101410003900280006F0FEF93900280006F07EFAAF
:10142000274831000AF0F0FF26492000FFF728FF87
:1014300025480AF0E9FF2000FFF760FF23480AF083
:10144000B3FF80222249234843460193012500959A
:10145000D2000FF0BFFB20480AF0A6FF2570012044
:1014600003B0C0BCB946B046F0BD1C480AF09CFFB2
:101470001B480AF099FF1B4807F0DFFC1A480AF0E6
:1014800093FF084E3100280006F07AF93100280059
:1014900006F089F97CE7C046BC3B0110D43B011043
:1014A000DC1E0020B00C0020543C0110B4150020BC
:1014B000143B0110203B0110583B011003050000B4
:1014C000603B0110683C01106C3C01107C3C011039
:1014D0009C3C0110D9160010B03C0110F43B0110E7
:1014E000103C011060EA0000383C011082B070B579
:1014F0000492059305008D35FF3583239B00C418A6
:10150000C53BFF3B04AA2100280006F05DFA21003C
:10151000280006F003FA70BC08BC02B018470000AF
:10152000F0B5DE4657464E464546E0B5BBB0050031
:101530000A005F4B19002DA809F0C8FCC6235B0008
:101540009846A8448C3BFF3B2DAA18A9404606F0BC
:1015500061F9831C06D0002809DB56482DA90AF042
:1015600053FF6FE054482DA90AF04EFF98E053480E
:101570002DA90AF049FF93E051480AF045FF5B208E
:101580000AF0DEFE0023002B07DD4D480AF03CFF89
:101590005B200AF0D5FE002433E01A0106A98C4630
:1015A0006244D068126991465D1C2B0163445A68FD
:1015B00092469B689B460AF035FC06000F00414CA2
:1015C00058460AF02FFC0490059150460AF02AFC78
:1015D0000290039148460AF025FC009001913200E8
:1015E0003B0020000AF010FF2B00CCE723000C3357
:1015F0005B0006AA94466344998833480AF004FFC6
:101600000134042CF2DD2E4C20000AF0FDFE5B209C
:101610000AF096FE06AF4023F95C109A119B2B4E00
:1016200004911498159902900391129813990090BF
:10163000019130000AF0E8FE20000AF0E5FE0A20E1
:101640000AF07EFE482306AA18A9404606F08EF945
:10165000472821D906991E480AF0D6FE5B200AF0D9
:101660006FFE0025002D87DCEB0006AA944663443C
:1016700058689B6899460AF0D5FB06000F00154C88
:1016800048460AF0CFFB0090019132003B00200059
:101690000AF0BAFE0135E5E718A9404606F018F948
:1016A0003BB0F0BCBB46B246A946A046F0BDC04622
:1016B000583B0110C83C0110FC3901101C3A0110C4
:1016C000F03C0110F43C0110083D0110103D0110E8
:1016D000DC3C0110E43C011010B5B8B04249A32233
:1016E0000FA80AF0A9FC0FA80AF08EFE0BE03F48F5
:1016F0000AF08AFE3E4B1B681C69FFF711F80100D7
:101700002000FFF70DFF28200FF022FD39480AF0D6
:101710007BFE0AF08DFEFF2101400B00643B112B84
:101720005ED89B00344AD3589F4634480AF06CFE7A
:101730000AF07EFEC0B2592803D031480AF034FEC8
:10174000E1E74F380AF0FCFD80222E492E480023A5
:10175000019314330093002392000FF03BFAD2E779
:101760002A480AF051FEFEF7DBFF0200284902A8D2
:1017700009F0ACFB274802A90AF046FE26480AF009
:1017800043FE0AF055FEC0B2592803D023480AF0A0
:101790000BFEB8E74F380AF0D3FD802220492148DC
:1017A000002301931533009302AB92000FF012FA5D
:1017B000A9E71D480AF0F8FD0D4B1B6818691B4985
:1017C000FFF75EFD9FE71A480AF01EFE084B1B68F4
:1017D0001869FFF793FD96E70FA80AF015FE92E748
:1017E00014480AF011FE8EE7783E0110243D0110E6
:1017F0005C1E0020203D01101C3F01103C3D0110EB
:10180000743D0110643D011031110010903D011034
:10181000583B0110B83D0110D03D0110083E0110A9
:10182000FC3D01103D100010203E0110683C0110ED
:10183000383E01104C3E01100020704710B5074B98
:1018400018680023002200210EF08CFC012801D131
:10185000002010BD01204042FBE7C046DC1E0020F6
:1018600010B5064B186814210EF0A0FE012801D116
:10187000002010BD01204042FBE7C046DC1E0020D6
:1018800010B5436A5943802252038818EFF310843D
:1018900072B6190011F008FD84F31088002010BD05
:1018A00010B50C001900436A5C4380235B03E01809
:1018B0008018EFF3108472B6029A11F0DDFC84F305
:1018C0001088002010BD000010B5406A4143054853
:1018D000844661448918029A18000AF0ADFB002082
:1018E00010BDC0460000101010B5002905D0FA2226
:1018F0009200002309F0BCFB03E0FA21890009F003
:1019000079FB10BD10B5002B02DB0260436010BDF7
:10191000024B034A03483F2108F052F9903401106A
:10192000AC340110E434011010B5040007F0A4FB3E
:1019300002000B002000FFF7E5FF200010BD0000B3
:1019400030B5AFB0FA2080000FF002FC6EE0013439
:10195000002C16DC2022002112A80AF067FB3C4B69
:101960001B6818680A2212A90EF078FD0128EED132
:10197000E3001AAA94466344043312AA21CA21C37D
:10198000E5E70024002C01DD00241BE020220021DB
:1019900012A80AF04BFB2E4B1B6858680A2212A9AA
:1019A0000EF05CFD012801D00134EBE723011AAAF7
:1019B0009446634412AA0C3323CA23C312681A60E4
:1019C000F2E70134042C17DC2022002112A80AF0CF
:1019D0002DFB1F4B1B6898680A2212A90EF03EFDD2
:1019E0000128EED123000C335B001AAA944663440D
:1019F00012AA12889A80E4E712A8FFF70BFB2022B4
:101A000012A924A80AF018FB114B1B681C6940227C
:101A10001CA968460AF010FB1A9A1B9B2000FFF7CE
:101A200065FDFA2189002DA80FF036FB0FF0BAF9F9
:101A30002D90482200211AA80AF0F8FA10A8FFF702
:101A400073FF10981199FFF74FFF1A9000247FE75A
:101A50005C1E002010B5002107F0E2F910BD000067
:101A6000B0B582B002AF1500531C0832D208D200C4
:101A70006C46A21A954602AA1070002003E00C18CA
:101A8000013024781454A842F9D3084896218900DB
:101A900001910021009177310DF0C0FA023002D09F
:101AA0000020BD46B0BD0120FBE7C046F80D002078
:101AB000F0B585B00D0016000F226A4410700D4C71
:101AC0009627BF00019701230093772120000DF096
:101AD000A5FA01970023009333002A007721200004
:101AE0000DF0BBFA023002D0002005B0F0BD01209D
:101AF000FBE7C046F80D002070B5040004A8057887
:101B000005A800785326A155542162545022A354AD
:101B10005223E554013BE05420005030210001F0F5
:101B200035F9034900222000FFF716F8012070BDA7
:101B3000803F011030B583B0040001230373184BBC
:101B40000364184B4364184B83641423837301F0BC
:101B500071F80500154902002000FEF7FDFF002D79
:101B600002D0002003B030BD20005030210001F031
:101B70007DF805000E4902002000FEF7EDFF002D64
:101B800001D00020EEE702230193013B00930433D0
:101B9000082200212000FFF7AFFF0120E2E7C04646
:101BA000B11A0010611A0010551A0010903F011070
:101BB000F8370110F0B583B004000E005821012061
:101BC0006054023162525C22A3522100583122003B
:101BD00001F06AFA0500244902002000FEF7BCFF6C
:101BE000002D02D0002003B0F0BD2100012001F043
:101BF0006DF8020007001D492000FEF7ADFF002F21
:101C000001D00020EFE7210050312200012001F037
:101C10005FF95C23E25A53019B1A9B009B18DB007F
:101C2000C018FA21890009F0E5F901300FF090FAA7
:101C3000042D13DC23006A4607323100012001F035
:101C40008DF9020007000A492000FEF785FF002FEA
:101C500004D001200FF07CFA0135E9E7002F01D113
:101C60000120C0E70020BEE79C3F0110B43F0110F7
:101C7000C83F0110F8B50C000AF073F8061CE22109
:101C800089050AF032F8071CE08B0AF06AF8051C97
:101C9000EA2189050AF029F8011C381C0AF005F828
:101CA000071C2023E05E0AF061F8011C381C0AF0D2
:101CB0001CF8071CDC218905301C0AF016F8061CEC
:101CC000E4218905281C0AF010F8011C301C09F0D9
:101CD000ECFF011C0AF009F8051C2223E0560AF06B
:101CE00045F88321C9050AF000F8011C281C09F0F9
:101CF000FCFF011C381C09F0DDFFA063014909F05D
:101D0000DEFFF8BD0000A045F0B5C64600B582B0C4
:101D100007000C00886BFC21890509F0E6FF6C497F
:101D200009F0C3FF051C011C09F0DFFF061C2E2370
:101D3000E0560AF01BF8DC21890509F0D6FF011CEA
:101D4000301C09F0D2FF061C2C23E05E0AF00EF8CE
:101D5000291C09F0CAFF011C09F0ACFF311C09F075
:101D6000A9FFFA21890509F0C0FF061C2A23E05EBD
:101D700009F0FCFF8F21C90509F0B7FF011C301CD9
:101D800009F098FF01902823E05609F0EFFF291C85
:101D900009F0ABFF291C09F0A8FFE221890509F031
:101DA000A4FF061C2623E05E09F0E0FF291C09F0D1
:101DB0009CFF011C301C09F07DFFD821890509F02A
:101DC00094FFE021890509F090FFFE21890509F0C3
:101DD00071FF051CA08C09F0C4FF011C281C09F030
:101DE00084FF051C380009F0BCFF011C9320C005CE
:101DF00009F05BFF071C281C09F0DAFF002864D0FB
:101E0000E6218905019809F070FF011C381C09F0D2
:101E10004CFF304909F069FF291C09F050FF051CEF
:101E20003223E05E09F0A2FF291C09F05EFF291CA5
:101E300009F05BFFC021890509F057FF071C30231B
:101E4000E05E09F093FFE021890509F04EFF291CAF
:101E500009F04BFF8046EE218905281C09F045FF5B
:101E6000061C011C09F041FF011C301C09F03DFF5C
:101E7000061C3423E05C09F079FFDC21890509F0B8
:101E800034FF011C301C09F030FF061C4146381C91
:101E900009F010FF311C09F00DFF061C2F23E0563E
:101EA00009F064FF8621C90509F01FFF011C301CE1
:101EB00009F000FFF621890509F017FF291C09F038
:101EC000F9FE02B080BCB846F0BD0020F9E7C0467C
:101ED00000007A470050C345F0B5C64600B506007D
:101EE0000C00886B444909F0EAFE051C300009F03B
:101EF00038FF061C208A09F034FF8321C90509F048
:101F0000F4FE071C1420205609F030FFFC2189053F
:101F100009F0EBFE291C09F0E8FE011C381C09F051
:101F2000C9FE011C301C09F0C0FE061C608A09F0C5
:101F300018FFDA21890509F0D8FE071C1520205664
:101F400009F014FFE221890509F0CFFE291C09F0F0
:101F5000CCFEFE21890509F0ADFE804616202056F4
:101F600009F004FFD621890509F0BFFE291C09F0FC
:101F7000BCFE291C09F0B9FE011C404609F09AFE7E
:101F8000011C381C09F0B1FE311C09F0AEFE061C24
:101F9000E07D09F0E6FEE221890509F0A6FE071CB6
:101FA0001820205609F0E2FED421890509F09DFE93
:101FB000011C281C09F099FE391C09F07BFE311C1C
:101FC00009F093FE311C09F090FE311C09F072FEFD
:101FD000041C0A4909F0C0FE002807D10021201C7A
:101FE00009F0B4FE002802D0002400E0034C201CBD
:101FF00080BCB846F0BDC0460000A0450000C84205
:10200000F0B5CE46474680B5A1B00C00170009F0E8
:10201000A8FE80460120A04009F0A3FE814610AE34
:10202000264D4022290030000AF006F829004031F0
:10203000402268460AF000F83E23F85609F096FE62
:102040001F4909F052FE1F4909F034FE051CA40087
:10205000A0591D4909F033FEFE21890509F02AFE29
:10206000291C09F042FE051C6B46E058164909F090
:1020700026FEFE21890509F01DFE144909F035FEF2
:10208000494609F032FE041C8821C905404609F082
:102090000CFE291C09F013FEFE21890509F00AFE39
:1020A000011C201C09F021FE011CFE20800509F006
:1020B00006FE21B0C0BCB946B046F0BDE03F0110FD
:1020C0000000A0400080A7440000C842BD3706348D
:1020D00070B503008020C002C8400B4A9446634498
:1020E0005C00E41880235B019C46644409F039FEDF
:1020F000064909F0FAFD051C200009F037FE011C15
:10210000281C09F0DCFD70BD00FEFFFF00247449AF
:10211000F0B5C64600B505000C00C8235B00984228
:1021200000D91D001920205609F020FEF62189054E
:1021300009F0DBFD324909F0BDFD071C1A23E05E02
:1021400009F014FEE021890509F0CFFD2D4909F0C1
:10215000CCFD2D4909F0AEFD80461C20205609F02B
:1021600005FEEA21890509F0C0FD061C280009F0DA
:10217000F8FD414609F0B9FDFE21890509F09AFDF7
:10218000391C09F0B2FD051C0E20205609F0EEFDA9
:10219000311C09F0AAFD291C09F08CFD051C3C230B
:1021A000E05C09F0DEFD8121C90509F083FD011C19
:1021B0008120C00509F083FD291C09F096FD051C4E
:1021C0003D23E05609F0D2FD104909F08EFDFE21B5
:1021D000890509F06FFD011CFE20800509F06FFDE7
:1021E000011C281C09F081FD094909F05EFD09491F
:1021F00009F07BFD09F00EFEC0B280BCB846F0BD10
:10220000000044426F12033A75021A3B6F12033BFF
:102210000000C8419A995940FC231B0198420CD2F6
:10222000002302E080080133DBB23F28FAD8C0B2B5
:102230009B01DBB2C018C0B27047FF20FCE700284A
:102240000AD0036C002B0AD0436C002B0AD0836C9D
:10225000002B0AD00020704701204042FBE70120FC
:102260004042F8E701204042F5E701204042F2E712
:1022700070B582B006000C000800FFF7E0FF051EF5
:1022800025D176B2002E25DB1023627B9A421ED028
:102290006373266C6368012269460731F320B047F7
:1022A0004C23E054002817D16B46D91D0B7810221F
:1022B00093430B70607B024013430B70666C636842
:1022C00001227320B0474C23E054002807D1280096
:1022D00002B070BD0023D8E702256D42F7E7022562
:1022E0006D42F4E770B582B00400FFF7A8FF051E49
:1022F0000FD1266C6368012269460731F320B0478D
:102300004C23E054002807D16B46DA7910231340A0
:102310006373280002B070BD02256D42F9E770B505
:1023200004000E0015001000FFF789FF002C0BD0F1
:1023300000280CD12378B34205D926704D22AB5C1E
:1023400001210B43AB5470BD01204042FBE701204B
:102350004042F8E710B50E4B984216D843011B1ABD
:102360009B001818C000DE21FF3108F043FE80B248
:10237000002302E080080133DBB23F28FAD8C0B264
:102380009B01DBB2C018C0B210BDFF20FCE7C04605
:102390008207000080001018036889005218116835
:1023A00001601360704770B583009C58A6788B005D
:1023B0009B589D78247864B2002C04DB1B785BB2B8
:1023C000002B0FDB70BD00241C57002CF6DAAD1B70
:1023D000ABB202339BB2012B01D9022DF2DDFFF724
:1023E000D9FFEFE7FFF7D6FFECE7F0B5DE4657463B
:1023F0004E464546E0B587B081468B4690461E0066
:102400001422002101A809F011FE3000FFF717FF88
:102410008246002849D14B46002B4AD05B46002B10
:102420004BD04346013B092B01D8002410E0042384
:102430005B429A4631E063004A46515D01AAD1549D
:10244000630001335A46515D01AAD1540134A4B24C
:102450002500444510D2337B002BECD14B465F194D
:10246000585D3100FFF704FF8246630039787F2210
:102470000A4001A9CA54E3E75346002B0DD1746CFE
:1024800043465A007368013A01A908786946053144
:10249000A0474C23F054002813D1504607B0F0BC9D
:1024A000BB46B246A946A046F0BD01235B429A4610
:1024B000F3E701235B429A46EFE701235B429A462A
:1024C000EBE702235B429A46E7E7F0B5D64647467C
:1024D00080B58FB005000F001400019298462E239E
:1024E00002AA944663446E221A70643A00210BA833
:1024F00009F09CFD0A22002108A809F097FD0A2294
:10250000002105A809F092FD0A22002102A809F085
:102510008DFD022F4BD0032F24D0012F00D08FE050
:102520000BAB5A221A7068884146FFF7F1FD08ABE1
:10253000187005AB64221A70A888FFF76DFE02AB15
:1025400018700023237043463A0008A90BA8FFF730
:102550004CFF061E00D16BE030000FB0C0BCBA4685
:10256000B046F0BDEE68002E6CD0AB68002B6CD08E
:10257000002416E022005A320BAB1A55AB686700F4
:10258000D85B4146FFF7C4FD08AB18552200643202
:1025900005AB1A55F05BFFF73FFE02AB185501344F
:1025A000E4B22F7CA742E5D8019B1F70CBE7EB6814
:1025B0009A46002B4CD0AB68002B4CD06B8A002B7A
:1025C00002D00026002417E00326FBE722005A323F
:1025D0000BAB1A55AB686700D85B4146FFF798FD17
:1025E00008AB18552200643205AB1A555346DB5D23
:1025F00002AA13550134E4B22B7CA342E6D8019A17
:1026000013702F7C688AFFF7A5FE2F2302AA944639
:1026100063441870002E9FD1434601222F2161444C
:102620002E206044FFF7E1FE061E00D094E78AE703
:1026300043463A0002A905A8FFF7D7FE06008BE73C
:10264000012689E70126764286E70126764283E75E
:102650000126764280E7012676427DE7F8B5CE4630
:10266000474680B507000E0090461C001800FFF793
:10267000E6FD051E1FD1002E20D0237B002B0FD09E
:10268000236C99466368424631003800C8474C23A2
:10269000E054002815D12800C0BCB946B046F8BDAA
:1026A00021003800FFF7E4FD051EE9D180235B42DD
:1026B0001F43FFB2E4E701256D42ECE701256D42BF
:1026C000E9E702256D42E6E710B582B004006B46EB
:1026D000D91D00230B7003000122F020FFF7BEFF7D
:1026E000002803D16B4607331B78A36002B010BDEE
:1026F00070B58CB004000300172201A98A20FFF7EF
:10270000ADFF002800D176E0002872D101AB202275
:10271000995CDA7F09020A43E28359781A78090240
:102720000A43228402229A562226A25559791A79FE
:1027300009020A43A284D9799A7909020A43E284F8
:10274000082159562822A154D97A9A7A09020A43B3
:102750006285597B1A7B09020A43A2850F215956CB
:102760002E22A1540E2159560132A154D97C9A7CB3
:1027700009020A432286597D1A7D09020A436286AC
:10278000997D3422A1545D7E1A7E0F2111402D01C6
:1027900029432182D97D090112090A4362821A2242
:1027A0009A5622751B229A5662751C229A56A27559
:1027B0005A7FE2751E229A56227623229A56627614
:1027C000995D21229A5C09020A43628324229A5667
:1027D00022772722995C09320A4012113C21625467
:1027E000252299561832A154143A9B561B111532C2
:1027F000A3540CB070BD23000E221B216944E130AC
:10280000FFF72CFF0028F4D1230005222921694479
:10281000FFF724FF78E70000F0B5DE4657464E4646
:102820004546E0B58BB082460C009146112200214E
:1028300005A809F0FBFB0526002510E01F32134018
:1028400062461A431300227005AA117C10220A4026
:10285000134323705BE0002D66D0013EF6B2002EDC
:1028600000D1A2E0002D00D09FE053461801504453
:102870001D30C0B24B46112205A9FFF7EFFE05003F
:10288000002C00D18FE005AB18787F220100914326
:102890008C4621700F22104060705978A170997891
:1028A0000903DF783F0139431F793F09394300911C
:1028B000597909039F793F013943DF793F0939434A
:1028C0000191197A09025F7A39438B465F7BBF0019
:1028D000997B8A093A430292DF7BBF001B7C9A09ED
:1028E00017430F220A4003920F221A4090464A468D
:1028F0009268012AA2D020230B4062461A4313009B
:10290000227005AA917B10220A40134323700023F2
:10291000E356002B9FDB002D9FD14B469B6C4A4614
:1029200051682648984798E7E11C5A304B460122E7
:10293000FFF794FE051E1BD0002D8ED1494601984D
:10294000FFF798F9A06049460098FFF7DDF9E060CD
:1029500049465846FFF7C0FA20614B469B68012B59
:102960001BD04A4603990298FFF74AFB60611CE0BE
:102970006078211D5030C0B24B460122FFF76EFE39
:10298000051E00D069E76078611D6430C0B24B4617
:102990000122FFF763FE0500CEE741463800FFF74E
:1029A00097FB606101E001256D4228000BB0F0BC8F
:1029B000BB46B246A946A046F0BDC046102700005F
:1029C000F0B5DE4657464E464546E0B59FB004009A
:1029D000069089463322002111A809F027FB1E2208
:1029E000002109A809F022FB2368002B0BD04B46DD
:1029F000332211A91D20FFF731FE019000280DD0D0
:102A000000231D0057E06368002BF0D1069B9B68F4
:102A1000002BECD101235B420193F1E74B461E22D0
:102A200009A95020FFF71AFE0190E9E721688A46BC
:102A300009782020024011435246117021680A781B
:102A400011A8C35C9C4610236046034013430B70DF
:102A50002368597809AA515C197121684B780A33A7
:102A6000D35CCB7021684B781433D35C4B712368F3
:102A70009A4649460398FFF7FDF853469860236845
:102A80009A4649460298FFF73FF95346D8602668B0
:102A900049463800FFF720FA30614B469B68012B0E
:102AA00000D185E024684A4605990498FFF7A8FA02
:102AB00060610135EDB2022D00D980E0019B002B51
:102AC0007DD12B01EB18DBB211AAD15CAC000698CA
:102AD0008446644420687F26B1430170D05C266838
:102AE0000F21084070705E1C2068965D8670981CEF
:102AF000165C3603D81C105C00010643181D105CE0
:102B0000000906430296581D105C00039F1DD75D07
:102B10003F013843DF1DD75D3F09384303901F0055
:102B20000837D75D3F02092084469C446046105C0C
:102B300007430D2084469C446046105C8000844618
:102B40000E2083469B445846105C8246800980468E
:102B500060464646304304900F2084469C446046BD
:102B6000105C800084461033D25C90098046604639
:102B70004646304380465046084005901140079134
:102B800049468968012900D150E721680B78202245
:102B90005046024013430B702268137811A958461F
:102BA000095C8C461021604601400B4313704FE7CF
:102BB000246807994046FFF78BFA606179E701982E
:102BC0001FB0F0BCBB46B246A946A046F0BD00000F
:102BD00030B583B005006B46E022DA716B462A3AC5
:102BE0009A71FFF72CFB041E04D12B7B002B04D021
:102BF000002C07D0200003B030BD2800FFF772FB87
:102C00000400F5E72B0001226946063168460730CB
:102C1000FFF7EBFB041EEDD1AB6C696804489847E5
:102C20002B7B002BE6D12800FFF75CFB0400E1E7DB
:102C30001027000010B50400FFF7CAFF230001228F
:102C40002100D020FFF70AFD002807D12378612B4F
:102C500009D12000FFF738FD002800D010BD20006A
:102C6000FFF746FDFAE703204042F7E710B582B0D0
:102C700004000B00052269467120FFF7EFFC002CD1
:102C800020D0002819D16B465A7807231A402270A9
:102C90006A46127992101A40E2706A46D278510957
:102CA000617092101340A3706B461B785BB2002BCF
:102CB00005DB6B461B795B09237102B010BD08234D
:102CC0002371FAE701204042F7E70000F0B583B036
:102CD00007000D006B4674229A71002603E0002E57
:102CE00022D0002C20D12B0001226946073174200C
:102CF000FFF7B4FC041EF2D16B46DA7903231E0001
:102D00001640134210D06B46D91D03239A430A7014
:102D10002B00012268460630FFF767FB0400AB6C0E
:102D200069680E489847DAE7002F01D0002C02D0DE
:102D3000200003B0F0BD6B46DB79032293433A4099
:102D400013436A46D3712B00012269460731684656
:102D50000630FFF74AFB0400EAE7C04610270000F0
:102D600030B583B004000B0000280CD06A46D51D96
:102D7000012229007420FFF771FC2A7803231340F5
:102D8000237003B030BD01204042FAE7F0B585B0B2
:102D900005000C004D4B1A6802921A7902AB1A71A9
:102DA00005220021684609F041F921000F206844FE
:102DB000FFF7D6FF00280ED0002D00D17EE00028BE
:102DC0000DD00F236B441B78002B02D0002800D1BC
:102DD00077E005B0F0BD2100FFF778FFECE702AB2C
:102DE0001878230005226946FFF738FC4D2300229E
:102DF000E254002851D00028E3D1A81C220005216C
:102E0000FFF78DFA0028DCD1220005212800FFF70A
:102E100086FA0028D5D1281D22000821FFF77FFA65
:102E20000028CED16B461A79EB789B001C261C211A
:102E30000B40B2431A436B461A71DF7868781F2340
:102E40003B4040010343DBB26846C370A878800072
:102E50000140B3430B436946CB704B782878072178
:102E60008B4301400B4369464B702979082922D0D6
:102E700000201F23134049010B436A461371127847
:102E80007F231340C00103436A46137023000522C9
:102E9000694602A8FFF7A9FA93E7E81C2200072178
:102EA000FFF73DFA002800D08BE7681C22000521BF
:102EB000FFF735FA9FE701200021DAE701204042C1
:102EC0007FE721001800FFF701FF82E7D83F0110DC
:102ED00070B582B006000C0015001C4B1A680092F9
:102EE0009B886A46938000292AD0481C2A00052125
:102EF000FFF715FA002814D0002824D163786A4619
:102F0000D25CA3786946CB5C9B1822788A5CD21885
:102F10000F4B53430F4A9818022E12D00E4A98189E
:102F20000FE0A01C2A000521FFF7F9F9002801D0C5
:102F3000002006E02A0005212000FFF7F0F9DBE77A
:102F4000002002B070BD0020FBE7C04660400110C9
:102F5000AB070000C5100000AD140000F0B5D64668
:102F60004F464646C0B596B004008A4616009846BD
:102F70000C22002113A809F059F801AD48220021C4
:102F8000280009F053F8139507AB14930DAB159374
:102F90004046FFF754F9002800D079E05346002B53
:102FA00000D179E0012C11D0023CE4B2012C1DD9F2
:102FB000002401239846002E00D171E03470404671
:102FC00016B0E0BCBA46B146A846F0BD42465146EE
:102FD000FFF722FC8046002858D153461B785BB28D
:102FE000002BE8DB002402239846E4E7414613A8BF
:102FF000FFF7E6FC80460024002301E00133DBB24A
:10300000022B25D84246002A09D19A0013A952580A
:10301000127852B2002AF1DA0134E4B2EEE7002568
:103020000CE013AA49462800FFF7BDF94B460133CF
:10303000DBB299464B46022BF3D93D00012D0BD84C
:103040004346002B06D16B1CDBB21F009946F1E70B
:103050000025F3E7002100E00021022911D84346B2
:10306000002B0ED18A0013ABD3584D006D18ED0024
:1030700055442A00A1CBA1C2A1CBA1C20131C9B242
:10308000EBE7002C97D10223984694E7002492E7BF
:1030900001235B42984692E701235B4298468EE704
:1030A00001235B4298468AE770B582B005000E00A6
:1030B00014006B460022DA71234B6A461380002904
:1030C0003FD021000020FFF701FE002801D002B010
:1030D00070BD23006A46073229003000FFF7F5F97A
:1030E0000028F4D12300022201A97030FFF7B6FABC
:1030F0000028ECD13278012A1CD00022012001A93D
:103100000B78C0000825AB4303430B704B7868462F
:10311000C5790F208343284003434B7012013020B0
:103120000240834313434B70230002226846FFF79B
:103130005CF9CCE7A368012B01D00020DFE7013266
:10314000DDE701204042C2E77071000030B503683E
:103150000A68934204D049688B4207D0002030BDF2
:1031600045684C68A542F6D10120F8E743689A42C9
:1031700001D00020F3E70120F1E730B5002306E09D
:103180009D00441922684D596A4022600133022B88
:10319000F6DD30BD03681B0DE022D20013420FD0D4
:1031A00043680A6893420DD08068496888420BD012
:1031B0008B420BD0824201D0002002E0012000E0CF
:1031C000002070470120FCE70120FAE70120F8E722
:1031D00082B0019001AB1B68002B03D08B42FAD167
:1031E000012000E0002002B07047283000E0180005
:1031F0000368002B03D08B42F9D11B680360704732
:10320000836A0B60816270470048704701000200CA
:1032100010B5FFF7F9FF000C10BD10B5FFF7F4FF74
:1032200080B210BDC36E0366704710B5002383657E
:10323000C365FFF7F7FF10BD10B50400406D081A15
:10324000E16E401807F0D6FEA36D8B4208D9646E7C
:10325000C808235C07221140063A8A4013432354CE
:10326000002010BD30B5CB001BD5194C03681A00E7
:103270004A40144217D09A059215013213D0144CCB
:103280000C40144D1D40144A2A4394420BD00C0D9F
:10329000E022D20022408025ED00AA4207D0002083
:1032A00004E00E4CE2E700230360012030BD890AF0
:1032B0008905890D9A0A9205920D8A4205D364B256
:1032C000A4021B1903600020F0E70020EEE7C046CF
:1032D00000FCFF7F00FC0F000000F04F00FC0F70AF
:1032E0008B059B1501335A4253415B189B059B0D7F
:1032F00004330268D31803600020704710B5836E52
:10330000DB6A002B0ADD88680130591C0123194350
:1033100007F070FE002903D0002000E0002010BD5F
:103320000120FCE710B5FFF760FF002010BD0B6B1C
:103330009B0301D4C86A7047CB6A486B9842FAD2A3
:103340001800F8E7036B034A134049020B43036379
:103350007047C046FFFDFFFF30B5036B0D4C2340A7
:103360000D4CA1420FD08D020C4C2C432343036320
:10337000094B994209D013684363074B994206D021
:103380005368836330BD0024F0E70023F4E7002393
:10339000F7E7C046FF030080FF0300000000F04F86
:1033A00003680133036000207047000010B5C36E4E
:1033B0008B4205D9806EC3689847002807DC10BD92
:1033C000064B074A8A210748490006F0F9FB064BDD
:1033D000034A8B210348490006F0F2FB54410110D7
:1033E000BC4D0110684001109840011010B5026BEF
:1033F00093059C0D002B01D1002911DBFF235B00FD
:103400009C4201D9002911DC891801634B005B083B
:1034100089054A1E9141C9070B430363002010BD73
:10342000054B064A0648074906F0CAFB064B034A05
:103430000348064906F0C4FBA44001108C4D01105E
:1034400068400110D1120000DC400110D2120000CF
:1034500010B50C00CB68826E126BFF21180008F0CB
:10346000E5FD01235B42236010BDF8B50F000E6837
:10347000836E5C6A083C2100300007F0BBFDA64269
:1034800012D3013807F05CFD02308000301A2100B1
:1034900007F0B0FD05004443341B07F051FD8000E8
:1034A000241A3C602800F8BD0020FCE7F0B5DE4699
:1034B00057464E464546E0B587B080468B461700D6
:1034C0000393109B9946119E139BF218836E5B6ABF
:1034D0009A4200D9E9E0C36E002B00D1E1E04B45F0
:1034E00000D8E5E04D4694E05B465C689B68E218D6
:1034F000B24224D9B44207D9A21B0492139B9A4228
:1035000000D892E0049390E0A21B99469144139B4B
:10351000994500D999465B46D968341B09194A4632
:10352000129808F089FD129B4B4412934E44139B52
:103530004A469B1A13936CE0139B049375E0139B0C
:10354000049372E07B68BA689918B14270D9B342AB
:1035500005D99B1B049A9A426AD9049368E0991B87
:1035600091468944049A914500D99146F968F31A25
:10357000C9184A46129808F05FFD129B4B441293FB
:103580004E44139B4A469B1A139342E0129A5244AC
:1035900012925644059B049C1C1B139B9C46A444FE
:1035A0006346139335E04346DB6E002B01D0AB42FC
:1035B0006BD93D6043469B6ED969300007F01AFD18
:1035C0000491731A9A467B60039BF41843469B6EE2
:1035D0009946D9696418013C200007F00BFD641A74
:1035E0004B465B6AA34200D92300049A921B4946CA
:1035F000096BD2188A4200D90A00BA604346986E15
:103600004468FB68009252462900A047002842DC2B
:1036100034D1139B002B46D05B46002B8CD01B680B
:10362000AB4200D160E7139B04933B68AB4289D067
:10363000139B039A9342B6D343469B6E9946DB692C
:103640009A461900300007F0D5FC0029ABD1139B36
:103650009A45A8D85146049C200007F0CBFC059160
:10366000621A92464A465268140052460092129BD1
:10367000320029004846A047002887D007B0F0BC98
:10368000BB46B246A946A046F0BD0B4B0B4A0C48C0
:103690006B2106F095FA0B4B084A0948762106F093
:1036A0008FFA4D46B5E70020E8E754204042E5E7B1
:1036B00054204042E2E7C04614410110E44D01109D
:1036C0006840011098400110F0B5DE4657464E465E
:1036D0004546E0B589B080468A4691469B46CE680D
:1036E0000B6907933C30FFF755FD002800D182E0BD
:1036F0004B469B0A9B0500D17FE04346DB6B9B0A50
:103700009B059B0D5A46920A9205920D934276D9DB
:10371000002706E005975B46DB1B63404A461A42DA
:1037200045D0079CA505AD156B1C5A4253411B198A
:103730009B059B0D1A000832B24262D80433F61A78
:1037400053461B680422039207AA02920196009333
:103750000423424600214046FFF7A8FE002852D12C
:10376000079B1BBA63405B005B0807934B469B0AB1
:103770009B05CFD0220DE023DB0013408021C90040
:103780008B42C7D1A10A8905890D05975B46DB1BD2
:10379000980A8005800D8842BCD3214919402148F0
:1037A0000143A14236D052B29202BF18B2E70135AE
:1037B00033D0A3059B0D149D9D4200D91D00534697
:1037C0001A68129BF318039513990291043301931D
:1037D00000922B00424600214046FFF767FE00287A
:1037E00011D1149B5A1B139B5819002108F01EFC81
:1037F000059B181907E0002793E7002791E70A4F78
:103800008FE70220404209B0F0BCBB46B246A94651
:10381000A046F0BD02204042F5E702204042F2E718
:1038200000FC0F000000104000FCFFFF10B584B04A
:103830009C05A40D0294069C019400240094FFF7BB
:1038400043FF04B010BD000010B586B0140003ABF8
:103850000093084B084AFFF7E9FF002803DA831CAE
:1038600006D1002004E003A92000FFF786FC002019
:1038700006B010BD0C00F07F0000F07FF0B5DE4612
:1038800057464E464546E0B589B081468A4693463E
:103890001C00139E149F129B002B07D1002009B01F
:1038A000F0BCBB46B246A946A046F0BD013B07931B
:1038B00007A9FFF7DAFD050021003800B04700280E
:1038C000EDD1002DEBD001232B4098460223424638
:1038D0009B1A9B00039305AA029200220192009476
:1038E0005A4651464846FFF7E1FD041ED7D1012351
:1038F000AB43A34208DDA30005AA99583800B0479E
:103900000028CCD10134F2E79B0005AA9C5843461D
:10391000023BED18D0E770B586B0040000680100E6
:103920001031836E5B6A156852680826039604AEF0
:103930000296019200950200FFF7B8FD00280ED113
:10394000049B62689A4208D0059DA1688D4204D00C
:103950008B4202D0AA4200D00130431E984106B0EB
:1039600070BD0000F0B5DE4657464E464546E0B510
:10397000ADB008900E0005921C00369B9B463AABFA
:103980001B8899463BAB1B8806933CAB00229B5E91
:103990009A46082200210BA808F048FB00255F4644
:1039A000A3059B1501335A4253411B199B059B0DDF
:1039B0000433059A90469844F36898455BD3379B47
:1039C000002B00DCF9E03B680D937B689B460837D1
:1039D000379B013B37930D98A64B389A1340399A81
:1039E00042401900114007911342D9D1389B9B0ADC
:1039F0009B0500D108E1022D5FD80EAB98462A0145
:103A0000531B9B0041465E500992531B9B0043444D
:103A1000059A5A609C60DF60379A1A61389A5A6139
:103A2000399A9A614A469A83069ADA8352461A84E8
:103A30003D9A5A623E9A9A62D8625A461A630BAA13
:103A4000343303CA03C3099A521B920028324244FA
:103A5000131D3E930135079B39933893864B3D9355
:103A600000239A46069399469AE7079D54465F4677
:103A7000B246464694E73368042203920DAA0292A6
:103A80004246019200930423089A00211000FFF798
:103A90000DFD002800D0E5E00D9B1BBA634080249B
:103AA00024061C430D9433680B93434604330C9354
:103AB000434605930BAB9B468DE7704B704A7148AC
:103AC000714906F07DF86C4B3D9A9A4200D167E748
:103AD0002B0109935B1B9B000EAA904698443C2245
:103AE0000021404608F0A2FA099B5B1B9B0006AA36
:103AF00020215218D6504346059A5A609C60DF60D8
:103B0000379A1A61389A5A61399A9A614A469A8361
:103B1000069ADA8352461A843D9A5A623E9A9A620B
:103B20000135079A93059B0D9946930A9B059B0DBA
:103B30004A46013206924A469B1A9BB253441BB234
:103B40009A465E4680239B053993504B3893002359
:103B50003793002701246442059321E7002307954A
:103B60001D00B0465646A2465C46BB463D9F0D9B97
:103B70009A05920D95421AD2690049198900621876
:103B8000615CC02080008446614409059B0A9B0556
:103B90009B0DF3189B0219439368526819433E9892
:103BA000B84700285EDB00D05FE70135DFE7079DFF
:103BB00054465F46B2464646F2E60020002D51D0FC
:103BC000013D0EAB2A01511B8900CE585B185A6883
:103BD00005929C68DF681A6937925A6938929A6927
:103BE00039929A8B9146DA8B069220215A5E924640
:103BF0005A6A3D929A6A3E92DA6A0D921A6B93461D
:103C00000BAA343303CB03C2389B9B0A9B050AD013
:103C10000D9B9B0A9B059B0D994500D9C0E6069A12
:103C20009A4200D8BCE60D9B07931B0D5B055A0D0D
:103C3000002B00D1B4E60223FF339A4200D142E7C1
:103C400081235B009A4289D053469902079B9C4688
:103C500061445A463E983D9B9847002802DB00D1BC
:103C60009EE6ABE72DB0F0BCBB46B246A946A046E7
:103C7000F0BDC0460000F07F6532001044410110E5
:103C80005C4D011068400110B303000000FC0F60A0
:103C9000F0B5DE4657464E464546E0B585B080460F
:103CA0008B4692461D00119F139BFA18836E5B6A28
:103CB0009A4255D9542040427DE053465A689B6849
:103CC000D118B94221D9BA4205D9D21B139B9A42C5
:103CD00050D91A004EE0D41B1C19139B9C4200D9EA
:103CE0001C005346D968BA1A89182200129808F0A5
:103CF000A3F9129B9C46A444634612933F19139B5D
:103D00001B1B13932CE0139A34E0139A32E0022326
:103D10005B422B6043469B6ED969380007F06AF915
:103D20007E1A6E600E9BFC1843469B6E9946D969BD
:103D30006418013C200007F05DF9641A4B461B6BC8
:103D4000A34200D92300AB60EA6802930192009677
:103D5000109B0F9A59464046FFF7B6FC00282ADB15
:103D6000139B002B26D05346002BCCD01B6802336C
:103D7000A3D0139A2B680233C9D16B68AC681919A8
:103D8000B942C4D9BB42C2D8D91B6418944200D9E5
:103D90001400E968FB1AC9182200129808F04CF9BF
:103DA000129B9C46A444634612933F19139B1B1B12
:103DB0001393D5E7002005B0F0BCBB46B246A94638
:103DC000A046F0BDF0B5DE4657464E464546E0B546
:103DD00087B0894690461F00109B9B46139E002487
:103DE0003B0007009A4619E053461B1B039504AAA3
:103DF0000292119AA21801925A46009242464946EE
:103E00003800FFF753FB002816D1129B19192A001E
:103E100004A80EF093FE002807D16419B4420AD218
:103E2000351B082DE0D90825DEE7002801DB02203C
:103E300002E0012000E0002007B0F0BCBB46B24623
:103E4000A946A046F0BD0000F0B5D646474680B56D
:103E500087B007000C00059204930E68F31C40D84D
:103E6000C36E9E4231D28D68836E9A46196A6D1870
:103E7000013D280007F0BEF86D1A53469B6898462E
:103E8000E3686268009531005046C047061E22DC98
:103E9000002827D1049B002B12D001235B42059AF6
:103EA0001360E368039502936368019323680093AA
:103EB0002B0000213800FFF785FF002818DB19D1FF
:103EC00021003800FFF7C4FA0CE00C4B0C4A0D48F7
:103ED000B32105F075FE0C4B094A0A48B72105F0DD
:103EE0006FFE0026300007B0C0BCBA46B046F0BD39
:103EF0000600F7E754267642F4E7C0464C4101102D
:103F0000A04D01106840011098400110F0B5DE4648
:103F1000474680B583B007000C00009201930A9BCE
:103F200098460B9D0D9E023302D0C36E43450AD9BD
:103F3000AB19BA6E526A934218D92D4B2D4A2E48AE
:103F4000E92105F03DFE2D4B2A4A2B48E82105F0DA
:103F500037FE01333ED143462360BB6E196A280009
:103F600007F048F8691A61600023A360002E38D07A
:103F700023684345EDD16268AA42EAD8B96E096B5D
:103F80005018A842E5D9531B8B469B44B34500D932
:103F9000B346E068AA1A80185A460C9908F04CF803
:103FA0000C9B5B440C935D445B46F61A6268AA1A4C
:103FB000A368934200D21300A360BA6E126B9A42B8
:103FC000D4D1019B009A21003800FFF73DFF002863
:103FD00008D1CBE70A4B074A83210748490005F07F
:103FE000EFFD002003B0C0BCBB46B046F0BDC046EC
:103FF000A8410110B04D011068400110704101103E
:10400000CC41011010B50400012040421060200096
:10401000FFF71AFF002804D1A06E03699847002813
:1040200000DC10BD024B034A0348DD2105F0C8FD4A
:1040300098400110504D01106840011070B584B0D7
:1040400006001500006889058C0DB368A34200D9ED
:1040500023002A68696803937568029501910092AC
:1040600002000021FFF7AEFE002804D1B368A3428E
:1040700001D002D2013004B070BD0220FBE7F0B5E0
:10408000CE46474680B589B00700884691460593DD
:10409000109B002B0BD1013B129A13600023139A43
:1040A0001360002009B0C0BCB946B046F0BD109BFB
:1040B000013B079307A9FFF7D8F9050011A93800BC
:1040C000FFF7D3F9060012E00423039305AB029334
:1040D000A3000193059B009304234A464146380000
:1040E000FFF7E4F90028DDD10123A340ED1AB54222
:1040F0000BD9A81B06F018FF1F24241A280006F06D
:1041000019FF8442E0D90400DEE7059B129A136090
:10411000119B139A13600020C4E70000F0B5CE464F
:10412000474680B589B080460C0017004A6BC96AC3
:104130008A426DD28A1A91469A4200D999464E46D1
:1041400037E0DB0241D502235B42A363636BE36389
:10415000226B8023DB021343236343469B6E5B6A1F
:10416000E06B1D1AB54200D93500226BD2023FD553
:1041700021000831A2889202944622004032079220
:104180000595049703902548624610430290244801
:1041900001900093079B00224046FFF779FD00281D
:1041A00037D1636B5B196363E36B5B19E3637F195F
:1041B000761B002E2AD0236B5A03C2D5E16B4246F0
:1041C000926E526A9142C8D1BBE7A36A2200403284
:1041D00021003C31039104390291616B0191E16A44
:1041E000009100214046FFF74AFF0028B0D010E0C0
:1041F00022004032039502970190A16B00910021AB
:104200004046FFF753F90028CBD002E0484600E0D3
:10421000002009B0C0BCB946B046F0BD0000102077
:1042200000FCF7FFF0B5DE4657464E464546E0B582
:1042300087B083468A4691469846129E139F002473
:1042400017E043461B1B039504AA0292119AA21879
:104250000192109A00924A4651465846FFF726F9B5
:1042600000280ED138682A0004A903F053FC3860F6
:104270006419B44204D2351B082DE2D90825E0E7C1
:10428000002007B0F0BCBB46B246A946A046F0BD30
:10429000F0B5DE4657464E464546E0B597B00500B8
:1042A0000E0092460693C36E002B08D0126893420C
:1042B00000D879E252465268934200D878E200234F
:1042C0001293139300279846A9460DE0791CC80F56
:1042D000091801230B401B1A9B0012A95B58D21A24
:1042E000002A00DDB8460137012F18DCBC0012ADF2
:1042F0002B190422039202930023019353461B5966
:10430000009304234A4600214846FFF7CFF862593C
:104310000028DBD003005433E5D083463CE24D4611
:104320004346D90F5B1801221340591A890053469E
:10433000CB58336043460133D80F1B181A40131A69
:1043400099469B0052469B58736012ABCB58B360A2
:104350000023F3609A46013B9B46B0465346012B2F
:1043600000DD0BE20EAAA14B11CB11C24146083170
:1043700001277F420422380003F0CCFB0B905B4600
:1043800007930023089309930593002644463DE1D3
:10439000A0460300543301D1002322E08346FBE111
:1043A000A0463B0DF022D2001340914A944663444C
:1043B0005A425341DBB214E0042203920DAA029246
:1043C000321D0192226800922A0000212800FFF786
:1043D0006DF800284DD10D9A0B9B9A424FD0A04604
:1043E00000234246D468002C00D18AE146460022D0
:1043F000B275002B0AD0AF6E396A200006F0FAFDC4
:10440000002903D1089B002B00D088E128003C3014
:104410003100FEF7BFFE00280FD0EB6B9B0A9BB26A
:1044200059468A0A92B210005840800500D093E1A4
:1044300080231B065A461A439346219B002B09D022
:104440005B469B0A9B05B28A9B0D934200D91300E1
:10445000219A13805B46002B00DB9DE19B0A9B05A4
:104460009B0DB28A9A4200D885E102235B429B46AB
:1044700092E1A04603005433B2D083468CE10C9FF6
:104480003F0DFF0743467B401F00E86A04220BA94B
:1044900003F040FBE8620C9A93059B1501335942E7
:1044A0004B419B189B059B0D04339B19E3602761CF
:1044B000059BA3820E9BA3610F9BE361099BE375A0
:1044C00001235B420B93079B9B469FE0A0460300A2
:1044D000543301D1002384E783465DE18021C90084
:1044E00088421FD0C023DB00984242D05205520DB3
:1044F000404B9A4200D0E9E0AB6E5B6A082203921F
:1045000010AA02920197226800922A000021280036
:10451000FEF7CCFF002848D0543000D1EEE0012354
:104520000893D3E052B291B205988446614489B2AF
:104530000591314807990840304901438B4212D018
:104540000798411C00D1C1E09B0A9B059B0D810A85
:104550008905890D994200D2B8E0920284469444BC
:1045600063460793B2E080231B06079A1A4307921B
:10457000ACE001231A400992AB6E5B6A08220392F9
:104580000EAA02920197226800922A0000212800B8
:10459000FEF78CFF002800D198E0A04603005433BA
:1045A00001D100231DE78346F6E0012308938DE047
:1045B000A0460300543301D1002312E78346EBE009
:1045C0000C9B079F3A005F400D490F421AD002280A
:1045D0001BD1990A8905890D920A9205920D8A428A
:1045E00013D3802212061A4307920EE0084E0110E0
:1045F00000FBFFFFFF05000000FC0F000000F04F74
:1046000000FCFF7F01235B4207934746BB059B15D8
:1046100001335A425341DB199B059B0D0433F618B5
:10462000AB6E5B6A042203920CAA02920196226886
:1046300000922A0000212800FEF738FF002800D051
:10464000A6E60B9804220CA903F064FA0B900C9BCD
:104650001BBA7B4098460C9300D5A1E69A059215AB
:10466000013253425A4142449205920D111D711874
:10467000AB6E5B6A99423ED84146090DF020C000FE
:104680000140A020C000814200D195E6371D0BA952
:10469000039102920197226800922A0000212800CB
:1046A000FFF7C0FD002800D010E70C9B1A0DE02199
:1046B000C900100008400A4200D00FE79B0A9B0582
:1046C0009B0D059A9A4201D8013305930C99209BC2
:1046D0004B40069A1A4298D123681493159714AA4E
:1046E0002398229B9847002800DA61E700D067E70B
:1046F0000C9B079389E7A046002372E6A04600239F
:104700006FE61368526841460A604B604B469B0057
:1047100012AA9B588B6001239C46E2441EE60123AB
:104720005B420D937B6A0DAA0392109A0292019448
:10473000326800922A002800FFF774FD002804D098
:104740000300543301D0834626E0119A0D9B9B1A37
:104750005A425341B37559E65846013000D16CE6D0
:104760009B059B0D9205920D9A4200D865E6124B6F
:104770009B468B4461E600239B460DE0464633682A
:104780000E490F480F4A0192726800920E4A07F0D4
:104790003BFE54235B429B46584617B0F0BCBB46D9
:1047A000B246A946A046F0BD54235B429B46F3E7C0
:1047B00054235B429B46EFE700FCFFFF684001107B
:1047C000F0410110B836011056050000F0B5D6468C
:1047D0004F464646C0B58AB007000E0014000023BD
:1047E00093610133D36105AA284B21CB21C2012358
:1047F0009846012539E0264B26492748274A07F0E5
:1048000003FE542040423BE053460593E369069380
:1048100043465B00984600250FE0012300E001239A
:10482000002B2BD118239946A14405A94846FEF731
:104830008DFC0028DFD14545E6D0013507AB079751
:1048400032680892726809920393154B0293002311
:104850000193144B0093144B4A4621003800FFF794
:1048600017FD002801D0831C0AD1A3699A460133A1
:10487000D5D0E3690133D0D00023D1E702204042F4
:104880000AB0E0BCBA46B146A846F0BD084E0110D9
:10489000B83601106840011028420110B012000023
:1048A0001739001008000020FF03F07F10B584B016
:1048B00001235B4200240394029401940093FFF7C8
:1048C000E7FC04B010BD0000F0B5DE4657464E468A
:1048D0004546E0B593B005000E00059299462022AA
:1048E00000210AA807F0A2FB0123119308AA624B3A
:1048F00011CB11C201239B460127109C631C00D1E0
:1049000080E0119B013300D17AE00023002B00D01E
:104910007AE008A910A8FEF719FC00280FD15F451E
:1049200016D001370024012C1ADCA31D9B000AAA13
:1049300099580598B04700281ED10134F3E74F4B32
:104940004F495048504A07F05FFD5420404213E061
:104950000894119B09935B465B009B460027E0E7A8
:1049600010AA0AA92800FFF7A1FF8246002803D158
:10497000002417E0831C13D013B0F0BCBB46B24632
:10498000A946A046F0BD069B059A02920196079A99
:1049900000922A0000212800FEF770FF0028EBD1CA
:1049A0000134A4B20AAB9B8AA342A6D9A202374B18
:1049B000134306AA0092364A0AA92800FEF736FFDA
:1049C0000028D7DB000D4005400D324B9842DAD06D
:1049D0004B46002BE4D080239B009842E0D1D04688
:1049E00002E001239C46E0444346012BD8DC4346C9
:1049F0009B0006AAD1580598B0470028F1D0BBE724
:104A0000012383E7012381E7AC6A0FE021004031F5
:104A1000A36A059A02920196E26A00922A0028008F
:104A2000FEF72CFF00280ED0A6E72468002C21D02A
:104A3000A379012BF9D1236B8822520313408022E2
:104A400052029342E2D0236B902252031340802201
:104A500092029342E9D121004031A36B059A029260
:104A60000196626B00922A002800FEF707FF0028DB
:104A7000DBD081E700207FE7084E0110B836011037
:104A800068400110284201101112000008000020A7
:104A900000FC0F700202000070B50400406DE36D71
:104AA000C018E16E06F0A6FA61650023E365A26E08
:104AB000536B216EDB008B4200D90B00A365606E47
:104AC000526B002107F0B2FA0649012322002000B0
:104AD000FFF7FAFE051E01D1280070BD2000FEF789
:104AE000A4FBF9E73932001030B583B004000D00A3
:104AF000E36DA26D934226D2616EDA088A5C0720CC
:104B00001840C240D20705D50133E365236E013B4F
:104B10002366EDE7606DC018E16E06F06BFA296060
:104B2000E36D0133E365226E013A2266A26D934282
:104B300024D2616EDA088A5C07210B40DA40D20782
:104B4000EED400201BE0226E002A05D02000FFF7E3
:104B5000A3FF0028CCD012E0606D1818A36E996AEC
:104B600006F048FA0B00074C0748084A0092084A2A
:104B7000210007F049FC1C20404200E0002003B067
:104B800030BDC0466840011054420110B8360110D3
:104B9000B102000070B584B006000C000025012DA4
:104BA0000DDC0135EB0FEA1801211140C91A89000B
:104BB00061183000FFF798FF0028F0D02FE00023A5
:104BC000A36022000832042103910292019323681A
:104BD00000930423320000213000FEF767FCA56833
:104BE000002802D00300543319D1B26ED16A0029D3
:104BF00009DD0131012211436D18013D280006F045
:104C0000F9F96D1AA5600423E360053B23610022D6
:104C1000A282A361E3610023A375E375002004B0C1
:104C200070BD0000F0B5C64600B58AB005000E00A4
:104C30005BE031004031131B012203921A3202A8BB
:104C40008446624402920194B26B00922A002800CA
:104C5000FEF72CFC002858D12900103101230393C2
:104C60001A3302AA9446634402930194099B009369
:104C700001232A002800FFF749F9002827D1013431
:104C8000F26BA24247D9336BDB02D2D53100083137
:104C9000B3889B029C463300403307930120059064
:104CA0001A3002AB98464044049003942848634667
:104CB0001843029027480190121B0092079B002284
:104CC0002800FEF7E5FF0028C6D007003BE0030000
:104CD00054331CD1099B20492048214A0092214A83
:104CE00007F092FB01235B422B6109A92800FFF723
:104CF000FBFE071E27D109992800FEF757FB071E68
:104D000007D003005433E5D01DE007001BE0070087
:104D100019E00024B4E7F06CE969AB6E1A6B07F098
:104D20008BF92B6933646B697364AB69B3642900D5
:104D300010312800FEF78CFB099BB363326B802394
:104D40009B021343336338000AB080BCB846F0BD01
:104D50000000102000FCF7FF6840011080420110A5
:104D6000B8360110D60C000070B505000C004B6B76
:104D7000CB63FEF757FA21002800FFF753FF002806
:104D800003D1236B014A1340236370BDFFFFEFFF84
:104D9000F0B5DE4657464E464546E0B58BB00400BA
:104DA0008846150099464EE0149B002B33D0149B87
:104DB000013B089308A92000FEF757FB089B01332D
:104DC0000893A26E526A93425ED000274B46B146CA
:104DD0001E00089BBB4248D9DB1B0122039209AA93
:104DE0000292019700962A0000212000FEF75EFB48
:104DF000002838D10123039309AB02930197079B45
:104E0000009301232A0041462000FFF77FF8002885
:104E100008D10137DDE7079B159A13600023169A26
:104E2000136029E0B146030054331CD1079BBA221A
:104E300038493948394E0096120107F0E5FA012346
:104E40005B424246136007A92000FFF74DFE061E95
:104E500012D107992000FEF7A9FA061EA4D003007C
:104E60005433E3D008E0060006E04E46079B159A4F
:104E70001360089B169A136030000BB0F0BCBB4661
:104E8000B246A946A046F0BD013006F053F882466E
:104E9000431C9B464B46099300270593B1462E00C1
:104EA000250009E02C003500059B9946030054338A
:104EB000BCD00600E0E701375F4522D2BC000423E6
:104EC000039309AB02930194079B009301233200E3
:104ED00041462800FFF71AF8099B0028E2D1574500
:104EE000E9D00422039209AA0292019400930423B8
:104EF000320000212800FEF7D9FA0028DBD0060096
:104F0000BAE74E46079B159A13605B469B00169ABC
:104F10001360B1E76840011080420110B8360110FB
:104F2000F0B5C64600B588B006000C0015001900A3
:104F30000593236BDB0209D5636BE26A8C466344FD
:104F4000934200D21300F26F9A4231D3059B9846E8
:104F50004346002B00D19DE0236B80229202190072
:104F60001140134204D0E06BB26E526A904255D1A8
:104F7000DB0249D4002902D1626B002A24D130001F
:104F8000FEF750F9A36B2100403122003C3202921F
:104F9000043A0192626B009232003000FFF7F8FE93
:104FA000002836D0226B80231B03134323635FE06A
:104FB00021003000FFF7D8FE0028C7D0226B8023E5
:104FC0001B031343236353E027004037A36AE16ABE
:104FD0000020079007A80390200038300290013A83
:104FE000019200913A0000213000FFF748F80028B4
:104FF00004D139003000FEF72BFAC0E7226B802382
:105000001B031343236333E002235B42A363636BFD
:10501000E363226B80239B0213432363B36E5F6AB7
:10502000E36BFF1A474500D94746210040310397FB
:105030000295E36B0193A36B0093012332003000D0
:10504000FEF764FF002817D0030054330BD1210072
:105050003000FFF7E7FD0028E7D0226B80231B0319
:105060001343236304E0226B80231B031343236356
:1050700008B080BCB846F0BD636BDB196363E36BBB
:10508000DB19E363ED194346DB1B98463000FEF75E
:10509000C9F85DE70598EBE7F0B599B005000C009D
:1050A0000B6B5A0307D5DA0202D4012252420A647A
:1050B000374A13402363236B9A0365D5666BDB0283
:1050C0004ED45422002103A806F0B0FFA36A0D932A
:1050D000E36A0E9301230F93636B109313AB2A00C3
:1050E00083CA83C312681A6001235B422B60626B20
:1050F000E36A9A4219D201230B226A4403A92800C9
:10510000FFF70CF8002840DB01230B226A44210042
:105110002800FFF705FF002837DB2B680133E6D0B6
:1051200001235B4213932B60E1E72100403101230F
:105130002A002800FEF788FE002816D0030054330A
:1051400023D1A36B13491448144A0092144A07F060
:105150005BF921002800FFF765FD0028E5D014E089
:10516000E36AB34200D233006363A36BA362636B51
:10517000E362236B0B4A13402363802252021343E2
:1051800023636663002000E0002019B0F0BDC04634
:10519000FFFFFBFF6840011080420110B83601108C
:1051A000250D0000FFFFFDFFF8B505000C001600FF
:1051B0001F00096BCB070DD5890304D52100FFF72C
:1051C0006BFF002805D13B00320021002800FEF7CC
:1051D000A5FFF8BD034B044ADB210448090104F094
:1051E000EFFCC046A4420110C04C01106840011001
:1051F000F0B583B005000C0016004F6B002B04D0F7
:10520000012B21D0022B23D03E006B6FB34237D34A
:10521000BE4224D0236B9B030CD4019701A9280024
:10522000FEF723F90700009669462800FEF71DF9EE
:10523000874216D021002800FFF72EFF002801D159
:105240006663300003B0F0BDD74216D4D619DCE750
:10525000FEF76DF88619D8D516204042F2E73000E7
:10526000F0E7636C009A9342E4D8A16C5B189A4211
:10527000E0D26663E2633000E4E716204042E1E7F3
:1052800016204042DEE710B500230022FFF7B0FFF2
:10529000002800DB002010BDF0B585B006000D0031
:1052A00001921F000B6B9A0723D55B0327D42B6B4E
:1052B0001A0504D5696BEA6A914200D26A636C6B85
:1052C000E119726F91422DD89B031DD4EB6A9C4269
:1052D0001AD96B636B6B9C4216D902ABDA1D0023A3
:1052E0001370013329003000FFF71AFE0028F1DAAD
:1052F00016E00E4B0E4A0F480F4904F061FCFFF711
:10530000CBFE0028D3D00BE03B00019A29003000EF
:10531000FFF706FE002803DB2B6B084A13402B63C4
:1053200005B0F0BD1B204042FAE7C046D442011050
:10533000A04C011068400110170E0000FFFFF7FF9E
:1053400000B583B000230193044901AAFFF7BCFA1A
:10535000002800D1019803B000BDC046A133001061
:10536000F0B5D646474680B585B001900E001400D2
:10537000002393610133D36102AA284B81CB81C200
:1053800001250127A3699846013336D0E36901332B
:1053900031D00023002B32D118239A46A24402A90F
:1053A0005046FDF7D3FE002815D1AF421CD001377F
:1053B0003368434526D0E1697268914228D042455E
:1053C00028D0994228D0524621000198FFF76EFA62
:1053D0000028D7D017E0124B12491348134A07F0A0
:1053E00013F8542040420EE043460293E3690393CE
:1053F0006D000027DBE70123CCE70123CAE7022089
:10540000404200E0002005B0C0BCBA46B046F0BD46
:105410000020F8E70020F6E70020F4E7084E01102E
:10542000B836011068400110284201106F120000C8
:10543000F0B585B00C0017001E0001001031039379
:105440000292636801932368009300230200FEF731
:105450005DFD051E02D0280005B0F0BDE0683200F9
:10546000390002F057FBE06063689B196360F2E764
:10547000F0B5DE4657464E464546E0B587B00500D6
:105480008846994617009405A415013463425C418F
:10549000A418A405A40D231D9A464B6853444969DA
:1054A0008B4247D85600760843469B6873401BBA28
:1054B0000593042305AA4146FFF7BAFF8346002857
:1054C0002ED1002F22DA0027A74227D25346DB1B1A
:1054D0004A4611685268043B012003901230684428
:1054E0000290D219019200912A0000212800FDF7B4
:1054F000DDFF00281CD1012313226A444146280005
:10550000FFF796FF002813D10137DDE723004A4655
:1055100041462800FFF78CFF00280FD143469E60CC
:10552000584607B0F0BCBB46B246A946A046F0BDFF
:105530008346F5E71C235B429B46F1E78346EFE792
:1055400010B50C001300416800682200FFF790FFBF
:1055500010BD0000F0B5DE4657464E464546E0B564
:105560008BB006000D004F68836E5A6A143797425D
:1055700000D91700196ACF19013F380005F03AFD2C
:105580007F1A002305939B466BE0132302AA9446DF
:105590006344FF221A70BC4205D3B36E5A6A1B6A79
:1055A000D21AA24270D2132302AA944663441B78F3
:1055B000DB43DBB2DB09A022D200944663441B0527
:1055C0006A68A21A043A1343654A1A439046AB68C4
:1055D00053401BBA07AA91460793E868042249463C
:1055E00002F098FAE8604B46586010239A46B2449D
:1055F000083B03934B4602936B6801932B6800931F
:105600000023320051463000FEF780FC002800D015
:1056100098E05B46002B04D16B6804339B46EB6833
:1056200005936C60132302AA944663441B78DB4302
:105630001B06DB0FDB0742465340AB6001235B4296
:10564000EB60BC4205D27369B26E126B9B18A34229
:1056500007D80023320051463000FEF7D3FC002863
:1056600070D16C68BC4241D23B1B043B3D4A934223
:1056700000D91300E4180434BC4286D23B00143B2A
:105680009C4282D91C0080E70122039212326244BC
:10569000029201942A680092320000213000FDF746
:1056A00005FF002802D0030054334BD1B36E1B6AB0
:1056B000079301225242089208AA0392029301948E
:1056C0002A680092320000213000FEF7ABFD00286E
:1056D00002D00300543335D107AB234A29003000F0
:1056E000FFF7C6FE002800D15DE72BE02A69012301
:1056F0005B4209935B46043309A903915946891A11
:10570000029101922A680092320000213000FEF7D7
:1057100089FD002816D1099B059A934219D109AB3E
:105720000393042302935B4601932B6800930423A5
:10573000320000213000FEF775FD002802D1099BE0
:10574000002B09D10BB0F0BCBB46B246A946A0461F
:10575000F0BD54204042F5E754204042F2E7C046F5
:1057600000FC0F00FE03000008FCFF5FF0B5DE4602
:105770004F464646C0B59CB005000C000A920B93FC
:1057800024AB80CB1B88984626AB1B889946FDF737
:10579000B5FD0600A3680133A360002833D00023C1
:1057A0001693013317932368002B2CD06268012ACB
:1057B00029D0012B27D0002A25D001235B422B6161
:1057C000002E00D10FE100231A9301331B932368AD
:1057D000002B00D110E16268012A00D10CE1012BFD
:1057E00000D109E1002A00D106E1211D2800FFF7C0
:1057F0007BF9002827D003001C331ED1002E1CD0BB
:10580000B346002601E000239B4663681093002303
:10581000119301225242129213921493AA6E536D65
:10582000002B14D0083B159361682800FDF7BEFDDE
:1058300000280FD003005433BFD01CB0E0BCBB46DF
:10584000B146A846F0BD002601239B46DDE7536A1A
:10585000083BE8E722000832042310A92800FFF7DC
:10586000E7FD002803D003005433E6D1A5E718AACA
:10587000189510AB199301230892654A0792424686
:10588000524212B206924A460592424604920022C1
:105890000392604A02920B9A01920A9A00925B422A
:1058A000002239002800FEF75DF8002803D003002D
:1058B0005433C2D181E7A36901332CD0E3690133AA
:1058C00027D0C00729D50C2200210DA806F0AEFB79
:1058D0005B46002B36D0290048310DA8FDF74DFC62
:1058E0000D9B9B0A9B020D930DAA21002800FDF73A
:1058F000ABFF0028A1D102282FDC830068229B186F
:1059000002AA944663443C3B1B68002B35D101300E
:10591000F1E70120D5E70120D3E7E17DC023DB00DB
:105920009C4661440905230018333B4A0A4310A9E9
:105930002800FFF79DFD0028C5D00300543300D098
:105940007BE73AE729003C310DA8FDF716FC29005A
:1059500030310DA8FDF711FCBDE70123002B0ED15E
:105960000DAB2E4A10A92800FFF782FD002806D0B3
:105970000300543300D060E71FE70023EEE710A9CF
:105980002800FFF7E7FD002804D00300543300D0BF
:1059900053E712E71198AB6E196A05F02BFB00294B
:1059A0001BD123686268226063604B4642469B1AA3
:1059B000A382119BE360129B2361280048300C22D4
:1059C000002106F033FB5B46002B04D12B003C3357
:1059D000303507CD07C358462FE7114B114A1248FF
:1059E000124904F0EDF863680F491148114A00921A
:1059F000114A06F009FDE6E663680B490F480D4AB7
:105A000000920F4A06F000FD1C20404215E7C046F8
:105A10004155001000FC0F4008FC0F000CFCFF7FFC
:105A200004430110404D01106840011003080000BC
:105A300080420110B8360110150800002C430110F7
:105A40001A080000F0B5DE464F4680B58FB005005D
:105A50000C000492059316AB40CB1988894618AB0D
:105A600019888B4606A9FFF795F8071E05D0380060
:105A70000FB0C0BCBB46B146F0BDE37D06A9CB75F7
:105A8000A3698B61E369CB61584602904846019057
:105A90000096059B049A2800FFF768FE002817DB94
:105AA0000699A161079AE2610123E3752368286AD8
:105AB000834207D066686C6AA64203D0A34201D035
:105AC000B042D4D14B46002BD1D129626A62CEE7D5
:105AD0000700CCE7F0B5DE4657464E464546E0B5F2
