:020000041000EA
:1000000000B5324B212058609868022188439860DF
:10001000D860186158612E4B002199600221596106
:100020000121F02299502B49196001219960352056
:1000300000F044F80222904214D00621196600F024
:1000400034F8196E01211966002018661A6600F04E
:100050002CF8196E196E196E052000F02FF8012189
:100060000842F9D1002199601B49196000215960AB
:100070001A491B48016001219960EB211966A021F2
:10008000196600F012F800219960164914480160C1
:100090000121996001BC002800D000471248134993
:1000A000086003C880F30888084703B5996A0420EC
:1000B0000142FBD001200142F8D103BD02B5186610
:1000C0001866FFF7F2FF186E186E02BD00000240BE
:1000D000000000180000070000035F00212200005C
:1000E000F4000018222000A00001001008ED00E03C
:1000F00000000000000000000000000074B24E7A12
:1001000000200420F7010010C3010010C5010010F9
:10011000C1010010C1010010C1010010C101001097
:10012000C1010010C1010010C1010010C701001081
:10013000C1010010C1010010C9010010CB01001065
:10014000CD010010CD010010CD010010CD01001037
:10015000CD010010CD010010CD010010CD01001027
:10016000CD010010CD010010CD010010CD01001017
:10017000CD010010CD010010CD010010CD01001007
:10018000CD010010CD010010CD010010CD010010F7
:10019000CD010010CD010010CD010010CD010010E7
:1001A000CD010010CD010010CD010010CD010010D7
:1001B000CD010010CD010010CD010010CD010010C7
:1001C00000BE00BE00BE00BE00BE00BEEFF3058054
:1001D000103800BEF2EB8871987C0110C07C0110D1
:1001E0003402001090A31AE700201F49086006C8D7
:1001F00081F3088810471D48006800282FD10DA4FE
:100200000ECC002902D000F012F8F9E71849194A7B
:10021000002000E001C19142FCD1174988471749ED
:1002200088471749884700BEFDE701C901C29A42C5
:10023000FBD37047C07C0110C00000208413002055
:10024000848F01100000042000000420848F01101E
:10025000001004200010042000000000704709482E
:100260000BF062F90047000008ED00E0000000D04C
:10027000881300205C290220D5A10010F50700108A
:1002800095A100105756000006005250ABB36053C2
:100290008C64011006005250861C0302A4640110F5
:1002A000060052505422A29DAC6401100500525029
:1002B000DE65F468848F0110F8B5C0460448054B2C
:1002C00010B5834203D0044B002B00D0984710BDDB
:1002D0008413002084130020000000000648074912
:1002E000091A8B10C90FC91810B5491003D0044B57
:1002F000002B00D0984710BD8413002084130020E9
:100300000000000010B5074C2378002B09D1FFF73F
:10031000D5FF054B002B02D0044800E000BF0123AD
:10032000237010BD40150020000000006839011046
:10033000054B10B5002B03D00449054800E000BF71
:10034000FFF7CCFF10BDC0460000000044150020A0
:1003500068390110002070470020704710B5040074
:10036000202200210CF050F9200010BD10B50348E8
:1003700000210CF037FB00BE10BDC04668390110EB
:1003800010B5034800210CF02DFBFFF7EFFF10BD67
:100390008C39011010B58AB0040011F00BF80990E7
:1003A000206803685B68984721680B689B6868460B
:1003B0009847A368186800230A22694610F0DAF902
:1003C000218A09A811F070F9EAE7000010B50A00C7
:1003D000034800210CF006FBFFF7C8FF10BDC04624
:1003E000A439011070B505000C0007F0E5FE2000EF
:1003F00007F0E2FE0321280007F0DEFD03212000C4
:1004000007F0DAFD00220121280007F0EDFD0022AF
:100410000121200007F0E8FD024803490FF0C0F871
:1004200070BDC046080E0020A086010070B5040013
:1004300000220821022010F055F92060002210212E
:10044000042010F04FF9606000220221022010F019
:1004500049F9A06000220421022010F043F9206134
:1004600000222021032010F03DF9E0609920800057
:100470000CF0D6F8050000230370982292008350F8
:1004800001F076F86561200070BD0000F0B5C64649
:1004900000B504008846164B036000250571154B16
:1004A000036077270773144B036070200CF0B8F8D3
:1004B0000600702200210CF0A7F86C23F754266187
:1004C00000236361A361E36123622423E5540133C4
:1004D000E554A5620733E5544346002B03D12000C1
:1004E00080BCB846F0BD0321200000F077FCF6E7A1
:1004F0008C3A0110A03A0110683F011070B5040059
:100500000D00204B0360002606711F4B036069231A
:1005100003731E4B03601E4B0200103203CB03C259
:1005200020004030062200210CF06EF820004630FA
:10053000062200210CF068F820004C300622002131
:100540000CF062F85223E652200054300C220021B5
:100550000CF05AF8200060300C2200210CF054F806
:1005600020006C300C2200210CF04EF80023A36711
:10057000002D01D1200070BD0321200000F0A2FC5D
:10058000F8E7C0468C3A0110A03A0110C83A0110B1
:10059000D43A011070B52E480CF0F4F9052104206E
:1005A000FFF720FF0FF07EF80C200CF039F8040064
:1005B000284E066000250571274B036000F0DAFD28
:1005C000264B1C6018200CF02BF80400012100F0D1
:1005D0008FFA234B1C6030200CF022F8040001211C
:1005E000FFF754FF1F4B1C607C200CF019F804002F
:1005F0000121FFF783FF1C4B1C6010200CF010F84A
:10060000040006600571194B0360032100F0D2FC61
:10061000174B1C600C200CF003F8040006600571F9
:10062000144B0360032100F003FB134B1C601820E4
:100630000BF0F6FF0400FFF7F9FE104B1C601048AA
:100640000CF0A0F90F4B186801210FF01BFE70BDD4
:10065000CC3901108C3A0110B43A0110041F00206B
:10066000E81E0020341D00200C2300202C40011027
:1006700010230020E83C0110301D00207C1E0020CB
:10068000E0390110F81E0020F0B5D6464F46464628
:10069000C0B59CB0FFF77EFF17AD142200212800E3
:1006A0000BF0B2FF434B1893FE239B059A461A9317
:1006B000FA239B0099462B823F4B1B6817933F4BB5
:1006C00098461B6819938026B6003D493D4C16ABF1
:1006D0000193022700972B003200200010F082FDCA
:1006E00011AD1422002128000BF08EFF364B12931F
:1006F0008023DB051493FA235B002B82334B1B68AA
:10070000119343461B6804331393314910AB019393
:1007100000972B003200200010F064FD0BAD142276
:10072000002128000BF070FF2A4B0C9353460E93C8
:100730004B462B82284B1B680B9343461B680833A0
:100740000D9326490AAB019300972B00320020003D
:1007500010F048FD05AD1422002128000BF054FFD5
:100760001F4B0693534608934B462B821D4B1B6829
:10077000059343461B68103307931B4904AB019351
:1007800000972B003200200010F02CFD802217492A
:10079000174803AB0193032300930023520110F089
:1007A00021FD002010F05AFD1CB0E0BCBA46B14655
:1007B000A846F0BD043A0110E81E00207C1E00206F
:1007C0000C3A011095030010183A0110341D002056
:1007D000203A01102C3A011010230020343A011065
:1007E000483A0110301D0020543A01106C3A0110B3
:1007F000B51B001000B583B00CF000F90C490D20BA
:1008000040420EF08DFF0FF0A0FC0A4B18608022D2
:1008100009490A4800230193043300930023D200BE
:1008200010F0E0FC10F082FD002003B000BDC046D7
:1008300081030010F81E00207C3A01108906001088
:1008400010B584B00A22002101A80BF0DDFE0024BF
:1008500018E001AB00221A550A200CF05FF805E001
:100860000A200CF05BF801AB00221A5501A812F027
:10087000ABF804B010BD002C17DD0E480CF0B2F838
:10088000023C0134092CF1D8E3D00CF0BFF8C3B21C
:100890000D2BE5D00A2BE3D0082BECD001AA135581
:1008A000FF2318400CF03AF8EBE707200CF036F87D
:1008B000013CE6E7DC3A011070B505000C000800C9
:1008C00012F0F6FD02002100280012F0EBFC43427A
:1008D0005841C0B270BD10B5002905D0FA2292006F
:1008E00000230AF0B3FE03E0FA2189000AF070FE4B
:1008F00010BD70B504000D00202200210BF084FE15
:100900002B6923606B696360200070BD10B5002BFC
:1009100002DB0260436010BD024B034A03483F21E3
:1009200009F03CFCE03A0110FC3A0110343B0110A4
:1009300010B5040008F08EFE02000B002000FFF747
:10094000E5FF200010BD000000B585B0017B0A481E
:1009500096239B0001930023009301330F226A44E6
:100960000EF081FE002804D00F236B44187805B0E8
:1009700000BDFF20FBE7C046080E002070B5050053
:100980000E00002406E00A2008F045FD0A34A4B257
:10099000322C0CD82800FFF7D7FF000605D5002E13
:1009A000F1D00A2010F0DCFEF0E7012000E000208A
:1009B00070BD0000F0B5CE46474680B585B0050055
:1009C0000E0003799846002B07D000239846404636
:1009D00005B0C0BCB946B046F0BD642008F01BFDB0
:1009E00003AB394A1188198092789A700B236B44B3
:1009F000AC221A70002405E034480BF0C3FF731ECC
:100A0000BB4255D82700B4425AD201343048320094
:100A100021000BF0E7FF2F480BF0B4FF297B2E4895
:100A200096239B0001930023009301330B226A4419
:100A30000EF0EEFD142008F0EEFC00212800FFF778
:100A40009DFF0028D8D025480BF09CFF297B224829
:100A500096239B00019300230093033303AA0EF017
:100A6000D7FD00212800FFF789FF8146002808D024
:100A70002800FFF769FF030711D419480BF082FF24
:100A8000BDE712480BF07EFFFA20C00008F0C3FC5F
:100A9000731EBB42B6D913480BF074FFB2E7124B7A
:100AA000010018000BF09EFF01232B71C8468EE752
:100AB000FA20C00008F0AFFC0A480BF063FFA1E782
:100AC0000A480BF05FFF82E7A43C0110CC3B011009
:100AD000783B0110AC3B0110080E0020EC3B0110EC
:100AE000283C0110103C0110483C0110803C0110D2
:100AF00010B504000A4B036000230371094B036027
:100B000038230373084B036000230361436100290A
:100B100001D1200010BD0321FFF74CFFF9E7C046CB
:100B20008C3A0110A03A0110B43C0110F0B589B024
:100B300004000579002D02D1280009B0F0BD2A4B30
:100B40001A8869468A839B788B77017B274896238E
:100B50009B00019300230093033307AA0EF058FD76
:100B600001212000FFF70AFF051EE5D005AE217B1D
:100B70001E4896239B000193002300930633320006
:100B80000EF071FD72781202B37813431B01F178F5
:100B90000F091F430F220A401202337913431B022D
:100BA000707918430BF0CBFB11490BF08CFBD6216D
:100BB00089050BF088FB0F490BF065FB20613800BD
:100BC0000BF0BDFB0C490BF07EFBD62189050BF029
:100BD0007AFB606102A8FFF7ABFE02980399FFF76A
:100BE0007AFEA060A8E7C046A83C0110080E0020CD
:100BF00000004843000048420000C84201207047FE
:100C0000024A1368013313607047C0465C15002028
:100C100070B50400054B1D6800221A6020320021C7
:100C20000BF0F2FC2560200070BDC0465C15002072
:100C300010B50379002B01D0002010BD0B480BF03C
:100C4000A1FE062007F0B8FAD0231B0640229A62C4
:100C500000220121062007F0C7F9054B01220421DB
:100C6000062007F035FA0120E7E7C046C03C011036
:100C7000010C001010B5002905D0FA2292000023C3
:100C80000AF0E4FC03E0FA2189000AF0A1FC10BD9F
:100C900070B504000D00202200210BF0B5FC6B693B
:100CA0002360AB696360EB69A3602B6AE36020009B
:100CB00070BD000010B5002B02DB0260436010BD68
:100CC000024B034A03483F2109F068FAE03A011059
:100CD000FC3A0110343B011010B5040008F0BAFCD6
:100CE00002000B002000FFF7E5FF200010BD000010
:100CF00010B5531DD8B207281BD883000F48C3581E
:100D00009F460F480BF06EFE10BD0E480BF06AFEBA
:100D1000FAE70D480BF066FEF6E70C480BF062FEB2
:100D2000F2E70B480BF05EFEEEE70A480BF05AFEC6
:100D3000EAE709480BF056FEE6E7C046083E011018
:100D4000F43C0110143D0110403D0110703D0110B4
:100D5000943D0110B83D0110E03D011030B589B05F
:100D600004000079002801D109B030BD6846FFF7C2
:100D7000B3FF00980199FFF77DFF0500206902A9E4
:100D800001F088F80028EFD002AB049A6261059A5E
:100D9000E261069AA261079A226219782C22A15474
:100DA0005978083AA1549A782523E254A3685B1B2A
:100DB000A362D9E710B5962164224900FFF7CEFF60
:100DC00010BD30B583B006AC247807AD2D7800692E
:100DD0000195009400F0E4FF03B030BDF0B5D646B5
:100DE0004F464646C0B582B007000E0003799946CB
:100DF000002B08D000239946484602B0E0BCBA4612
:100E0000B146A846F0BD0A2008F005FB002405E025
:100E100023480BF0B7FD731E434535D8A046A642C4
:100E20003AD901341F48320021000BF0DBFD38694C
:100E300000F0F0FF051EEBD039690800503002F0D9
:100E40006FF88246386918495246FFF751FF5346FA
:100E5000002B03D015480BF095FDDCE714480BF090
:100E600091FD14480BF08EFD0223019301240094A0
:100E70000333082200213800FFF7A3FF0E480BF0D0
:100E800081FD3C71A946B7E7FA20C00008F0C3FA1B
:100E90000A480BF077FDC1E709480BF073FDABE79B
:100EA0005C3E0110283E01107C3E01108C3E01107A
:100EB000B43E0110D83E0110FC3E0110243F011049
:100EC0003C3F0110F0B5C64600B507000D000379A0
:100ED0009846002B05D000239846404680BCB84673
:100EE000F0BD642008F097FA002407E012480BF0E8
:100EF00079FD01233B719846EFE73400AC4216DAE6
:100F0000661C0E482A0031000BF06CFD38001030D2
:100F100006F074FF0028E9D06B1EA342EDDDFA2035
:100F2000C00008F078FA06480BF02CFDE5E705480C
:100F30000BF028FDD1E7C046A83F0110743F011017
:100F4000D03F0110E83F011002000079002810D0C6
:100F5000084B1B68E021C9010B4007490B60074B98
:100F600004211960034B1B68DB05FBD5014B5B6853
:100F70009381704700C0044000D0044000E004406A
:100F800070B504000D00202200210BF03DFBAB8961
:100F90002380200070BD10B504001F2107F00CF85D
:100FA00000220021200007F01FF80021200007F098
:100FB000EBF810BD10B504000EF074FB1A20FFF71B
:100FC000EAFF0123237102480BF0DCFC012010BD75
:100FD0000C40011082B000226B46D91D06E08369E7
:100FE000DB06FCD403680B7001320131002AF6D015
:100FF0006B46D87902B0704700B59DB0304B186889
:1010000001235B4200930233002201210FF0AAF872
:10101000642010F0A5FB2B49152007F021FA0121CF
:10102000152007F0F3F9284B50229A635A6B3823A6
:101030001340264A136008E003A812F039FA0200B0
:10104000234B03A9180011F053FC0122214B18680F
:10105000524203A90FF00AFD0128F6D11E4903A848
:10106000FFF72AFC0028E7D11C4903A8FFF724FC5E
:101070000028E1D11A4903A8FFF71EFC0028DBD1A4
:10108000184903A8FFF718FC0028D5D1164903A872
:10109000FFF712FC0028CFD1144903A8FFF70CFC7E
:1010A0000028C9D1124903A8FFF706FC0028C3D1C4
:1010B000104903A8FFF700FC0028C6D0BCE7C046D3
:1010C000F81E0020F9100010008003403490034007
:1010D00088130020C4150020384001104040011042
:1010E000484001105040011058400110604001106C
:1010F000684001107040011000B583B002E0184B49
:1011000000221A70174B9B69DB0626D4002301933B
:101110001448FFF75FFF124A1378D9B20133DBB2EC
:101120001370114B58540A2803D01378DBB2622B8A
:10113000E8D90B4B1B78DBB20B490022CA540B4B8E
:101140001868002301AA0FF0F3FB019B002BD6D0F7
:10115000074B802252051A60D1E703B000BDC0469C
:10116000502902200080034060150020C415002093
:1011700004ED00E010B582B00379002B02D000200E
:1011800002B010BD1E480BF0FDFB96211D4C8901DD
:10119000200008F085FD0221082006F00DFF022145
:1011A000092006F009FF002301220821200008F091
:1011B00045FD0021200008F057FD13480BF0E2FB2D
:1011C000124811F08EFB12480BF0DCFB0022642168
:1011D0000A200FF087FA0F4B18600F480BF0D2FB74
:1011E00080220E490E48002301930233009300230E
:1011F00092000FF0F7FF0B480BF0C4FB0120BFE794
:1012000078400110008003409840011088130020AE
:10121000B8400110C4150020D8400110F44001105E
:10122000F90F00100041011030B5084B1C685D68D3
:10123000046045609C68DD688460C5601C695D6908
:101240000461456121229B5C037630BD8813002038
:1012500070B50400274B1B685E6931005931FF31BE
:1012600012F0E2F8051E15D0224B1B6858698D302C
:10127000FF30210006F015FC831C14D0002817DB7A
:101280001D4821000BF0AEFB002D16D000200FF002
:10129000E5FF70BD83239B00F11830008D30FF30D7
:1012A00006F070FCE0E7154821000BF09BFBEBE734
:1012B000134821000BF096FBE6E70E4C23685869B3
:1012C00002005932FF328325AD0041198D30FF30C5
:1012D0000C4B06F0F9FB2368586941198D30FF303B
:1012E00006F076FC236859695931FF3106480BF046
:1012F00079FBCBE77C1E00205841011018410110FA
:1013000038410110030500008842011070B5050046
:101310000C0009480BF036FB084928008D30FF30DF
:1013200006F088FB002C02D1002CFDD170BD0448D2
:101330000BF028FBF8E7C0466C410110B80C002008
:1013400094410110F8B53B4C236858698326B600D8
:1013500081198D30FF3006F015FC236858698D30F7
:10136000FF3006F08DFB236858690021FFF7CEFFA0
:101370002368586930498D30FF3006F06EFB2368D2
:10138000586904232D4A011D8D30FF30FF3306F0CC
:101390009BFB236858699827BF00C219011D8D3037
:1013A000FF30042306F03CFC23685A690121D15127
:1013B0005869011D8D30FF3006F08EFC2368586996
:1013C000C219011D8D30FF30042306F057FC23683D
:1013D0005869011D8D30FF3006F0D4FB23685B692E
:1013E000D95917480BF0FEFA23685B691800593089
:1013F000FF30DA5913490AF057F823685869020098
:101400005932FF3281198D30FF300F4B06F05CFBF3
:101410002368586981198D30FF3006F0D9FB2368A5
:1014200059695931FF3109480BF0DCFA00200FF0FF
:1014300015FFF8BD7C1E0020B80C002030420110C2
:101440003C42011074420110030500007C4201106F
:1014500070B50324002C15DBA00000194000012307
:101460008340013B8B4201DD013CF3E7002C0AD0B5
:101470000325064BA400E3580A0002410448290052
:101480000BF0B0FA70BD0425F3E7C0460C4701101D
:101490009C42011030B5D1B004000A0005008D3522
:1014A000FF3543A9280006F02BFC00280CD051B0D2
:1014B00030BD13480BF096FA02992000FFF7C8FFE1
:1014C000104803A90BF08EFA01AA43A9280006F0E0
:1014D00054FC0028EBDB0DD001AB1B78012BE8D0CE
:1014E000022B03D008480BF07DFAE5E707480BF024
:1014F00079FAE1E743A9280006F02CFCD7E7C046BB
:10150000A442011094420110B4420110AC420110F7
:1015100070B504008D30FF3006F044FC0503280050
:101520000AF00DFFD62189050AF0CDFE061C0D48F4
:101530000BF058FA29002000FFF78AFF2F200BF04C
:10154000EDF9802149032000FFF782FF0649301C96
:101550000AF0B9FE0AF054FF02000B0003480BF03A
:1015600041FA70BDBC4201100000C842CC420110DB
:10157000F0B5CE46474680B583B004004C480BF02A
:1015800001FA4C480BF0FEF901200FF0C5F94A4B67
:10159000186025008D35FF354849280006F05DFAB2
:1015A000002800D06EE046480BF0ECF923005833D9
:1015B00044490B60002398468B60261D0433424A41
:1015C0000091FF333100280006F0ACFA98239B000D
:1015D0009946A14404234A463100280006F020FB26
:1015E0009827BF00E3590133E3513100280006F08A
:1015F00073FB04234A463100280006F03FFB31000C
:10160000280006F0BFFAE15930480BF0EBF95536E7
:10161000FF36E2592E49300009F046FF83239B0034
:10162000E7182C4B32003900280006F04DFA39003B
:10163000280006F0CDFA284831000BF0D3F92749ED
:101640002000FFF727FF26480BF0CCF92000FFF71A
:101650005FFF24480BF096F9802223492348434634
:101660000193023300930023D2000FF0BBFD20480A
:101670000BF088F901232370012003B0C0BCB946E8
:10168000B046F0BD1B480BF07DF91B480BF07AF912
:101690001A4807F0C0FE1A480BF074F9074E3100E3
:1016A000280006F0C7F93100280006F0D6F97AE7DD
:1016B000D8420110F0420110FC1E0020B80C00209E
:1016C00070430110C8150020304201103C42011047
:1016D00074420110030500007C4201108443011094
:1016E0008843011098430110B843011015190010E8
:1016F000CC430110104301102C43011060EA00009C
:101700005443011082B070B50492059305008D35E5
:10171000FF3583239B00C418B53BFF3B04AA21007F
:10172000280006F0ABFA2100280006F051FA70BC40
:1017300008BC02B018470000F0B5DE4657464E46DA
:101740004546E0B5BFB005000A00684B190031A856
:1017500009F0AAFEC6235B009846A8448C3BFF3BD9
:1017600031AA1CA9404606F0AFF9831C06D0002818
:1017700009DB5F4831A90BF035F987E05D4831A9F5
:101780000BF030F9ABE05C4831A90BF02BF9A6E087
:10179000E30006AA9446634458689B6899460AF099
:1017A0002FFE06000F00554D48460AF029FE009016
:1017B000019132003B0028000BF014F9013475E070
:1017C0001A0106A98C466244D068126991465D1CD4
:1017D0002B0163445A6892469B689B460AF010FEB0
:1017E00006000F00464C58460AF00AFE0490059188
:1017F00050460AF005FE0290039148460AF000FEAA
:101800000090019132003B0020000BF0EBF82B0020
:10181000012BD5DD3B480BF0E5F85B200BF07EF8A3
:1018200000240AE0230014335B0006AA94466344B4
:10183000998835480BF0D6F80134002CF2DD314898
:101840000BF0D0F85B200BF069F80024002C38DD99
:101850002C4C20000BF0C6F85B200BF05FF806A9BB
:101860005023CE5C149A159B28480496189E199F05
:1018700002960397169E179F009601970BF0B2F8F9
:1018800020000BF0AFF80A200BF048F8582306AA06
:101890001CA9404606F0C4F957281CD906991C48D3
:1018A0000BF0A0F85B200BF039F80024002C00DCD2
:1018B0006EE714480BF096F85B200BF02FF800232E
:1018C000A6E723000C339B0006AA99580E480BF09C
:1018D00089F80134BAE71CA9404606F053F93FB035
:1018E000F0BCBB46B246A946A046F0BD744201100A
:1018F000E443011018410110384101100044011067
:10190000104401100C440110244401102C44011017
:10191000F843011010B5C4B04D49D1220FA80AF008
:1019200079FE0FA80BF05EF80BE04A480BF05AF86E
:10193000494B1B685C69FEF783FF01002000FFF73D
:10194000FBFE28200FF00CFF44480BF04BF80BF087
:101950005DF8FF2101400B00623B132B74D89B0004
:101960003F4AD3589F463C4B1B685A6998239B00BB
:10197000D1583C480BF036F8E3E73B480BF032F81F
:101980000BF044F8C0B2592803D038480AF0FAFFE7
:10199000D7E737480BF026F80BF038F8C0B24328E9
:1019A000F3D139380AF0BAFF802232493248002395
:1019B000019314330093002392000FF013FCC0E74F
:1019C0002E480BF00FF8FEF73BFF02002C4902A84F
:1019D00009F06AFD2B4802A90BF004F82A480BF025
:1019E00001F80BF013F8C0B2592803D027480AF0C9
:1019F000C9FFA6E74F380AF091FF80222449254805
:101A0000002301931533009302AB92000FF0EAFB21
:101A100097E721480AF0E6FF93E720480AF0B2FF73
:101A20000D4B1B6858691E49FFF734FD89E71D48B7
:101A30000AF0D8FF084B1B685869FFF769FD80E77B
:101A40000FA80AF0CFFF7CE717480AF0CBFF78E732
:101A5000DC450110404401107C1E00203C44011074
:101A6000B0460110544401106C440110D0440110E0
:101A700094440110C044011045130010EC440110BF
:101A800074420110144501102C45011064450110E9
:101A900058450110511200107C4501108445011079
:101AA000844301109C450110B0450110002070478F
:101AB00010B5074B18680023002200210EF05AFED3
:101AC000012801D1002010BD01204042FBE7C046A3
:101AD000FC1E002010B5064B186814210FF06EF89C
:101AE000012801D1002010BD01204042FBE7C04683
:101AF000FC1E002010B5436A594380225203881807
:101B0000EFF3108472B6190011F0DEFE84F3108832
:101B1000002010BD10B50C001900436A5C438023FF
:101B20005B03E0188018EFF3108472B6029A11F08C
:101B3000B3FE84F31088002010BD000010B5406A89
:101B400041430548844661448918029A18000AF006
:101B500061FD002010BDC0460000101010B5002926
:101B600005D0FA229200002309F070FD03E0FA216B
:101B7000890009F02DFD10BD10B5002B02DB0260BD
:101B8000436010BD024B034A03483F2108F006FBA7
:101B9000E03A0110FC3A0110343B011010B504008A
:101BA00007F058FD02000B002000FFF7E5FF2000C2
:101BB00010BD000030B5B7B0FA2080000FF0D0FDA6
:101BC00071E02022002116A80AF01EFD4A4B1B6876
:101BD00018680A2216A90EF049FF012804D0013422
:101BE000002CEEDD002409E0E3001EAA94466344C5
:101BF000043316AA21CA21C3F1E70134012C18DCF1
:101C00002022002116A80AF0FFFC3B4B1B685868F5
:101C10000A2216A90EF02AFF0128EED123011EAADE
:101C20009446634416AA0C3323CA23C312681A606D
:101C3000E3E7002400E00134002C17DC202200211F
:101C400016A80AF0E1FC2C4B1B6898680A2216A91A
:101C50000EF00CFF0128EED1230014335B001EAA06
:101C60009446634416AA12889A80E4E70024002C64
:101C70002BDD16A8FFF7D8FA202216A92CA80AF007
:101C8000C9FC1D4B1B685C69502220A968460AF0FC
:101C9000C1FC1E9A1F9B2000FFF734FDFA2189002A
:101CA00035A80FF001FD0FF085FB3590582200217B
:101CB0001EA80AF0A9FC14A8FFF770FF1498159944
:101CC000FFF74CFF1E9000248AE72022002116A86F
:101CD0000AF09AFC084B1B6818690A2216A90EF034
:101CE000C5FE012801D00134C1E723000C339B005D
:101CF00016991EAA9950F6E77C1E002010B5002107
:101D000007F07CFB10BD0000B0B582B002AF15003B
:101D1000531C0832D208D2006C46A21A954602AA79
:101D20001070002003E00C18013024781454A842ED
:101D3000F9D308489621890001910021009177315B
:101D40000DF066FC023002D00020BD46B0BD01207F
:101D5000FBE7C046080E0020F0B585B00D00160068
:101D60000F226A4410700D4C9627BF000197012383
:101D70000093772120000DF04BFC01970023009386
:101D800033002A00772120000DF06DFC023002D0D4
:101D9000002005B0F0BD0120FBE7C046080E002082
:101DA00070B5040004A8057805A800785326A1554D
:101DB000542162545022A3545223E554013BE05471
:101DC00020005030210001F03BF910490022200092
:101DD000FEF78EFF58230122E25402332C32FF32E9
:101DE000E2520233C83AE252210058312200012067
:101DF00001F0B4FA0500064902002000FEF778FF62
:101E0000002D01D1012070BD0020FCE71C4701100E
:101E10002C47011030B583B0040001230373184B25
:101E20000364184B4364184B83641423837301F0D9
:101E30005BF80500154902002000FEF759FF002D50
:101E400002D0002003B030BD20005030210001F04E
:101E500067F805000E4902002000FEF749FF002D3B
:101E600001D00020EEE702230193013B00930433ED
:101E7000082200212000FFF793FF0120E2E7C0467F
:101E8000591D0010091D0010FD1C001044470110D1
:101E90007C3E0110F0B583B004000F00010001206A
:101EA00001F06EF8020006001D492000FEF720FF39
:101EB000002E02D0002003B0F0BD210050312200DE
:101EC000012001F05FF95C23E25A53019B1A9B0049
:101ED0009B18DB00C018FA21890009F079FB01305A
:101EE0000FF03EFC0025042D13DC23006A46073268
:101EF0003900012001F08CF9020006000949200098
:101F0000FEF7F6FE002E04D001200FF029FC01356B
:101F1000E9E7002E01D10120CDE70020CBE7C04644
:101F20005047011064470110F8B50C000AF007FA99
:101F3000061CE22189050AF0C6F9071CE08B0AF0AD
:101F4000FEF9051CEA2189050AF0BDF9011C381CBF
:101F50000AF099F9071C2023E05E0AF0F5F9011C4C
:101F6000381C0AF0B0F9071CDC218905301C0AF086
:101F7000AAF9061CE4218905281C0AF0A4F9011C11
:101F8000301C0AF080F9011C0AF09DF9051C22237F
:101F9000E0560AF0D9F98321C9050AF094F9011C29
:101FA000281C0AF090F9011C381C0AF071F9A06392
:101FB00001490AF072F9F8BD0000A045F0B5C64627
:101FC00000B582B007000C00886BFC2189050AF07F
:101FD0007AF96C490AF057F9051C011C0AF073F9EB
:101FE000061C2E23E0560AF0AFF9DC2189050AF021
:101FF0006AF9011C301C0AF066F9061C2C23E05E0D
:102000000AF0A2F9291C0AF05EF9011C0AF040F955
:10201000311C0AF03DF9FA2189050AF054F9061C31
:102020002A23E05E0AF090F98F21C9050AF04BF9E6
:10203000011C301C0AF02CF901902823E0560AF00C
:1020400083F9291C0AF03FF9291C0AF03CF9E22126
:1020500089050AF038F9061C2623E05E0AF074F9B7
:10206000291C0AF030F9011C301C0AF011F9D821A2
:1020700089050AF028F9E02189050AF024F9FE21F2
:1020800089050AF005F9051CA08C0AF058F9011C15
:10209000281C0AF018F9051C38000AF050F9011C38
:1020A0009320C0050AF0EFF8071C281C0AF06EF90F
:1020B000002864D0E621890501980AF004F9011C82
:1020C000381C0AF0E0F830490AF0FDF8291C0AF043
:1020D000E4F8051C3223E05E0AF036F9291C0AF008
:1020E000F2F8291C0AF0EFF8C02189050AF0EBF894
:1020F000071C3023E05E0AF027F9E02189050AF089
:10210000E2F8291C0AF0DFF88046EE218905281C38
:102110000AF0D9F8061C011C0AF0D5F8011C301C85
:102120000AF0D1F8061C3423E05C0AF00DF9DC213A
:1021300089050AF0C8F8011C301C0AF0C4F8061C16
:102140004146381C0AF0A4F8311C0AF0A1F8061C1C
:102150002F23E0560AF0F8F88621C9050AF0B3F8F3
:10216000011C301C0AF094F8F62189050AF0ABF83E
:10217000291C0AF08DF802B080BCB846F0BD0020E2
:10218000F9E7C04600007A470050C345F0B5C6469F
:1021900000B506000C00886B44490AF07EF8051C67
:1021A00030000AF0CCF8061C208A0AF0C8F8832117
:1021B000C9050AF088F8071C142020560AF0C4F854
:1021C000FC2189050AF07FF8291C0AF07CF8011C23
:1021D000381C0AF05DF8011C301C0AF054F8061C8B
:1021E000608A0AF0ACF8DA2189050AF06CF8071C5D
:1021F000152020560AF0A8F8E22189050AF063F8B4
:10220000291C0AF060F8FE2189050AF041F8804691
:10221000162020560AF098F8D62189050AF053F8BE
:10222000291C0AF050F8291C0AF04DF8011C404600
:102230000AF02EF8011C381C0AF045F8311C0AF08F
:1022400042F8061CE07D0AF07AF8E22189050AF0DE
:102250003AF8071C182020560AF076F8D421890590
:102260000AF031F8011C281C0AF02DF8391C0AF07C
:102270000FF8311C0AF027F8311C0AF024F8311C41
:102280000AF006F8041C0A490AF054F8002807D19D
:102290000021201C0AF048F8002802D0002400E0A9
:1022A000034C201C80BCB846F0BDC0460000A045D1
:1022B0000000C842F0B5CE46474680B5A1B00C003C
:1022C00017000AF03CF880460120A0400AF037F8D9
:1022D000814610AE264D4022290030000AF09AF9BE
:1022E00029004031402268460AF094F93E23F8560E
:1022F0000AF02AF81F4909F0E6FF1F4909F0C8FF54
:10230000051CA400A0591D4909F0C7FFFE2189053D
:1023100009F0BEFF291C09F0D6FF051C6B46E058EA
:10232000164909F0BAFFFE21890509F0B1FF1449E9
:1023300009F0C9FF494609F0C6FF041C8821C905F8
:10234000404609F0A0FF291C09F0A7FFFE218905DE
:1023500009F09EFF011C201C09F0B5FF011CFE20A6
:10236000800509F09AFF21B0C0BCB946B046F0BD67
:102370007C4701100000A0400080A7440000C84234
:10238000BD37063470B503008020C002C8400B4A38
:10239000944663445C00E41880235B019C466444DB
:1023A00009F0CDFF064909F08EFF051C200009F059
:1023B000CBFF011C281C09F070FF70BD00FEFFFF61
:1023C00000247449F0B5C64600B505000C00C823CA
:1023D0005B00984200D91D001920205609F0B4FF77
:1023E000F621890509F06FFF324909F051FF071CFA
:1023F0001A23E05E09F0A8FFE021890509F063FFD8
:102400002D4909F060FF2D4909F042FF80461C204C
:10241000205609F099FFEA21890509F054FF061CAE
:10242000280009F08CFF414609F04DFFFE21890587
:1024300009F02EFF391C09F046FF051C0E2020561E
:1024400009F082FF311C09F03EFF291C09F020FF32
:10245000051C3C23E05C09F072FF8121C90509F0ED
:1024600017FF011C8120C00509F017FF291C09F086
:102470002AFF051C3D23E05609F066FF104909F0CC
:1024800022FFFE21890509F003FF011CFE208005C3
:1024900009F003FF011C281C09F015FF094909F088
:1024A000F2FE094909F00FFF09F0A2FFC0B280BC9B
:1024B000B846F0BD000044426F12033A75021A3B61
:1024C0006F12033B0000C8419A995940FC231B013D
:1024D00098420CD2002302E080080133DBB23F288F
:1024E000FAD8C0B29B01DBB2C018C0B27047FF205F
:1024F000FCE700280AD0036C002B0AD0436C002BA9
:102500000AD0836C002B0AD0002070470120404283
:10251000FBE701204042F8E701204042F5E70120B7
:102520004042F2E770B582B006000C000800FFF7E9
:10253000E0FF051E25D176B2002E25DB1023627B3D
:102540009A421ED06373266C636801226946073184
:10255000F320B0474C23E054002817D16B46D91D17
:102560000B78102293430B70607B024013430B7077
:10257000666C636801227320B0474C23E054002846
:1025800007D1280002B070BD0023D8E702256D42B4
:10259000F7E702256D42F4E770B582B00400FFF75B
:1025A000A8FF051E0FD1266C63680122694607311A
:1025B000F320B0474C23E054002807D16B46DA796A
:1025C000102313406373280002B070BD02256D42D2
:1025D000F9E770B504000E0015001000FFF789FF41
:1025E000002C0BD000280CD12378B34205D92670DB
:1025F0004D22AB5C01210B43AB5470BD0120404226
:10260000FBE701204042F8E710B50E4B984216D880
:1026100043011B1A9B001818C000DE21FF3108F08F
:10262000D7FF80B2002302E080080133DBB23F28ED
:10263000FAD8C0B29B01DBB2C018C0B210BDFF20F7
:10264000FCE7C0468207000080001018036889007C
:102650005218116801601360704770B583009C5870
:10266000A6788B009B589D78247864B2002C04DBFC
:102670001B785BB2002B0FDB70BD00241C57002CB5
:10268000F6DAAD1BABB202339BB2012B01D9022D9E
:10269000F2DDFFF7D9FFEFE7FFF7D6FFECE7F0B584
:1026A000DE4657464E464546E0B587B081468B46E6
:1026B00090461E001422002101A809F0A5FF300059
:1026C000FFF717FF8246002849D14B46002B4AD01E
:1026D0005B46002B4BD04346013B092B01D800241D
:1026E00010E004235B429A4631E063004A46515DA4
:1026F00001AAD154630001335A46515D01AAD15455
:102700000134A4B22500444510D2337B002BECD118
:102710004B465F19585D3100FFF704FF82466300A6
:1027200039787F220A4001A9CA54E3E75346002BB7
:102730000DD1746C43465A007368013A01A90878B8
:1027400069460531A0474C23F054002813D1504668
:1027500007B0F0BCBB46B246A946A046F0BD012377
:102760005B429A46F3E701235B429A46EFE7012377
:102770005B429A46EBE702235B429A46E7E7F0B5F5
:10278000D646474680B58FB005000F001400019271
:1027900098462E2302AA944663446E221A70643A25
:1027A00000210BA809F030FF0A22002108A809F037
:1027B0002BFF0A22002105A809F026FF0A2200218A
:1027C00002A809F021FF022F4BD0032F24D0012FA4
:1027D00000D08FE00BAB5A221A7068884146FFF791
:1027E000F1FD08AB187005AB64221A70A888FFF7DA
:1027F0006DFE02AB18700023237043463A0008A90F
:102800000BA8FFF74CFF061E00D16BE030000FB0A5
:10281000C0BCBA46B046F0BDEE68002E6CD0AB68C6
:10282000002B6CD0002416E022005A320BAB1A5554
:10283000AB686700D85B4146FFF7C4FD08AB18558D
:102840002200643205AB1A55F05BFFF73FFE02AB86
:1028500018550134E4B22F7CA742E5D8019B1F70C4
:10286000CBE7EB689A46002B4CD0AB68002B4CD0E2
:102870006B8A002B02D00026002417E00326FBE71A
:1028800022005A320BAB1A55AB686700D85B414641
:10289000FFF798FD08AB18552200643205AB1A55B6
:1028A0005346DB5D02AA13550134E4B22B7CA342EC
:1028B000E6D8019A13702F7C688AFFF7A5FE2F23B4
:1028C00002AA944663441870002E9FD14346012209
:1028D0002F2161442E206044FFF7E1FE061E00D048
:1028E00094E78AE743463A0002A905A8FFF7D7FE16
:1028F00006008BE7012689E70126764286E7012656
:10290000764283E70126764280E7012676427DE71C
:10291000F8B5CE46474680B507000E0090461C002D
:102920001800FFF7E6FD051E1FD1002E20D0237BE7
:10293000002B0FD0236C9946636842463100380063
:10294000C8474C23E054002815D12800C0BCB94624
:10295000B046F8BD21003800FFF7E4FD051EE9D1BF
:1029600080235B421F43FFB2E4E701256D42ECE7A1
:1029700001256D42E9E702256D42E6E710B582B018
:1029800004006B46D91D00230B7003000122F020C8
:10299000FFF7BEFF002803D16B4607331B78A36007
:1029A00002B010BD70B58CB004000300172201A95D
:1029B0008A20FFF7ADFF002800D176E0002872D111
:1029C00001AB2022995CDA7F09020A43E28359783D
:1029D0001A7809020A43228402229A562226A25514
:1029E00059791A7909020A43A284D9799A79090294
:1029F0000A43E284082159562822A154D97A9A7AA6
:102A000009020A436285597B1A7B09020A43A2859F
:102A10000F2159562E22A1540E2159560132A1548C
:102A2000D97C9A7C09020A432286597D1A7D0902C3
:102A30000A436286997D3422A1545D7E1A7E0F215D
:102A400011402D0129432182D97D090112090A4330
:102A500062821A229A5622751B229A5662751C228D
:102A60009A56A2755A7FE2751E229A562276232222
:102A70009A566276995D21229A5C09020A43628322
:102A800024229A5622772722995C09320A40121191
:102A90003C216254252299561832A154143A9B566F
:102AA0001B111532A3540CB070BD23000E221B2144
:102AB0006944E130FFF72CFF0028F4D12300052200
:102AC00029216944FFF724FF78E70000F0B5DE46CE
:102AD00057464E464546E0B58BB082460C009146BF
:102AE0001122002105A809F08FFD0526002510E020
:102AF0001F32134062461A431300227005AA117C4C
:102B000010220A40134323705BE0002D66D0013E83
:102B1000F6B2002E00D1A2E0002D00D09FE0534677
:102B2000180150441D30C0B24B46112205A9FFF7D1
:102B3000EFFE0500002C00D18FE005AB18787F2256
:102B4000010091438C4621700F221040607059782B
:102B5000A17099780903DF783F0139431F793F0954
:102B600039430091597909039F793F013943DF794E
:102B70003F0939430191197A09025F7A39438B463B
:102B80005F7BBF00997B8A093A430292DF7BBF00DB
:102B90001B7C9A0917430F220A4003920F221A4006
:102BA00090464A469268012AA2D020230B406246F2
:102BB0001A431300227005AA917B10220A40134386
:102BC00023700023E356002B9FDB002D9FD14B4643
:102BD0009B6C4A4651682648984798E7E11C5A3052
:102BE0004B460122FFF794FE051E1BD0002D8ED10F
:102BF00049460198FFF798F9A06049460098FFF709
:102C0000DDF9E06049465846FFF7C0FA20614B46BF
:102C10009B68012B1BD04A4603990298FFF74AFB99
:102C200060611CE06078211D5030C0B24B4601222B
:102C3000FFF76EFE051E00D069E76078611D643005
:102C4000C0B24B460122FFF763FE0500CEE74146C6
:102C50003800FFF797FB606101E001256D42280015
:102C60000BB0F0BCBB46B246A946A046F0BDC0467C
:102C700010270000F0B5DE4657464E464546E0B503
:102C80009FB00400069089463322002111A809F064
:102C9000BBFC1E22002109A809F0B6FC2368002B0A
:102CA0000BD04B46332211A91D20FFF731FE0190B6
:102CB00000280DD000231D0057E06368002BF0D1E1
:102CC000069B9B68002BECD101235B420193F1E74B
:102CD0004B461E2209A95020FFF71AFE0190E9E792
:102CE00021688A460978202002401143524611701B
:102CF00021680A7811A8C35C9C46102360460340F3
:102D000013430B702368597809AA515C1971216823
:102D10004B780A33D35CCB7021684B781433D35C87
:102D20004B7123689A4649460398FFF7FDF85346CE
:102D3000986023689A4649460298FFF73FF9534640
:102D4000D860266849463800FFF720FA30614B46C4
:102D50009B68012B00D185E024684A4605990498B8
:102D6000FFF7A8FA60610135EDB2022D00D980E0CD
:102D7000019B002B7DD12B01EB18DBB211AAD15C9A
:102D8000AC0006988446644420687F26B1430170F5
:102D9000D05C26680F21084070705E1C2068965D2C
:102DA0008670981C165C3603D81C105C0001064324
:102DB000181D105C000906430296581D105C0003A4
:102DC0009F1DD75D3F013843DF1DD75D3F09384365
:102DD00003901F000837D75D3F02092084469C44BA
:102DE0006046105C07430D2084469C446046105C9E
:102DF000800084460E2083469B445846105C8246E1
:102E00008009804660464646304304900F20844641
:102E10009C446046105C800084461033D25C90096C
:102E200080466046464630438046504608400590FE
:102E30001140079149468968012900D150E721686E
:102E40000B7820225046024013430B7022681378FF
:102E500011A95846095C8C461021604601400B437D
:102E600013704FE7246807994046FFF78BFA6061BB
:102E700079E701981FB0F0BCBB46B246A946A04610
:102E8000F0BD000030B583B005006B46E022DA717A
:102E90006B462A3A9A71FFF72CFB041E04D12B7B58
:102EA000002B04D0002C07D0200003B030BD280038
:102EB000FFF772FB0400F5E72B000122694606319B
:102EC00068460730FFF7EBFB041EEDD1AB6C696879
:102ED000044898472B7B002BE6D12800FFF75CFBCA
:102EE0000400E1E71027000010B50400FFF7CAFF57
:102EF000230001222100D020FFF70AFD002807D17E
:102F00002378612B09D12000FFF738FD002800D07D
:102F100010BD2000FFF746FDFAE703204042F7E727
:102F200010B582B004000B00052269467120FFF73E
:102F3000EFFC002C20D0002819D16B465A780723CB
:102F40001A4022706A46127992101A40E2706A465C
:102F5000D2785109617092101340A3706B461B78B0
:102F60005BB2002B05DB6B461B795B09237102B05A
:102F700010BD08232371FAE701204042F7E7000063
:102F8000F0B583B007000D006B4674229A710026DD
:102F900003E0002E22D0002C20D12B000122694614
:102FA00007317420FFF7B4FC041EF2D16B46DA79C6
:102FB00003231E001640134210D06B46D91D032375
:102FC0009A430A702B00012268460630FFF767FB20
:102FD0000400AB6C69680E489847DAE7002F01D00F
:102FE000002C02D0200003B0F0BD6B46DB79032239
:102FF00093433A4013436A46D3712B00012269463A
:10300000073168460630FFF74AFB0400EAE7C0468E
:103010001027000030B583B004000B0000280CD04E
:103020006A46D51D012229007420FFF771FC2A7819
:1030300003231340237003B030BD01204042FAE760
:10304000F0B585B005000C004D4B1A6802921A7954
:1030500002AB1A7105220021684609F0D5FA210059
:103060000F206844FFF7D6FF00280ED0002D00D1B6
:103070007EE000280DD00F236B441B78002B02D07C
:10308000002800D177E005B0F0BD2100FFF778FF00
:10309000ECE702AB1878230005226946FFF738FCFD
:1030A0004D230022E254002851D00028E3D1A81C6F
:1030B00022000521FFF78DFA0028DCD1220005212E
:1030C0002800FFF786FA0028D5D1281D2200082104
:1030D000FFF77FFA0028CED16B461A79EB789B0078
:1030E0001C261C210B40B2431A436B461A71DF7831
:1030F00068781F233B4040010343DBB26846C3703E
:10310000A87880000140B3430B436946CB704B78ED
:10311000287807218B4301400B4369464B7029797E
:10312000082922D000201F23134049010B436A467F
:10313000137112787F231340C00103436A46137052
:1031400023000522694602A8FFF7A9FA93E7E81CC5
:1031500022000721FFF73DFA002800D08BE7681C0A
:1031600022000521FFF735FA9FE701200021DAE769
:10317000012040427FE721001800FFF701FF82E7AE
:103180007447011070B582B006000C0015001C4B8E
:103190001A6800929B886A46938000292AD0481CAE
:1031A0002A000521FFF715FA002814D0002824D1A1
:1031B00063786A46D25CA3786946CB5C9B18227818
:1031C0008A5CD2180F4B53430F4A9818022E12D024
:1031D0000E4A98180FE0A01C2A000521FFF7F9F904
:1031E000002801D0002006E02A0005212000FFF77A
:1031F000F0F9DBE7002002B070BD0020FBE7C0461D
:10320000FC470110AB070000C5100000AD14000022
:10321000F0B5D6464F464646C0B596B004008A463D
:10322000160098460C22002113A809F0EDF901AD13
:1032300048220021280009F0E7F9139507AB149301
:103240000DAB15934046FFF754F9002800D079E004
:103250005346002B00D179E0012C11D0023CE4B29E
:10326000012C1DD9002401239846002E00D171E0C5
:103270003470404616B0E0BCBA46B146A846F0BD30
:1032800042465146FFF722FC8046002858D153465B
:103290001B785BB2002BE8DB002402239846E4E7AE
:1032A000414613A8FFF7E6FC80460024002301E016
:1032B0000133DBB2022B25D84246002A09D19A00FD
:1032C00013A95258127852B2002AF1DA0134E4B24A
:1032D000EEE700250CE013AA49462800FFF7BDF9E8
:1032E0004B460133DBB299464B46022BF3D93D00E6
:1032F000012D0BD84346002B06D16B1CDBB21F00FF
:103300009946F1E70025F3E7002100E000210229BA
:1033100011D84346002B0ED18A0013ABD3584D0071
:103320006D18ED0055442A00A1CBA1C2A1CBA1C2CA
:103330000131C9B2EBE7002C97D10223984694E7FC
:10334000002492E701235B42984692E701235B4207
:1033500098468EE701235B4298468AE770B582B0B3
:1033600005000E0014006B460022DA71234B6A46FA
:10337000138000293FD021000020FFF701FE002824
:1033800001D002B070BD23006A4607322900300028
:10339000FFF7F5F90028F4D12300022201A97030CB
:1033A000FFF7B6FA0028ECD13278012A1CD00022AF
:1033B000012001A90B78C0000825AB4303430B7023
:1033C0004B786846C5790F208343284003434B70F0
:1033D000120130200240834313434B70230002222A
:1033E0006846FFF75CF9CCE7A368012B01D0002009
:1033F000DFE70132DDE701204042C2E770710000E3
:1034000030B503680A68934204D049688B4207D0FC
:10341000002030BD45684C68A542F6D10120F8E790
:1034200043689A4201D00020F3E70120F1E730B56C
:10343000002306E09D00441922684D596A4022602D
:103440000133022BF6DD30BD03681B0DE022D200F4
:1034500013420FD043680A6893420DD080684968D0
:1034600088420BD08B420BD0824201D0002002E078
:10347000012000E0002070470120FCE70120FAE76E
:103480000120F8E782B0019001AB1B68002B03D04C
:103490008B42FAD1012000E0002002B070472830B2
:1034A00000E018000368002B03D08B42F9D11B68A1
:1034B00003607047836A0B60816270470048704701
:1034C0000100020010B5FFF7F9FF000C10BD10B5A8
:1034D000FFF7F4FF80B210BDC36E0366704710B5EE
:1034E00000238365C365FFF7F7FF10BD10B5040027
:1034F000406D081AE16E401808F06AF8A36D8B421F
:1035000008D9646EC808235C07221140063A8A4035
:1035100013432354002010BD30B5CB001BD5194CEC
:1035200003681A004A40144217D09A0592150132D6
:1035300013D0144C0C40144D1D40144A2A4394429D
:103540000BD00C0DE022D20022408025ED00AA42D3
:1035500007D0002004E00E4CE2E7002303600120C6
:1035600030BD890A8905890D9A0A9205920D8A4211
:1035700005D364B2A4021B1903600020F0E7002009
:10358000EEE7C04600FCFF7F00FC0F000000F04F9C
:1035900000FC0F708B059B1501335A4253415B1899
:1035A0009B059B0D04330268D3180360002070470D
:1035B00010B5836EDB6A002B0ADD88680130591C68
:1035C0000123194308F004F8002903D0002000E08B
:1035D000002010BD0120FCE710B5FFF760FF0020C0
:1035E00010BD0B6B9B0301D4C86A7047CB6A486B54
:1035F0009842FAD21800F8E7036B034A13404902D5
:103600000B4303637047C046FFFDFFFF30B5036BFC
:103610000D4C23400D4CA1420FD08D020C4C2C437D
:1036200023430363094B994209D013684363074B53
:10363000994206D05368836330BD0024F0E700232D
:10364000F4E70023F7E7C046FF030080FF03000014
:103650000000F04F03680133036000207047000052
:1036600010B5C36E8B4205D9806EC3689847002899
:1036700007DC10BD064B074A8A210748490006F0BF
:103680008DFD064B034A8B210348490006F086FD59
:10369000F048011058550110044801103448011039
:1036A00010B5026B93059C0D002B01D1002911DB95
:1036B000FF235B009C4201D9002911DC89180163BA
:1036C0004B005B0889054A1E9141C9070B43036300
:1036D000002010BD054B064A0648074906F05EFD6E
:1036E000064B034A0348064906F058FD40480110BE
:1036F0002855011004480110D1120000784801102B
:10370000D212000010B50C00CB68826E126BFF2144
:10371000180008F079FF01235B42236010BDF8B563
:103720000F000E68836E5C6A083C2100300007F0D1
:103730004FFFA64212D3013807F0F0FE023080009E
:10374000301A210007F044FF05004443341B07F002
:10375000E5FE8000241A3C602800F8BD0020FCE74C
:10376000F0B5DE4657464E464546E0B587B0804642
:103770008B4617000393109B9946119E139BF218DA
:10378000836E5B6A9A4200D9E9E0C36E002B00D1D8
:10379000E1E04B4500D8E5E04D4694E05B465C68CF
:1037A0009B68E218B24224D9B44207D9A21B049202
:1037B000139B9A4200D892E0049390E0A21B994692
:1037C0009144139B994500D999465B46D968341BAF
:1037D00009194A46129808F01DFF129B4B44129398
:1037E0004E44139B4A469B1A13936CE0139B04931D
:1037F00075E0139B049372E07B68BA689918B14234
:1038000070D9B34205D99B1B049A9A426AD9049392
:1038100068E0991B91468944049A914500D99146E4
:10382000F968F31AC9184A46129808F0F3FE129B79
:103830004B4412934E44139B4A469B1A139342E007
:10384000129A524412925644059B049C1C1B139BD3
:103850009C46A4446346139335E04346DB6E002B3D
:1038600001D0AB426BD93D6043469B6ED9693000B5
:1038700007F0AEFE0491731A9A467B60039BF4181E
:1038800043469B6E9946D9696418013C200007F0B5
:103890009FFE641A4B465B6AA34200D92300049A38
:1038A000921B4946096BD2188A4200D90A00BA60B5
:1038B0004346986E4468FB68009252462900A04730
:1038C000002842DC34D1139B002B46D05B46002BF2
:1038D0008CD01B68AB4200D160E7139B04933B681C
:1038E000AB4289D0139B039A9342B6D343469B6E57
:1038F0009946DB699A461900300007F069FE0029F5
:10390000ABD1139B9A45A8D85146049C200007F0E0
:103910005FFE0591621A92464A465268140052466A
:103920000092129B320029004846A047002887D009
:1039300007B0F0BCBB46B246A946A046F0BD0B4B53
:103940000B4A0C486B2106F029FC0B4B084A09482E
:10395000762106F023FC4D46B5E70020E8E7542029
:103960004042E5E754204042E2E7C046B04801103B
:10397000805501100448011034480110F0B5DE46AE
:1039800057464E464546E0B589B080468A46914640
:103990009B46CE680B6907933C30FFF755FD002826
:1039A00000D182E04B469B0A9B0500D17FE0434655
:1039B000DB6B9B0A9B059B0D5A46920A9205920D62
:1039C000934276D9002706E005975B46DB1B6340F0
:1039D0004A461A4245D0079CA505AD156B1C5A42B4
:1039E00053411B199B059B0D1A000832B24262D845
:1039F0000433F61A53461B680422039207AA029264
:103A0000019600930423424600214046FFF7A8FE9A
:103A1000002852D1079B1BBA63405B005B080793E9
:103A20004B469B0A9B05CFD0220DE023DB001340C1
:103A30008021C9008B42C7D1A10A8905890D05974C
:103A40005B46DB1B980A8005800D8842BCD3214968
:103A5000194021480143A14236D052B29202BF1808
:103A6000B2E7013533D0A3059B0D149D9D4200D9CB
:103A70001D0053461A68129BF3180395139902917F
:103A80000433019300922B00424600214046FFF789
:103A900067FE002811D1149B5A1B139B5819002153
:103AA00008F0B2FD059B181907E0002793E70027EF
:103AB00091E70A4F8FE70220404209B0F0BCBB46B5
:103AC000B246A946A046F0BD02204042F5E70220DA
:103AD0004042F2E700FC0F000000104000FCFFFF36
:103AE00010B584B09C05A40D0294069C019400249A
:103AF0000094FFF743FF04B010BD000010B586B07E
:103B0000140003AB0093084B084AFFF7E9FF0028B5
:103B100003DA831C06D1002004E003A92000FFF78C
:103B200086FC002006B010BD0C00F07F0000F07F86
:103B3000F0B5DE4657464E464546E0B589B081466B
:103B40008A4693461C00139E149F129B002B07D19C
:103B5000002009B0F0BCBB46B246A946A046F0BD65
:103B6000013B079307A9FFF7DAFD050021003800A4
:103B7000B0470028EDD1002DEBD001232B40984613
:103B8000022342469B1A9B00039305AA029200223D
:103B9000019200945A4651464846FFF7E1FD041E43
:103BA000D7D10123AB43A34208DDA30005AA99584E
:103BB0003800B0470028CCD10134F2E79B0005AAB9
:103BC0009C584346023BED18D0E770B586B0040020
:103BD000006801001031836E5B6A15685268082620
:103BE000039604AE0296019200950200FFF7B8FD1D
:103BF00000280ED1049B62689A4208D0059DA168F6
:103C00008D4204D08B4202D0AA4200D00130431E24
:103C1000984106B070BD0000F0B5DE4657464E46EE
:103C20004546E0B5ADB008900E0005921C00369BED
:103C30009B463AAB1B8899463BAB1B8806933CAB33
:103C400000229B5E9A46082200210BA808F0DCFCAB
:103C500000255F46A3059B1501335A4253411B19AA
:103C60009B059B0D0433059A90469844F36898454C
:103C70005BD3379B002B00DCF9E03B680D937B683E
:103C80009B460837379B013B37930D98A64B389AD4
:103C90001340399A42401900114007911342D9D17B
:103CA000389B9B0A9B0500D108E1022D5FD80EAB23
:103CB00098462A01531B9B0041465E500992531BB4
:103CC0009B004344059A5A609C60DF60379A1A61F2
:103CD000389A5A61399A9A614A469A83069ADA83DF
:103CE00052461A843D9A5A623E9A9A62D8625A465D
:103CF0001A630BAA343303CA03C3099A521B9200F6
:103D000028324244131D3E930135079B3993389363
:103D1000864B3D9300239A46069399469AE7079D62
:103D200054465F46B246464694E7336804220392FF
:103D30000DAA02924246019200930423089A0021A0
:103D40001000FFF70DFD002800D0E5E00D9B1BBA29
:103D50006340802424061C430D9433680B93434630
:103D600004330C93434605930BAB9B468DE7704B96
:103D7000704A7148714906F011FA6C4B3D9A9A42AB
:103D800000D167E72B0109935B1B9B000EAA9046AD
:103D900098443C220021404608F036FC099B5B1BFE
:103DA0009B0006AA20215218D6504346059A5A6015
:103DB0009C60DF60379A1A61389A5A61399A9A6121
:103DC0004A469A83069ADA8352461A843D9A5A6280
:103DD0003E9A9A620135079A93059B0D9946930A7C
:103DE0009B059B0D4A46013206924A469B1A9BB29E
:103DF00053441BB29A465E4680239B053993504B31
:103E0000389300233793002701246442059321E768
:103E1000002307951D00B0465646A2465C46BB46A9
:103E20003D9F0D9B9A05920D95421AD26900491942
:103E300089006218615CC0208000844661440905E5
:103E40009B0A9B059B0DF3189B02194393685268CC
:103E500019433E98B84700285EDB00D05FE7013584
:103E6000DFE7079D54465F46B2464646F2E600202D
:103E7000002D51D0013D0EAB2A01511B8900CE58B7
:103E80005B185A6805929C68DF681A6937925A690C
:103E900038929A6939929A8B9146DA8B0692202150
:103EA0005A5E92465A6A3D929A6A3E92DA6A0D9238
:103EB0001A6B93460BAA343303CB03C2389B9B0A7D
:103EC0009B050AD00D9B9B0A9B059B0D994500D92C
:103ED000C0E6069A9A4200D8BCE60D9B07931B0DDC
:103EE0005B055A0D002B00D1B4E60223FF339A4242
:103EF00000D142E781235B009A4289D05346990260
:103F0000079B9C4661445A463E983D9B9847002833
:103F100002DB00D19EE6ABE72DB0F0BCBB46B2465B
:103F2000A946A046F0BDC0460000F07F193500103C
:103F3000E0480110F854011004480110B3030000D8
:103F400000FC0F60F0B5DE4657464E464546E0B5EC
:103F500085B080468B4692461D00119F139BFA1830
:103F6000836E5B6A9A4255D9542040427DE05346A5
:103F70005A689B68D118B94221D9BA4205D9D21BD7
:103F8000139B9A4250D91A004EE0D41B1C19139B64
:103F90009C4200D91C005346D968BA1A89182200DD
:103FA000129808F037FB129B9C46A4446346129378
:103FB0003F19139B1B1B13932CE0139A34E0139AA5
:103FC00032E002235B422B6043469B6ED969380086
:103FD00007F0FEFA7E1A6E600E9BFC1843469B6E3D
:103FE0009946D9696418013C200007F0F1FA641A77
:103FF0004B461B6BA34200D92300AB60EA680293D7
:1040000001920096109B0F9A59464046FFF7B6FC66
:1040100000282ADB139B002B26D05346002BCCD044
:104020001B680233A3D0139A2B680233C9D16B6883
:10403000AC681919B942C4D9BB42C2D8D91B64189B
:10404000944200D91400E968FB1AC918220012989A
:1040500008F0E0FA129B9C46A444634612933F1971
:10406000139B1B1B1393D5E7002005B0F0BCBB4688
:10407000B246A946A046F0BDF0B5DE4657464E46CC
:104080004546E0B587B0894690461F00109B9B4689
:10409000139E00243B0007009A4619E053461B1B61
:1040A000039504AA0292119AA21801925A4600920C
:1040B000424649463800FFF753FB002816D1129BB1
:1040C00019192A0004A80FF043F8002807D1641931
:1040D000B4420AD2351B082DE0D90825DEE70028B6
:1040E00001DB022002E0012000E0002007B0F0BC6C
:1040F000BB46B246A946A046F0BD0000F0B5D64684
:10410000474680B587B007000C00059204930E68FF
:10411000F31C40D8C36E9E4231D28D68836E9A469E
:10412000196A6D18013D280007F052FA6D1A5346BE
:104130009B689846E3686268009531005046C04726
:10414000061E22DC002827D1049B002B12D001235D
:104150005B42059A1360E3680395029363680193D9
:10416000236800932B0000213800FFF785FF00280B
:1041700018DB19D121003800FFF7C4FA0CE00C4B12
:104180000C4A0D48B32106F009F80C4B094A0A48BD
:10419000B72106F003F80026300007B0C0BCBA46CD
:1041A000B046F0BD0600F7E754267642F4E7C04675
:1041B000E84801103C550110044801103448011032
:1041C000F0B5DE46474680B583B007000C0000928C
:1041D00001930A9B98460B9D0D9E023302D0C36E3D
:1041E00043450AD9AB19BA6E526A934218D92D4B7E
:1041F0002D4A2E48E92105F0D1FF2D4B2A4A2B48A4
:10420000E82105F0CBFF01333ED143462360BB6E6E
:10421000196A280007F0DCF9691A61600023A360BD
:10422000002E38D023684345EDD16268AA42EAD80F
:10423000B96E096B5018A842E5D9531B8B469B44B5
:10424000B34500D9B346E068AA1A80185A460C99BB
:1042500008F0E0F90C9B5B440C935D445B46F61A56
:104260006268AA1AA368934200D21300A360BA6ED0
:10427000126B9A42D4D1019B009A21003800FFF7BB
:104280003DFF002808D1CBE70A4B074A83210748A6
:10429000490005F083FF002003B0C0BCBB46B04618
:1042A000F0BDC046444901104C55011004480110AE
:1042B0000C4901106849011010B50400012040426A
:1042C00010602000FFF71AFF002804D1A06E0369D8
:1042D0009847002800DC10BD024B034A0348DD214B
:1042E00005F05CFF34480110EC5401100448011043
:1042F00070B584B006001500006889058C0DB368A0
:10430000A34200D923002A6869680393756802955F
:104310000191009202000021FFF7AEFE002804D1B7
:10432000B368A34201D002D2013004B070BD0220B4
:10433000FBE7F0B5CE46474680B589B00700884612
:1043400091460593109B002B0BD1013B129A1360F1
:104350000023139A1360002009B0C0BCB946B046D0
:10436000F0BD109B013B079307A9FFF7D8F90500A3
:1043700011A93800FFF7D3F9060012E004230393D4
:1043800005AB0293A3000193059B009304234A46C7
:1043900041463800FFF7E4F90028DDD10123A340AE
:1043A000ED1AB5420BD9A81B07F0ACF81F24241A4C
:1043B000280007F0ADF88442E0D90400DEE7059B51
:1043C000129A1360119B139A13600020C4E7000037
:1043D000F0B5CE46474680B589B080460C00170040
:1043E0004A6BC96A8A426DD28A1A91469A4200D9AA
:1043F00099464E4637E0DB0241D502235B42A36378
:10440000636BE363226B8023DB0213432363434626
:104410009B6E5B6AE06B1D1AB54200D93500226BBA
:10442000D2023FD521000831A28892029446220090
:104430004032079205950497039025486246104341
:104440000290244801900093079B00224046FFF70A
:1044500079FD002837D1636B5B196363E36B5B19EC
:10446000E3637F19761B002E2AD0236B5A03C2D533
:10447000E16B4246926E526A9142C8D1BBE7A36A91
:104480002200403221003C31039104390291616BDA
:104490000191E16A009100214046FFF74AFF0028A0
:1044A000B0D010E022004032039502970190A16B3A
:1044B000009100214046FFF753F90028CBD002E0DD
:1044C000484600E0002009B0C0BCB946B046F0BD87
:1044D0000000102000FCF7FFF0B5DE4657464E46C0
:1044E0004546E0B587B083468A4691469846129E77
:1044F000139F002417E043461B1B039504AA029256
:10450000119AA2180192109A00924A4651465846B2
:10451000FFF726F900280ED138682A0004A903F015
:1045200053FC38606419B44204D2351B082DE2D91B
:104530000825E0E7002007B0F0BCBB46B246A9461C
:10454000A046F0BDF0B5DE4657464E464546E0B5BE
:1045500097B005000E0092460693C36E002B08D05C
:104560001268934200D879E252465268934200D8CA
:1045700078E200231293139300279846A9460DE092
:10458000791CC80F091801230B401B1A9B0012A9A4
:104590005B58D21A002A00DDB8460137012F18DC1B
:1045A000BC0012AD2B190422039202930023019345
:1045B00053461B59009304234A4600214846FFF7FF
:1045C000CFF862590028DBD003005433E5D083468E
:1045D0003CE24D464346D90F5B1801221340591A5D
:1045E00089005346CB58336043460133D80F1B181C
:1045F0001A40131A99469B0052469B58736012AB9F
:10460000CB58B3600023F3609A46013B9B46B0460B
:104610005346012B00DD0BE20EAAA14B11CB11C2B8
:104620004146083101277F420422380003F0CCFBC9
:104630000B905B460793002308930993059300268C
:1046400044463DE1A0460300543301D1002322E05B
:104650008346FBE1A0463B0DF022D2001340914A75
:10466000944663445A425341DBB214E0042203925D
:104670000DAA0292321D0192226800922A000021A6
:104680002800FFF76DF800284DD10D9A0B9B9A4238
:104690004FD0A04600234246D468002C00D18AE1C6
:1046A00046460022B275002B0AD0AF6E396A200050
:1046B00006F08EFF002903D1089B002B00D088E173
:1046C00028003C303100FEF7BFFE00280FD0EB6B16
:1046D0009B0A9BB259468A0A92B210005840800544
:1046E00000D093E180231B065A461A439346219B30
:1046F000002B09D05B469B0A9B05B28A9B0D934217
:1047000000D91300219A13805B46002B00DB9DE14A
:104710009B0A9B059B0DB28A9A4200D885E1022331
:104720005B429B4692E1A04603005433B2D08346DD
:104730008CE10C9F3F0DFF0743467B401F00E86A5A
:1047400004220BA903F040FBE8620C9A93059B1529
:10475000013359424B419B189B059B0D04339B1918
:10476000E3602761059BA3820E9BA3610F9BE3611E
:10477000099BE37501235B420B93079B9B469FE0DC
:10478000A0460300543301D1002384E783465DE152
:104790008021C90088421FD0C023DB00984242D04C
:1047A0005205520D404B9A4200D0E9E0AB6E5B6A75
:1047B0000822039210AA02920197226800922A000E
:1047C00000212800FEF7CCFF002848D0543000D14B
:1047D000EEE001230893D3E052B291B205988446EB
:1047E000614489B205913148079908403049014335
:1047F0008B4212D00798411C00D1C1E09B0A9B0557
:104800009B0D810A8905890D994200D2B8E0920278
:104810008446944463460793B2E080231B06079ABC
:104820001A430792ACE001231A400992AB6E5B6A0F
:10483000082203920EAA02920197226800922A008F
:1048400000212800FEF78CFF002800D198E0A04648
:104850000300543301D100231DE78346F6E0012312
:1048600008938DE0A0460300543301D1002312E7E2
:104870008346EBE00C9B079F3A005F400D490F42D7
:104880001AD002281BD1990A8905890D920A92052E
:10489000920D8A4213D3802212061A4307920EE029
:1048A000A455011000FBFFFFFF05000000FC0F00F6
:1048B0000000F04F00FCFF7F01235B420793474657
:1048C000BB059B1501335A425341DB199B059B0DD8
:1048D0000433F618AB6E5B6A042203920CAA0292B0
:1048E0000196226800922A0000212800FEF738FF76
:1048F000002800D0A6E60B9804220CA903F064FA65
:104900000B900C9B1BBA7B4098460C9300D5A1E6FC
:104910009A059215013253425A4142449205920D32
:10492000111D7118AB6E5B6A99423ED84146090D64
:10493000F020C0000140A020C000814200D195E6D7
:10494000371D0BA9039102920197226800922A0059
:1049500000212800FFF7C0FD002800D010E70C9BC5
:104960001A0DE021C900100008400A4200D00FE7EC
:104970009B0A9B059B0D059A9A4201D8013305932A
:104980000C99209B4B40069A1A4298D123681493A5
:10499000159714AA2398229B9847002800DA61E70C
:1049A00000D067E70C9B079389E7A046002372E6D7
:1049B000A04600236FE61368526841460A604B60C8
:1049C0004B469B0012AA9B588B6001239C46E244F5
:1049D0001EE601235B420D937B6A0DAA0392109A97
:1049E00002920194326800922A002800FFF774FDB9
:1049F000002804D00300543301D0834626E0119AE6
:104A00000D9B9B1A5A425341B37559E658460130E3
:104A100000D16CE69B059B0D9205920D9A4200D841
:104A200065E6124B9B468B4461E600239B460DE0F6
:104A3000464633680E490F480F4A01927268009249
:104A40000E4A07F0CFFF54235B429B46584617B0EF
:104A5000F0BCBB46B246A946A046F0BD54235B421B
:104A60009B46F3E754235B429B46EFE700FCFFFFC6
:104A7000044801108C4901103C3D0110560500000E
:104A8000F0B5D6464F464646C0B58AB007000E0080
:104A90001400002393610133D36105AA284B21CB75
:104AA00021C201239846012539E0264B2649274893
:104AB000274A07F097FF542040423BE053460593B6
:104AC000E369069343465B00984600250FE0012307
:104AD00000E00123002B2BD118239946A14405A9FE
:104AE0004846FEF78DFC0028DFD14545E6D001356C
:104AF00007AB079732680892726809920393154BC7
:104B0000029300230193144B0093144B4A46210057
:104B10003800FFF717FD002801D0831C0AD1A369D4
:104B20009A460133D5D0E3690133D0D00023D1E7D1
:104B3000022040420AB0E0BCBA46B146A846F0BDE9
:104B4000A45501103C3D011004480110C449011056
:104B5000B0120000CB3B001008000020FF03F07FE4
:104B600010B584B001235B420024039402940194A5
:104B70000093FFF7E7FC04B010BD0000F0B5DE467F
:104B800057464E464546E0B593B005000E000592E7
:104B90009946202200210AA807F036FD012311932F
:104BA00008AA624B11CB11C201239B460127109C1E
:104BB000631C00D180E0119B013300D17AE0002317
:104BC000002B00D07AE008A910A8FEF719FC0028F5
:104BD0000FD15F4516D001370024012C1ADCA31D2C
:104BE0009B000AAA99580598B04700281ED10134A5
:104BF000F3E74F4B4F495048504A07F0F3FE54201B
:104C0000404213E00894119B09935B465B009B466E
:104C10000027E0E710AA0AA92800FFF7A1FF8246B3
:104C2000002803D1002417E0831C13D013B0F0BC7C
:104C3000BB46B246A946A046F0BD069B059A029225
:104C40000196079A00922A0000212800FEF770FFC3
:104C50000028EBD10134A4B20AAB9B8AA342A6D9A7
:104C6000A202374B134306AA0092364A0AA928002B
:104C7000FEF736FF0028D7DB000D4005400D324B14
:104C80009842DAD04B46002BE4D080239B00984218
:104C9000E0D1D04602E001239C46E0444346012B8C
:104CA000D8DC43469B0006AAD1580598B047002897
:104CB000F1D0BBE7012383E7012381E7AC6A0FE072
:104CC00021004031A36A059A02920196E26A00929D
:104CD0002A002800FEF72CFF00280ED0A6E7246843
:104CE000002C21D0A379012BF9D1236B8822520308
:104CF0001340802252029342E2D0236B902252034F
:104D00001340802292029342E9D121004031A36BEB
:104D1000059A02920196626B00922A002800FEF723
:104D200007FF0028DBD081E700207FE7A4550110B2
:104D30003C3D011004480110C4490110111200004B
:104D40000800002000FC0F700202000070B5040093
:104D5000406DE36DC018E16E06F03AFC616500231A
:104D6000E365A26E536B216EDB008B4200D90B0012
:104D7000A365606E526B002107F046FC06490123D3
:104D800022002000FFF7FAFE051E01D1280070BDA9
:104D90002000FEF7A4FBF9E7ED34001030B583B036
:104DA00004000D00E36DA26D934226D2616EDA0815
:104DB0008A5C07201840C240D20705D50133E3655D
:104DC000236E013B2366EDE7606DC018E16E06F0CF
:104DD000FFFB2960E36D0133E365226E013A226631
:104DE000A26D934224D2616EDA088A5C07210B40DF
:104DF000DA40D207EED400201BE0226E002A05D054
:104E00002000FFF7A3FF0028CCD012E0606D181837
:104E1000A36E996A06F0DCFB0B00074C0748084AB2
:104E20000092084A210007F0DDFD1C20404200E00E
:104E3000002003B030BDC04604480110F049011005
:104E40003C3D0110B102000070B584B006000C00BA
:104E50000025012D0DDC0135EB0FEA180121114071
:104E6000C91A890061183000FFF798FF0028F0D0B8
:104E70002FE00023A3602200083204210391029254
:104E80000193236800930423320000213000FEF7D1
:104E900067FCA568002802D00300543319D1B26E14
:104EA000D16A002909DD0131012211436D18013D4C
:104EB000280006F08DFB6D1AA5600423E360053B16
:104EC00023610022A282A361E3610023A375E3753D
:104ED000002004B070BD0000F0B5C64600B58AB031
:104EE00005000E005BE031004031131B01220392EC
:104EF0001A3202A88446624402920194B26B009274
:104F00002A002800FEF72CFC002858D12900103177
:104F1000012303931A3302AA944663440293019433
:104F2000099B009301232A002800FFF749F9002874
:104F300027D10134F26BA24247D9336BDB02D2D5C1
:104F400031000831B3889B029C46330040330793FD
:104F5000012005901A3002AB984640440490039417
:104F6000284863461843029027480190121B00927C
:104F7000079B00222800FEF7E5FF0028C6D00700A7
:104F80003BE0030054331CD1099B20492048214AAF
:104F90000092214A07F026FD01235B422B6109A9FB
:104FA0002800FFF7FBFE071E27D109992800FEF70E
:104FB00057FB071E07D003005433E5D01DE0070060
:104FC0001BE0070019E00024B4E7F06CE969AB6E60
:104FD0001A6B07F01FFB2B6933646B697364AB6951
:104FE000B364290010312800FEF78CFB099BB363E2
:104FF000326B80239B021343336338000AB080BCBA
:10500000B846F0BD0000102000FCF7FF0448011076
:105010001C4A01103C3D0110D60C000070B5050083
:105020000C004B6BCB63FEF757FA21002800FFF70B
:1050300053FF002803D1236B014A1340236370BD43
:10504000FFFFEFFFF0B5DE4657464E464546E0B55A
:105050008BB004008846150099464EE0149B002B47
:1050600033D0149B013B089308A92000FEF757FB9F
:10507000089B01330893A26E526A93425ED00027C8
:105080004B46B1461E00089BBB4248D9DB1B0122A0
:10509000039209AA0292019700962A00002120009B
:1050A000FEF75EFB002838D10123039309AB02937E
:1050B0000197079B009301232A0041462000FFF738
:1050C0007FF8002808D10137DDE7079B159A1360A8
:1050D0000023169A136029E0B146030054331CD113
:1050E000079BBA2238493948394E0096120107F019
:1050F00079FC01235B424246136007A92000FFF7B9
:105100004DFE061E12D107992000FEF7A9FA061ED1
:10511000A4D003005433E3D008E0060006E04E4676
:10512000079B159A1360089B169A136030000BB00A
:10513000F0BCBB46B246A946A046F0BD013006F021
:10514000E7F98246431C9B464B460993002705938B
:10515000B1462E00250009E02C003500059B99463C
:1051600003005433BCD00600E0E701375F4522D28C
:10517000BC000423039309AB02930194079B0093A3
:105180000123320041462800FFF71AF8099B002846
:10519000E2D15745E9D00422039209AA0292019470
:1051A00000930423320000212800FEF7D9FA0028DA
:1051B000DBD00600BAE74E46079B159A13605B46A4
:1051C0009B00169A1360B1E7044801101C4A0110B5
:1051D0003C3D0110F0B5C64600B588B006000C0095
:1051E000150019000593236BDB0209D5636BE26A96
:1051F0008C466344934200D21300F26F9A4231D33B
:10520000059B98464346002B00D19DE0236B8022EE
:10521000920219001140134204D0E06BB26E526A40
:10522000904255D1DB0249D4002902D1626B002A99
:1052300024D13000FEF750F9A36B21004031220049
:105240003C320292043A0192626B009232003000CA
:10525000FFF7F8FE002836D0226B80231B03134390
:1052600023635FE021003000FFF7D8FE0028C7D09D
:10527000226B80231B031343236353E02700403733
:10528000A36AE16A0020079007A803902000383045
:105290000290013A019200913A0000213000FFF79C
:1052A00048F8002804D139003000FEF72BFAC0E797
:1052B000226B80231B031343236333E002235B42EF
:1052C000A363636BE363226B80239B02134323631B
:1052D000B36E5F6AE36BFF1A474500D9474621006A
:1052E000403103970295E36B0193A36B0093012375
:1052F00032003000FEF764FF002817D0030054335B
:105300000BD121003000FFF7E7FD0028E7D0226B2A
:1053100080231B031343236304E0226B80231B03BE
:105320001343236308B080BCB846F0BD636BDB1940
:105330006363E36BDB19E363ED194346DB1B9846BC
:105340003000FEF7C9F85DE70598EBE7F0B599B0D6
:1053500005000C000B6B5A0307D5DA0202D40122B8
:1053600052420A64374A13402363236B9A0365D57C
:10537000666BDB024ED45422002103A807F044F9E7
:10538000A36A0D93E36A0E9301230F93636B10934B
:1053900013AB2A0083CA83C312681A6001235B42DD
:1053A0002B60626BE36A9A4219D201230B226A4492
:1053B00003A92800FFF70CF8002840DB01230B228B
:1053C0006A4421002800FFF705FF002837DB2B681F
:1053D0000133E6D001235B4213932B60E1E7210008
:1053E000403101232A002800FEF788FE002816D04D
:1053F0000300543323D1A36B13491448144A009279
:10540000144A07F0EFFA21002800FFF765FD002895
:10541000E5D014E0E36AB34200D233006363A36BC8
:10542000A362636BE362236B0B4A13402363802206
:105430005202134323636663002000E0002019B08A
:10544000F0BDC046FFFFFBFF044801101C4A0110DD
:105450003C3D0110250D0000FFFFFDFFF8B50500E4
:105460000C0016001F00096BCB070DD5890304D56E
:105470002100FFF76BFF002805D13B00320021001F
:105480002800FEF7A5FFF8BD034B044ADB210448C2
:10549000090104F083FEC046404A01105C5401102B
:1054A00004480110F0B583B005000C0016004F6BE6
:1054B000002B04D0012B21D0022B23D03E006B6F98
:1054C000B34237D3BE4224D0236B9B030CD4019745
:1054D00001A92800FEF723F9070000966946280075
:1054E000FEF71DF9874216D021002800FFF72EFF96
:1054F000002801D16663300003B0F0BDD74216D456
:10550000D619DCE7FEF76DF88619D8D5162040428B
:10551000F2E73000F0E7636C009A9342E4D8A16CA4
:105520005B189A42E0D26663E2633000E4E716203B
:105530004042E1E716204042DEE710B5002300229A
:10554000FFF7B0FF002800DB002010BDF0B585B0EC
:1055500006000D0001921F000B6B9A0723D55B0319
:1055600027D42B6B1A0504D5696BEA6A914200D2E5
:105570006A636C6BE119726F91422DD89B031DD445
:10558000EB6A9C421AD96B636B6B9C4216D902ABD7
:10559000DA1D00231370013329003000FFF71AFED3
:1055A0000028F1DA16E00E4B0E4A0F480F4904F0BE
:1055B000F5FDFFF7CBFE0028D3D00BE03B00019AAE
:1055C00029003000FFF706FE002803DB2B6B084A9A
:1055D00013402B6305B0F0BD1B204042FAE7C046E4
:1055E000704A01103C54011004480110170E0000CD
:1055F000FFFFF7FF00B583B000230193044901AA20
:10560000FFF7BCFA002800D1019803B000BDC046E6
:1056100055360010F0B5D646474680B585B00190A6
:105620000E001400002393610133D36102AA284BBA
:1056300081CB81C201250127A3699846013336D069
:10564000E369013331D00023002B32D118239A466D
:10565000A24402A95046FDF7D3FE002815D1AF425F
:105660001CD001373368434526D0E1697268914206
:1056700028D0424528D0994228D05246210001988E
:10568000FFF76EFA0028D7D017E0124B12491348E3
:10569000134A07F0A7F9542040420EE04346029314
:1056A000E36903936D000027DBE70123CCE70123C7
:1056B000CAE70220404200E0002005B0C0BCBA4664
:1056C000B046F0BD0020F8E70020F6E70020F4E740
:1056D000A45501103C3D011004480110C4490110BB
:1056E0006F120000F0B585B00C0017001E0001001D
:1056F000103103930292636801932368009300239F
:105700000200FEF75DFD051E02D0280005B0F0BDC9
:10571000E0683200390002F057FBE06063689B19D3
:105720006360F2E7F0B5DE4657464E464546E0B5C3
:1057300087B005008846994617009405A4150134E2
:1057400063425C41A418A405A40D231D9A464B682E
:10575000534449698B4247D85600760843469B68B4
:1057600073401BBA0593042305AA4146FFF7BAFF0D
:10577000834600282ED1002F22DA0027A74227D205
:105780005346DB1B4A4611685268043B01200390D4
:10579000123068440290D219019200912A0000212F
:1057A0002800FDF7DDFF00281CD1012313226A44E5
:1057B00041462800FFF796FF002813D10137DDE7A7
:1057C00023004A4641462800FFF78CFF00280FD1EE
:1057D00043469E60584607B0F0BCBB46B246A94659
:1057E000A046F0BD8346F5E71C235B429B46F1E7EC
:1057F0008346EFE710B50C001300416800682200F3
:10580000FFF790FF10BD0000F0B5DE4657464E464C
:105810004546E0B58BB006000D004F68836E5A6AAE
:105820001437974200D91700196ACF19013F380081
:1058300005F0CEFE7F1A002305939B466BE01323F1
:1058400002AA94466344FF221A70BC4205D3B36E89
:105850005A6A1B6AD21AA24270D2132302AA944631
:1058600063441B78DB43DBB2DB09A022D200944601
:1058700063441B056A68A21A043A1343654A1A4333
:105880009046AB6853401BBA07AA91460793E86855
:105890000422494602F098FAE8604B46586010230B
:1058A0009A46B244083B03934B4602936B680193BC
:1058B0002B6800930023320051463000FEF780FC35
:1058C000002800D098E05B46002B04D16B680433BD
:1058D0009B46EB6805936C60132302AA94466344CD
:1058E0001B78DB431B06DB0FDB0742465340AB60F4
:1058F00001235B42EB60BC4205D27369B26E126B4E
:105900009B18A34207D80023320051463000FEF70F
:10591000D3FC002870D16C68BC4241D23B1B043BD5
:105920003D4A934200D91300E4180434BC4286D2A5
:105930003B00143B9C4282D91C0080E70122039269
:1059400012326244029201942A68009232000021CD
:105950003000FDF705FF002802D0030054334BD17F
:10596000B36E1B6A079301225242089208AA03925F
:10597000029301942A680092320000213000FEF761
:10598000ABFD002802D00300543335D107AB234AC6
:1059900029003000FFF7C6FE002800D15DE72BE0AC
:1059A0002A6901235B4209935B46043309A90391E9
:1059B0005946891A029101922A6800923200002108
:1059C0003000FEF789FD002816D1099B059A934205
:1059D00019D109AB0393042302935B4601932B680F
:1059E00000930423320000213000FEF775FD0028EB
:1059F00002D1099B002B09D10BB0F0BCBB46B246CB
:105A0000A946A046F0BD54204042F5E7542040424C
:105A1000F2E7C04600FC0F00FE03000008FCFF5F39
:105A2000F0B5DE464F464646C0B59CB005000C00BA
:105A30000A920B9324AB80CB1B88984626AB1B881D
:105A40009946FDF7B5FD0600A3680133A360002861
:105A500033D000231693013317932368002B2CD0E7
:105A60006268012A29D0012B27D0002A25D00123E2
:105A70005B422B61002E00D10FE100231A9301330A
:105A80001B932368002B00D110E16268012A00D12A
:105A90000CE1012B00D109E1002A00D106E1211D12
:105AA0002800FFF77BF9002827D003001C331ED104
:105AB000002E1CD0B346002601E000239B466368FD
:105AC00010930023119301225242129213921493C5
:105AD000AA6E536D002B14D0083B15936168280003
