:020000041000EA
:1000000000B5324B212058609868022188439860DF
:10001000D860186158612E4B002199600221596106
:100020000121F02299502B49196001219960352056
:1000300000F044F80222904214D00621196600F024
:1000400034F8196E01211966002018661A6600F04E
:100050002CF8196E196E196E052000F02FF8012189
:100060000842F9D1002199601B49196000215960AB
:100070001A491B48016001219960EB211966A021F2
:10008000196600F012F800219960164914480160C1
:100090000121996001BC002800D000471248134993
:1000A000086003C880F30888084703B5996A0420EC
:1000B0000142FBD001200142F8D103BD02B5186610
:1000C0001866FFF7F2FF186E186E02BD00000240BE
:1000D000000000180000070000035F00212200005C
:1000E000F4000018222000A00001001008ED00E03C
:1000F00000000000000000000000000074B24E7A12
:1001000000200420F7010010C3010010C5010010F9
:10011000C1010010C1010010C1010010C101001097
:10012000C1010010C1010010C1010010C701001081
:10013000C1010010C1010010C9010010CB01001065
:10014000CD010010CD010010CD010010CD01001037
:10015000CD010010CD010010CD010010CD01001027
:10016000CD010010CD010010CD010010CD01001017
:10017000CD010010CD010010CD010010CD01001007
:10018000CD010010CD010010CD010010CD010010F7
:10019000CD010010CD010010CD010010CD010010E7
:1001A000CD010010CD010010CD010010CD010010D7
:1001B000CD010010CD010010CD010010CD010010C7
:1001C00000BE00BE00BE00BE00BE00BEEFF3058054
:1001D000103800BEF2EB8871702F0110982F0110BB
:1001E0003402001090A31AE700201F49086006C8D7
:1001F00081F3088810471D48006800282FD10DA4FE
:100200000ECC002902D000F012F8F9E71849194A7B
:10021000002000E001C19142FCD1174988471749ED
:1002200088471749884700BEFDE701C901C29A42C5
:10023000FBD37047982F0110C000002064130020EA
:100240003C42011000000420000004203C42011048
:10025000001004200010042000000000704709482E
:1002600007F0ACFE0047000008ED00E0000000D001
:1002700068130020082802209D6C0010F104001073
:100280005D6C00105756000006005250ABB360532F
:100290004C16011006005250861C03026416011011
:1002A000060052505422A29D6C16011005005250B7
:1002B000DE65F4683C420110F8B5C0460448054BC1
:1002C00010B5834203D0044B002B00D0984710BDDB
:1002D0006413002064130020000000000648074952
:1002E000091A8B10C90FC91810B5491003D0044B57
:1002F000002B00D0984710BD641300206413002029
:100300000000000010B5074C2378002B09D1FFF73F
:10031000D5FF054B002B02D0044800E000BF0123AD
:10032000237010BD7014002000000000A8F8001019
:10033000054B10B5002B03D00449054800E000BF71
:10034000FFF7CCFF10BDC046000000007414002071
:10035000A8F8001010B5D0231B061968044808F04F
:1003600049FF0121012006F017FC00BE10BDC04668
:10037000A8F8001010B5D0231B061968044808F02F
:1003800039FF0121012006F007FCFFF7E3FF10BD54
:10039000CCF8001010B5044B1B685B6AFA204000D3
:1003A000C01A0EF08BF9F6E7E81B002010B50A0022
:1003B000D0231B061968054808F01CFF0121012005
:1003C00006F0EAFBFFF7C6FF10BDC046E4F80010D8
:1003D00070B505000C0004F03FFC200004F03CFC6C
:1003E0000321280004F0EEFB0321200004F0EAFBC7
:1003F00000220121280004F0FDFB00220121200041
:1004000004F0F8FB024803490BF0B2FC70BDC04693
:10041000E80D0020A0860100F0B5C64600B5040036
:1004200088460025057077270772702008F054FD74
:1004300006007022002108F043FD6C23F754E660AB
:10044000002323616361A361E3612023E554013349
:10045000E55465620733E5544346002B03D1200081
:1004600080BCB846F0BD0321200000F089F9F6E712
:1004700070B5194808F08EFE05210420FFF7A8FF8B
:100480000BF0F8FC802008F027FD04000025057023
:1004900000F00AFA114B1C60202008F01DFD04003A
:1004A000012100F017F90E4B1C602C2008F014FD00
:1004B00004000121FFF7B0FF0A4B1C600C2008F07C
:1004C0000BFD04000570032100F0DEF9064B1C60F3
:1004D000064808F05FFE70BD0CF90010A41D002056
:1004E000901D0020E81B0020AC21002020F9001006
:1004F00000B585B008F08AFE0B490D2040420BF094
:10050000F7FCFFF7B5FF80220849094803AB0193C8
:1005100002230093002392000DF084FF0DF0D4FF1E
:10052000002005B000BDC0467503001044F900105E
:100530009503001000B585B0017A0948C8230193DE
:100540000023009301330F226A440BF074FC00284F
:1005500004D00F236B44187805B000BDFF20FBE7E3
:10056000E80D002070B505000E00002406E00A200A
:1005700005F0ADFC0A34A4B2322C0CD82800FFF7E9
:10058000D9FF000605D5002EF1D00A200EF096F80E
:10059000F0E7012000E0002070BD0000F0B5CE467D
:1005A000474680B585B005000E0003789846002BBD
:1005B00007D000239846404605B0C0BCB946B046B7
:1005C000F0BD642005F083FC03AB384A1188198024
:1005D00092789A700B236B44AC221A70002405E0C9
:1005E000334808F0D7FD731EBB4253D82700B442EE
:1005F00058D201342F483200210008F0FBFD2E486C
:1006000008F0C8FD297A2D48C823019300230093E0
:1006100001330B226A440BF0E3FB142005F057FC76
:1006200000212800FFF79EFF0028D9D0244808F0B9
:10063000B1FD297A2148C823019300230093033395
:1006400003AA0BF0CDFB00212800FFF78BFF8146AA
:10065000002808D02800FFF76DFF030711D41948C0
:1006600008F098FDBFE7124808F094FDFA20C0009A
:1006700005F02DFC731EBB42B8D9134808F08AFD63
:10068000B4E7124B0100180008F0B4FD01232B70F1
:10069000C84690E7FA20C00005F019FC0A4808F0A7
:1006A00079FDA3E70A4808F075FD84E778FA0010A1
:1006B000A0F900104CF9001080F90010E80D00209E
:1006C000C0F90010FCF90010E4F900101CFA001049
:1006D00054FA001010B5040000230370383303727D
:1006E0000023C3600361002901D1200010BD032154
:1006F000FFF754FFF9E7000010B5531DD8B20728E3
:100700001BD883000F48C3589F460F4808F072FD5E
:1007100010BD0E4808F06EFDFAE70D4808F06AFDBE
:10072000F6E70C4808F066FDF2E70B4808F062FDBA
:10073000EEE70A4808F05EFDEAE7094808F05AFDCE
:10074000E6E7C04690FB00107CFA00109CFA00100F
:10075000C8FA0010F8FA00101CFB001040FB001053
:1007600068FB001030B583B006AC247807AD2D7857
:10077000C0680195009400F03FF903B030BD00005F
:10078000F0B5D6464F464646C0B582B007000E00CB
:1007900003789946002B08D000239946484602B0BA
:1007A000E0BCBA46B146A846F0BD0A2005F08FFB72
:1007B000002405E0234808F0EDFC731E434535D8BE
:1007C000A046A6423AD901341F483200210008F061
:1007D00011FDF86800F02EF9051EEBD0F96808004D
:1007E000503000F08DFB8246F86818495246FFF7FA
:1007F00083FF5346002B03D0154808F0CBFCDCE701
:10080000144808F0C7FC144808F0C4FC0223019304
:10081000012400940333082200213800FFF7A2FFCF
:100820000E4808F0B7FC3C70A946B7E7FA20C000B4
:1008300005F04DFB0A4808F0ADFCC1E7094808F097
:10084000A9FCABE7E4FB0010B0FB001004FC0010B7
:1008500014FC00103CFC001060FC001084FC001034
:10086000ACFC0010C4FC001010B504001F2104F003
:10087000A9F900220021200004F0BCF90021200089
:1008800004F0D2F910BD000010B504000BF0F2FA2C
:100890001A20FFF7E9FF01232370024808F07AFCD1
:1008A000012010BDE8FC001070B504000E4808F0EF
:1008B00071FC251D0D49280004F066F9002806D1B9
:1008C0000B4808F067FC01232370012070BD094824
:1008D00008F060FC054E3100280004F051F93100A9
:1008E000280004F051F9EBE700FD0010B00C0020E7
:1008F00034FD001018FD00100020704710B5C369CA
:100900005943E02252038818EFF3108472B619009D
:100910000EF07AFF84F31088002010BD10B50C0093
:100920001900C3695C43E0235B03E0188018EFF310
:10093000108472B6029A0EF04FFF84F310880020E4
:1009400010BD000010B5C0694143054884466144AC
:100950008918029A180008F0B9FA002010BDC046A4
:1009600000001C1010B5002105F0A4FA10BD000015
:10097000B0B582B002AF1500531C0832D208D200C5
:100980006C46A21A954602AA1070002003E00C18CB
:10099000013024781454A842F9D30648002100916C
:1009A00077310BF011FA023002D00020BD46B0BD05
:1009B0000120FBE7E80D002070B584B00D001600A3
:1009C0000F226A4410700B4C012300937721200002
:1009D0000BF0FAF90023009333002A00772120005E
:1009E0000BF01DFA023002D0002004B070BD0120CF
:1009F000FBE7C046E80D002070B5040004A80578A8
:100A000005A800785326A155542162545022A354BE
:100A10005223E554013BE05420005030210000F007
:100A2000FFFA034900222000FFF766FE012070BD97
:100A30004CFD001030B583B0040001230373184B44
:100A40000364184B4364184B83641423837300F0CE
:100A50003BFA0500154902002000FFF74DFE002D6E
:100A600002D0002003B030BD20005030210000F043
:100A700047FA05000E4902002000FFF73DFE002D59
:100A800001D00020EEE702230193013B00930433E1
:100A9000082200212000FFF7AFFF0120E2E7C04657
:100AA000B909001071090010650900105CFD001003
:100AB00004FC001000280AD0036C002B0AD0436C01
:100AC000002B0AD0836C002B0AD000207047012035
:100AD0004042FBE701204042F8E701204042F5E7B1
:100AE00001204042F2E770B582B006000C00080019
:100AF000FFF7E0FF051E25D176B2002E25DB10237F
:100B0000627B9A421ED06373266C63680122694639
:100B10000731F320B0474C23E054002817D16B462F
:100B2000D91D0B78102293430B70607B0240134356
:100B30000B70666C636801227320B0474C23E0544D
:100B4000002807D1280002B070BD0023D8E7022595
:100B50006D42F7E702256D42F4E770B582B00400FC
:100B6000FFF7A8FF051E0FD1266C636801226946B6
:100B70000731F320B0474C23E054002807D16B46DF
:100B8000DA79102313406373280002B070BD022588
:100B90006D42F9E770B504000E0015001000FFF774
:100BA00089FF002C0BD000280CD12378B34205D943
:100BB00026704D22AB5C01210B43AB5470BD01206C
:100BC0004042FBE701204042F8E7F0B5DE465746D9
:100BD0004E464546E0B587B081468B4690461E009E
:100BE0001422002101A808F06BF93000FFF762FF22
:100BF0008246002849D14B46002B4AD05B46002B49
:100C00004BD04346013B092B01D8002410E00423BC
:100C10005B429A4631E063004A46515D01AAD154D5
:100C2000630001335A46515D01AAD1540134A4B284
:100C30002500444510D2337B002BECD14B465F1985
:100C4000585D3100FFF74FFF8246630039787F22FD
:100C50000A4001A9CA54E3E75346002B0DD1746C36
:100C600043465A007368013A01A90878694605317C
:100C7000A0474C23F054002813D1504607B0F0BCD5
:100C8000BB46B246A946A046F0BD01235B429A4648
:100C9000F3E701235B429A46EFE701235B429A4662
:100CA000EBE702235B429A46E7E7F8B5CE464746B4
:100CB00080B507000E0090461C001800FFF7FAFEF2
:100CC000051E1FD1002E20D0237B002B0FD0236CBC
:100CD00099466368424631003800C8474C23E054C7
:100CE000002815D12800C0BCB946B046F8BD210087
:100CF0003800FFF7F8FE051EE9D180235B421F4351
:100D0000FFB2E4E701256D42ECE701256D42E9E71A
:100D100002256D42E6E710B582B004006B46D91D8E
:100D200000230B7003000122F020FFF7BEFF002814
:100D300003D16B4607331B78A36002B010BD70B5BA
:100D40008CB004000300172201A98A20FFF7ADFF31
:100D5000002800D176E0002872D101AB2022995CF6
:100D6000DA7F09020A43E28359781A7809020A43B2
:100D7000228402229A562226A25559791A7909020A
:100D80000A43A284D9799A7909020A43E2840821A4
:100D900059562822A154D97A9A7A09020A436285BF
:100DA000597B1A7B09020A43A2850F2159562E222C
:100DB000A1540E2159560132A154D97C9A7C0902C2
:100DC0000A432286597D1A7D09020A436286997D6B
:100DD0003422A1545D7E1A7E0F2111402D0129433A
:100DE0002182D97D090112090A4362821A229A5688
:100DF00022751B229A5662751C229A56A2755A7F3A
:100E0000E2751E229A56227623229A566276995DC0
:100E100021229A5C09020A43628324229A5622778D
:100E20002722995C09320A4012113C216254252282
:100E300099561832A154143A9B561B111532A354DB
:100E40000CB070BD23000E221B216944E130FFF776
:100E50002CFF0028F4D12300052229216944FFF743
:100E600024FF78E730B583B005006B46E022DA71E5
:100E70006B462A3A9A71FFF71DFE041E04D12B7BA4
:100E8000002B04D0002C07D0200003B030BD280078
:100E9000FFF763FE0400F5E72B00012269460631E7
:100EA00068460730FFF791FE041EEDD1AB6C696810
:100EB000044898472B7B002BE6D12800FFF74DFE16
:100EC0000400E1E71027000010B50400FFF7CAFF97
:100ED000230001222100D020FFF7E7FE002807D1E0
:100EE0002378612B09D12000FFF715FF002800D0DF
:100EF00010BD2000FFF723FFFAE703204042F7E789
:100F000010B582B004000B00052269467120FFF77E
:100F1000CCFE002C20D0002819D16B465A7807232C
:100F20001A4022706A46127992101A40E2706A469C
:100F3000D2785109617092101340A3706B461B78F0
:100F40005BB2002B05DB6B461B795B09237102B09A
:100F500010BD08232371FAE701204042F7E70000A3
:100F6000F0B583B007000D006B4674229A7100261D
:100F700003E0002E22D0002C20D12B000122694654
:100F800007317420FFF791FE041EF2D16B46DA7927
:100F900003231E001640134210D06B46D91D0323B5
:100FA0009A430A702B00012268460630FFF70DFEB7
:100FB0000400AB6C69680E489847DAE7002F01D04F
:100FC000002C02D0200003B0F0BD6B46DB79032279
:100FD00093433A4013436A46D3712B00012269467A
:100FE000073168460630FFF7F0FD0400EAE7C04627
:100FF0001027000030B583B004000B0000280CD08F
:101000006A46D51D012229007420FFF74EFE2A787A
:1010100003231340237003B030BD01204042FAE7A0
:10102000F0B585B005000C004D4B1A6802921A7994
:1010300002AB1A7105220021684607F041FF21002A
:101040000F206844FFF7D6FF00280ED0002D00D1F6
:101050007EE000280DD00F236B441B78002B02D0BC
:10106000002800D177E005B0F0BD2100FFF778FF40
:10107000ECE702AB1878230005226946FFF715FE5E
:101080004D230022E254002851D00028E3D1A81CAF
:1010900022000521FFF77EFD0028DCD1220005217A
:1010A0002800FFF777FD0028D5D1281D2200082150
:1010B000FFF770FD0028CED16B461A79EB789B00C4
:1010C0001C261C210B40B2431A436B461A71DF7871
:1010D00068781F233B4040010343DBB26846C3707E
:1010E000A87880000140B3430B436946CB704B782E
:1010F000287807218B4301400B4369464B702979BF
:10110000082922D000201F23134049010B436A46BF
:10111000137112787F231340C00103436A46137092
:1011200023000522694602A8FFF74FFD93E7E81C5C
:1011300022000721FFF72EFD002800D08BE7681C56
:1011400022000521FFF726FD9FE701200021DAE7B5
:10115000012040427FE721001800FFF701FF82E7EE
:1011600068FD001030B503680A68934204D04968EE
:101170008B4207D0002030BD45684C68A542F6D1AF
:101180000120F8E743689A4201D00020F3E70120EC
:10119000F1E730B5002306E09D00441922684D595F
:1011A0006A4022600133022BF6DD30BD03681B0D5F
:1011B000E022D20013420FD043680A6893420DD058
:1011C0008068496888420BD08B420BD0824201D0A4
:1011D000002002E0012000E0002070470120FCE731
:1011E0000120FAE70120F8E70048704701000200FB
:1011F00010B5FFF7F9FF000C10BD10B5FFF7F4FFB5
:1012000080B210BD10B50400406D081AE16E4018A0
:1012100006F028FFA36D8B420AD9636E4A0992003B
:101220009B181A681F200840012181400A431A6058
:10123000002010BDC36E0366704710B500238365A0
:10124000C365FFF7F7FF10BD30B5CB001BD5194CB8
:1012500003681A004A40144217D09A0592150132C9
:1012600013D0144C0C40144D1D40144A2A43944290
:101270000BD00C0DE022D20022408025ED00AA42C6
:1012800007D0002004E00E4CE2E7002303600120B9
:1012900030BD890A8905890D9A0A9205920D8A4204
:1012A00005D364B2A4021B1903600020F0E70020FC
:1012B000EEE7C04600FCFF7F00FC0F000000F04F8F
:1012C00000FC0F708B059B1501335A4253415B188C
:1012D0009B059B0D04330268D31803600020704700
:1012E00010B5836E5B6A002B0ADD88680130591CDB
:1012F0000123194306F0B6FE002903D0002000E0C8
:10130000002010BD0120FCE7036B034A1340490293
:101310000B4303637047C046FFFDFFFF30B5036B0F
:101320000D4C23400D4CA1420FD08D020C4C2C4390
:1013300023430363094B994209D013684363074B66
:10134000994206D05368836330BD0024F0E7002340
:10135000F4E70023F7E7C046FF030080FF03000027
:101360000000F04F03680133036000207047000065
:1013700010B5C36E8B4205D9806EC36898470028AC
:1013800007DC10BD064B074A8A210748490005F0D3
:1013900069FC064B034A8B210348490005F062FCB7
:1013A0005CFE0010CC06011070FD0010A0FD0010C6
:1013B00010B5026B93059C0D002B01D1002911DBA8
:1013C000FF235B009C4201D9002911DC89180163CD
:1013D0004B005B0889054A1E9141C9070B43036313
:1013E000002010BD054B064A0648074905F03AFCA7
:1013F000064B034A0348064905F034FCACFD0010D7
:101400009C06011070FD001094120000E4FD001015
:101410009512000010B50C00CB68826E926AFF2115
:10142000180007F04DFD01235B42236010BDF8B5A5
:101430000F000E68836EDC69083C2100300006F066
:1014400011FEA64212D3013806F0B2FD0230800030
:10145000301A210006F006FE05004443341B06F056
:10146000A7FD8000241A3C602800F8BD0020FCE79E
:10147000F0B5DE4657464E464546E0B587B0804655
:101480008B4617000393109B9946119E139BF218ED
:10149000836EDB699A4200D9E9E0C36E002B00D16C
:1014A000E1E04B4500D8E5E04D4694E05B465C68E2
:1014B0009B68E218B24224D9B44207D9A21B049215
:1014C000139B9A4200D892E0049390E0A21B9946A5
:1014D0009144139B994500D999465B46D968341BC2
:1014E00009194A46129807F0F1FC129B4B441293DB
:1014F0004E44139B4A469B1A13936CE0139B049330
:1015000075E0139B049372E07B68BA689918B14246
:1015100070D9B34205D99B1B049A9A426AD90493A5
:1015200068E0991B91468944049A914500D99146F7
:10153000F968F31AC9184A46129807F0C7FC129BBB
:101540004B4412934E44139B4A469B1A139342E01A
:10155000129A524412925644059B049C1C1B139BE6
:101560009C46A4446346139335E04346DB6E002B50
:1015700001D0AB426BD93D6043469B6E5969300048
:1015800006F070FD0491731A9A467B60039BF41871
:1015900043469B6E994659696418013C200006F049
:1015A00061FD641A4B46DB69A34200D92300049A0B
:1015B000921B4946896AD2188A4200D90A00BA6049
:1015C0004346986E4468FB68009252462900A04743
:1015D000002842DC34D1139B002B46D05B46002B05
:1015E0008CD01B68AB4200D160E7139B04933B682F
:1015F000AB4289D0139B039A9342B6D343469B6E6A
:1016000099465B699A461900300006F02BFD0029C7
:10161000ABD1139B9A45A8D85146049C200006F0F4
:1016200021FD0591621A92464A46526814005246BC
:101630000092129B320029004846A047002887D01C
:1016400007B0F0BCBB46B246A946A046F0BD0B4B66
:101650000B4A0C486B2105F005FB0B4B084A094867
:10166000762105F0FFFA4D46B5E70020E8E7542063
:101670004042E5E754204042E2E7C0461CFE00102D
:10168000F406011070FD0010A0FD0010F0B5DE465C
:1016900057464E464546E0B589B080468A46914653
:1016A0009B46CE680B6907933C30FFF77FFD00280F
:1016B00000D182E04B469B0A9B0500D17FE0434668
:1016C000DB6B9B0A9B059B0D5A46920A9205920D75
:1016D000934276D9002706E005975B46DB1B634003
:1016E0004A461A4245D0079CA505AD156B1C5A42C7
:1016F00053411B199B059B0D1A000832B24262D858
:101700000433F61A53461B680422039207AA029276
:10171000019600930423424600214046FFF7A8FEAD
:10172000002852D1079B1BBA63405B005B080793FC
:101730004B469B0A9B05CFD0220DE023DB001340D4
:101740008021C9008B42C7D1A10A8905890D05975F
:101750005B46DB1B980A8005800D8842BCD321497B
:10176000194021480143A14236D052B29202BF181B
:10177000B2E7013533D0A3059B0D149D9D4200D9DE
:101780001D0053461A68129BF31803951399029192
:101790000433019300922B00424600214046FFF79C
:1017A00067FE002811D1149B5A1B139B5819002166
:1017B00007F086FB059B181907E0002793E7002731
:1017C00091E70A4F8FE70220404209B0F0BCBB46C8
:1017D000B246A946A046F0BD02204042F5E70220ED
:1017E0004042F2E700FC0F000000104000FCFFFF49
:1017F00010B584B09C05A40D0294069C01940024AD
:101800000094FFF743FF04B010BD000010B586B090
:10181000140003AB0093084B084AFFF7E9FF0028C8
:1018200003DA831C06D1002004E003A92000FFF79F
:10183000B0FC002006B010BD0C00F07F0000F07F6F
:10184000F0B5DE4657464E464546E0B589B081467E
:101850008A4693461C00139E149F129B002B07D1AF
:10186000002009B0F0BCBB46B246A946A046F0BD78
:10187000013B079307A9FFF7DAFD050021003800B7
:10188000B0470028EDD1002DEBD001232B40984626
:10189000022342469B1A9B00039305AA0292002250
:1018A000019200945A4651464846FFF7E1FD041E56
:1018B000D7D10123AB43A34208DDA30005AA995861
:1018C0003800B0470028CCD10134F2E79B0005AACC
:1018D0009C584346023BED18D0E770B586B0040033
:1018E000006801001031836EDB69156852680826B4
:1018F000039604AE0296019200950200FFF7B8FD30
:1019000000280ED1049B62689A4208D0059DA16808
:101910008D4204D08B4202D0AA4200D00130431E37
:10192000984106B070BD0000F0B5DE4657464E4601
:101930004546E0B5ADB008900E0005921C00369B00
:101940009B463AAB1B8899463BAB1B8806933CAB46
:1019500000229B5E9A46082200210BA807F0B0FAED
:1019600000255F46A3059B1501335A4253411B19BD
:101970009B059B0D0433059A90469844F36898455F
:101980005BD3379B002B00DCF9E03B680D937B6851
:101990009B460837379B013B37930D98A64B389AE7
:1019A0001340399A42401900114007911342D9D18E
:1019B000389B9B0A9B0500D108E1022D5FD80EAB36
:1019C00098462A01531B9B0041465E500992531BC7
:1019D0009B004344059A5A609C60DF60379A1A6105
:1019E000389A5A61399A9A614A469A83069ADA83F2
:1019F00052461A843D9A5A623E9A9A62D8625A4670
:101A00001A630BAA343303CA03C3099A521B920008
:101A100028324244131D3E930135079B3993389376
:101A2000864B3D9300239A46069399469AE7079D75
:101A300054465F46B246464694E733680422039212
:101A40000DAA02924246019200930423089A0021B3
:101A50001000FFF70DFD002800D0E5E00D9B1BBA3C
:101A60006340802424061C430D9433680B93434643
:101A700004330C93434605930BAB9B468DE7704BA9
:101A8000704A7148714905F0EDF86C4B3D9A9A42E5
:101A900000D167E72B0109935B1B9B000EAA9046C0
:101AA00098443C220021404607F00AFA099B5B1B40
:101AB0009B0006AA20215218D6504346059A5A6028
:101AC0009C60DF60379A1A61389A5A61399A9A6134
:101AD0004A469A83069ADA8352461A843D9A5A6293
:101AE0003E9A9A620135079A93059B0D9946930A8F
:101AF0009B059B0D4A46013206924A469B1A9BB2B1
:101B000053441BB29A465E4680239B053993504B43
:101B1000389300233793002701246442059321E77B
:101B2000002307951D00B0465646A2465C46BB46BC
:101B30003D9F0D9B9A05920D95421AD26900491955
:101B400089006218615CC0208000844661440905F8
:101B50009B0A9B059B0DF3189B02194393685268DF
:101B600019433E98B84700285EDB00D05FE7013597
:101B7000DFE7079D54465F46B2464646F2E6002040
:101B8000002D51D0013D0EAB2A01511B8900CE58CA
:101B90005B185A6805929C68DF681A6937925A691F
:101BA00038929A6939929A8B9146DA8B0692202163
:101BB0005A5E92465A6A3D929A6A3E92DA6A0D924B
:101BC0001A6B93460BAA343303CB03C2389B9B0A90
:101BD0009B050AD00D9B9B0A9B059B0D994500D93F
:101BE000C0E6069A9A4200D8BCE60D9B07931B0DEF
:101BF0005B055A0D002B00D1B4E60223FF339A4255
:101C000000D142E781235B009A4289D05346990272
:101C1000079B9C4661445A463E983D9B9847002846
:101C200002DB00D19EE6ABE72DB0F0BCBB46B2466E
:101C3000A946A046F0BDC0460000F07F4912001042
:101C40004CFE00106C06011070FD00109F03000098
:101C500000FC0F60F0B5DE4657464E464546E0B5FF
:101C600085B080468B4692461D00119F139BFA1843
:101C7000836EDB699A4255D9542040427DE0534639
:101C80005A689B68D118B94221D9BA4205D9D21BEA
:101C9000139B9A4250D91A004EE0D41B1C19139B77
:101CA0009C4200D91C005346D968BA1A89182200F0
:101CB000129807F00BF9129B9C46A44463461293BA
:101CC0003F19139B1B1B13932CE0139A34E0139AB8
:101CD00032E002235B422B6043469B6E5969380019
:101CE00006F0C0F97E1A6E600E9BFC1843469B6E90
:101CF000994659696418013C200006F0B3F9641A4A
:101D00004B469B6AA34200D92300AB60EA6802936A
:101D100001920096109B0F9A59464046FFF7B6FC79
:101D200000282ADB139B002B26D05346002BCCD057
:101D30001B680233A3D0139A2B680233C9D16B6896
:101D4000AC681919B942C4D9BB42C2D8D91B6418AE
:101D5000944200D91400E968FB1AC91822001298AD
:101D600007F0B4F8129B9C46A444634612933F19B3
:101D7000139B1B1B1393D5E7002005B0F0BCBB469B
:101D8000B246A946A046F0BDF0B5DE4657464E46DF
:101D90004546E0B587B0894690461F00109B9B469C
:101DA000139E00243B0007009A4619E053461B1B74
:101DB000039504AA0292119AA21801925A4600921F
:101DC000424649463800FFF753FB002816D1129BC4
:101DD00019192A0004A80DF0A7FA002807D16419E0
:101DE000B4420AD2351B082DE0D90825DEE70028C9
:101DF00001DB022002E0012000E0002007B0F0BC7F
:101E0000BB46B246A946A046F0BD0000F0B5D64696
:101E1000474680B587B007000C00059204930E6812
:101E2000F31C40D8C36E9E4231D28D68836E9A46B1
:101E300099696D18013D280006F014F96D1A534692
:101E40009B689846E3686268009531005046C04739
:101E5000061E22DC002827D1049B002B12D0012370
:101E60005B42059A1360E3680395029363680193EC
:101E7000236800932B0000213800FFF785FF00281E
:101E800018DB19D121003800FFF7C4FA0CE00C4B25
:101E90000C4A0D48B32104F0E5FE0C4B094A0A48F0
:101EA000B72104F0DFFE0026300007B0C0BCBA4600
:101EB000B046F0BD0600F7E754267642F4E7C04688
:101EC00054FE0010B006011070FD0010A0FD0010BF
:101ED000F0B5DE46474680B583B007000C0000929F
:101EE00001930A9B98460B9D0D9E023302D0C36E50
:101EF00043450AD9AB19BA6ED269934218D92D4B12
:101F00002D4A2E48E92104F0ADFE2D4B2A4A2B48DC
:101F1000E82104F0A7FE01333ED143462360BB6EA7
:101F20009969280006F09EF8691A61600023A36091
:101F3000002E38D023684345EDD16268AA42EAD822
:101F4000B96E896A5018A842E5D9531B8B469B4449
:101F5000B34500D9B346E068AA1A80185A460C99CE
:101F600006F0B4FF0C9B5B440C935D445B46F61A91
:101F70006268AA1AA368934200D21300A360BA6EE3
:101F8000926A9A42D4D1019B009A21003800FFF74F
:101F90003DFF002808D1CBE70A4B074A83210748B9
:101FA000490004F05FFE002003B0C0BCBB46B04651
:101FB000F0BDC046B0FE0010C006011070FD00105C
:101FC00078FE0010D4FE001010B50400012040423D
:101FD00010602000FFF71AFF002804D1A06E0369EB
:101FE0009847002800DC10BD024B034A0348DD215E
:101FF00004F038FEA0FD00106006011070FD001016
:1020000070B584B006001500006889058C0DB368B2
:10201000A34200D923002A68696803937568029572
:102020000191009202000021FFF7AEFE002804D1CA
:10203000B368A34201D002D2013004B070BD0220C7
:10204000FBE7F0B5CE46474680B589B00700884625
:1020500091460593109B002B0BD1013B129A136004
:102060000023139A1360002009B0C0BCB946B046E3
:10207000F0BD109B013B079307A9FFF7D8F90500B6
:1020800011A93800FFF7D3F9060012E004230393E7
:1020900005AB0293A3000193059B009304234A46DA
:1020A00041463800FFF7E4F90028DDD10123A340C1
:1020B000ED1AB5420BD9A81B05F06EFF1F24241A98
:1020C000280005F06FFF8442E0D90400DEE7059B9D
:1020D000129A1360119B139A13600020C4E700004A
:1020E000F0B5CE46474680B589B080460C00170053
:1020F0004A6BC96A8A426DD28A1A91469A4200D9BD
:1021000099464E4637E0DB0241D502235B42A3638A
:10211000636BE363226B8023DB0213432363434639
:102120009B6EDB69E06B1D1AB54200D93500226B4E
:10213000D2023FD521000831A288920294462200A3
:102140004032079205950497039025486246104354
:102150000290244801900093079B00224046FFF71D
:1021600079FD002837D1636B5B196363E36B5B19FF
:10217000E3637F19761B002E2AD0236B5A03C2D546
:10218000E16B4246926ED2699142C8D1BBE7A36A25
:102190002200403221003C31039104390291616BED
:1021A0000191E16A009100214046FFF74AFF0028B3
:1021B000B0D010E022004032039502970190A16B4D
:1021C000009100214046FFF753F90028CBD002E0F0
:1021D000484600E0002009B0C0BCB946B046F0BD9A
:1021E0000000102000FCF7FFF0B5DE4657464E46D3
:1021F0004546E0B587B083468A4691469846129E8A
:10220000139F002417E043461B1B039504AA029268
:10221000119AA2180192109A00924A4651465846C5
:10222000FFF726F900280ED138682A0004A902F029
:10223000AFFC38606419B44204D2351B082DE2D9D2
:102240000825E0E7002007B0F0BCBB46B246A9462F
:10225000A046F0BDF0B5DE4657464E464546E0B5D1
:1022600097B005000E0092460693C36E002B08D06F
:102270001268934200D879E252465268934200D8DD
:1022800078E200231293139300279846A9460DE0A5
:10229000791CC80F091801230B401B1A9B0012A9B7
:1022A0005B58D21A002A00DDB8460137012F18DC2E
:1022B000BC0012AD2B190422039202930023019358
:1022C00053461B59009304234A4600214846FFF712
:1022D000CFF862590028DBD003005433E5D08346A1
:1022E0003CE24D464346D90F5B1801221340591A70
:1022F00089005346CB58336043460133D80F1B182F
:102300001A40131A99469B0052469B58736012ABB1
:10231000CB58B3600023F3609A46013B9B46B0461E
:102320005346012B00DD0BE20EAAA14B11CB11C2CB
:102330004146083101277F420422380002F028FC80
:102340000B905B460793002308930993059300269F
:1023500044463DE1A0460300543301D1002322E06E
:102360008346FBE1A0463B0DF022D2001340914A88
:10237000944663445A425341DBB214E00422039270
:102380000DAA0292321D0192226800922A000021B9
:102390002800FFF76DF800284DD10D9A0B9B9A424B
:1023A0004FD0A04600234246D468002C00D18AE1D9
:1023B00046460022B275002B0AD0AF6EB9692000E4
:1023C00005F050FE002903D1089B002B00D088E1C6
:1023D00028003C303100FEF7E9FE00280FD0EB6BFF
:1023E0009B0A9BB259468A0A92B210005840800557
:1023F00000D093E180231B065A461A439346219B43
:10240000002B09D05B469B0A9B05B28A9B0D934229
:1024100000D91300219A13805B46002B00DB9DE15D
:102420009B0A9B059B0DB28A9A4200D885E1022344
:102430005B429B4692E1A04603005433B2D08346F0
:102440008CE10C9F3F0DFF0743467B401F00E86A6D
:1024500004220BA902F09CFBE8620C9A93059B15E1
:10246000013359424B419B189B059B0D04339B192B
:10247000E3602761059BA3820E9BA3610F9BE36131
:10248000099BE37501235B420B93079B9B469FE0EF
:10249000A0460300543301D1002384E783465DE165
:1024A0008021C90088421FD0C023DB00984242D05F
:1024B0005205520D404B9A4200D0E9E0AB6EDB6909
:1024C0000822039210AA02920197226800922A0021
:1024D00000212800FEF7CCFF002848D0543000D15E
:1024E000EEE001230893D3E052B291B205988446FE
:1024F000614489B205913148079908403049014348
:102500008B4212D00798411C00D1C1E09B0A9B0569
:102510009B0D810A8905890D994200D2B8E092028B
:102520008446944463460793B2E080231B06079ACF
:102530001A430792ACE001231A400992AB6EDB69A3
:10254000082203920EAA02920197226800922A00A2
:1025500000212800FEF78CFF002800D198E0A0465B
:102560000300543301D100231DE78346F6E0012325
:1025700008938DE0A0460300543301D1002312E7F5
:102580008346EBE00C9B079F3A005F400D490F42EA
:102590001AD002281BD1990A8905890D920A920541
:1025A000920D8A4213D3802212061A4307920EE03C
:1025B0001C07011000FBFFFFFF05000000FC0F00DF
:1025C0000000F04F00FCFF7F01235B42079347466A
:1025D000BB059B1501335A425341DB199B059B0DEB
:1025E0000433F618AB6EDB69042203920CAA029244
:1025F0000196226800922A0000212800FEF738FF89
:10260000002800D0A6E60B9804220CA902F0C0FA1C
:102610000B900C9B1BBA7B4098460C9300D5A1E60F
:102620009A059215013253425A4142449205920D45
:10263000111D7118AB6EDB6999423ED84146090DF8
:10264000F020C0000140A020C000814200D195E6EA
:10265000371D0BA9039102920197226800922A006C
:1026600000212800FFF7C0FD002800D010E70C9BD8
:102670001A0DE021C900100008400A4200D00FE7FF
:102680009B0A9B059B0D059A9A4201D8013305933D
:102690000C99209B4B40069A1A4298D123681493B8
:1026A000159714AA2398229B9847002800DA61E71F
:1026B00000D067E70C9B079389E7A046002372E6EA
:1026C000A04600236FE61368526841460A604B60DB
:1026D0004B469B0012AA9B588B6001239C46E24408
:1026E0001EE601235B420D93FB690DAA0392109A2B
:1026F00002920194326800922A002800FFF774FDCC
:10270000002804D00300543301D0834626E0119AF8
:102710000D9B9B1A5A425341B37559E658460130F6
:1027200000D16CE69B059B0D9205920D9A4200D854
:1027300065E6124B9B468B4461E600239B460DE009
:10274000464633680E490F480F4A0192726800925C
:102750000E4A06F04FFD54235B429B46584617B085
:10276000F0BCBB46B246A946A046F0BD54235B422E
:102770009B46F3E754235B429B46EFE700FCFFFFD9
:1027800070FD0010F8FE0010C4FA001042050000B1
:10279000F0B5D6464F464646C0B58AB007000E0093
:1027A0001400002393610133D36105AA284B21CB88
:1027B00021C201239846012539E0264B26492748A6
:1027C000274A06F017FD542040423BE0534605934C
:1027D000E369069343465B00984600250FE001231A
:1027E00000E00123002B2BD118239946A14405A911
:1027F0004846FEF7B7FC0028DFD14545E6D0013555
:1028000007AB079732680892726809920393154BD9
:10281000029300230193144B0093144B4A4621006A
:102820003800FFF717FD002801D0831C0AD1A369E7
:102830009A460133D5D0E3690133D0D00023D1E7E4
:10284000022040420AB0E0BCBA46B146A846F0BDFC
:102850001C070110C4FA001070FD001030FF0010BA
:1028600073120000DB18001008000020FF03F07F47
:1028700010B584B001235B420024039402940194B8
:102880000093FFF7E7FC04B010BD0000F0B5DE4692
:1028900057464E464546E0B593B005000E000592FA
:1028A0009946202200210AA806F00AFB0123119371
:1028B00008AA624B11CB11C201239B460127109C31
:1028C000631C00D180E0119B013300D17AE000232A
:1028D000002B00D07AE008A910A8FEF743FC0028DE
:1028E0000FD15F4516D001370024012C1ADCA31D3F
:1028F0009B000AAA99580598B04700281ED10134B8
:10290000F3E74F4B4F495048504A06F073FC5420B0
:10291000404213E00894119B09935B465B009B4681
:102920000027E0E710AA0AA92800FFF7A1FF8246C6
:10293000002803D1002417E0831C13D013B0F0BC8F
:10294000BB46B246A946A046F0BD069B059A029238
:102950000196079A00922A0000212800FEF770FFD6
:102960000028EBD10134A4B20AAB9B8AA342A6D9BA
:10297000A202374B134306AA0092364A0AA928003E
:10298000FEF736FF0028D7DB000D4005400D324B27
:102990009842DAD04B46002BE4D080239B0098422B
:1029A000E0D1D04602E001239C46E0444346012B9F
:1029B000D8DC43469B0006AAD1580598B0470028AA
:1029C000F1D0BBE7012383E7012381E7AC6A0FE085
:1029D00021004031A36A059A02920196E26A0092B0
:1029E0002A002800FEF72CFF00280ED0A6E7246856
:1029F000002C21D0A379012BF9D1236B882252031B
:102A00001340802252029342E2D0236B9022520361
:102A10001340802292029342E9D121004031A36BFE
:102A2000059A02920196626B00922A002800FEF736
:102A300007FF0028DBD081E700207FE71C0701109B
:102A4000C4FA001070FD001030FF0010D411000017
:102A50000800002000FC0F700202000070B50400A6
:102A6000406DE36DC018E16E05F0FCFA6165A26E81
:102A7000D36A216EDB008B4200D90B00A3650023D3
:102A8000E365606ED26A002106F01AFA0649012356
:102A900022002000FFF7FAFE051E01D1280070BDBC
:102AA0002000FEF7CAFBF9E70512001030B583B02D
:102AB00004000D00E36DA26D93422AD05A1CE2651A
:102AC000226E013A2266616E5A09920051581F2007
:102AD0001840012282400A42ECD1606DC018E16EBC
:102AE00005F0C0FA296004E00133E365236E013B81
:102AF0002366E36DA26D934221D0616E5A09920064
:102B000050581F21194001228A400242ECD1002076
:102B100016E0226E002A05D02000FFF79FFF002854
:102B2000C8D00DE0626D9B18A82206490648074CE4
:102B30000094920006F05EFB1C20404200E0002062
:102B400003B030BD70FD00105CFF0010C4FA00102F
:102B500070B584B006000C000025012D0DDC013598
:102B6000EB0FEA1801211140C91A890061183000E1
:102B7000FFF79CFF0028F0D02FE00023A360220085
:102B800008320421039102920193236800930423E5
:102B9000320000213000FEF76BFCA568002802D04F
:102BA0000300543319D1B26E516A002909DD013195
:102BB000012211436D18013D280005F053FA6D1AEA
:102BC000A5600423E360053B23610022A282A36188
:102BD000E3610023A375E375002004B070BD00001D
:102BE000F0B5C64600B58AB005000E005BE03100C6
:102BF0004031131B012203921A3202A88446624418
:102C000002920194B26B00922A002800FEF730FC79
:102C1000002858D129001031012303931A3302AA46
:102C20009446634402930194099B009301232A0074
:102C30002800FFF74DF9002827D10134F26BA2429A
:102C400047D9336BDB02D2D531000831B3889B0200
:102C50009C46330040330793012005901A3002ABA5
:102C600098464044049003942848634618430290D1
:102C700027480190121B0092079B00222800FEF7B4
:102C8000E9FF0028C6D007003BE0030054331CD105
:102C9000099B20492048214A0092214A06F0AAFABD
:102CA00001235B422B6109A92800FFF7FFFE071EE5
:102CB00027D109992800FEF75BFB071E07D0030008
:102CC0005433E5D01DE007001BE0070019E00024A5
:102CD000B4E7F06CE969AB6E9A6A06F0F7F82B6915
:102CE00033646B697364AB69B364290010312800E5
:102CF000FEF790FB099BB363326B80239B02134367
:102D0000336338000AB080BCB846F0BD0000102024
:102D100000FCF7FF70FD001084FF0010C4FA0010E3
:102D2000C20C000070B505000C004B6BCB63FEF7C6
:102D300081FA21002800FFF753FF002803D1236BFD
:102D4000014A1340236370BDFFFFEFFFF0B5DE467D
:102D500057464E464546E0B58BB004008846150000
:102D600099464DE0149B002B33D0149B013B0893F4
:102D700008A92000FEF75BFB089B01330893A26EB5
:102D8000D26993425DD000274B46B1461E00089B96
:102D9000BB4247D9DB1B0122039209AA0292019789
:102DA00000962A0000212000FEF762FB002837D1A0
:102DB0000123039309AB02930197079B009301231F
:102DC0002A0041462000FFF783F8002808D1013788
:102DD000DDE7079B159A13600023169A136028E01D
:102DE000B146030054331BD1079B394939483A4A4D
:102DF00000923A4A06F0FEF901235B424246136014
:102E000007A92000FFF752FE061E12D107992000E5
:102E1000FEF7AEFA061EA5D003005433E4D008E056
:102E2000060006E04E46079B159A1360089B169A0B
:102E3000136030000BB0F0BCBB46B246A946A046BA
:102E4000F0BD013005F0AEF88246431C9B464B4670
:102E5000099300270593B1462E00250009E02C00B8
:102E60003500059B994603005433BDD00600E0E7CA
:102E700001375F4522D2BC000423039309AB0293C0
:102E80000194079B00930123320041462800FFF77D
:102E90001FF8099B0028E2D15745E9D0042203928C
:102EA00009AA029201940093042332000021280011
:102EB000FEF7DEFA0028DBD00600BAE74E46079B95
:102EC000159A13605B469B00169A1360B1E7C046E3
:102ED00070FD001084FF0010C4FA00108C0B00007D
:102EE000F0B5C64600B588B006000C0015001A0003
:102EF00005930B6BDB0215D5496BE36A944661447D
:102F0000994200D21900B06E836A826C002A3BD0CD
:102F1000D208934200D91300574A934200D91300B4
:102F20008B4234D3059B98464346002B00D1A0E04A
:102F3000236B8022920219001140134204D0E06BEF
:102F4000B26ED269904258D1DB024CD4002902D132
:102F5000626B002A27D13000FEF76CF9A36B2100C9
:102F6000403122003C320292043A0192626B00929C
:102F700032003000FFF7EAFE002839D0226B8023B0
:102F80001B031343236362E0C269D208C1E7210037
:102F90003000FFF7C7FE0028C4D0226B80231B033C
:102FA0001343236353E027004037A36AE16A0020FC
:102FB000079007A80390200038300290013A019250
:102FC00000913A0000213000FFF73BF8002804D1BF
:102FD00039003000FEF71EFABDE7226B80231B0389
:102FE0001343236333E002235B42A363636BE36316
:102FF000226B80239B0213432363B36EDF69E36B71
:10300000FF1A474500D947462100403103970295F2
:10301000E36B0193A36B0093012332003000FEF7B2
:1030200057FF002817D0030054330BD12100300084
:10303000FFF7D6FD0028E7D0226B80231B03134344
:10304000236304E0226B80231B031343236308B034
:1030500080BCB846F0BD636BDB196363E36BDB19BF
:10306000E363ED194346DB1B98463000FEF7E2F8B8
:103070005AE70598EBE7C046FE030000F0B599B0AB
:1030800005000C000B6B5A0307D5DA0202D40122AB
:1030900052420A64374A13402363236B9A0365D56F
:1030A000666BDB024ED45422002103A805F008FF12
:1030B000A36A0D93E36A0E9301230F93636B10933E
:1030C00013AB2A0083CA83C312681A6001235B42D0
:1030D0002B60626BE36A9A4219D201230B226A4485
:1030E00003A92800FEF7FCFF002840DB01230B2288
:1030F0006A4421002800FFF7F3FE002837DB2B6825
:103100000133E6D001235B4213932B60E1E72100FA
:10311000403101232A002800FEF778FE002816D04F
:103120000300543323D1A36B13491448144A00926B
:10313000144A06F05FF821002800FFF751FD00282F
:10314000E5D014E0E36AB34200D233006363A36BBB
:10315000A362636BE362236B0B4A134023638022F9
:103160005202134323636663002000E0002019B07D
:10317000F0BDC046FFFFFBFF70FD001084FF001094
:10318000C4FA0010110D0000FFFFFDFF00B583B071
:1031900000230193044901AAFFF778FB002800D11E
:1031A000019803B000BDC04665130010F0B5D646C7
:1031B000474680B585B001900E001400002393614E
:1031C0000133D36102AA284B81CB81C2012501279B
:1031D000A3699846013336D0E369013331D0002327
:1031E000002B32D118239A46A24402A95046FDF77B
:1031F000B9FF002815D1AF421CD0013733684345D1
:1032000026D0E1697268914228D0424528D099427F
:1032100028D0524621000198FFF72AFB0028D7D07A
:1032200017E0124B12491348134A05F0E3FF5420EC
:1032300040420EE043460293E36903936D0000278A
:10324000DBE70123CCE70123CAE70220404200E08C
:10325000002005B0C0BCBA46B046F0BD0020F8E77B
:103260000020F6E70020F4E71C070110C4FA001064
:1032700070FD001030FF001032120000F0B585B074
:103280000C0017001E0001001031039302926368C6
:1032900001932368009300230200FEF719FE051E28
:1032A00002D0280005B0F0BDE0683200390001F01E
:1032B0006FFCE06063689B196360F2E7F0B5DE467F
:1032C00057464E464546E0B587B0050088469946C4
:1032D00017009405A415013463425C41A418A405A9
:1032E000A40D231D9A464B68534449698B4247D825
:1032F0005600760843469B6873401BBA0593042327
:1033000005AA4146FFF7BAFF834600282ED1002FB9
:1033100022DA0027A74227D25346DB1B4A46116810
:103320005268043B01200390123068440290D21985
:10333000019200912A0000212800FEF799F8002848
:103340001CD1012313226A4441462800FFF796FF4F
:10335000002813D10137DDE723004A464146280003
:10336000FFF78CFF00280FD143469E60584607B0F8
:10337000F0BCBB46B246A946A046F0BD8346F5E781
:103380001C235B429B46F1E78346EFE710B50C0038
:103390001300416800682200FFF790FF10BD000095
:1033A000F0B5DE4657464E464546E0B58BB00600C2
:1033B0000D004F68836EDA691437974200D9170001
:1033C0009969CF19013F380004F04CFE7F1A0023A1
:1033D00005939B466BE0132302AA94466344FF22A5
:1033E0001A70BC4205D3B36EDA699B69D21AA24245
:1033F00070D2132302AA944663441B78DB43DBB2EA
:10340000DB09A022D200944663441B056A68A21A15
:10341000043A1343654A1A439046AB6853401BBABB
:1034200007AA91460793E8680422494601F0B0FBD9
:10343000E8604B46586010239A46B244083B039319
:103440004B4602936B6801932B6800930023320074
:1034500051463000FEF73CFD002800D098E05B4666
:10346000002B04D16B6804339B46EB6805936C60BA
:10347000132302AA944663441B78DB431B06DB0F2D
:10348000DB0742465340AB6001235B42EB60BC422A
:1034900005D27369B26E926A9B18A34207D80023C3
:1034A000320051463000FEF78FFD002870D16C6865
:1034B000BC4241D23B1B043B3D4A934200D913001E
:1034C000E4180434BC4286D23B00143B9C4282D9AF
:1034D0001C0080E70122039212326244029201949E
:1034E0002A680092320000213000FDF7C1FF002859
:1034F00002D0030054334BD1B36E9B690793012272
:103500005242089208AA0392029301942A680092F8
:10351000320000213000FEF767FE002802D00300D1
:10352000543335D107AB234A29003000FFF7C6FEDC
:10353000002800D15DE72BE02A6901235B42099353
:103540005B46043309A903915946891A02910192F5
:103550002A680092320000213000FEF745FE002864
:1035600016D1099B059A934219D109AB0393042301
:1035700002935B4601932B680093042332000021E1
:103580003000FEF731FE002802D1099B002B09D143
:103590000BB0F0BCBB46B246A946A046F0BD5420D5
:1035A0004042F5E754204042F2E7C04600FC0F00DD
:1035B000FE03000008FCFF5FF0B5DE464F464646BE
:1035C000C0B59CB005000C000A920B9324AB80CBD5
:1035D0001B88984626AB1B889946FDF781FE06009E
:1035E000A3680133A360002833D00023169301336E
:1035F00017932368002B2CD06268012A29D0012B55
:1036000027D0002A25D001235B422B61002E00D158
:103610000FE100231A9301331B932368002B00D181
:1036200010E16268012A00D10CE1012B00D109E10F
:10363000002A00D106E1211D2800FFF737FA0028F3
:1036400027D003001C331ED1002E1CD0B346002609
:1036500001E000239B46636810930023119301222D
:103660005242129213921493AA6E936C002B14D0B0
:10367000083B159361682800FDF77AFE00280FD0FB
:1036800003005433BFD01CB0E0BCBB46B146A846D3
:10369000F0BD002601239B46DDE7D369083BE8E740
:1036A00022000832042310A92800FFF7E7FD0028B4
:1036B00003D003005433E6D1A5E718AA189510AB40
:1036C000199301230892654A07924246524212B268
:1036D00006924A4605924246049200220392604AAC
:1036E00002920B9A01920A9A00925B4200223900E0
:1036F0002800FEF719F9002803D003005433C2D183
:1037000081E7A36901332CD0E369013327D0C007D7
:1037100029D50C2200210DA805F0D2FB5B46002B19
:1037200036D0290048310DA8FDF733FD0D9B9B0ACB
:103730009B020D930DAA21002800FEF767F80028D0
:10374000A1D102282FDC830068229B1802AA94468C
:1037500063443C3B1B68002B35D10130F1E701206D
:10376000D5E70120D3E7E17DC023DB009C4661441F
:103770000905230018333B4A0A4310A92800FFF724
:103780009DFD0028C5D00300543300D07BE73AE705
:1037900029003C310DA8FDF7FCFC290030310DA8B3
:1037A000FDF7F7FCBDE70123002B0ED10DAB2E4A30
:1037B00010A92800FFF782FD002806D0030054332B
:1037C00000D060E71FE70023EEE710A92800FFF70D
:1037D000E7FD002804D00300543300D053E712E77C
:1037E0001198AB6E996904F03DFC00291BD1236848
:1037F0006268226063604B4642469B1AA382119B1B
:10380000E360129B2361280048300C22002105F060
:1038100057FB5B46002B04D12B003C33303507CDE2
:1038200007C358462FE7114B114A1248124903F0BB
:1038300019FA63680F491148114A0092114A05F0BC
:10384000D9FCE6E663680B490F480D4A00920F4A1F
:1038500005F0D0FC1C20404215E7C0468D33001017
:1038600000FC0F4008FC0F000CFCFF7FA8FF0010BD
:103870005006011070FD0010EF07000084FF0010DB
:10388000C4FA001001080000D0FF00100608000074
:10389000F0B5DE464F4680B58FB005000C000492AF
:1038A000059316AB40CB1988894618AB19888B460F
:1038B00006A9FFF74DF9071E05D038000FB0C0BCB0
:1038C000BB46B146F0BDE37D06A9CB75A3698B610C
:1038D000E369CB6158460290484601900096059BEB
:1038E000049A2800FFF768FE002817DB0699A161FB
:1038F000079AE2610123E3752368286A834207D0AF
:1039000066686C6AA64203D0A34201D0B042D4D10B
:103910004B46002BD1D129626A62CEE70700CCE783
:10392000F0B5DE4657464E464546E0B593B0814673
:1039300015009A461CAB04CB1B880C931EAB1F884A
:103940000D912E000A92B8464FE07F089969CF1971
:10395000013F380004F086FB7F1ABE4200D93E00CA
:103960000F9BB3422ED964082D1943465C1B012CD2
:1039700028D900200F90AAB201230FA90891554918
:103980000791514209B20691414605910492039074
:10399000514A0292524601925A4600925B420022DC
:1039A0000A994846FDF7C0FF002869D1FE2CDAD8F5
:1039B0004B469B6EDF693E00283E9A6C002AC4D0BD
:1039C0005708C3E70B9F5E46BD4228D0ADB24346C1
:1039D000029301950A9B0093534632000D99484685
:1039E000FFF756FF002804D1A8460C9D0B95B3465F
:1039F000BBE735000A9B9B4647460D9B9846030054
:103A00001C333DD143461B6834493548354A019241
:103A1000424652680092344A05F0ECFB05E035005E
:103A20000A9B9B4647460D9B984641464846FDF7F4
:103A300057FC002819D000231093013311934346FB
:103A40001A68002A06D05B68012B03D0012A01D036
:103A5000002B0AD14846FFF799FB002810DB4B46A4
:103A6000DB6E181ADB08984211D802970C9B019361
:103A70005B46009353462A0041464846FFF79CFDAB
:103A800013B0F0BCBB46B246A946A046F0BD4346C3
:103A90009B6812491548134A0092154A05F0AAFB83
:103AA00002970C9B01935B46009353462A004146C4
:103AB0004846FFF7EDFE002809D003001C33DFD194
:103AC000084B06490B480C4A05F094FBCDE70C9FC8
:103AD000CBE7C046C512001000FC0F4070FD00107F
:103AE00008000110C4FA0010590800003800011045
:103AF0006F0800006800011079080000F0B5DE468C
:103B000057464E464546E0B59DB081460E0092466A
:103B10001F00269B00200025AC461D0003E0B38A51
:103B20000133B3820130A8422CDAC10079180B6846
:103B30001B0D5A05520DAC4CA242F0D0AB4CA24228
:103B400012D0E022D2001340013AFF3A9342E9D169
:103B50004B681B68B3614B685B68F3610A68120DC0
:103B600001231340F375DDE7B38A002B04D0013B3A
:103B7000B38201239C46D5E79D4B9E4A9E489F49B0
:103B800003F070F8A8466546002D1BD0B38A002BC1
:103B900018D1279B002B0AD0279A31004846FFF7FF
:103BA00005FB051E09D0831C00D064E10AE0944B9C
:103BB000904A9148934903F055F8279BDB7D002BF1
:103BC00000D0C6E0B47D002C30D033681293F36887
:103BD00013933269149201225242159216934B4666
:103BE0009A6E936C002B42D0083B12A81793F26890
:103BF00033691AA94D461A951B900891824907917D
:103C00000021069105910491039102914146019191
:103C1000009731004846FDF787FE051E2AD00300B5
:103C20001C3303D00300543300D024E101235B4252
:103C30004A461361B38A02930023019300964346D8
:103C40003A0031004846FFF76BFE031E00DA1DE123
:103C50005246126893461892524652680B92199235
:103C60004A46946A5D460D93CC46B146D6E0D36988
:103C7000083BBAE70C2200210FA805F021F94946BC
:103C800030310FA8FDF785FA49463C310FA8FDF702
:103C900080FA494648310FA8FDF77BFA0F9B9B0A33
:103CA0009B020F9300E00135022D0ADCAB0060227D
:103CB0009B1804AA94466344343B1B68002BF2D043
:103CC0000024002C17D10FAA31004846FDF79EFDB5
:103CD000051E00D0CFE00FAB4C4A12A94846FFF7B3
:103CE000EDFA051E07D003001C339FD003005433A8
:103CF00000D0C0E09AE712A94846FFF751FB051E25
:103D000007D003001C3391D00300543300D0B2E03D
:103D10008CE7139C4B469B6E9969200004F0A2F936
:103D2000002910D1F460149B33614B463C334A4662
:103D3000303213CA13C3484648300C22002105F024
:103D4000BFF82B0084E7324B2A4A2B48314902F056
:103D500089FF02237CE7A588A846850AAD05AD0D3D
:103D6000A8450ED101235B42A360E360013191427B
:103D700033DACB00F858030D5B055B0D1B4DAB42EE
:103D8000E9D01A4DAB4213D0174DAB42EED1A38808
:103D90009C46830A9B059B0D9C45E7D363460133F4
:103DA000A380A379022BE1D1A36A0133A362DDE7EB
:103DB000A588860AB605B60DB542E5D96B1EA38067
:103DC000A379022BD2D1A36A013BA362CEE70021E3
:103DD000AB4663460C934246C9E75D460C9B904652
:103DE0001E0035E0B44618E001040000FF040000A6
:103DF000940001108006011070FD00109108000071
:103E0000A40001109E0800008D3300100CFCFF7F01
:103E1000A8FF0010E8080000B4462468002C32D047
:103E2000A3689D4207D0E2680B99914203D0994262
:103E300001D09542F1D1230008334A4643CA43C317
:103E400043CA43C303CA03C3203B5345BFD166469D
:103E5000A388A28B9342DFD3E17F0029C2D09B1AB3
:103E6000A38022002032210008313000FEF700FD3F
:103E70000028EDD0050028001DB0F0BCBB46B246BE
:103E8000A946A046F0BD0D9B1D00F4E70500F2E732
:103E9000F0B5CE46474680B5A3B005000E0090466B
:103EA0009946846A03E0A379012B13D02468002C7F
:103EB00026D021000831B142F8D0A16833688B4286
:103EC000F1D0E06872688242EDD08A42EBD098422D
:103ED000ECD1E8E7236BDB02E8D5E26AAB6E9B6AC4
:103EE0009A42E3D921002800FEF71CFF071E00D0EC
:103EF0008DE121002800FFF7C1F8071ED6D086E12A
:103F000033681693736817930EA90B00320091CA99
:103F100091C391CA91C311CA11C306AB01934B4619
:103F20000093434632002800FFF7E8FD071E00DA41
:103F30006DE13368169A9A4207D0706817998142EA
:103F400003D0994201D0904207D10EAB320013CB7F
:103F500013C213CB13C203CB03C2022F02D0002320
:103F60009846A6E02A00483231002800FDF74EFCB2
:103F7000071E00D04BE1069B1693079B1793F37D1A
:103F8000C022D200944663441B05A74A13431893EA
:103F900018361996002301930133009318AB16AA23
:103FA00006A92800FFF7AAFD071E00DA2FE120224C
:103FB00006A90EA804F08AFFD1E70E9A9A600F9A1C
:103FC000DA609A79022A0ED01B68002B1BD09A68FF
:103FD0009142F2D01798DC688442EED08C42ECD04B
:103FE0009042EED1E9E7DA6A8A4207D0179C186B53
:103FF000A04203D0884201D09442E5D10E9ADA6201
:104000000F9A1A63E0E706AA16A92800FEF7C0FB7C
:10401000041E71DA831C00D001E1811C4B1E994102
:10402000CEB2002706AA16A92800FFF7BFF800287D
:1040300002D0831C00D0F4E0023400D1C0E0023092
:1040400000D1B7E02B6B9B0500D0BDE028003030DD
:1040500006A9FDF7ABF8002800D0BDE0734C069B25
:104060001693079B1793714B9C4200D1C9E0A402A1
:104070006F4B23431E9300201F9006A9CB7DC022C7
:10408000D200944663441B05674A134320930EAB4A
:1040900021930190022300931EAB16AA2800FFF77C
:1040A0002DFD071E00DAB2E0202206A90EA804F0BA
:1040B0000DFF012F00D0A6E0169B5E495E485F4AC7
:1040C00003920F9A02920E9A0192179A00925C4AFA
:1040D00005F090F816992B6A8B4207D017986A6AF8
:1040E000824203D08A4201D0984203D10E9B2B62B8
:1040F0000F9B6B62AB6A68E7811C4B1E9941CEB285
:1041000001212800FDF754F9071E00D07FE02800A8
:10411000303006A9FDF74AF800282BD12200434F82
:10412000069B0493079B0593404B9F4240D0BF02E0
:104130003F4B3B431A9300231B931C920EAA1D92E4
:104140000193023300931AAB04AA06A92800FFF7D3
:10415000D5FC071E5BDB012800D063E7049B1693A8
:10416000059B1793202206A90EA804F0AFFE012399
:1041700098469EE72F6BBF0ABF05BF0D069B2D49D2
:1041800030482E4A02920197079A00922E4A05F073
:1041900031F8002225492800FDF7C0F8A30A9B0545
:1041A0009B0DBB4202D9294BE218B9E72200B7E7C1
:1041B0000023BFE7264B274A1E48274902F052FD3D
:1041C000023000D03EE774E771422800FDF7F0F8B6
:1041D000071E00D13AE71AE02C6BA40AA405A40D2F
:1041E000069B14491748154A02920194079A0092B7
:1041F0001A4A04F0FFFF00220C492800FDF78EF850
:104200002DE7002336E74346002B06D10027380070
:1042100023B0C0BCB946B046F0BD0327F7E707009E
:10422000F5E70700F3E7C04608FC0F00FF030000B6
:104230000000F04F70FD0010AC000110C4FA001037
:1042400072090000E80001109F09000000FCFFFF58
:104250002C010110DC060110C2090000D309000086
:10426000F0B5CE4600B5A6B006000591036B9B05E0
:1042700000D1DAE00027012F00DDCBE008AC2022DE
:104280000021200004F01CFE0123E3750F9300259C
:10429000B2E018AA0EA93000FEF77AFA041E39DB44
:1042A000002F01D1A31C38D1012F00D09FE0023490
:1042B00000D09CE0059B002B00D198E00E9B5E494E
:1042C0005E485F4A01920F9A00925E4A04F092FFA4
:1042D0003200483210A93000FDF798FA041E00D0D1
:1042E000A4E010ABDB7DC022D200944663441B05E2
:1042F000554A1343249316AB2593012324AA08A9F6
:104300003000FFF7C5FD041E00DA8FE0032873D1EB
:10431000059D71E0831CC3D088E006AB00932300A9
:104320004A4A18A93000FDF763FA00284CDB0EA9B1
:1043300006A8FCF717FF0028B6D10E9B3E4944485B
:104340003F4A0392079A0292069A01920F9A0092AC
:10435000404A04F04FFF3000303008A9FCF726FF38
:10436000002813D100232093002321933A4B22935A
:1043700006AB2393022320AA08A93000FFF788FD8B
:10438000041E53DB032837D1012535E0346BA40A22
:10439000A405A40D089B28493048294A029201949B
:1043A000099A00922E4A04F025FF2E4B99460022CE
:1043B00019003000FCF7B2FF4C4503D0A4022A4B91
:1043C0002343D0E70023CEE704002FE0012300E0E1
:1043D0000123002B18D10EAA10A93000FEF748FACD
:1043E000041E23D108ABDB7D002B00D151E7202236
:1043F00010A908A804F06AFD0E9B0133E8D00F9BBA
:104400000133E3D00023E4E7002D01D1013732E787
:10441000002730E7316B8905890DC9B2494249B29D
:104420003000FCF7C5FF040000E00024200026B0A7
:1044300080BCB946F0BDC04670FD0010E00101101F
:10444000C4FA00104E13000008FC0F0000FCFF7FB0
:10445000540101102313000008FC0F6098010110A3
:104460002E130000FF0300000000F04F10B5040001
:10447000FFF70EFD002800DB00D110BD0021200059
:10448000FFF7EEFEF9E710B50400836E1B6B002BFF
:1044900009D0A36E5B6B002B09D0A36E9B6B002B26
:1044A00009D0002010BDC06804F0F2FCF1E7E0691B
:1044B00004F0EEFCF1E7606E04F0EAFCF1E70000C6
:1044C000F8B504000D0081660B6AC36649690029CE
:1044D00000D190E0AF69002F00D192E0AE6A002ECB
:1044E00000D194E0300003F0BDFD002900D094E03D
:1044F0003900300003F0B6FD002900D093E0EF69E9
:104500003100380003F0AEFD002900D091E07F2F8C
:1045100000D894E0390008390120404203F0A2FDA0
:10452000013803F039FD20231B1A9B009F4200D263
:104530008BE06B6A002B00D18DE02B6B002B00D140
:104540008FE0E3606B6B002B00D197E0E36121000B
:104550002000FCF75FFF210010312000FCF75AFF1C
:10456000A56EE86A002800D190E0430700D093E0F0
:10457000AB6B9A0700D08FE0002B00D192E063660E
:10458000EB6BFF2B00D994E02367002B01D1FF33A5
:1045900023672B6C002B00DA91E0636701D1514B4C
:1045A00063676B6C504A934200D98EE0A367002B7F
:1045B00001D14D4BA367AA6CEB699A4200D98AE0FE
:1045C00001235B42236263620023A362E362200053
:1045D0003C300C22002104F073FC200030300C220F
:1045E000002104F06DFC200048300C22002104F072
:1045F00067FC0020F8BD3D4B3D4A3E483E4902F075
:1046000031FB3E4B3A4A3B483D4902F02BFB3D4BC8
:10461000374A38483C4902F025FB3C4B344A354880
:104620003B4902F01FFB3B4B314A32483A4902F00A
:1046300019FB3A4B2E4A2F48394902F013FB394BEC
:104640002B4A2C48384902F00DFB384B284A2948A0
:10465000374902F007FB374B254A2648364902F016
:1046600001FB300004F0FEFBE060002800D069E7A9
:104670002000FFF708FF0C204042BBE7A86A04F0C7
:10468000F1FBE061002800D061E7F1E72B4B184A0D
:1046900018482B4902F0E6FA2A4B154A15482A49D0
:1046A00002F0E0FA04F0DEFB6066002800D067E765
:1046B000DEE7264B0E4A0F48254902F0D3FA254B78
:1046C0000B4A0C48244902F0CDFA244B084A094809
:1046D000234902F0C7FA234B054A0648224902F053
:1046E000C1FAC046FFFFFF7FFE0300001002011069
:1046F0000007011070FD0010251000002C020110B1
:10470000261000004802011027100000640201106A
:104710002B100000940201102C100000C4020110A4
:104720002D100000F80201103010000014030110D9
:1047300033100000600301103C1000007C030110E6
:104740005A1000009C0301105B100000F0030110E0
:10475000681000000C0401106E10000030040110FD
:10476000741000004C0401107A10000070B596B06F
:1047700004000E00FFF7A4FE051E20D1336A002BB3
:1047800020D0606EA36EDA6A002104F099FB00234A
:104790006365A36EDB6AE26EDB00934200D913000F
:1047A000A3650023E3652000FCF744FD06A9200073
:1047B000FEF7CEF9051E0BD02000FFF764FE28009F
:1047C00016B070BD1E4B1F4A1F48204902F04AFA1E
:1047D0002000FCF709FD0090A36EDB690193E36EF6
:1047E0000293236F0393636F0493A36F0593184B96
:1047F0000E9300230F93174B1093174B1193174BE6
:1048000012936B46139303230EAA06A92000FFF709
:104810002DFE051ED0D106A900238B750022200095
:10482000FFF724FE051EC7D100231493013315930F
:1048300014AA06A92000FEF71BF80500BCE7C04635
:104840007C0401100C07011070FD0010AB1000007B
:10485000000010400800F00F940401101800102010
:1048600010B5FFF710FE10BDF0B5DE4657464E46B8
:104870004546E0B59BB00400FFF722FE05900028F6
:1048800019D1202200210FA804F01AFB012316934E
:104890000DAAA24B21CB21C20127012576E0A04B16
:1048A000A049A148A14A04F0A5FC54235B4205930A
:1048B0002000FFF7D5FF05981BB0F0BCBB46B24601
:1048C000A946A046F0BD0D96169B0E937F000025CD
:1048D00074E02000FCF791FC9249954D904B0393B6
:1048E0000290434601933604360C00964B46914A9B
:1048F000280004F07FFC16235B420593D8E7894922
:104900008D48874A03920293434601933604360C3E
:1049100000964B46894A04F06DFC01212000FCF70B
:10492000F3FC89E07F4986487D4D01950092854AD8
:1049300004F060FC16235B420593B9E7794982488D
:10494000774D01950092814A04F054FC16235B4296
:104950000593ADE773497E48714D019500927D4AFC
:1049600004F048FC16235B420593A1E7099BE3662C
:10497000089BD269934200D08CE0220030320FA90C
:104980002000FCF743FF002800D093E0159E731C25
:1049900000D193E0169B013300D18DE0059A0123ED
:1049A00019001140134200D08AE00DA915A8FCF7A8
:1049B000D9FB002800D072E7BD4284D0013517AB87
:1049C0001794654A1892082219920393634B029335
:1049D00000230193624B0093624B15AA0FA920009C
:1049E000FDF738FC002863DBC7D080058015013057
:1049F000C3D00F9B2362109B636207AB00935A4B9B
:104A0000584A0FA92000FCF7F3FE00284EDB079E52
:104A1000330C9946B3B29A462000FCF7E9FB804676
:104A2000484500D055E72000FCF7E7FB0300504560
:104A300000D24EE700D962E70A9B002B04D0226F18
:104A4000934200D96EE723670B9B002B04D0626F63
:104A5000934200D972E763670C9B002B04D0A26FCE
:104A6000934200D976E7A367A26E166A002E00D1A2
:104A70007CE7099B9E4200D178E78B2229493B487D
:104A8000274D01950096520104F0B4FB16235B42BA
:104A900005930DE723493648214D01950092354A8B
:104AA00004F0A8FB16235B42059301E70590FFE69F
:104AB0000590FDE60590FBE6012270E701226EE716
:104AC00020003030059B022B06DC9A001258002A89
:104AD00001D10133F7E70021002912D0236BDA0F4F
:104AE0009B18236323003C332200303223CA23C3A4
:104AF000E06AE16E03F0B6FA61652000FCF79DFB09
:104B0000D9E6236B07491C48054A0292A26B019221
:104B1000626B0092194A04F06DFBDFE71C0701107D
:104B2000C4FA001070FD001030FF0010F4100000F7
:104B3000A004011022110000D8040110301100005F
:104B4000180501103E1100004C050110491100002C
:104B50008005011054110000940401100120001080
:104B60000800F00F00FCFF7F18001020B4050110B2
:104B7000E805011069110000180601107911000004
:104B800010B5FFF7F3FD10BD10B5FFF76DFE10BDBA
:104B9000F0B5002510E006094C5D60400F23184079
:104BA000074F8000C0594640300924097440234013
:104BB0009B00DB59584001359542ECD3F0BDC0460F
:104BC0002407011010B58300084A944663441A680C
:104BD00040246240803414408022520113431C6000
:104BE000C000034B9C466044416010BD04C00140BE
:104BF0000040014080000B4B9C46604400290DD0D2
:104C00000823002A0CD004221343026853400C22CC
:104C10001A4080235B0103431A6070470023F0E7CA
:104C20000022F1E704C00140002909D08000094BAF
:104C30009C46604480239B01034340221A607047D6
:104C40008000044B9C466044C0239B0103434022E8
:104C50001A60F4E704C0014010B501238340D0225C
:104C60001206936293610521FFF7ACFF10BD0000AF
:104C7000034B1B6802201840431E9841C0B2704786
:104C800000C00640EFF3108072B6034B1B68002B88
:104C9000FBD0BFF35F8F70472C0100D0BFF35F8F55
:104CA000024B00221A6080F3108870472C0100D05C
:104CB000F8B506000C001500FFF7E4FFE308F7184D
:104CC000F15C07222240012393400B4205D1DBB265
:104CD0000B433B70FFF7E2FFF8BD2100280002F014
:104CE00059F8F0B583B00600019114001F00FFF7DA
:104CF000C9FF00E00134BC420CD8E308F518F35CAE
:104D00000721214001228A401A42F3D1D2B21A432C
:104D10002A7001E001246442FFF7C0FF002C02DB8F
:104D2000200003B0F0BD019B002BF9D0089802F0E1
:104D300031F80000002307E0054A9A189200BFF3FB
:104D40005F8F0021116001331F2BF5D97047C046DA
:104D500040000034054A1078431CDBB21370172B57
:104D600002D9130010221A707047C046FC0C0020B4
:104D700010B50100024A034B1800FFF799FF10BD60
:104D800064070110FC1C002010B582B00100054C26
:104D9000054B00931F2318222000FFF7A2FF02B04B
:104DA00010BDC046FC1C002084070110074B9B6807
:104DB000103080001950BFF35F8FBFF35F8F044B3B
:104DC0000021196082F310887047C04600ED00E0B2
:104DD000240100D010B50388DA0A1C2A05D15B052E
:104DE0005B1502335B00C01810BD034B034A044837
:104DF000B12101F037FFC046A0070110180A0110C9
:104E0000B807011010B5091A0B1F0A4A88180A4A78
:104E1000904208D8C90706D45B105B055B0D0748B4
:104E2000184380B210BD064B064A0748A32101F083
:104E300019FFC046FC070000FE0F000000E0FFFF66
:104E4000F40701100C0A0110B807011010B5091A77
:104E500004394A08090B08D14905490D064B0B4393
:104E60000380064B1343438010BD054B054A06489B
:104E7000AB2101F0F7FEC04600F0FFFF00F8FFFF96
:104E800024080110E0090110B80701100123834034
:104E9000034A10681840431E9841C0B27047C0468C
:104EA00000E100E0002904D0034B1860034B1860B8
:104EB0007047034B1860FBE780E200E000E100E090
:104EC00080E100E010B5012383401800FFF7EAFFFE
:104ED00010BD000001238340014A13607047C046A3
:104EE00000E200E0024B9B6810308000C058704721
:104EF00000ED00E010B5FFF7F5FF002805D0054BE9
:104F0000C01A2F2803D8012010BD0020FCE7002084
:104F1000FAE7C046000D002070B504000D00EFF365
:104F2000108672B60C4B1B68002BFBD0BFF35F8F53
:104F30002000FFF7D7FF094B984201D0A84205D1C6
:104F4000320029002000FFF731FF70BD044B054AF5
:104F50000548862101F086FE240100D0CD01001015
:104F600034080110400A0110B8070110F0B5DE4600
:104F700057464E464546E0B589B081460191150039
:104F8000EFF3108A72B66D4B1B68002BFBD0BFF39A
:104F90005F8F6B4B00269E57002E41DB7400A419D7
:104FA000A400684824180622A256654B1A70664B66
:104FB0009A684B4610339B00D35898461F00181A26
:104FC0002F2839D9614B984530D105AF604B3B80D4
:104FD000604973009B46981980005A4B984640449C
:104FE0000230FFF70FFF78805B4BBB80FF23BB7164
:104FF000FD71019B079333005B449B00434407CF43
:1050000007C301231C43A046524641464846FFF7CA
:10501000CDFE09B0F0BCBB46B246A946A046F0BDE5
:105020004E4B4F4A4F48D72101F01CFE4E4B4C4A85
:105030004C48DE2101F016FE01380C2103F012F875
:10504000002912D101239F43BB463B000027DA7998
:10505000AA4211D90621595600290CDB4A005218E0
:10506000920038491F008B18F1E7404B3C4A3D48FD
:10507000EA2101F0F7FD1F00002F2ED005AB3C4ABE
:105080001A80813A5A800623FB560293002B17DAC6
:10509000384805AB9B469880029A9A71DD71019A57
:1050A0000792381D2100FFF7ADFEB880BE71254B79
:1050B0007200921992009B185A4613CA13C3A3E7B1
:1050C000381DFFF787FE01007000801980001D4B1E
:1050D000C0180430FFF796FEDBE705AF1C4B3B80A2
:1050E0001C49730002939B199B00164A90461A00B4
:1050F00042440392901CFFF785FE7880039A101DAE
:105100005946FFF77FFEB8801B4B5A464146521A5C
:10511000524153431B0DBB71FD71019A0792029BD3
:105120009B199B00434407CF07C3114B5A4613807A
:10513000813B538001231C43A04665E7240100D036
:1051400000280220000D002000ED00E0CD0100103D
:1051500000A1FFFF300D002001BDFFFF6C08011012
:10516000280A0110B807011094080110BC080110AA
:105170000148000001BD0000AAAA0000F0B5CE461B
:10518000474680B583B006000D00EFF3108872B675
:105190004F4B1B68002BFBD0BFF35F8F4D4B9A68C2
:1051A00034001034A300D7584B4B9F4207D0AF4276
:1051B00000D18BE00197494BFB1A2F2B09D94246AE
:1051C00039003000FFF7F2FD03B0C0BCB946B0466D
:1051D000F0BD3000FFF75AFE814600213000FFF796
:1051E00071FEBFF35F8FEFF30581002901D08C4280
:1051F00011D10123019C9C430020A368AB4212D033
:105200000622A256002A0DDB53009B189B00334A4E
:105210002000D418F1E7324B324A36213248FF31B0
:1052200001F020FD2000AB4249D106256557002D35
:105230002BDB2A4B6A00521992009B189A68A260D5
:10524000DA79E2719B795BB2A371002B0FDA274800
:10525000A080224B6A00521992009B18244A1178B0
:105260009971157049463000FFF72CFEA7E76800DA
:1052700040198000194BC0180430FFF7ABFD010046
:10528000231D1800FFF7BEFDE2E7002912D1002818
:105290000ED0FF238371174B838015490B78A371C0
:1052A0000E4A154BA41A644163431B0D0B70D9E7DA
:1052B000094FF2E71149201DFFF7C8FDD2E7104B57
:1052C000084A6A210848FF3101F0CCFC024F76E71A
:1052D000240100D000ED00E0CD010010000D002001
:1052E00030090110F8090110B807011001BD0000D4
:1052F0000028022001BDFFFFAAAA00003A0D0020ED
:105300006409011010B5032304009C43064A944627
:10531000644422681840C000FC3383409A43130061
:1053200081400B43236010BD00E400E070B5012212
:1053300002432E4BD31A2F2B28D8EFF30583002BD3
:105340002BD0EFF3108C72B6294909680029FBD0E5
:10535000BFF35F8F254C274905002D1B6D41694325
:10536000090D4CB2244989689B00C95891421BD051
:105370000021032932D81D4B4A00521892009B1875
:105380009B795BB2A3421FD00131F2E71B4B1C4A51
:10539000C7211C48490001F065FC1B4B184A9221AB
:1053A0001848FF3101F05EFC134A92681749D1504A
:1053B000174B1A7882711C70BFF35F8F0C4B002261
:1053C0001A608CF3108870BD084B4A005518AD0068
:1053D0005D19FF26AE710F4AAA80E9E70E4B084A15
:1053E000D1210848490001F03DFCC046000D0020D5
:1053F000240100D0AAAA000000ED00E06C09011011
:10540000C4090110B807011094090110CD01001062
:105410000028022001BDFFFFA00901100022044B5B
:1054200002E0044902C30132072AFAD97047C04694
:1054300000E400E08080808010B582B00100074C5D
:10544000074B0093052300222000FFF74AFC0028A9
:1054500001DB1F23181A02B010BDC0460528022028
:10546000A8090110024B9C46614489000160704705
:105470004000003410B5002B02DB0260436010BD19
:10548000024B034A03483F2101F0ECFB5C0A011088
:105490006C0B0110780A011070B582B00600140080
:1054A0001D00FA22920000230698002103F018FC48
:1054B00002000B0012196B41002B09DB6846FFF755
:1054C000D9FF009A019B32607360300002B070BD5A
:1054D00001225242004BF1E7FFFFFF7F10B582B07F
:1054E000040000F013FE02000B006846FFF7C2FF45
:1054F000009A019B22606360200002B010BD30B5AD
:1055000085B004000D0002A8FFF7E8FF029A039B94
:1055100000952000FFF7C0FF200005B030BD10B59A
:105520000400FFF717FC01002000FFF79BFF012399
:105530005B426360BFF35F8F10BD10B50400FFF7DF
:1055400009FC01002000FFF78DFF01235B4263602F
:1055500000232372BFF35F8F10BD0000034B9C46F6
:10556000614489000160BFF35F8F704740000034E1
:1055700010B504000120FFF707FC01002000FFF731
:10558000EDFF10BD084B5B6A994209D8064A926A42
:10559000824207D2994201D0012002E0002000E0BF
:1055A000002070470120FCE70040054010B50029AD
:1055B0000AD003681B7B8B4206D38068054B9C4650
:1055C00061440901401810BD034B044A04483C21C2
:1055D00001F048FBFFFFFF0F840B0110A40E011028
:1055E000A80B0110F8B504001700FFF7DFFF0668ED
:1055F000456839002000FFF7D9FF026843680120A1
:10560000AB4201D802D00020C0B2F8BDB242FBD8F4
:10561000F9E7000010B5002B02DB0260436010BD0B
:10562000024B034A03483F2101F01CFB5C0A0110B6
:10563000700E0110780A011010B582B004000498B1
:10564000059912184B41002B09DB6846FFF7E2FF72
:10565000009A019B22606360200002B010BD01220D
:105660005242014BF1E7C046FFFFFF7F10B5002912
:1056700008D0037B8B4205D300684B005B18033BCB
:10568000C01810BD024B034A0348682101F0EAFA32
:10569000E00B01104C0E0110FC0B011010B5437B08
:1056A0008B4201D1012010BDFFF7E0FF8378002B72
:1056B00001D10020F7E70120F5E770B50400857BF4
:1056C000002D01D1280070BD2900FFF7CFFF4378DE
:1056D000A373002B00D1E373002383704370037026
:1056E000F0E70000F8B506000C001500FFF7BEFF5C
:1056F0000700002C0DD0002D11D0AC4215D0290090
:105700003000FFF7B3FF84703B78002B13D13D705E
:10571000F8BD0A4B0A4A0B486F2101F0A3FA0A4B65
:10572000074A0848702101F09DFA084B044A0548D1
:10573000712101F097FA43703D70E9E7440C0110C4
:10574000280E0110FC0B0110500C01105C0C011014
:1057500070B506000D001400002914D0002A14D0E2
:10576000436880689847002806D02200290030004E
:10577000FFF7B8FF280007E02A0021003000FFF7FC
:10578000B1FF200000E0100070BD0800FCE7000041
:1057900070B504000D1E0CD0FFF768FF0023837066
:1057A00043700370617B2A002000FFF7D1FF607314
:1057B00070BD034B034A0448A52101F053FAC046CB
:1057C000740C01103C0E0110FC0B011070B50400AC
:1057D0000D1E0FD0FFF762FF00280BD1E17B0029DF
:1057E0000ED1A37B002B03D1E37B002B0DD1A5733E
:1057F000E57370BD084B094A0948F62101F032FAF9
:105800002000FFF733FF4570EBE7064B034A0448DF
:10581000FB2101F027FAC046780C0110180E011088
:10582000FC0B01109C0C011010B5002907D0036877
:105830001B7B8B4203D3C0680139401810BD034B5A
:10584000034A0448412101F00DFAC046840B0110BF
:10585000040E0110A80B011070B505000C00080023
:1058600000F04EFD0949200000F08EFCFFF772FAAF
:10587000074B9C466044800068602C75D0231B0653
:105880001B786B75034BA400E55070BD7559001073
:1058900040000034C021002010B582B0040000F0A8
:1058A00035FC02000B006846FFF7B4FE009A019B2E
:1058B00022606360200002B010BD70B584B00400A7
:1058C00016001D0002A8FFF7E7FF029A039B00964F
:1058D00001952000FFF7B0FE200004B070BD00006D
:1058E000F0B583B0070001921D000AAB1C780BAB2A
:1058F0001E78002C0BD000682100FFF7CFFE002897
:1059000009D0194B194A1A48672101F0ABF9006810
:10591000FFF7D3FE0400002C02D1200003B0F0BD3D
:1059200021003800FFF742FE019B03604560089BA1
:105930008360099BC36038682100FFF729FFA042FC
:10594000EBD1387D019A2B0000F066FC051E01D0DA
:10595000002E04D00C9B002BDFD01D70DDE73868D3
:10596000210000F013FEF5E7B00C0110580E0110F5
:10597000A80B0110F0B5DE4657464E464546E0B549
:105980008FB00B900021794B8200D458894683E078
:1059900029002000FFF70AFE804602684368921B38
:1059A000BB41002B09DD43461A685B680B9800F089
:1059B00033FC0023984600268AE0002B01D1002A00
:1059C000F1D10021584600F0D7FD0700A84215D1BB
:1059D00043461A685B680892099343469E68DB68F1
:1059E0009846002E10D029002000FFF71DFF0378F5
:1059F00099461B021F432761002069E05C4B5D4A0A
:105A00005D488E2101F02EF95C4B5A4A5A4892218A
:105A100001F028F92369002B00D177E0BB4219D1AE
:105A200006980799002342428B4100920193089AFD
:105A3000099B0CA8FFF700FE0C9A0D9B0021049116
:105A40000131039102954146019100962000FFF734
:105A500047FF16E04A4B474A4748A12101F002F9A7
:105A6000069A079B002B01D1002A52D120682900F9
:105A7000FFF7ACFE29002000FFF7D6FE03780133C4
:105A80000370002323616268BFF35F8F13608AF3A2
:105A900010880120002861D00CA8FFF7FDFE0C9EA5
:105AA0000D9F00220023089209936268EFF3108A89
:105AB00072B61368002BFCD0BFF35F8F23689B4640
:105AC0005D7B002D00D063E7002398460026002070
:105AD0006368BFF35F8F00221A608AF31088002E7C
