:020000041000EA
:1000000000B5324B212058609868022188439860DF
:10001000D860186158612E4B002199600221596106
:100020000121F02299502B49196001219960352056
:1000300000F044F80222904214D00621196600F024
:1000400034F8196E01211966002018661A6600F04E
:100050002CF8196E196E196E052000F02FF8012189
:100060000842F9D1002199601B49196000215960AB
:100070001A491B48016001219960EB211966A021F2
:10008000196600F012F800219960164914480160C1
:100090000121996001BC002800D000471248134993
:1000A000086003C880F30888084703B5996A0420EC
:1000B0000142FBD001200142F8D103BD02B5186610
:1000C0001866FFF7F2FF186E186E02BD00000240BE
:1000D000000000180000070000035F00212200005C
:1000E000F4000018222000A00001001008ED00E03C
:1000F00000000000000000000000000074B24E7A12
:1001000000200420F7010010C3010010C5010010F9
:10011000C1010010C1010010C1010010C101001097
:10012000C1010010C1010010C1010010C701001081
:10013000C1010010C1010010C9010010CB01001065
:10014000CD010010CD010010CD010010CD01001037
:10015000CD010010CD010010CD010010CD01001027
:10016000CD010010CD010010CD010010CD01001017
:10017000CD010010CD010010CD010010CD01001007
:10018000CD010010CD010010CD010010CD010010F7
:10019000CD010010CD010010CD010010CD010010E7
:1001A000CD010010CD010010CD010010CD010010D7
:1001B000CD010010CD010010CD010010CD010010C7
:1001C00000BE00BE00BE00BE00BE00BEEFF3058054
:1001D000103800BEF2EB8871E88201101083011024
:1001E0003402001090A31AE700201F49086006C8D7
:1001F00081F3088810471D48006800282FD10DA4FE
:100200000ECC002902D000F012F8F9E71849194A7B
:10021000002000E001C19142FCD1174988471749ED
:1002200088471749884700BEFDE701C901C29A42C5
:10023000FBD3704710830110C000002084130020FE
:10024000D49501100000042000000420D495011072
:10025000001004200010042000000000704709482E
:100260000BF0E2FB0047000008ED00E0000000D0CA
:10027000881300206C290220D5A6001091080010D8
:1002800095A600105756000006005250ABB36053BD
:10029000DC6A011006005250861C0302F46A011049
:1002A000060052505422A29DFC6A011005005250D3
:1002B000DE65F468D4950110F8B5C0460448054BD6
:1002C00010B5834203D0044B002B00D0984710BDDB
:1002D0008413002084130020000000000648074912
:1002E000091A8B10C90FC91810B5491003D0044B57
:1002F000002B00D0984710BD8413002084130020E9
:100300000000000010B5074C2378002B09D1FFF73F
:10031000D5FF054B002B02D0044800E000BF0123AD
:10032000237010BD4015002000000000203F011088
:10033000054B10B5002B03D00449054800E000BF71
:10034000FFF7CCFF10BDC0460000000044150020A0
:10035000203F0110002070470020704710B50400B6
:10036000282200210CF00AFC200010BD10B5034823
:1003700000210CF0F1FD00BE10BDC046203F011071
:1003800010B5034800210CF0E7FDFFF7EFFF10BDAB
:10039000443F011010B5064B1868002300220021CD
:1003A00010F0A0FC013843425841C0B210BDC04615
:1003B000C815002010B50121044B1868494210F0FF
:1003C000B5FE013843425841C0B210BDC8150020E7
:1003D00010B58CB0040011F0ABFA0B9020680368E4
:1003E0005B68984721680B689B6868469847A368D4
:1003F000186800230A22694610F074FC218A0BA8B1
:1004000011F010FCEAE7000010B50A0003480021D3
:100410000CF0A2FDFFF7AAFF10BDC0465C3F011023
:1004200070B505000C0008F047F9200008F044F909
:100430000321280008F040F80321200008F03CF8D0
:1004400000220121280008F04FF80022012120009D
:1004500008F04AF8044805490FF05CFB012010F051
:1004600013FD034B186070BD080E0020A08601002C
:10047000C815002070B5040000220821022010F0E9
:10048000E9FB206000221021022010F0E3FB6060F5
:1004900000222421282010F0DDFBA0600022022190
:1004A000022010F0D7FBE06000220421022010F0AF
:1004B000D1FB606100222021032010F0CBFB2061E2
:1004C000992080000CF066FB050000230370982241
:1004D0009200835001F02AF9A561200070BD000050
:1004E000F0B5C64600B504008846164B03600025EB
:1004F0000571154B036077270773144B0360702059
:100500000CF048FB0600702200210CF037FB6C2336
:10051000F754266100236361A361E361236224230E
:10052000E5540133E554A5620733E5544346002BF7
:1005300003D1200080BCB846F0BD0321200000F0AC
:10054000A9FCF6E75440011068400110284501104D
:10055000F8B504000D00214B036000260671204B06
:100560000360692303731F4B03601F4B02001032AB
:1005700083CB83C203CB03C220004C300622002170
:100580000CF0FCFA20005230062200210CF0F6FAA2
:1005900020005830062200210CF0F0FA5E23E652CB
:1005A000200060300C2200210CF0E8FA20006C30B2
:1005B0000C2200210CF0E2FA200078300C220021FD
:1005C0000CF0DCFA84230022E250002D01D120003F
:1005D000F8BD0321200000F043FDF8E7544001106E
:1005E00068400110D44501108840011070B52E48B4
:1005F0000CF082FC05210420FFF712FF0FF00CFB2A
:100600000C200CF0C7FA0400284E06600025057186
:10061000274B036000F084FE264B1C6018200CF072
:10062000B9FA0400012100F0B7FA234B1C60302016
:100630000CF0B0FA04000121FFF752FF1F4B1C60C1
:1006400088200CF0A7FA04000121FFF781FF1C4B62
:100650001C6010200CF09EFA040006600571194B16
:100660000360032100F07CFD174B1C600C200CF094
:1006700091FA040006600571144B0360032100F039
:1006800033FB134B1C601C200CF084FA0400FFF7B2
:10069000F1FE104B1C6010480CF02EFC0F4B18683C
:1006A000012110F0A7F870BD843F011054400110E3
:1006B0007C400110081F0020EC1E0020381D002087
:1006C000102300200046011014230020A84201102E
:1006D000341D0020801E0020983F0110FC1E0020C9
:1006E000F0B5D6464F464646C0B5A2B0FFF77EFFEE
:1006F0001DAD1422002128000CF040FA504B1E932F
:10070000FE239B059A462093FA239B0099462B8251
:100710004C4B1B681D934C4B98461B681F938026BF
:10072000B6004A494A4C1CAB0193022700972B00A4
:100730003200200011F010F817AD1422002128001B
:100740000CF01CFA434B189353461A934B462B82DA
:10075000414B1B68179343461B68043319933F4969
:1007600016AB019300972B003200200010F0F4FF2D
:1007700011AD1422002128000CF000FA384B12931E
:10078000384B149332232B82374B1B68119343460B
:100790001B6808331393354910AB019300972B0066
:1007A0003200200010F0D8FF0BAD142200212800E9
:1007B0000CF0E4F92E4B0C9353460E934B462B82D0
:1007C0002C4B1B680B9343461B680C330D932A4933
:1007D0000AAB019300972B003200200010F0BCFF01
:1007E00005AD1422002128000CF0C8F9234B069314
:1007F000534608934B462B82214B1B680593434677
:100800001B68143307931F4904AB019300972B0017
:100810003200200010F0A0FF80221B491B4803ABD0
:100820000193032300930023520110F095FF002051
:1008300010F0CEFF22B0E0BCBA46B146A846F0BDEB
:10084000BC3F0110EC1E0020801E0020C43F0110A0
:10085000D1030010D03F0110381D0020D83F0110F7
:10086000E43F01100000A04110230020E83F0110E8
:10087000F43F011014230020FC3F01101040011030
:10088000341D00201C40011034400110291E0010AE
:1008900000B583B00CF06CFB0C490D2040420FF00A
:1008A000F9F90FF00AFF0A4B1860802209490A483B
:1008B00000230193043300930023D20010F04CFF77
:1008C00010F0EEFF002003B000BDC0468103001011
:1008D000FC1E002044400110E106001010B584B059
:1008E0000A22002101A80CF049F9002418E001AB0C
:1008F00000221A550A200CF0CBFA05E00A200CF071
:10090000C7FA01AB00221A5501A812F037FB04B058
:1009100010BD002C17DD0E480CF01EFB023C01340C
:10092000092CF1D8E3D00CF02BFBC3B20D2BE5D092
:100930000A2BE3D0082BECD001AA1355FF23184053
:100940000CF0A6FAEBE707200CF0A2FA013CE6E770
:100950009C40011070B505000C00080013F082F8EF
:1009600002002100280012F077FF43425841C0B234
:1009700070BD10B5002905D0FA22920000230BF0BB
:10098000E5F803E0FA2189000BF0A2F810BD70B57C
:1009900004000D00282200210CF0F0F82B692360E0
:1009A0006B696360200070BD10B5002B02DB026034
:1009B000436010BD024B034A03483F2109F06EFE1D
:1009C000A0400110BC400110F440011010B504001B
:1009D00009F0C0F802000B002000FFF7E5FF20003F
:1009E00010BD000010B584B00400FFF7E3FC217BCC
:1009F0000B4896239B0001930023009301330F22A1
:100A00006A440FF0EAF8002806D0FFF7C3FC0F2372
:100A10006B44187804B010BDFFF7BCFCFF20F9E769
:100A2000080E002070B505000E00002406E00A2024
:100A300008F071FF0A34A4B2322C0CD82800FFF75A
:100A4000D1FF000605D5002EF1D00A2011F046F99D
:100A5000F0E7012000E0002070BD0000F0B5CE46B8
:100A6000474680B585B005000E0003799846002BF7
:100A700007D000239846404605B0C0BCB946B046F2
:100A8000F0BD642008F047FF03AB394A1188198094
:100A900092789A700B236B44AC221A70002405E004
:100AA00034480CF029FA731EBB4255D82700B442D3
:100AB0005AD201343048320021000CF04DFA2F4850
:100AC0000CF01AFA297B2E4896239B0001930023F1
:100AD000009301330B226A440FF054F8142008F0FD
:100AE0001AFF00212800FFF79DFF0028D8D02548D5
:100AF0000CF002FA297B224896239B0001930023E5
:100B00000093033303AA0FF03DF800212800FFF7FC
:100B100089FF8146002808D02800FFF763FF0307FC
:100B200011D419480CF0E8F9BDE712480CF0E4F9CB
:100B3000FA20C00008F0EFFE731EBB42B6D913487E
:100B40000CF0DAF9B2E7124B010018000CF004FACD
:100B500001232B71C8468EE7FA20C00008F0DBFEA7
:100B60000A480CF0C9F9A1E70A480CF0C5F982E778
:100B7000644201108C410110384101106C41011098
:100B8000080E0020AC410110E8410110D0410110D5
:100B9000084201104042011010B504000A4B0360E6
:100BA00000230371094B036038230373084B036070
:100BB000002303614361002901D1200010BD0321FE
:100BC000FFF74CFFF9E7C0465440011068400110A0
:100BD00074420110F0B589B004000579002D02D1EE
:100BE000280009B0F0BDFFF7E5FB2D4B1A886946D8
:100BF0008A839B788B77217B2A4896239B000193DD
:100C000000230093033307AA0EF0BCFFFFF7C2FBDB
:100C100001212000FFF706FF051EE1D0FFF7CAFB08
:100C200005AE217B1F4896239B0001930023009370
:100C3000063332000EF0D1FFFFF7ACFB72781202E0
:100C4000B37813431B01F1780F091F430F220A40A9
:100C50001202337913431B02707918430BF029FEFB
:100C600011490BF0EAFDD62189050BF0E6FD0F498D
:100C70000BF0C3FD206138000BF01BFE0C490BF09C
:100C8000DCFDD62189050BF0D8FD606102A8FFF7D5
:100C90009DFE02980399FFF76CFEA060A0E7C04696
:100CA00068420110080E002000004843000048423E
:100CB0000000C84201207047024A136801331360E4
:100CC0007047C0465C15002070B50400054B1D68D8
:100CD00000221A60283200210BF050FF256020000E
:100CE00070BDC0465C15002010B50379002B01D003
:100CF000002010BD0B480CF0FFF8062007F0DCFCCC
:100D0000D0231B0640229A6200220121062007F010
:100D1000EBFB054B01220421062007F059FC0120C2
:100D2000E7E7C04680420110B90C001010B5002959
:100D300005D0FA22920000230AF008FF03E0FA210E
:100D400089000AF0C5FE10BD70B504000D00282210
:100D500000210BF013FF6B692360AB696360EB69E3
:100D6000A3602B6AE360200070BD000010B5002B6B
:100D700002DB0260436010BD024B034A03483F217F
:100D800009F08CFCA0400110BC400110F44001109F
:100D900010B5040008F0DEFE02000B002000FFF793
:100DA000E5FF200010BD000010B5531DD8B2072884
:100DB0001BD883000F48C3589F460F480CF0CCF84F
:100DC00010BD0E480CF0C8F8FAE70D480CF0C4F856
:100DD000F6E70C480CF0C0F8F2E70B480CF0BCF852
:100DE000EEE70A480CF0B8F8EAE709480CF0B4F866
:100DF000E6E7C046C8430110B4420110D4420110D6
:100E00000043011030430110544301107843011096
:100E1000A043011030B589B004000079002801D149
:100E200009B030BD6846FFF7B3FF00980199FFF79E
:100E30007DFF0500206902A901F096F90028EFD096
:100E400002AB049A6261059AE261069AA261079A6E
:100E5000226219782C22A1545978083AA1549A7820
:100E60002523E254A3685B1BA362D9E710B5962142
:100E700064224900FFF7CEFF10BD30B583B006AC49
:100E8000247807AD2D7800690195009401F0F2F8FF
:100E900003B030BDF0B5D6464F464646C0B582B029
:100EA00007000E0003799946002B08D000239946CD
:100EB000484602B0E0BCBA46B146A846F0BD0A209A
:100EC00008F029FD002405E023480CF015F8731EF6
:100ED000434535D8A046A6423AD901341F483200CE
:100EE00021000CF039F8386901F0FEF8051EEBD04E
:100EF00039690800503002F08DF982463869184986
:100F00005246FFF751FF5346002B03D015480BF014
:100F1000F3FFDCE714480BF0EFFF14480BF0ECFF95
:100F20000223019301240094033308220021380096
:100F3000FFF7A3FF0E480BF0DFFF3C71A946B7E7B0
:100F4000FA20C00008F0E7FC0A480BF0D5FFC1E723
:100F500009480BF0D1FFABE71C440110E843011036
:100F60003C4401104C440110744401109844011099
:100F7000BC440110E4440110FC44011070B50400AD
:100F80000D00282200210BF0F9FD2B6E23606B6E03
:100F90006360AB6EA360EB6EE3602B6F23616B6FDE
:100FA0006361AB6FA361EB6FE3618023EB58236256
:100FB000200070BD70B505000400103401004C31F4
:100FC000200007F0A9F929005231200007F0CEF9DE
:100FD00029005831200007F015FA2900843120003B
:100FE00007F044FA002431E0230024335B00EB18BF
:100FF0000420185E0BF062FCE22189050BF01DFC59
:10100000230018339B00E850230028335B00EB18C3
:101010000220185E0BF052FC0E490BF0F8FB230087
:101020001A339B00EB18586023002C335B00585F89
:101030000BF044FC08490BF0EAFB08490BF0FDFB00
:1010400023001E339B00E8500134E4B2022CCBD9BC
:10105000012070BD000003430000A041000040409B
:10106000F8B5CE46474680B580460D0003799946CF
:10107000002B06D0002399464846C0BCB946B0466E
:10108000F8BD642008F047FC00240CE0142138006F
:1010900007F010F913480BF02FFF0123424613719C
:1010A0009946E9E73400AC4217DA661C0E482A007C
:1010B00031000BF051FF47461037380007F018F8A1
:1010C0000028E3D06B1EA342ECDDFA20C00008F03C
:1010D00022FC06480BF010FFE4E705480BF00CFF7C
:1010E000CAE7C0466845011034450110904501101B
:1010F000A845011002000079002810D0084B1B6899
:10110000E021C9010B4007490B60074B042119601E
:10111000034B1B68DB05FBD5014B5B689381704774
:1011200000C0044000D0044000E0044070B504005A
:101130000D00282200210BF021FDAB892380200027
:1011400070BD10B504001F2107F0B6F90022002180
:10115000200007F0C9F90021200007F095FA10BD22
:1011600010B504000EF058FD1A20FFF7EAFF012326
:10117000237102480BF0C0FE012010BDE0450110B4
:1011800082B000226B46D91D06E08369DB06FCD4E1
:1011900003680B7001320131002AF6D06B46D87912
:1011A00002B0704700B59DB0304B186801235B4218
:1011B00000930233002201210FF08CFA642010F01A
:1011C0008DFD2B49152007F0CBFB0121152007F0E1
:1011D0009DFB284B50229A635A6B38231340264AB2
:1011E000136008E003A812F03DFC0200234B03A9A2
:1011F000180011F057FE0122214B1868524203A932
:101200000FF0ECFE0128F6D11E4903A8FFF7A2FB60
:101210000028E7D11C4903A8FFF79CFB0028E1D177
:101220001A4903A8FFF796FB0028DBD1184903A849
:10123000FFF790FB0028D5D1164903A8FFF78AFBDA
:101240000028CFD1144903A8FFF784FB0028C9D197
:10125000124903A8FFF77EFB0028C3D1104903A859
:10126000FFF778FB0028C6D0BCE7C046FC1E002074
:10127000A512001000800340349003408813002022
:10128000C41500200C460110144601101C46011024
:10129000244601102C460110344601103C46011032
:1012A0004446011000B583B002E0184B00221A70CA
:1012B000174B9B69DB0626D4002301931448FFF7E4
:1012C0005FFF124A1378D9B20133DBB21370114BAE
:1012D00058540A2803D01378DBB2622BE8D90B4BA1
:1012E0001B78DBB20B490022CA540B4B1868002351
:1012F00001AA0FF0D5FD019B002BD6D0074B802211
:1013000052051A60D1E703B000BDC0466029022033
:101310000080034060150020C415002004ED00E0AB
:1013200010B582B00379002B02D0002002B010BDAE
:101330001E480BF0E1FD96211D4C8901200008F0AC
:101340002FFF0221082007F0B7F80221092007F03B
:10135000B3F8002301220821200008F0EFFE00214D
:10136000200008F001FF13480BF0C6FD124811F0F1
:1013700092FD12480BF0C0FD002264210A200FF0FC
:1013800069FC0F4B18600F480BF0B6FD80220E4928
:101390000E4800230193023300930023920010F0C3
:1013A000DBF90B480BF0A8FD0120BFE74C4601100C
:1013B000008003406C460110881300208C46011009
:1013C000C4150020AC460110C8460110A51100103C
:1013D000D446011010B50400282200210BF0CEFBEA
:1013E000084B18685968206061609868D968A060E7
:1013F000E160186959692061616121229B5C237653
:10140000200010BD8813002070B50400274B1B6816
:101410009E6931005931FF3112F0E0FA051E15D0F6
:10142000224B1B6898698D30FF30210006F0B3FC19
:10143000831C14D0002817DB1D4821000BF08CFD05
:10144000002D16D0002010F0C3F970BD83239B003F
:10145000F11830008D30FF3006F00EFDE0E7154842
:1014600021000BF079FDEBE7134821000BF074FD30
:10147000E6E70E4C2368986902005932FF32832553
:10148000AD0041198D30FF300C4B06F097FC2368FE
:10149000986941198D30FF3006F014FD2368996971
:1014A0005931FF3106480BF057FDCBE7801E002075
:1014B0002C470110EC4601100C47011003050000F9
:1014C0005C48011070B505000C0009480BF014FDD4
:1014D000084928008D30FF3006F026FC002C02D190
:1014E000002CFDD170BD04480BF006FDF8E7C046A6
:1014F00040470110B80C002068470110F8B53B4C7C
:10150000236898698326B60081198D30FF3006F074
:10151000B3FC236898698D30FF3006F02BFC2368FC
:1015200098690021FFF7CEFF2368986930498D3014
:10153000FF3006F00CFC2368986904232D4A011D36
:101540008D30FF30FF3306F039FC23689869982707
:10155000BF00C219011D8D30FF30042306F0DAFCF4
:1015600023689A690121D1519869011D8D30FF309E
:1015700006F02CFD23689869C219011D8D30FF30DB
:10158000042306F0F5FC23689869011D8D30FF30B7
:1015900006F072FC23689B69D95917480BF0DCFCF4
:1015A00023689B6918005930FF30DA5913490AF053
:1015B000FBF92368986902005932FF3281198D3096
:1015C000FF300F4B06F0FAFB2368986981198D30C4
:1015D000FF3006F077FC236899695931FF310948DB
:1015E0000BF0BAFC002010F0F3F8F8BD801E0020CC
:1015F000B80C0020044801101048011048480110A0
:10160000030500005048011070B50324002C15DBC1
:10161000A0000019400001238340013B8B4201DD03
:10162000013CF3E7002C0AD00325064BA400E35845
:101630000A000241044829000BF08EFC70BD04250D
:10164000F3E7C046104D01107048011030B5D1B01D
:1016500004000A0005008D35FF3543A9280006F077
:10166000C9FC00280CD051B030BD13480BF074FCFD
:1016700002992000FFF7C8FF104803A90BF06CFC8B
:1016800001AA43A9280006F0F2FC0028EBDB0DD0EC
:1016900001AB1B78012BE8D0022B03D008480BF0DC
:1016A0005BFCE5E707480BF057FCE1E743A928009E
:1016B00006F0CAFCD7E7C046784801106848011018
:1016C000884801108048011070B504008D30FF304B
:1016D00006F0E2FC050328000BF0EBF80F490BF0D5
:1016E00096F8061C0E480BF037FC29002000FFF787
:1016F0008BFF2F200BF0CCFBE02109042000FFF72B
:1017000083FF0849301C0BF098F80BF033F9020006
:101710000B0005480BF020FC70BDC0460000604B7C
:10172000904801100000C842A0480110F0B5CE4614
:10173000474680B583B004004C480BF0DDFB4C48B5
:101740000BF0DAFB01200FF09FFB4A4B18602500DD
:101750008D35FF354849280006F0F9FA002800D0F9
:101760006EE046480BF0C8FB2300583344490B6039
:10177000002398468B60261D0433424A0091FF33B4
:101780003100280006F048FB98239B009946A144AD
:1017900004234A463100280006F0BCFB9827BF000E
:1017A000E3590133E3513100280006F00FFC042314
:1017B0004A463100280006F0DBFB3100280006F025
:1017C0005BFBE15930480BF0C7FB5536FF36E25959
:1017D0002E4930000AF0E8F883239B00E7182C4BD1
:1017E00032003900280006F0E9FA3900280006F036
:1017F00069FB284831000BF0AFFB27492000FFF7B9
:1018000025FF26480BF0A8FB2000FFF75DFF2448CA
:101810000BF072FB80222349234843460193023395
:1018200000930023D2000FF097FF20480BF064FBD9
:1018300001232370012003B0C0BCB946B046F0BDFF
:101840001B480BF059FB1B480BF056FB1A4808F0DD
:1018500062F81A480BF050FB074E3100280006F0E2
:1018600063FA3100280006F072FA7AE7AC480110FA
:10187000C4480110001F0020B80C0020444901108A
:10188000CC150020044801101048011048480110F0
:101890000305000050480110584901105C4901102F
:1018A0006C4901108C4901108D1B0010A0490110DA
:1018B000E44801100049011060EA000028490110C5
:1018C00082B070B50492059305008D35FF358323F2
:1018D0009B00C418473BFF3B9B0004AA2100280043
:1018E00006F046FB2100280006F0ECFA70BC08BCAC
:1018F00002B01847F0B5DE4657464E464546E0B5BD
:10190000964CA54406000A00954B1900F1A80AF070
:101910004BF8C6235B009846B0448C3BFF3BF1AAD2
:10192000DCA9404606F04AFA831C06D0002809DBF1
:101930008C48F1A90BF010FBE5E08B48F1A90BF006
:101940000BFB01E18948F1A90BF006FBFCE0F30079
:1019500016AA9446634458689B6899460BF00AF8A7
:1019600004000D00824F48460BF004F800900191EE
:1019700022002B0038000BF0EFFA0136002EE6DDD6
:101980007C480BF0E9FA5B200BF082FA0024002C73
:1019900009DD78480BF0E0FA5B200BF079FA0024BF
:1019A000434615936DE0230116AA94466344D86814
:1019B0001D690134230163445E689F680AF0DAFF01
:1019C00010901191381C0AF0D5FF04900591301C3D
:1019D0000AF0D0FF02900391281C0AF0CBFF009080
:1019E0000191109A119B64480BF0B6FACFE7E3001F
:1019F0001B199B0016AA94466344D8691A6A109270
:101A0000596A8B46996A8A460134E200121992009B
:101A10006244916888461D6B5E6B9F6BDB6B9946D9
:101A20000AF0A8FF1290139148460AF0A3FF0E9007
:101A30000F91381C0AF09EFF0C900D91301C0AF09B
:101A400099FF0A900B91281C0AF094FF08900991C5
:101A500040460AF08FFF0690079150460AF08AFF31
:101A60000490059158460AF085FF02900391109862
:101A70000AF080FF00900191129A139B3F480BF0EF
:101A80006BFA132CB3DD159B98463A480BF064FAB9
:101A90005B200BF0FDF900240BE023007533FF33CE
:101AA0005B0016AA94466344998835480BF054FAB3
:101AB0000134002CF1DD2F480BF04EFA5B200BF0C7
:101AC000E7F90024002C31DD2A4F38000BF044FAEE
:101AD0005B200BF0DDF916AAC4239B00D15CD49ADD
:101AE000D59B28480491D89CD99D02940395D69CF7
:101AF000D79D009401950BF02FFA38000BF02CFACB
:101B00000A200BF0C5F9C624A400230016AADCA9FC
:101B1000404606F0FFF9A04212D316991A480BF07E
:101B20001BFA5B200BF0B4F9002627E72300BC3337
:101B30009B0016AA995812480BF00EFA0134C1E71F
:101B4000DCA9404606F098F9FF239B009D44F0BCB9
:101B5000BB46B246A946A046F0BDC04604FCFFFF06
:101B600048480110B8490110EC4601100C4701101B
:101B7000D4490110E0490110E4490110F84901106D
:101B8000284A0110304A0110CC49011010B5C4B0E8
:101B90004D49D1220FA80AF0F7FF0FA80BF0DCF98E
:101BA0000BE04A480BF0D8F9494B1B689C69FEF7DB
:101BB00095FE01002000FFF79DFE282010F08EF812
:101BC00044480BF0C9F90BF0DBF9FF2101400B0091
:101BD000623B132B74D89B003F4AD3589F463C4B23
:101BE0001B689A6998239B00D1583C480BF0B4F9C4
:101BF000E3E73B480BF0B0F90BF0C2F9C0B259284B
:101C000003D038480BF078F9D7E737480BF0A4F940
:101C10000BF0B6F9C0B24328F3D139380BF038F9DC
:101C20008022324932480023019314330093002369
:101C300092000FF091FDC0E72E480BF08DF9FEF7F2
:101C40004DFE02002C4902A809F0AEFE2B4802A965
:101C50000BF082F92A480BF07FF90BF091F9C0B232
:101C6000592803D027480BF047F9A6E74F380BF067
:101C70000FF980222449254800230193153300934E
:101C800002AB92000FF068FD97E721480BF064F972
:101C900093E720480BF030F90D4B1B6898691E49FB
:101CA000FFF7D4FC89E71D480BF056F9084B1B6879
:101CB0009869FFF709FD80E70FA80BF04DF97CE765
:101CC00017480BF049F978E7E04B0110444A01103E
:101CD000801E0020404A0110B44C0110584A0110E7
:101CE000704A0110D44A0110984A0110C44A0110E8
:101CF000FD140010F04A011048480110184B011063
:101D0000304B0110684B01105C4B0110091400109E
:101D1000804B0110884B011058490110A04B011055
:101D2000B44B01100020704710B5074B1868002312
:101D3000002200210EF0D6FF012801D1002010BDA5
:101D400001204042FBE7C046001F002010B5064BB3
:101D5000186814210FF0EAF9012801D1002010BD04
:101D600001204042FBE7C046001F002010B5436A37
:101D70005943802292038818EFF3108472B6190039
:101D800012F07EF884F31088002010BD10B50C000E
:101D90001900436A5C4380239B03E0188018EFF32B
:101DA000108472B6029A12F053F884F3108800205F
:101DB00010BD10B5406A414381204005844661440E
:101DC0008918029A18000AF0DFFE002010BD10B535
:101DD000002905D0FA229200002309F0B7FE03E0A3
:101DE000FA21890009F074FE10BD000010B5002B27
:101DF00002DB0260436010BD024B034A03483F21EF
:101E000008F04CFCA0400110BC400110F44001104F
:101E100010B5040007F09EFE02000B002000FFF743
:101E2000E5FF200010BD000030B5664CA544FA2047
:101E300080000FF053FF98E00134002C16DC2822BC
:101E40000021C6A80AF09AFE5F4B1B6818680A2298
:101E5000C6A90FF0C3F80128EED1E300D0AA94463A
:101E600063440433C6AA21CA21C3E5E70024002C39
:101E700001DD00241BE028220021C6A80AF07EFE16
:101E8000514B1B6858680A22C6A90FF0A7F8012811
:101E900001D00134EBE72301D0AA94466344C6AADB
:101EA0000C3323CA23C312681A60F2E70134132CDF
:101EB0001CDC28220021C6A80AF060FE424B1B68E9
:101EC00098680A22C6A90FF089F80128EED1E3002C
:101ED0001B199B00D0AA94466344C6AA1C3323CA8C
:101EE00023C323CA23C323CA23C3DFE7002400E09C
:101EF0000134002C18DC28220021C6A80AF03EFE7E
:101F0000314B1B68D8680A22C6A90FF067F8012870
:101F1000EED123007533FF335B00D0AA94466344AF
:101F2000C6AA12889A80E3E70024002C32DDC6A8F6
:101F3000FFF750FA2022C6A9C720C00068440AF063
:101F400023FE214B1B689C69C4229200D2A96846DB
:101F50000AF01AFED09AD19B2000FFF7B1FCFA21BB
:101F600089001A4868440FF05DFE0FF0E1FC174B42
:101F70006B441860C62292000021D0A80AF0FEFD32
:101F8000C4A8FFF745FFC498C599FFF720FFD0907C
:101F9000002452E728220021C6A80AF0EFFD0A4BD0
:101FA0001B6858690A22C6A90FF018F8012801D049
:101FB0000134BAE72300BC339B00C699D0AA9950DC
:101FC000F6E7C0469CF9FFFF801E00205C0600007B
:101FD00010B5002107F092FC10BD0000B0B582B032
:101FE00002AF1500531C0832D208D2006C46A21A68
:101FF000954602AA1070002003E00C1801302478E6
:102000001454A842F9D3084896218900019100216F
:10201000009177310DF0B6FD023002D00020BD46B0
:10202000B0BD0120FBE7C046080E0020F0B585B02A
:102030000D0016000F226A4410700D4C9627BF0049
:10204000019701230093772120000DF09BFD01975C
:102050000023009333002A00772120000DF0BDFDFE
:10206000023002D0002005B0F0BD0120FBE7C046E1
:10207000080E002070B5040004A8057805A80078B3
:102080005326A155542162545022A3545223E5549F
:10209000013BE05420005030210001F04BF9104981
:1020A00000222000FEF780FE58230122E254023372
:1020B0002C32FF32E2520233C83AE2522100583148
:1020C0002200012001F0C4FA0500064902002000A8
:1020D000FEF76AFE002D01D1012070BD0020FCE753
:1020E000204D0110304D011030B583B004000123A4
:1020F0000373184B0364184B4364184B8364142315
:10210000837301F06BF80500154902002000FEF70B
:102110004BFE002D02D0002003B030BD2000503017
:10212000210001F077F805000E4902002000FEF7BB
:102130003BFE002D01D00020EEE702230193013B7E
:1021400000930433082200212000FFF793FF0120B1
:10215000E2E7C0462D200010DD1F0010D11F001047
:10216000484D01103C440110F0B5C64600B582B0A0
:1021700005008846FEF71EF92900012001F07AF8D3
:102180000200070023492800FEF70EFE002F33D17E
:10219000290050312A00012001F06EF95C23EA5A2F
:1021A00053019B1A9B009B18DB00C418FEF7F2F842
:1021B000FA218900200009F08BFC01300FF08EFD20
:1021C0000026042E1CDCFEF7F5F82B006A460732C9
:1021D0004146012001F096F904000700FEF7DAF805
:1021E0000D4922002800FEF7DFFD002C08D0012059
:1021F0000FF074FD0136E4E7FEF7CCF8002002E0B2
:10220000002F04D1012002B080BCB846F0BD0020F0
:10221000F9E7C046544D0110684D0110F8B50C00A7
:102220000AF047FB061CE22189050AF006FB071CA1
:10223000E08B0AF03EFB051CEA2189050AF0FDFA55
:10224000011C381C0AF0D9FA071C2023E05E0AF0B2
:1022500035FB011C381C0AF0F0FA071CDC2189054B
:10226000301C0AF0EAFA061CE4218905281C0AF051
:10227000E4FA011C301C0AF0C0FA011C0AF0DDFA75
:10228000051C2223E0560AF019FB8321C9050AF038
:10229000D4FA011C281C0AF0D0FA011C381C0AF0E0
:1022A000B1FAA06301490AF0B2FAF8BD0000A045F6
:1022B000F0B5C64600B582B007000C00886BFC2163
:1022C00089050AF0BAFA6C490AF097FA051C011C54
:1022D0000AF0B3FA061C2E23E0560AF0EFFADC21CE
:1022E00089050AF0AAFA011C301C0AF0A6FA061C9D
:1022F0002C23E05E0AF0E2FA291C0AF09EFA011C87
:102300000AF080FA311C0AF07DFAFA2189050AF0F8
:1023100094FA061C2A23E05E0AF0D0FA8F21C90540
:102320000AF08BFA011C301C0AF06CFA0190282389
:10233000E0560AF0C3FA291C0AF07FFA291C0AF0B9
:102340007CFAE22189050AF078FA061C2623E05E71
:102350000AF0B4FA291C0AF070FA011C301C0AF0C9
:1023600051FAD82189050AF068FAE02189050AF0B6
:1023700064FAFE2189050AF045FA051CA08C0AF0D2
:1023800098FA011C281C0AF058FA051C38000AF0BB
:1023900090FA011C9320C0050AF02FFA071C281C94
:1023A0000AF0AEFA002864D0E621890501980AF007
:1023B00044FA011C381C0AF020FA30490AF03DFAB0
:1023C000291C0AF024FA051C3223E05E0AF076FA92
:1023D000291C0AF032FA291C0AF02FFAC0218905BB
:1023E0000AF02BFA071C3023E05E0AF067FAE021BE
:1023F00089050AF022FA291C0AF01FFA8046EE210C
:102400008905281C0AF019FA061C011C0AF015FAA5
:10241000011C301C0AF011FA061C3423E05C0AF09F
:102420004DFADC2189050AF008FA011C301C0AF07B
:1024300004FA061C4146381C0AF0E4F9311C0AF083
:10244000E1F9061C2F23E0560AF038FA8621C90567
:102450000AF0F3F9011C301C0AF0D4F9F6218905C1
:102460000AF0EBF9291C0AF0CDF902B080BCB8469D
:10247000F0BD0020F9E7C04600007A470050C34590
:10248000F0B5C64600B506000C00886B44490AF05A
:10249000BEF9051C30000AF00CFA061C208A0AF06E
:1024A00008FA8321C9050AF0C8F9071C1420205630
:1024B0000AF004FAFC2189050AF0BFF9291C0AF088
:1024C000BCF9011C381C0AF09DF9011C301C0AF0F3
:1024D00094F9061C608A0AF0ECF9DA2189050AF001
:1024E000ACF9071C152020560AF0E8F9E22189050D
:1024F0000AF0A3F9291C0AF0A0F9FE2189050AF0C7
:1025000081F98046162020560AF0D8F9D62189058F
:102510000AF093F9291C0AF090F9291C0AF08DF9A8
:10252000011C40460AF06EF9011C381C0AF085F9BE
:10253000311C0AF082F9061CE07D0AF0BAF9E221AA
:1025400089050AF07AF9071C182020560AF0B6F916
:10255000D42189050AF071F9011C281C0AF06DF9D3
:10256000391C0AF04FF9311C0AF067F9311C0AF0E6
:1025700064F9311C0AF046F9041C0A490AF094F97E
:10258000002807D10021201C0AF088F9002802D079
:10259000002400E0034C201C80BCB846F0BDC046BF
:1025A0000000A0450000C842F0B5CE46474680B5C1
:1025B000A1B00C0017000AF07CF980460120A04071
:1025C0000AF077F9814610AE264D402229003000EE
:1025D0000AF0DAFA29004031402268460AF0D4FABB
:1025E0003E23F8560AF06AF91F490AF026F91F49F6
:1025F0000AF008F9051CA400A0591D490AF007F9C2
:10260000FE2189050AF0FEF8291C0AF016F9051CBE
:102610006B46E05816490AF0FAF8FE2189050AF0DF
:10262000F1F814490AF009F949460AF006F9041CC0
:102630008821C90540460AF0E0F8291C0AF0E7F8AD
:10264000FE2189050AF0DEF8011C201C0AF0F5F8CD
:10265000011CFE2080050AF0DAF821B0C0BCB946A2
:10266000B046F0BD804D01100000A0400080A7449E
:102670000000C842BD37063470B503008020C00298
:10268000C8400B4A944663445C00E41880235B0115
:102690009C4664440AF00DF906490AF0CEF8051C80
:1026A00020000AF00BF9011C281C0AF0B0F870BDDC
:1026B00000FEFFFF00247449F0B5C64600B50500D2
:1026C0000C00C8235B00984200D91D001920205639
:1026D0000AF0F4F8F62189050AF0AFF832490AF059
:1026E00091F8071C1A23E05E0AF0E8F8E02189055A
:1026F0000AF0A3F82D490AF0A0F82D490AF082F853
:1027000080461C2020560AF0D9F8EA2189050AF0F3
:1027100094F8061C28000AF0CCF841460AF08DF81F
:10272000FE2189050AF06EF8391C0AF086F8051CAE
:102730000E2020560AF0C2F8311C0AF07EF8291C3F
:102740000AF060F8051C3C23E05C0AF0B2F8812135
:10275000C9050AF057F8011C8120C0050AF057F896
:10276000291C0AF06AF8051C3D23E0560AF0A6F879
:1027700010490AF062F8FE2189050AF043F8011CAD
:10278000FE2080050AF043F8011C281C0AF055F8C9
:1027900009490AF032F809490AF04FF80AF0E2F85C
:1027A000C0B280BCB846F0BD000044426F12033A8C
:1027B00075021A3B6F12033B0000C8419A995940B9
:1027C000FC231B0198420CD2002302E08008013355
:1027D000DBB23F28FAD8C0B29B01DBB2C018C0B24E
:1027E0007047FF20FCE700280AD0036C002B0AD0BA
:1027F000436C002B0AD0836C002B0AD0002070475A
:1028000001204042FBE701204042F8E7012040421E
:10281000F5E701204042F2E770B582B006000C00F7
:102820000800FFF7E0FF051E25D176B2002E25DB5C
:102830001023627B9A421ED06373266C6368012268
:1028400069460731F320B0474C23E054002817D1E4
:102850006B46D91D0B78102293430B70607B0240AE
:1028600013430B70666C636801227320B0474C23DE
:10287000E054002807D1280002B070BD0023D8E73B
:1028800002256D42F7E702256D42F4E770B582B08C
:102890000400FFF7A8FF051E0FD1266C6368012214
:1028A00069460731F320B0474C23E054002807D194
:1028B0006B46DA79102313406373280002B070BDB1
:1028C00002256D42F9E770B504000E0015001000F6
:1028D000FFF789FF002C0BD000280CD12378B342DE
:1028E00005D926704D22AB5C01210B43AB5470BD62
:1028F00001204042FBE701204042F8E710B50E4BB3
:10290000984216D843011B1A9B001818C000DE21FC
:10291000FF3109F0DDF880B2002302E080080133C6
:10292000DBB23F28FAD8C0B29B01DBB2C018C0B2FC
:1029300010BDFF20FCE7C046820700008000101891
:10294000036889005218116801601360704770B500
:1029500083009C58A6788B009B589D78247864B29D
:10296000002C04DB1B785BB2002B0FDB70BD002456
:102970001C57002CF6DAAD1BABB202339BB2012B15
:1029800001D9022DF2DDFFF7D9FFEFE7FFF7D6FF00
:10299000ECE7F0B5DE4657464E464546E0B587B013
:1029A00081468B4690461E001422002101A80AF0A1
:1029B000E5F83000FFF717FF8246002849D14B4663
:1029C000002B4AD05B46002B4BD04346013B092BE2
:1029D00001D8002410E004235B429A4631E06300F2
:1029E0004A46515D01AAD154630001335A46515DF4
:1029F00001AAD1540134A4B22500444510D2337B3E
:102A0000002BECD14B465F19585D3100FFF704FFF6
:102A10008246630039787F220A4001A9CA54E3E75D
:102A20005346002B0DD1746C43465A007368013A2B
:102A300001A9087869460531A0474C23F0540028C5
:102A400013D1504607B0F0BCBB46B246A946A046DB
:102A5000F0BD01235B429A46F3E701235B429A46AD
:102A6000EFE701235B429A46EBE702235B429A467B
:102A7000E7E7F0B5D646474680B58FB005000F00B2
:102A80001400019298462E2302AA944663446E22B3
:102A90001A70643A00210BA80AF070F80A2200218B
:102AA00008A80AF06BF80A22002105A80AF066F8C7
:102AB0000A22002102A80AF061F8022F4BD0032F4E
:102AC00024D0012F00D08FE00BAB5A221A706888F7
:102AD0004146FFF7F1FD08AB187005AB64221A7090
:102AE000A888FFF76DFE02AB1870002323704346E1
:102AF0003A0008A90BA8FFF74CFF061E00D16BE0B7
:102B000030000FB0C0BCBA46B046F0BDEE68002E33
:102B10006CD0AB68002B6CD0002416E022005A3237
:102B20000BAB1A55AB686700D85B4146FFF7C4FD95
:102B300008AB18552200643205AB1A55F05BFFF75D
:102B40003FFE02AB18550134E4B22F7CA742E5D812
:102B5000019B1F70CBE7EB689A46002B4CD0AB680B
:102B6000002B4CD06B8A002B02D00026002417E0EB
:102B70000326FBE722005A320BAB1A55AB686700FD
:102B8000D85B4146FFF798FD08AB18552200643228
:102B900005AB1A555346DB5D02AA13550134E4B266
:102BA0002B7CA342E6D8019A13702F7C688AFFF72A
:102BB000A5FE2F2302AA944663441870002E9FD1CD
:102BC000434601222F2161442E206044FFF7E1FE9D
:102BD000061E00D094E78AE743463A0002A905A8FA
:102BE000FFF7D7FE06008BE7012689E7012676422C
:102BF00086E70126764283E70126764280E70126B2
:102C000076427DE7F8B5CE46474680B507000E0010
:102C100090461C001800FFF7E6FD051E1FD1002E90
:102C200020D0237B002B0FD0236C9946636842464B
:102C300031003800C8474C23E054002815D1280043
:102C4000C0BCB946B046F8BD21003800FFF7E4FD2E
:102C5000051EE9D180235B421F43FFB2E4E7012553
:102C60006D42ECE701256D42E9E702256D42E6E79A
:102C700010B582B004006B46D91D00230B70030011
:102C80000122F020FFF7BEFF002803D16B46073377
:102C90001B78A36002B010BD70B58CB004000300B7
:102CA000172201A98A20FFF7ADFF002800D176E0A6
:102CB000002872D101AB2022995CDA7F09020A4315
:102CC000E28359781A7809020A43228402229A562A
:102CD0002226A25559791A7909020A43A284D97980
:102CE0009A7909020A43E284082159562822A154FC
:102CF000D97A9A7A09020A436285597B1A7B0902BA
:102D00000A43A2850F2159562E22A1540E2159564D
:102D10000132A154D97C9A7C09020A432286597D4A
:102D20001A7D09020A436286997D3422A1545D7E90
:102D30001A7E0F2111402D0129432182D97D0901DD
:102D400012090A4362821A229A5622751B229A5647
:102D500062751C229A56A2755A7FE2751E229A56F7
:102D6000227623229A566276995D21229A5C090284
:102D70000A43628324229A5622772722995C0932D9
:102D80000A4012113C216254252299561832A1544E
:102D9000143A9B561B111532A3540CB070BD23007E
:102DA0000E221B216944E130FFF72CFF0028F4D1EB
:102DB0002300052229216944FFF724FF78E700005A
:102DC000F0B5DE4657464E464546E0B58BB08246E6
:102DD0000C0091461122002105A809F0CFFE05261E
:102DE000002510E01F32134062461A431300227080
:102DF00005AA117C10220A40134323705BE0002DCA
:102E000066D0013EF6B2002E00D1A2E0002D00D027
:102E10009FE05346180150441D30C0B24B4611226A
:102E200005A9FFF7EFFE0500002C00D18FE005ABF0
:102E300018787F22010091438C4621700F221040A8
:102E400060705978A17099780903DF783F013943A0
:102E50001F793F0939430091597909039F793F014F
:102E60003943DF793F0939430191197A09025F7AC1
:102E700039438B465F7BBF00997B8A093A430292B4
:102E8000DF7BBF001B7C9A0917430F220A40039285
:102E90000F221A4090464A469268012AA2D0202367
:102EA0000B4062461A431300227005AA917B102240
:102EB0000A40134323700023E356002B9FDB002DB1
:102EC0009FD14B469B6C4A4651682648984798E7E5
:102ED000E11C5A304B460122FFF794FE051E1BD021
:102EE000002D8ED149460198FFF798F9A060494618
:102EF0000098FFF7DDF9E06049465846FFF7C0FA51
:102F000020614B469B68012B1BD04A4603990298CF
:102F1000FFF74AFB60611CE06078211D5030C0B2B1
:102F20004B460122FFF76EFE051E00D069E7607870
:102F3000611D6430C0B24B460122FFF763FE0500FD
:102F4000CEE741463800FFF797FB606101E00125BD
:102F50006D4228000BB0F0BCBB46B246A946A04665
:102F6000F0BDC04610270000F0B5DE4657464E467D
:102F70004546E0B59FB00400069089463322002103
:102F800011A809F0FBFD1E22002109A809F0F6FD99
:102F90002368002B0BD04B46332211A91D20FFF7CD
:102FA00031FE019000280DD000231D0057E063681A
:102FB000002BF0D1069B9B68002BECD101235B42D8
:102FC0000193F1E74B461E2209A95020FFF71AFE94
:102FD0000190E9E721688A460978202002401143E0
:102FE0005246117021680A7811A8C35C9C461023D0
:102FF0006046034013430B702368597809AA515C5B
:10300000197121684B780A33D35CCB7021684B78F7
:103010001433D35C4B7123689A4649460398FFF7F3
:10302000FDF85346986023689A4649460298FFF790
:103030003FF95346D860266849463800FFF720FA22
:1030400030614B469B68012B00D185E024684A46DD
:1030500005990498FFF7A8FA60610135EDB2022DD9
:1030600000D980E0019B002B7DD12B01EB18DBB256
:1030700011AAD15CAC0006988446644420687F267F
:10308000B1430170D05C26680F21084070705E1C4F
:103090002068965D8670981C165C3603D81C105C00
:1030A00000010643181D105C000906430296581DD6
:1030B000105C00039F1DD75D3F013843DF1DD75DC6
:1030C0003F09384303901F000837D75D3F020920AE
:1030D00084469C446046105C07430D2084469C4413
:1030E0006046105C800084460E2083469B44584610
:1030F000105C824680098046604646463043049014
:103100000F2084469C446046105C80008446103347
:10311000D25C900980466046464630438046504621
:10312000084005901140079149468968012900D15E
:1031300050E721680B7820225046024013430B7061
:103140002268137811A95846095C8C461021604604
:1031500001400B4313704FE7246807994046FFF77F
:103160008BFA606179E701981FB0F0BCBB46B246AC
:10317000A946A046F0BD000030B583B005006B46FF
:10318000E022DA716B462A3A9A71FFF72CFB041E93
:1031900004D12B7B002B04D0002C07D0200003B0DF
:1031A00030BD2800FFF772FB0400F5E72B00012279
:1031B0006946063168460730FFF7EBFB041EEDD188
:1031C000AB6C6968044898472B7B002BE6D128003C
:1031D000FFF75CFB0400E1E71027000010B50400D6
:1031E000FFF7CAFF230001222100D020FFF70AFDCC
:1031F000002807D12378612B09D12000FFF738FD83
:10320000002800D010BD2000FFF746FDFAE703209C
:103210004042F7E710B582B004000B000522694672
:103220007120FFF7EFFC002C20D0002819D16B464D
:103230005A7807231A4022706A46127992101A406F
:10324000E2706A46D2785109617092101340A370FF
:103250006B461B785BB2002B05DB6B461B795B0969
:10326000237102B010BD08232371FAE70120404208
:10327000F7E70000F0B583B007000D006B4674223D
:103280009A71002603E0002E22D0002C20D12B00C2
:103290000122694607317420FFF7B4FC041EF2D105
:1032A0006B46DA7903231E001640134210D06B469A
:1032B000D91D03239A430A702B0001226846063069
:1032C000FFF767FB0400AB6C69680E489847DAE7C4
:1032D000002F01D0002C02D0200003B0F0BD6B46BF
:1032E000DB79032293433A4013436A46D3712B00A0
:1032F00001226946073168460630FFF74AFB0400A1
:10330000EAE7C0461027000030B583B004000B0088
:1033100000280CD06A46D51D012229007420FFF731
:1033200071FC2A7803231340237003B030BD0120C1
:103330004042FAE7F0B585B005000C004D4B1A6825
:1033400002921A7902AB1A7105220021684609F02F
:1033500015FC21000F206844FFF7D6FF00280ED08F
:10336000002D00D17EE000280DD00F236B441B7888
:10337000002B02D0002800D177E005B0F0BD21007D
:10338000FFF778FFECE702AB1878230005226946C7
:10339000FFF738FC4D230022E254002851D00028CA
:1033A000E3D1A81C22000521FFF78DFA0028DCD10B
:1033B000220005212800FFF786FA0028D5D1281D14
:1033C00022000821FFF77FFA0028CED16B461A7938
:1033D000EB789B001C261C210B40B2431A436B4622
:1033E0001A71DF7868781F233B4040010343DBB24A
:1033F0006846C370A87880000140B3430B43694618
:10340000CB704B78287807218B4301400B436946EA
:103410004B702979082922D000201F23134049012D
:103420000B436A46137112787F231340C001034394
:103430006A46137023000522694602A8FFF7A9FA1D
:1034400093E7E81C22000721FFF73DFA002800D08F
:103450008BE7681C22000521FFF735FA9FE7012062
:103460000021DAE7012040427FE721001800FFF742
:1034700001FF82E7784D011070B582B006000C00A4
:1034800015001C4B1A6800929B886A46938000299D
:103490002AD0481C2A000521FFF715FA002814D06D
:1034A000002824D163786A46D25CA3786946CB5C55
:1034B0009B1822788A5CD2180F4B53430F4A9818F6
:1034C000022E12D00E4A98180FE0A01C2A000521E7
:1034D000FFF7F9F9002801D0002006E02A000521B5
:1034E0002000FFF7F0F9DBE7002002B070BD0020FC
:1034F000FBE7C046004E0110AB070000C5100000FE
:10350000AD140000F0B5D6464F464646C0B596B05D
:1035100004008A46160098460C22002113A809F0E0
:103520002DFB01AD48220021280009F027FB13954F
:1035300007AB14930DAB15934046FFF754F90028E1
:1035400000D079E05346002B00D179E0012C11D056
:10355000023CE4B2012C1DD9002401239846002E20
:1035600000D171E03470404616B0E0BCBA46B146B6
:10357000A846F0BD42465146FFF722FC804600288F
:1035800058D153461B785BB2002BE8DB00240223A2
:103590009846E4E7414613A8FFF7E6FC804600247E
:1035A000002301E00133DBB2022B25D84246002A7A
:1035B00009D19A0013A95258127852B2002AF1DAAE
:1035C0000134E4B2EEE700250CE013AA49462800D6
:1035D000FFF7BDF94B460133DBB299464B46022B50
:1035E000F3D93D00012D0BD84346002B06D16B1CAF
:1035F000DBB21F009946F1E70025F3E7002100E068
:103600000021022911D84346002B0ED18A0013ABAA
:10361000D3584D006D18ED0055442A00A1CBA1C22E
:10362000A1CBA1C20131C9B2EBE7002C97D1022393
:10363000984694E7002492E701235B42984692E77C
:1036400001235B4298468EE701235B4298468AE756
:1036500070B582B005000E0014006B460022DA71CE
:10366000234B6A46138000293FD021000020FFF73A
:1036700001FE002801D002B070BD23006A46073267
:1036800029003000FFF7F5F90028F4D123000222C9
:1036900001A97030FFF7B6FA0028ECD13278012A80
:1036A0001CD00022012001A90B78C0000825AB43E3
:1036B00003430B704B786846C5790F20834328403D
:1036C00003434B70120130200240834313434B707D
:1036D000230002226846FFF75CF9CCE7A368012BC0
:1036E00001D00020DFE70132DDE701204042C2E7E0
:1036F0007071000030B503680A68934204D04968CD
:103700008B4207D0002030BD45684C68A542F6D1F9
:103710000120F8E743689A4201D00020F3E7012036
:10372000F1E730B5002306E09D00441922684D59A9
:103730006A4022600133022BF6DD30BD03681B0DA9
:10374000E022D20013420FD043680A6893420DD0A2
:103750008068496888420BD08B420BD0824201D0EE
:10376000002002E0012000E0002070470120FCE77B
:103770000120FAE70120F8E782B0019001AB1B6855
:10378000002B03D08B42FAD1012000E0002002B0D0
:103790007047283000E018000368002B03D08B42EC
:1037A000F9D11B6803607047836A0B6081627047C0
:1037B000004870470100020010B5FFF7F9FF000C48
:1037C00010BD10B5FFF7F4FF80B210BDC36E0366E5
:1037D000704710B500238365C365FFF7F7FF10BD81
:1037E00010B50400406D081AE16E401808F070F939
:1037F000A36D8B4208D9646EC808235C0722114070
:10380000063A8A4013432354002010BD30B5CB0044
:103810001BD5194C03681A004A40144217D09A0568
:103820009215013213D0144C0C40144D1D40144A13
:103830002A4394420BD00C0DE022D2002240802576
:10384000ED00AA4207D0002004E00E4CE2E700237E
:103850000360012030BD890A8905890D9A0A920505
:10386000920D8A4205D364B2A4021B1903600020A2
:10387000F0E70020EEE7C04600FCFF7F00FC0F00F1
:103880000000F04F00FC0F708B059B1501335A426E
:1038900053415B189B059B0D04330268D3180360EA
:1038A0000020704710B5836EDB6A002B0ADD886844
:1038B0000130591C0123194308F00AF9002903D0EB
:1038C000002000E0002010BD0120FCE710B5FFF74C
:1038D00060FF002010BD0B6B9B0301D4C86A7047CA
:1038E000CB6A486B9842FAD21800F8E7036B034A98
:1038F000134049020B4303637047C046FFFDFFFFBF
:1039000030B5036B0D4C23400D4CA1420FD08D02FE
:103910000C4C2C4323430363094B994209D0136891
:103920004363074B994206D05368836330BD00243C
:10393000F0E70023F4E70023F7E7C046FF03008029
:10394000FF0300000000F04F036801330360002014
:103950007047000010B5C36E8B4205D9806EC368F6
:103960009847002807DC10BD064B074A8A21074804
:10397000490006F093FE064B034A8B210348490099
:1039800006F08CFEF44E01105C5B0110084E011035
:10399000384E011010B5026B93059C0D002B01D120
:1039A000002911DBFF235B009C4201D9002911DCB7
:1039B000891801634B005B0889054A1E9141C907BC
:1039C0000B430363002010BD054B064A0648074918
:1039D00006F064FE064B034A0348064906F05EFE05
:1039E000444E01102C5B0110084E0110D112000052
:1039F0007C4E0110D212000010B50C00CB68826E14
:103A0000126BFF21180009F0B9F801235B42236013
:103A100010BDF8B50F000E68836E5C6A083C21008B
:103A2000300008F055F8A64212D3013807F0F6FF2F
:103A300002308000301A210008F04AF805004443A3
:103A4000341B07F0EBFF8000241A3C602800F8BD0F
:103A50000020FCE7F0B5DE4657464E464546E0B549
:103A600087B080468B4617000393109B9946119EA2
:103A7000139BF218836E5B6A9A4200D9E9E0C36E29
:103A8000002B00D1E1E04B4500D8E5E04D4694E045
:103A90005B465C689B68E218B24224D9B44207D9FD
:103AA000A21B0492139B9A4200D892E0049390E0E8
:103AB000A21B99469144139B994500D999465B46B0
:103AC000D968341B09194A46129809F05DF8129B0F
:103AD0004B4412934E44139B4A469B1A13936CE03B
:103AE000139B049375E0139B049372E07B68BA68A0
:103AF0009918B14270D9B34205D99B1B049A9A42D6
:103B00006AD9049368E0991B91468944049A9145C7
:103B100000D99146F968F31AC9184A46129809F073
:103B200033F8129B4B4412934E44139B4A469B1A04
:103B3000139342E0129A524412925644059B049CFD
:103B40001C1B139B9C46A4446346139335E04346D9
:103B5000DB6E002B01D0AB426BD93D6043469B6EC0
:103B6000D969300007F0B4FF0491731A9A467B605C
:103B7000039BF41843469B6E9946D9696418013C2F
:103B8000200007F0A5FF641A4B465B6AA34200D9E8
:103B90002300049A921B4946096BD2188A4200D925
:103BA0000A00BA604346986E4468FB680092524629
:103BB0002900A047002842DC34D1139B002B46D0BB
:103BC0005B46002B8CD01B68AB4200D160E7139B97
:103BD00004933B68AB4289D0139B039A9342B6D3BC
:103BE00043469B6E9946DB699A461900300007F000
:103BF0006FFF0029ABD1139B9A45A8D85146049C6E
:103C0000200007F065FF0591621A92464A46526805
:103C1000140052460092129B320029004846A047E9
:103C2000002887D007B0F0BCBB46B246A946A046E4
:103C3000F0BD0B4B0B4A0C486B2106F02FFD0B4BD4
:103C4000084A0948762106F029FD4D46B5E70020CF
:103C5000E8E754204042E5E754204042E2E7C0460E
:103C6000B44E0110845B0110084E0110384E011053
:103C7000F0B5DE4657464E464546E0B589B080462B
:103C80008A4691469B46CE680B6907933C30FFF706
:103C900055FD002800D182E04B469B0A9B0500D1D0
:103CA0007FE04346DB6B9B0A9B059B0D5A46920ABD
:103CB0009205920D934276D9002706E005975B4660
:103CC000DB1B63404A461A4245D0079CA505AD154B
:103CD0006B1C5A4253411B199B059B0D1A0008325D
:103CE000B24262D80433F61A53461B680422039288
:103CF00007AA0292019600930423424600214046FF
:103D0000FFF7A8FE002852D1079B1BBA63405B0057
:103D10005B0807934B469B0A9B05CFD0220DE023FF
:103D2000DB0013408021C9008B42C7D1A10A89055D
:103D3000890D05975B46DB1B980A8005800D88423C
:103D4000BCD32149194021480143A14236D052B287
:103D50009202BF18B2E7013533D0A3059B0D149D25
:103D60009D4200D91D0053461A68129BF318039513
:103D7000139902910433019300922B0042460021D3
:103D80004046FFF767FE002811D1149B5A1B139B76
:103D90005819002108F0F2FE059B181907E00027CA
:103DA00093E7002791E70A4F8FE70220404209B0CE
:103DB000F0BCBB46B246A946A046F0BD0220404238
:103DC000F5E702204042F2E700FC0F00000010403F
:103DD00000FCFFFF10B584B09C05A40D0294069C66
:103DE000019400240094FFF743FF04B010BD0000CD
:103DF00010B586B0140003AB0093084B084AFFF7D8
:103E0000E9FF002803DA831C06D1002004E003A99F
:103E10002000FFF786FC002006B010BD0C00F07FEC
:103E20000000F07FF0B5DE4657464E464546E0B509
:103E300089B081468A4693461C00139E149F129BAC
:103E4000002B07D1002009B0F0BCBB46B246A94602
:103E5000A046F0BD013B079307A9FFF7DAFD050077
:103E600021003800B0470028EDD1002DEBD0012310
:103E70002B409846022342469B1A9B00039305AAB7
:103E800002920022019200945A4651464846FFF79A
:103E9000E1FD041ED7D10123AB43A34208DDA300FB
:103EA00005AA99583800B0470028CCD10134F2E770
:103EB0009B0005AA9C584346023BED18D0E770B51D
:103EC00086B00400006801001031836E5B6A1568DB
:103ED00052680826039604AE0296019200950200ED
:103EE000FFF7B8FD00280ED1049B62689A4208D003
:103EF000059DA1688D4204D08B4202D0AA4200D019
:103F00000130431E984106B070BD0000F0B5DE469A
:103F100057464E464546E0B5ADB008900E000592B6
:103F20001C00369B9B463AAB1B8899463BAB1B88D3
:103F300006933CAB00229B5E9A46082200210BA808
:103F400008F01CFE00255F46A3059B1501335A426D
:103F500053411B199B059B0D0433059A90469844C9
:103F6000F36898455BD3379B002B00DCF9E03B6896
:103F70000D937B689B460837379B013B37930D9821
:103F8000A64B389A1340399A4240190011400791C4
:103F90001342D9D1389B9B0A9B0500D108E1022D21
:103FA0005FD80EAB98462A01531B9B0041465E50DA
:103FB0000992531B9B004344059A5A609C60DF6042
:103FC000379A1A61389A5A61399A9A614A469A839D
:103FD000069ADA8352461A843D9A5A623E9A9A6247
:103FE000D8625A461A630BAA343303CA03C3099A28
:103FF000521B920028324244131D3E930135079B09
:1040000039933893864B3D9300239A4606939946FD
:104010009AE7079D54465F46B246464694E73368A2
:10402000042203920DAA02924246019200930423B5
:10403000089A00211000FFF70DFD002800D0E5E0F0
:104040000D9B1BBA6340802424061C430D943368E7
:104050000B93434604330C93434605930BAB9B46AB
:104060008DE7704B704A7148714906F017FB6C4B35
:104070003D9A9A4200D167E72B0109935B1B9B0095
:104080000EAA904698443C220021404608F076FD56
:10409000099B5B1B9B0006AA20215218D650434661
:1040A000059A5A609C60DF60379A1A61389A5A61A3
:1040B000399A9A614A469A83069ADA8352461A8452
:1040C0003D9A5A623E9A9A620135079A93059B0D72
:1040D0009946930A9B059B0D4A46013206924A4631
:1040E0009B1A9BB253441BB29A465E4680239B05A3
:1040F0003993504B389300233793002701246442AF
:10410000059321E7002307951D00B0465646A246B9
:104110005C46BB463D9F0D9B9A05920D95421AD277
:104120006900491989006218615CC02080008446DA
:10413000614409059B0A9B059B0DF3189B021943DB
:104140009368526819433E98B84700285EDB00D058
:104150005FE70135DFE7079D54465F46B2464646B6
:10416000F2E60020002D51D0013D0EAB2A01511B7B
:104170008900CE585B185A6805929C68DF681A69F6
:1041800037925A6938929A6939929A8B9146DA8BAA
:10419000069220215A5E92465A6A3D929A6A3E924F
:1041A000DA6A0D921A6B93460BAA343303CB03C21F
:1041B000389B9B0A9B050AD00D9B9B0A9B059B0D78
:1041C000994500D9C0E6069A9A4200D8BCE60D9BF4
:1041D00007931B0D5B055A0D002B00D1B4E602239B
:1041E000FF339A4200D142E781235B009A4289D093
:1041F00053469902079B9C4661445A463E983D9B14
:104200009847002802DB00D19EE6ABE72DB0F0BC5A
:10421000BB46B246A946A046F0BDC0460000F07FAE
:104220000D380010E44E0110FC5A0110084E011028
:10423000B303000000FC0F60F0B5DE4657464E4663
:104240004546E0B585B080468B4692461D00119FDD
:10425000139BFA18836E5B6A9A4255D954204042E8
:104260007DE053465A689B68D118B94221D9BA42B9
:1042700005D9D21B139B9A4250D91A004EE0D41B89
:104280001C19139B9C4200D91C005346D968BA1ACA
:1042900089182200129808F077FC129B9C46A444CF
:1042A000634612933F19139B1B1B13932CE0139A25
:1042B00034E0139A32E002235B422B6043469B6E4C
:1042C000D969380007F004FC7E1A6E600E9BFC185A
:1042D00043469B6E9946D9696418013C200007F05B
:1042E000F7FB641A4B461B6BA34200D92300AB605B
:1042F000EA68029301920096109B0F9A5946404635
:10430000FFF7B6FC00282ADB139B002B26D0534670
:10431000002BCCD01B680233A3D0139A2B68023336
:10432000C9D16B68AC681919B942C4D9BB42C2D8AB
:10433000D91B6418944200D91400E968FB1AC91803
:104340002200129808F020FC129B9C46A44463466D
:1043500012933F19139B1B1B1393D5E7002005B045
:10436000F0BCBB46B246A946A046F0BDF0B5DE465D
:1043700057464E464546E0B587B0894690461F00F1
:10438000109B9B46139E00243B0007009A4619E0B1
:1043900053461B1B039504AA0292119AA21801927C
:1043A0005A460092424649463800FFF753FB002820
:1043B00016D1129B19192A0004A80FF0A3F900289E
:1043C00007D16419B4420AD2351B082DE0D908255B
:1043D000DEE7002801DB022002E0012000E00020EF
:1043E00007B0F0BCBB46B246A946A046F0BD0000EF
:1043F000F0B5D646474680B587B007000C00059259
:1044000004930E68F31C40D8C36E9E4231D28D686F
:10441000836E9A46196A6D18013D280007F058FB13
:104420006D1A53469B689846E368626800953100B0
:104430005046C047061E22DC002827D1049B002BD3
:1044400012D001235B42059A1360E368039502933F
:1044500063680193236800932B0000213800FFF765
:1044600085FF002818DB19D121003800FFF7C4FAB6
:104470000CE00C4B0C4A0D48B32106F00FF90C4B25
:10448000094A0A48B72106F009F90026300007B0AA
:10449000C0BCBA46B046F0BD0600F7E754267642E7
:1044A000F4E7C046EC4E0110405B0110084E0110CD
:1044B000384E0110F0B5DE46474680B583B00700A0
:1044C0000C00009201930A9B98460B9D0D9E0233AF
:1044D00002D0C36E43450AD9AB19BA6E526A9342F1
:1044E00018D92D4B2D4A2E48E92106F0D7F82D4B2F
:1044F0002A4A2B48E82106F0D1F801333ED1434641
:104500002360BB6E196A280007F0E2FA691A61603D
:104510000023A360002E38D023684345EDD16268A4
:10452000AA42EAD8B96E096B5018A842E5D9531BC4
:104530008B469B44B34500D9B346E068AA1A80185D
:104540005A460C9908F020FB0C9B5B440C935D448D
:104550005B46F61A6268AA1AA368934200D2130057
:10456000A360BA6E126B9A42D4D1019B009A2100CB
:104570003800FFF73DFF002808D1CBE70A4B074A78
:1045800083210748490006F089F8002003B0C0BC29
:10459000BB46B046F0BDC046484F0110505B01100D
:1045A000084E0110104F01106C4F011010B504009F
:1045B0000120404210602000FFF71AFF002804D1BC
:1045C000A06E03699847002800DC10BD024B034A27
:1045D0000348DD2106F062F8384E0110F05A011050
:1045E000084E011070B584B00600150000688905FA
:1045F0008C0DB368A34200D923002A68696803932D
:10460000756802950191009202000021FFF7AEFE4D
:10461000002804D1B368A34201D002D2013004B013
:1046200070BD0220FBE7F0B5CE46474680B589B0A5
:104630000700884691460593109B002B0BD1013B48
:10464000129A13600023139A1360002009B0C0BCB3
:10465000B946B046F0BD109B013B079307A9FFF791
:10466000D8F9050011A93800FFF7D3F9060012E0C8
:104670000423039305AB0293A3000193059B0093CE
:1046800004234A4641463800FFF7E4F90028DDD10B
:104690000123A340ED1AB5420BD9A81B07F0B2F9CC
:1046A0001F24241A280007F0B3F98442E0D904003B
:1046B000DEE7059B129A1360119B139A136000208A
:1046C000C4E70000F0B5CE46474680B589B08046C5
:1046D0000C0017004A6BC96A8A426DD28A1A914649
:1046E0009A4200D999464E4637E0DB0241D5022373
:1046F0005B42A363636BE363226B8023DB021343A0
:10470000236343469B6E5B6AE06B1D1AB54200D97A
:104710003500226BD2023FD521000831A2889202D7
:10472000944622004032079205950497039025484D
:10473000624610430290244801900093079B002298
:104740004046FFF779FD002837D1636B5B1963633F
:10475000E36B5B19E3637F19761B002E2AD0236B72
:104760005A03C2D5E16B4246926E526A9142C8D159
:10477000BBE7A36A2200403221003C310391043997
:104780000291616B0191E16A009100214046FFF7BF
:104790004AFF0028B0D010E0220040320395029773
:1047A0000190A16B009100214046FFF753F90028CA
:1047B000CBD002E0484600E0002009B0C0BCB946BA
:1047C000B046F0BD0000102000FCF7FFF0B5DE465B
:1047D00057464E464546E0B587B083468A469146E1
:1047E0009846129E139F002417E043461B1B039517
:1047F00004AA0292119AA2180192109A00924A46B3
:1048000051465846FFF726F900280ED138682A008D
:1048100004A903F053FC38606419B44204D2351B78
:10482000082DE2D90825E0E7002007B0F0BCBB4620
:10483000B246A946A046F0BDF0B5DE4657464E4604
:104840004546E0B597B005000E0092460693C36E4C
:10485000002B08D01268934200D879E25246526881
:10486000934200D878E200231293139300279846CE
:10487000A9460DE0791CC80F091801230B401B1A2B
:104880009B0012A95B58D21A002A00DDB8460137F6
:10489000012F18DCBC0012AD2B19042203920293E5
:1048A0000023019353461B59009304234A460021D9
:1048B0004846FFF7CFF862590028DBD00300543395
:1048C000E5D083463CE24D464346D90F5B180122B2
:1048D0001340591A89005346CB583360434601337D
:1048E000D80F1B181A40131A99469B0052469B5822
:1048F000736012ABCB58B3600023F3609A46013B60
:104900009B46B0465346012B00DD0BE20EAAA14B9D
:1049100011CB11C24146083101277F4204223800E1
:1049200003F0CCFB0B905B4607930023089309939D
:104930000593002644463DE1A0460300543301D1CF
:10494000002322E08346FBE1A0463B0DF022D2008B
:104950001340914A944663445A425341DBB214E0F7
:10496000042203920DAA0292321D01922268009243
:104970002A0000212800FFF76DF800284DD10D9A7C
:104980000B9B9A424FD0A04600234246D468002C8D
:1049900000D18AE146460022B275002B0AD0AF6EE4
:1049A000396A200007F094F8002903D1089B002BF6
:1049B00000D088E128003C303100FEF7BFFE00281F
:1049C0000FD0EB6B9B0A9BB259468A0A92B2100039
:1049D0005840800500D093E180231B065A461A43B5
:1049E0009346219B002B09D05B469B0A9B05B28A0C
:1049F0009B0D934200D91300219A13805B46002B34
:104A000000DB9DE19B0A9B059B0DB28A9A4200D870
:104A100085E102235B429B4692E1A04603005433AA
:104A2000B2D083468CE10C9F3F0DFF0743467B408D
:104A30001F00E86A04220BA903F040FBE8620C9A0D
:104A400093059B15013359424B419B189B059B0DC8
:104A500004339B19E3602761059BA3820E9BA3612E
:104A60000F9BE361099BE37501235B420B93079B5B
:104A70009B469FE0A0460300543301D1002384E706
:104A800083465DE18021C90088421FD0C023DB003E
:104A9000984242D05205520D404B9A4200D0E9E074
:104AA000AB6E5B6A0822039210AA029201972268F9
:104AB00000922A0000212800FEF7CCFF002848D0F1
:104AC000543000D1EEE001230893D3E052B291B20A
:104AD00005988446614489B2059131480799084098
:104AE000304901438B4212D00798411C00D1C1E0EC
:104AF0009B0A9B059B0D810A8905890D994200D26D
:104B0000B8E092028446944463460793B2E080235F
:104B10001B06079A1A430792ACE001231A40099238
:104B2000AB6E5B6A082203920EAA0292019722687A
:104B300000922A0000212800FEF78CFF002800D1F7
:104B400098E0A0460300543301D100231DE78346BB
:104B5000F6E0012308938DE0A0460300543301D111
:104B6000002312E78346EBE00C9B079F3A005F406F
:104B70000D490F421AD002281BD1990A8905890DC7
:104B8000920A9205920D8A4213D3802212061A438A
:104B900007920EE0A85B011000FBFFFFFF0500007D
:104BA00000FC0F000000F04F00FCFF7F01235B4280
:104BB00007934746BB059B1501335A425341DB1906
:104BC0009B059B0D0433F618AB6E5B6A04220392BF
:104BD0000CAA02920196226800922A000021280065
:104BE000FEF738FF002800D0A6E60B9804220CA997
:104BF00003F064FA0B900C9B1BBA7B4098460C9315
:104C000000D5A1E69A059215013253425A41424419
:104C10009205920D111D7118AB6E5B6A99423ED8D8
:104C20004146090DF020C0000140A020C000814293
:104C300000D195E6371D0BA90391029201972268D6
:104C400000922A0000212800FFF7C0FD002800D0B4
:104C500010E70C9B1A0DE021C900100008400A4221
:104C600000D00FE79B0A9B059B0D059A9A4201D83D
:104C7000013305930C99209B4B40069A1A4298D118
:104C800023681493159714AA2398229B9847002809
:104C900000DA61E700D067E70C9B079389E7A0463D
:104CA000002372E6A04600236FE61368526841466F
:104CB0000A604B604B469B0012AA9B588B600123F5
:104CC0009C46E2441EE601235B420D937B6A0DAADB
:104CD0000392109A02920194326800922A002800EE
:104CE000FFF774FD002804D00300543301D083463D
:104CF00026E0119A0D9B9B1A5A425341B37559E60F
:104D00005846013000D16CE69B059B0D9205920D33
:104D10009A4200D865E6124B9B468B4461E600231D
:104D20009B460DE0464633680E490F480F4A0192F4
:104D3000726800920E4A08F00FF954235B429B46BA
:104D4000584617B0F0BCBB46B246A946A046F0BDD7
:104D500054235B429B46F3E754235B429B46EFE7B9
:104D600000FCFFFF084E0110904F0110FC420110A3
:104D700056050000F0B5D6464F464646C0B58AB047
:104D800007000E001400002393610133D36105AACC
:104D9000284B21CB21C201239846012539E0264B1F
:104DA00026492748274A08F0D7F8542040423BE0DC
:104DB00053460593E369069343465B0098460025F6
:104DC0000FE0012300E00123002B2BD1182399468B
:104DD000A14405A94846FEF78DFC0028DFD14545D2
:104DE000E6D0013507AB07973268089272680992DE
:104DF0000393154B029300230193144B0093144B20
:104E00004A4621003800FFF717FD002801D0831C17
:104E10000AD1A3699A460133D5D0E3690133D0D0D2
:104E20000023D1E7022040420AB0E0BCBA46B146B6
:104E3000A846F0BDA85B0110FC420110084E01100D
:104E4000C84F0110B0120000BF3E00100800002043
:104E5000FF03F07F10B584B001235B42002403946C
:104E6000029401940093FFF7E7FC04B010BD00002A
:104E7000F0B5DE4657464E464546E0B593B00500D0
:104E80000E0005929946202200210AA807F076FE1E
:104E90000123119308AA624B11CB11C201239B4637
:104EA0000127109C631C00D180E0119B013300D1CD
:104EB0007AE00023002B00D07AE008A910A8FEF7C2
:104EC00019FC00280FD15F4516D001370024012CB2
:104ED0001ADCA31D9B000AAA99580598B047002820
:104EE0001ED10134F3E74F4B4F495048504A08F068
:104EF00033F85420404213E00894119B09935B4619
:104F00005B009B460027E0E710AA0AA92800FFF7EC
:104F1000A1FF8246002803D1002417E0831C13D090
:104F200013B0F0BCBB46B246A946A046F0BD069BF6
:104F3000059A02920196079A00922A000021280001
:104F4000FEF770FF0028EBD10134A4B20AAB9B8AB4
:104F5000A342A6D9A202374B134306AA0092364AAF
:104F60000AA92800FEF736FF0028D7DB000D400510
:104F7000400D324B9842DAD04B46002BE4D08023D0
:104F80009B009842E0D1D04602E001239C46E044D9
:104F90004346012BD8DC43469B0006AAD15805980E
:104FA000B0470028F1D0BBE7012383E7012381E765
:104FB000AC6A0FE021004031A36A059A0292019683
:104FC000E26A00922A002800FEF72CFF00280ED08B
:104FD000A6E72468002C21D0A379012BF9D1236BFB
:104FE000882252031340802252029342E2D0236B64
:104FF000902252031340802292029342E9D1210071
:105000004031A36B059A02920196626B00922A00CE
:105010002800FEF707FF0028DBD081E700207FE7AC
:10502000A85B0110FC420110084E0110C84F01108E
:10503000111200000800002000FC0F7002020000A6
:1050400070B50400406DE36DC018E16E06F040FDE0
:1050500061650023E365A26E536B216EDB008B421A
:1050600000D90B00A365606E526B002107F086FD2E
:105070000649012322002000FFF7FAFE051E01D198
:10508000280070BD2000FEF7A4FBF9E7E13700100F
:1050900030B583B004000D00E36DA26D934226D2BB
:1050A000616EDA088A5C07201840C240D20705D535
:1050B0000133E365236E013B2366EDE7606DC018A5
:1050C000E16E06F005FD2960E36D0133E365226EB4
:1050D000013A2266A26D934224D2616EDA088A5C9C
:1050E00007210B40DA40D207EED400201BE0226EED
:1050F000002A05D02000FFF7A3FF0028CCD012E043
:10510000606D1818A36E996A06F0E2FC0B00074C5C
:105110000748084A0092084A210007F01DFF1C209A
:10512000404200E0002003B030BDC046084E0110F0
:10513000F44F0110FC420110B102000070B584B0C0
:1051400006000C000025012D0DDC0135EB0FEA18DF
:1051500001211140C91A890061183000FFF798FF3A
:105160000028F0D02FE00023A360220008320421A1
:1051700003910292019323680093042332000021DB
:105180003000FEF767FCA568002802D00300543306
:1051900019D1B26ED16A002909DD01310122114312
:1051A0006D18013D280006F093FC6D1AA5600423DC
:1051B000E360053B23610022A282A361E361002337
:1051C000A375E375002004B070BD0000F0B5C646BD
:1051D00000B58AB005000E005BE031004031131BC2
:1051E000012203921A3202A8844662440292019478
:1051F000B26B00922A002800FEF72CFC002858D140
:1052000029001031012303931A3302AA9446634400
:1052100002930194099B009301232A002800FFF7C1
:1052200049F9002827D10134F26BA24247D9336BE8
:10523000DB02D2D531000831B3889B029C46330093
:1052400040330793012005901A3002AB9846404442
:10525000049003942848634618430290274801901D
:10526000121B0092079B00222800FEF7E5FF002892
:10527000C6D007003BE0030054331CD1099B2049F2
:105280002048214A0092214A07F066FE01235B4232
:105290002B6109A92800FFF7FBFE071E27D10999FA
:1052A0002800FEF757FB071E07D003005433E5D054
:1052B0001DE007001BE0070019E00024B4E7F06CD4
:1052C000E969AB6E1A6B07F05FFC2B6933646B699D
:1052D0007364AB69B364290010312800FEF78CFBBE
:1052E000099BB363326B80239B0213433363380003
:1052F0000AB080BCB846F0BD0000102000FCF7FFEB
:10530000084E011020500110FC420110D60C000084
:1053100070B505000C004B6BCB63FEF757FA21000C
:105320002800FFF753FF002803D1236B014A1340E5
:10533000236370BDFFFFEFFFF0B5DE4657464E46D4
:105340004546E0B58BB004008846150099464EE00E
:10535000149B002B33D0149B013B089308A9200019
:10536000FEF757FB089B01330893A26E526A9342E3
:105370005ED000274B46B1461E00089BBB4248D971
:10538000DB1B0122039209AA0292019700962A00D0
:1053900000212000FEF75EFB002838D10123039393
:1053A00009AB02930197079B009301232A00414612
:1053B0002000FFF77FF8002808D10137DDE7079BC1
:1053C000159A13600023169A136029E0B146030072
:1053D00054331CD1079BBA2238493948394E0096BC
:1053E000120107F0B9FD01235B424246136007A991
:1053F0002000FFF74DFE061E12D107992000FEF790
:10540000A9FA061EA4D003005433E3D008E0060036
:1054100006E04E46079B159A1360089B169A136088
:1054200030000BB0F0BCBB46B246A946A046F0BD6A
:10543000013006F0EDFA8246431C9B464B46099329
:1054400000270593B1462E00250009E02C00350009
:10545000059B994603005433BCD00600E0E70137B2
:105460005F4522D2BC000423039309AB029301944D
:10547000079B00930123320041462800FFF71AF8EA
:10548000099B0028E2D15745E9D00422039209AADA
:105490000292019400930423320000212800FEF7B9
:1054A000D9FA0028DBD00600BAE74E46079B159ACA
:1054B00013605B469B00169A1360B1E7084E01101B
:1054C00020500110FC420110F0B5C64600B588B06E
:1054D00006000C00150019000593236BDB0209D5AB
:1054E000636BE26A8C466344934200D21300F26F0E
:1054F0009A4231D3059B98464346002B00D19DE04C
:10550000236B8022920219001140134204D0E06BF9
:10551000B26E526A904255D1DB0249D4002902D1C1
:10552000626B002A24D13000FEF750F9A36B2100F2
:10553000403122003C320292043A0192626B0092A6
:1055400032003000FFF7F8FE002836D0226B8023AF
:105550001B03134323635FE021003000FFF7D8FEF5
:105560000028C7D0226B80231B031343236353E01F
:1055700027004037A36AE16A0020079007A803903C
:10558000200038300290013A019200913A00002147
:105590003000FFF748F8002804D139003000FEF74A
:1055A0002BFAC0E7226B80231B031343236333E0F2
:1055B00002235B42A363636BE363226B80239B0242
:1055C00013432363B36E5F6AE36BFF1A474500D949
:1055D00047462100403103970295E36B0193A36B8B
:1055E0000093012332003000FEF764FF002817D03B
:1055F000030054330BD121003000FFF7E7FD0028F2
:10560000E7D0226B80231B031343236304E0226B48
:1056100080231B031343236308B080BCB846F0BD4E
:10562000636BDB196363E36BDB19E363ED194346DB
:10563000DB1B98463000FEF7C9F85DE70598EBE7FD
:10564000F0B599B005000C000B6B5A0307D5DA02D0
:1056500002D4012252420A64374A13402363236B67
:105660009A0365D5666BDB024ED45422002103A851
:1056700007F084FAA36A0D93E36A0E9301230F9354
:10568000636B109313AB2A0083CA83C312681A603A
:1056900001235B422B60626BE36A9A4219D20123B9
:1056A0000B226A4403A92800FFF70CF8002840DB0E
:1056B00001230B226A4421002800FFF705FF002880
:1056C00037DB2B680133E6D001235B4213932B6059
:1056D000E1E72100403101232A002800FEF788FE7F
:1056E000002816D00300543323D1A36B1349144868
:1056F000144A0092144A07F02FFC21002800FFF7FB
:1057000065FD0028E5D014E0E36AB34200D233001F
:105710006363A36BA362636BE362236B0B4A134067
:10572000236380225202134323636663002000E058
:10573000002019B0F0BDC046FFFFFBFF084E01106E
:1057400020500110FC420110250D0000FFFFFDFF5D
:10575000F8B505000C0016001F00096BCB070DD52E
:10576000890304D52100FFF76BFF002805D13B001A
:10577000320021002800FEF7A5FFF8BD034B044AC4
:10578000DB210448090104F089FFC04644500110A0
:10579000605A0110084E0110F0B583B005000C00EE
:1057A00016004F6B002B04D0012B21D0022B23D0ED
:1057B0003E006B6FB34237D3BE4224D0236B9B03B2
:1057C0000CD4019701A92800FEF723F907000096E1
:1057D00069462800FEF71DF9874216D021002800EF
:1057E000FFF72EFF002801D16663300003B0F0BD43
:1057F000D74216D4D619DCE7FEF76DF88619D8D54E
:1058000016204042F2E73000F0E7636C009A9342C2
:10581000E4D8A16C5B189A42E0D26663E263300080
:10582000E4E716204042E1E716204042DEE710B5EB
:1058300000230022FFF7B0FF002800DB002010BD8E
:10584000F0B585B006000D0001921F000B6B9A07A2
:1058500023D55B0327D42B6B1A0504D5696BEA6A41
:10586000914200D26A636C6BE119726F91422DD83C
:105870009B031DD4EB6A9C421AD96B636B6B9C42F1
:1058800016D902ABDA1D0023137001332900300052
:10589000FFF71AFE0028F1DA16E00E4B0E4A0F4809
:1058A0000F4904F0FBFEFFF7CBFE0028D3D00BE03E
:1058B0003B00019A29003000FFF706FE002803DBB9
:1058C0002B6B084A13402B6305B0F0BD1B204042F0
:1058D000FAE7C04674500110405A0110084E0110FA
:1058E000170E0000FFFFF7FF00B583B00023019300
:1058F000044901AAFFF7BCFA002800D1019803B0BF
:1059000000BDC04649390010F0B5D646474680B5BF
:1059100085B001900E001400002393610133D36120
:1059200002AA284B81CB81C201250127A369984691
:10593000013336D0E369013331D00023002B32D15B
:1059400018239A46A24402A95046FDF7D3FE002828
:1059500015D1AF421CD001373368434526D0E169E9
:105960007268914228D0424528D0994228D05246A8
:1059700021000198FFF76EFA0028D7D017E0124BEC
:1059800012491348134A07F0E7FA542040420EE048
:1059900043460293E36903936D000027DBE701238D
:1059A000CCE70123CAE70220404200E0002005B016
:1059B000C0BCBA46B046F0BD0020F8E70020F6E7CC
:1059C0000020F4E7A85B0110FC420110084E011012
:1059D000C84F01106F120000F0B585B00C00170021
:1059E0001E00010010310393029263680193236843
:1059F000009300230200FEF75DFD051E02D0280083
:105A000005B0F0BDE0683200390002F057FBE060FD
:105A100063689B196360F2E7F0B5DE4657464E4671
:105A20004546E0B587B005008846994617009405BD
:105A3000A415013463425C41A418A405A40D231DE0
:105A40009A464B68534449698B4247D856007608BA
:105A500043469B6873401BBA0593042305AA41463D
:105A6000FFF7BAFF834600282ED1002F22DA002745
:105A7000A74227D25346DB1B4A4611685268043BB3
:105A800001200390123068440290D21901920091D3
:105A90002A0000212800FDF7DDFF00281CD101238A
:105AA00013226A4441462800FFF796FF002813D1CD
:105AB0000137DDE723004A4641462800FFF78CFF07
:105AC00000280FD143469E60584607B0F0BCBB4645
:105AD000B246A946A046F0BD8346F5E71C235B42CB
