:020000041000EA
:1000000000B5324B212058609868022188439860DF
:10001000D860186158612E4B002199600221596106
:100020000121F02299502B49196001219960352056
:1000300000F044F80222904214D00621196600F024
:1000400034F8196E01211966002018661A6600F04E
:100050002CF8196E196E196E052000F02FF8012189
:100060000842F9D1002199601B49196000215960AB
:100070001A491B48016001219960EB211966A021F2
:10008000196600F012F800219960164914480160C1
:100090000121996001BC002800D000471248134993
:1000A000086003C880F30888084703B5996A0420EC
:1000B0000142FBD001200142F8D103BD02B5186610
:1000C0001866FFF7F2FF186E186E02BD00000240BE
:1000D000000000180000070000035F00212200005C
:1000E000F4000018222000A00001001008ED00E03C
:1000F00000000000000000000000000074B24E7A12
:1001000000200420F7010010C3010010C5010010F9
:10011000C1010010C1010010C1010010C101001097
:10012000C1010010C1010010C1010010C701001081
:10013000C1010010C1010010C9010010CB01001065
:10014000CD010010CD010010CD010010CD01001037
:10015000CD010010CD010010CD010010CD01001027
:10016000CD010010CD010010CD010010CD01001017
:10017000CD010010CD010010CD010010CD01001007
:10018000CD010010CD010010CD010010CD010010F7
:10019000CD010010CD010010CD010010CD010010E7
:1001A000CD010010CD010010CD010010CD010010D7
:1001B000CD010010CD010010CD010010CD010010C7
:1001C00000BE00BE00BE00BE00BE00BEEFF3058054
:1001D000103800BEF2EB88712CB001105CB0011039
:1001E0003402001090A31AE700201F49086006C8D7
:1001F00081F3088810471D48006800282FD10DA4FE
:100200000ECC002902D000F012F8F9E71849194A7B
:10021000002000E001C19142FCD1174988471749ED
:1002200088471749884700BEFDE701C901C29A42C5
:10023000FBD370475CB00110C000002050140020B8
:10024000ECC301100000042000000420ECC30110E6
:10025000001004200010042000000000704709482E
:100260000BF068FF0047000008ED00E0000000D040
:100270005014002058130320C5AD00104109001090
:1002800085AD00105756000006005250ABB36053C6
:10029000B48C011006005250861C0302CC8C011055
:1002A000060052505422A29DD48C011005005250D9
:1002B000DE65F468ECC30110F8B5C0460448054B90
:1002C00010B5834203D0044B002B00D0984710BDDB
:1002D0005014002050140020000000000648074978
:1002E000091A8B10C90FC91810B5491003D0044B57
:1002F000002B00D0984710BD50140020501400204F
:100300000000000010B5074C2378002B09D1FFF73F
:10031000D5FF054B002B02D0044800E000BF0123AD
:10032000237010BD3032002000000000F85F011083
:10033000054B10B5002B03D00449054800E000BF71
:10034000FFF7CCFF10BDC046000000003432002093
:10035000F85F0110002070470020704710B50400BE
:10036000282200210CF090FF200010BD10B5D023F2
:100370001B06196802480DF093F900BE10BDC04677
:10038000F85F011010B5D0231B06196802480DF064
:1003900087F9FFF7EBFF10BD1C60011010B5064B8D
:1003A000186800230022002111F0EAF901384342C5
:1003B0005841C0B210BDC0462871002010B50121BF
:1003C000044B1868494211F003FC0138434258417C
:1003D000C0B210BD2871002010B58CB0040012F01E
:1003E00005FC0B90206803685B68984721680B68E0
:1003F0009B6868469847A368186800230A226946E4
:1004000011F0BEF9218A0BA813F0E4FCEAE7000022
:1004100010B50A00D0231B06196803480DF040F9F7
:10042000FFF7A4FF10BDC0463460011070B5050091
:100430000C0008F099FC200008F096FC032128002D
:1004400008F092FB0321200008F08EFB002201211E
:10045000280008F0A1FB00220121200008F09CFBED
:10046000054806490FF0FCFE0549012011F05AFA33
:10047000044B186070BDC046C80E0020A086010065
:10048000485A00202871002070B582B00400204B2B
:10049000204A002500950821022011F033F9206040
:1004A0001D4B1E4A00951021022011F02BF96060AF
:1004B0001B4B1C4A00952421282011F023F9A06031
:1004C000194B1A4A00950221022011F01BF9E06035
:1004D000174B184A00950421022011F013F96061AE
:1004E000154B164A00952021032011F00BF92061CD
:1004F000992080000CF0D4FE0600057098239B0024
:10050000C55001F0E5F9A661200002B070BDC046FB
:1005100058CF0020ACCF002030A5002084A50020BB
:1005200074E50020C8E5002074FB0020C8FB002013
:10053000D09C0020249D002058D80020ACD800205A
:10054000F0B5C64600B504008846164B036000258A
:100550000571154B036077270773144B03607020F8
:100560000CF09EFE0600702200210CF08DFE6C2324
:10057000F754266100236361A361E36123622423AE
:10058000E5540133E554A5620733E5544346002B97
:1005900003D1200080BCB846F0BD0321200000F04C
:1005A0000FFDF6E74C610110606101103466011027
:1005B000F8B504000D00214B036000260671204BA6
:1005C0000360692303731F4B03601F4B020010324B
:1005D00083CB83C203CB03C220004C300622002110
:1005E0000CF052FE20005230062200210CF04CFE8E
:1005F00020005830062200210CF046FE5E23E65211
:10060000200060300C2200210CF03EFE20006C30F7
:100610000C2200210CF038FE200078300C22002142
:100620000CF032FE84230022E250002D01D1200084
:10063000F8BD0321200000F0A9FDF8E74C6101108E
:1006400060610110E46601108061011070B53048EE
:100650000CF0F6FF00F088FF01F080FE0521042079
:10066000FFF7E4FE0FF07EFE0C200CF019FE0400F4
:10067000284E066000250571274B036000F0E6FE5A
:10068000264B1C6018200CF00BFE0400012100F02A
:1006900019FB234B1C6030200CF002FE04000121EA
:1006A000FFF74EFF1F4B1C6088200CF0F9FD040083
:1006B0000121FFF77DFF1C4B1C6010200CF0F0FDAA
:1006C000040006600571194B0360032100F0DEFD94
:1006D000174B1C600C200CF0E3FD04000660057154
:1006E000144B0360032100F095FB134B1C601C208E
:1006F0000CF0D6FD0400FFF7C7FE104B1C6010483D
:1007000001F0B6FE0F4B1868012110F0CBFD70BD53
:100710005C6001104C61011074610110F4D700207D
:1007200054CF00202CA5002070E500201067011098
:1007300070FB0020AC630110CC9C0020E8AE0020D0
:1007400070600110C8D70020F0B5D6464F46464627
:10075000C0B59EB0FFF77AFF19AD14220021280022
:100760000CF092FD564B1A93FE239B059A461C9360
:10077000FA239B0099462B82524B1B681993524BCC
:1007800098461B681B938026B6005049504C514B2D
:100790000293514B0193022700972B003200200057
:1007A00013F014F814AD1422002128000CF06CFD95
:1007B0004A4B1593534617934B462B82484B1B6865
:1007C000149343461B68043316934649464B0293E1
:1007D000464B019300972B003200200012F0F6FFE9
:1007E0000FAD1422002128000CF04EFD404B109359
:1007F000404B129332232B823F4B1B680F9343468F
:100800001B68083311933D493D4B02933D4B0193C7
:1008100000972B003200200012F0D8FF0AAD1422FE
:10082000002128000CF030FD374B0B9353460D93FD
:100830004B462B82354B1B680A9343461B680C338F
:100840000C933349334B0293334B019300972B00A6
:100850003200200012F0BAFF05AD1422002128005A
:100860000CF012FD2D4B0693534608934B462B82FA
:100870002B4B1B68059343461B6814330793294988
:10088000294B0293294B019300972B003200200043
:1008900012F09CFF802226492648274B0293274BC3
:1008A0000193032300930023120112F08FFF002015
:1008B00013F064F81EB0E0BCBA46B146A846F0BDDD
:1008C0009460011054CF0020E8AE00209C6001101D
:1008D000D903001038280020BCCF0020A8600110E8
:1008E0002CA50020B0600110E8230020A4A5002062
:1008F000BC6001100000A04170E50020C060011044
:10090000882B002068EB0020CC60011070FB0020D9
:10091000D4600110E02E0020CCFB0020E860011024
:10092000CC9C0020F4600110402200202C9D00206F
:100930000C6101104920001090250020ECAE002031
:1009400000B585B00CF0B8FE0AF0E2F900281BD122
:100950000F490D2040420FF043FD0E4810F0ECFB14
:100960000D4B186080220D490D480E4B02930E4B23
:100970000193042300930023920012F027FF12F04A
:1009800093FF002005B000BD08480CF059FEDFE7DA
:1009900085030010CCD70020C8D700203C6101108F
:1009A00049070010302D002068F300201C61011061
:1009B00010B584B00A22002101A80CF065FC0024C7
:1009C00018E001AB00221A55164801F051FD05E070
:1009D000144801F04DFD01AB00221A5501A814F096
:1009E0002BFB04B010BD002C16DD0F4801F040FDBC
:1009F000023C0134092CF1D8E3D001F027FD0100BD
:100A00000D28E5D00A28E3D00828ECD001AB185512
:100A1000064801F02DFDECE7054801F029FD013CF9
:100A2000E7E7C046C8640110986101109C6101109D
:100A30009461011070B505000C00080015F070F805
:100A400002002100280014F065FF43425841C0B263
:100A500070BD0000034B0360034B0B6080239B00C1
:100A600013607047481D00202C710020034B036069
:100A7000034B0B6080239B0013607047982000207D
:100A80002C890020034B0360034B0B608023DB00A9
:100A900013607047F01E00202C79002010B500294B
:100AA00005D0FA22920000230BF0D6FB03E0FA21D6
:100AB00089000BF093FB10BD70B504000D002822D7
:100AC00000210CF0E1FB2B6923606B69636020005F
:100AD00070BD000010B5002B02DB0260436010BD4A
:100AE000024B034A03483F210AF050F9A06101106C
:100AF000BC610110F461011010B5040009F08EFB17
:100B000002000B002000FFF7E5FF200010BD0000F1
:100B100010B584B00400FFF751FC217B0B489623ED
:100B20009B0001930023009301330F226A440FF0CE
:100B3000FAFB002806D0FFF731FC0F236B4418782E
:100B400004B010BDFFF72AFCFF20F9E7C80E002013
:100B500070B505000E00002406E00A2009F03FFAF7
:100B60000A34A4B2322C0CD82800FFF7D1FF0006BB
:100B700005D5002EF1D00A2013F088F9F0E7012006
:100B800000E0002070BD0000F0B5CE46474680B5BD
:100B900085B005000E0003799846002B07D000238E
:100BA0009846404605B0C0BCB946B046F0BD64208A
:100BB00009F015FA03AB394A1188198092789A70B6
:100BC0000B236B44AC221A70002405E0344801F07A
:100BD0004FFC731EBB4255D82700B4425AD2013491
:100BE00030483200210001F043FC2F4801F040FC66
:100BF000297B2E4896239B00019300230093013309
:100C00000B226A440FF064FB142009F0E8F900217C
:100C10002800FFF79DFF0028D8D0254801F028FCC8
:100C2000297B224896239B000193002300930333E2
:100C300003AA0FF04DFB00212800FFF789FF814632
:100C4000002808D02800FFF763FF030711D41948D4
:100C500001F00EFCBDE7124801F00AFCFA20C000CA
:100C600009F0BDF9731EBB42B6D9134801F000FC70
:100C7000B2E7124B0100180001F0FAFB01232B71BF
:100C8000C8468EE7FA20C00009F0A9F90A4801F029
:100C9000EFFBA1E70A4801F0EBFB82E76863011074
:100CA0008C620110386201106C620110C80E0020C5
:100CB000AC620110EC620110D06201100C630110F3
:100CC0004463011010B504000A4B03600023037154
:100CD000094B036038230373084B0360002303614F
:100CE0004361002901D1200010BD0321FFF74CFF13
:100CF000F9E7C0464C610110606101107863011092
:100D0000F0B589B004000579002D02D1280009B0A2
:100D1000F0BDFFF753FB2D4B1A8869468A839B78F9
:100D20008B77217B2A4896239B0001930023009315
:100D3000033307AA0FF0CCFAFFF730FB01212000A4
:100D4000FFF706FF051EE1D0FFF738FB05AE217B5C
:100D50001F4896239B000193002300930633320023
:100D60000FF0E1FAFFF71AFB72781202B37813431F
:100D70001B01F1780F091F430F220A401202337939
:100D800013431B02707918430CF019F911490CF048
:100D9000DAF8D62189050CF0D6F80F490CF0B3F833
:100DA000206138000CF00BF90C490CF0CCF8D6217E
:100DB00089050CF0C8F8606102A8FFF79DFE029853
:100DC0000399FFF76BFEA060A0E7C0466C630110BB
:100DD000C80E002000004843000048420000C842FE
:100DE00001207047024A1368013313607047C04600
:100DF0008070002070B50400054B1D6800221A6049
:100E0000283200210CF040FA2560200070BDC04659
:100E10008070002010B50379002B01D0002010BD98
:100E20000B480CF00DFC062007F09EFFD0231B069C
:100E300040229A6200220121062007F0ADFE054BF8
:100E400001220421062007F01BFF0120E7E7C0462E
:100E500084630110E50D001010B5002905D0FA22B9
:100E6000920000230BF0F8F903E0FA2189000BF05F
:100E7000B5F910BD70B504000D00282200210CF05A
:100E800003FA6B692360AB696360EB69A3602B6A4B
:100E9000E360200070BD000010B5002B02DB026093
:100EA000436010BD024B034A03483F2109F06EFF27
:100EB000A0610110BC610110F461011010B50400C3
:100EC00009F0ACF902000B002000FFF7E5FF20005D
:100ED00010BD000010B5531DD8B207281BD88300E1
:100EE0000F48C3589F460F480CF0DAFB10BD0E4860
:100EF0000CF0D6FBFAE70D480CF0D2FBF6E70C48F5
:100F00000CF0CEFBF2E70B480CF0CAFBEEE70A4808
:100F10000CF0C6FBEAE709480CF0C2FBE6E7C04666
:100F2000CC640110B8630110D8630110046401108F
:100F300034640110586401107C640110A464011031
:100F400030B589B004000079002801D109B030BD66
:100F50006846FFF7B3FF00980199FFF77DFF050092
:100F6000206902A901F074FB0028EFD002AB049ABB
:100F70006261059AE261069AA261079A2262197873
:100F80002C22A1545978083AA1549A782523E25486
:100F9000A3685B1BA362D9E710B5962164224900C0
:100FA000FFF7CEFF10BD30B583B006AC247807AD97
:100FB0002D7800690195009401F0D0FA03B030BD9E
:100FC000F0B5D6464F464646C0B582B007000E0083
:100FD00003799946002B08D000239946484602B071
:100FE000E0BCBA46B146A846F0BD0A2008F0F7FFBB
:100FF000002405E0234801F03BFA731E434535D831
:10100000A046A6423AD901341F483200210001F01F
:101010002FFA386901F0DCFA051EEBD039690800B7
:10102000503002F06BFB8246386918495246FFF790
:1010300051FF5346002B03D0154801F019FADCE7A5
:10104000144801F015FA144801F012FA0223019332
:10105000012400940333082200213800FFF7A3FF86
:101060000E4801F005FA3C71A946B7E7FA20C00026
:1010700008F0B5FF0A4801F0FBF9C1E7094801F0A3
:10108000F7F9ABE720650110EC6401104065011031
:10109000506501107C650110A0650110C465011048
:1010A000EC6501100866011070B504000D002822DF
:1010B00000210CF0E9F82B6E23606B6E6360AB6E61
:1010C000A360EB6EE3602B6F23616B6F6361AB6FAB
:1010D000A361EB6FE3618023EB582362200070BDB6
:1010E00070B505000400103401004C31200007F0F9
:1010F00087FB29005231200007F0ACFB2900583152
:10110000200007F0F3FB29008431200007F022FCC7
:10111000002431E0230024335B00EB180420185E28
:101120000BF052FFE22189050BF00DFF230018336D
:101130009B00E850230028335B00EB180220185E68
:101140000BF042FF0E490BF0E8FE23001A339B0020
:10115000EB18586023002C335B00585F0BF034FF12
:1011600008490BF0DAFE08490BF0EDFE23001E33B0
:101170009B00E8500134E4B2022CCBD9012070BDB1
:10118000000003430000A04100004040F8B5CE46F7
:10119000474680B580460D0003799946002B06D05E
:1011A000002399464846C0BCB946B046F8BD642005
:1011B00008F015FF00240CE01421380007F0EEFAC7
:1011C000134801F055F90123424613719946E9E7A6
:1011D0003400AC4217DA661C0E482A00310001F0D8
:1011E00047F947461037380007F0F6F90028E3D0F2
:1011F0006B1EA342ECDDFA20C00008F0F0FE0648AA
:1012000001F036F9E4E7054801F032F9CAE7C046D3
:1012100074660110406601109C660110B8660110EA
:1012200002000079002810D0084B1B68E021C9019A
:101230000B4007490B60074B04211960034B1B68E7
:10124000DB05FBD5014B5B689381704700C0044010
:1012500000D0044000E0044070B504000D002822D6
:1012600000210CF011F8AB892380200070BD10B56F
:1012700004001F2107F078FC00220021200007F065
:101280008BFC0021200007F057FD10BD10B50400B5
:101290000FF068F81A20FFF7EAFF012323710248D4
:1012A0000CF0CEF9012010BDF066011082B00022D2
:1012B0006B46D91D06E08369DB06FCD403680B701E
:1012C00001320131002AF6D06B46D87902B070475E
:1012D00000B59DB0304B186801235B420093023388
:1012E000002201210FF04EFF642012F0CFFD2B49A8
:1012F000152007F099FE0121152007F06BFE284B01
:1013000050229A635A6B38231340264A136008E030
:1013100003A814F005FC0200234B03A9180013F0E6
:101320001FFE0122214B1868524203A910F0A8FBAE
:101330000128F6D11E4903A8FFF77CFB0028E7D15E
:101340001C4903A8FFF776FB0028E1D11A4903A83E
:10135000FFF770FB0028DBD1184903A8FFF76AFBF1
:101360000028D5D1164903A8FFF764FB0028CFD188
:10137000144903A8FFF75EFB0028C9D1124903A84E
:10138000FFF758FB0028C3D1104903A8FFF752FB11
:101390000028C6D0BCE7C046C8D70020D113001033
:1013A0000080034034900340981C002024710020EA
:1013B0001C670110246701102C67011034670110AD
:1013C0003C670110446701104C670110546701101D
:1013D00000B583B002E0184B00221A70174B9B69CE
:1013E000DB0626D4002301931448FFF75FFF124A5F
:1013F0001378D9B20133DBB21370114B58540A2859
:1014000003D01378DBB2622BE8D90B4B1B78DBB22D
:101410000B490022CA540B4B1868002301AA10F094
:1014200091FA019B002BD6D0074B802252051A60FF
:10143000D1E703B000BDC0464C1303200080034039
:10144000C07000202471002004ED00E010B584B0CD
:101450000379002B02D0002004B010BD214801F018
:1014600007F89621204C8901200009F0FDF902219E
:10147000082007F079FB0221092007F075FB002303
:1014800001220821200009F0BDF90021200009F007
:10149000CFF9164800F0ECFF154813F05AFD154837
:1014A00000F0E6FF144B154A0021009164310A2038
:1014B00010F028F9124B1860124800F0D9FF802272
:1014C00011491248124B0293124B019302230093CD
:1014D0000023920012F07AF90F4800F0C9FF0120B2
:1014E000BAE7C0465C670110008003407C670110CA
:1014F000981C00209C670110F8D700204CD80020D1
:1015000024710020BC670110DC670110D1120010AB
:10151000E02900206CD90020E867011010B5040014
:10152000282200210BF0B0FE084B18685968206093
:1015300061609868D968A060E160186959692061A4
:10154000616121229B5C2376200010BD981C002045
:1015500000B583B011F04AFB019009F063FBC8218C
:1015600001A812F037FCF8E700B585B00121094861
:1015700009F09EFB802208490848094B0293094B59
:1015800001931F2300930023920012F01FF905B06E
:1015900000BDC046881300000468011051150010FA
:1015A00088300020C009032070B50400274B1B6859
:1015B0009E6931005931FF3114F06EFA051E15D0C5
:1015C000224B1B6898698D30FF30210006F057FED2
:1015D000831C14D0002817DB1D48210000F048FFB1
:1015E000002D16D0002012F0C9F970BD83239B0096
:1015F000F11830008D30FF3006F0B2FEE0E71548FC
:10160000210000F035FFEBE71348210000F030FF28
:10161000E6E70E4C2368986902005932FF328325B1
:10162000AD0041198D30FF300C4B06F03BFE2368B6
:10163000986941198D30FF3006F0B8FE236899692A
:101640005931FF31064800F013FFCBE7E8AE002028
:101650005068011010680110306801100305000087
:101660008069011070B505000C00094800F000FF0A
:10167000084928008D30FF3006F0CAFD002C02D149
:10168000002CFDD170BD044800F0F2FEF8E7C04622
:1016900064680110800D00208C680110F8B53B4C87
:1016A000236898698326B60081198D30FF3006F0D3
:1016B00057FE236898698D30FF3006F0CFFD236810
:1016C00098690021FFF7CEFF2368986930498D3073
:1016D000FF3006F0B0FD2368986904232D4A011DF0
:1016E0008D30FF30FF3306F0DDFD236898699827C1
:1016F000BF00C219011D8D30FF30042306F07EFEAD
:1017000023689A690121D1519869011D8D30FF30FC
:1017100006F0D0FE23689869C219011D8D30FF3094
:10172000042306F099FE23689869011D8D30FF306F
:1017300006F016FE23689B69D959174800F098FEF9
:1017400023689B6918005930FF30DA5913490AF0B1
:10175000A3FC2368986902005932FF3281198D3049
:10176000FF300F4B06F09EFD2368986981198D307C
:10177000FF3006F01BFE236899695931FF31094893
:1017800000F076FE002012F0F9F8F8BDE8AE002077
:10179000800D002028690110346901106C69011066
:1017A000030500007469011070B50324002C15DBDB
:1017B000A0000019400001238340013B8B4201DD62
:1017C000013CF3E7002C0AD00325064BA400E358A4
:1017D0000A0002410448290000F04AFE70BD0425B9
:1017E000F3E7C046506E01109469011030B5D1B0D6
:1017F00004000A0005008D35FF3543A9280006F0D6
:101800006DFE00280CD051B030BD134800F030FE02
:1018100002992000FFF7C8FF104803A900F028FE36
:1018200001AA43A9280006F096FE0028EBDB0DD0A4
:1018300001AB1B78012BE8D0022B03D0084800F045
:1018400017FEE5E7074800F013FEE1E743A928008B
:1018500006F06EFED7E7C0469C6901108C69011046
:10186000AC690110A469011070B504008D30FF301F
:1018700006F086FE050328000BF0A1FB0F490BF0D4
:101880004CFB061C0E4800F0F3FD29002000FFF77A
:101890008BFF0C4800F0ECFDE02109042000FFF76D
:1018A00083FF0949301C0BF04EFB0BF0E9FB0200F3
:1018B0000B00064800F0DCFD70BDC0460000604B28
:1018C000B4690110C46901100000C842C869011060
:1018D000F0B5C64600B584B004004D4800F0C8FD20
:1018E0004C4800F0C5FD4C49012010F01BF84B4B53
:1018F000186025008D35FF354949280006F09BFC0E
:10190000002800D06EE0474800F0B2FD23005833B5
:1019100045490B6000238B60261D0433434A009128
:10192000FF333100280006F0EBFC98239B0098461B
:10193000A044042342463100280006F05FFD9827AA
:10194000BF00E3590133E3513100280006F0B2FD36
:10195000042342463100280006F07EFD31002800B5
:1019600006F0FEFCE159324800F082FD5536FF36A4
:10197000E259304930000AF08FFB83239B00E718BF
:101980002D4B32003900280006F08CFC390028006D
:1019900006F00CFD2948310000F06AFD28492000BE
:1019A000FFF724FF274800F063FD2000FFF75CFFEE
:1019B000254800F05DFD802224492548254B0293EF
:1019C000254B0193022300930023920011F0FEFEA9
:1019D000224800F04DFD01232370012004B080BC9B
:1019E000B846F0BD1E4800F043FD1E4800F040FD23
:1019F0001D4812F04BFA1D4800F03AFD084E310028
:101A0000280006F005FC3100280006F014FC7AE7F7
:101A1000D4690110EC690110F06B0020ECD70020B4
:101A2000800D0020746A01102C910020286901109B
:101A3000346901106C69011003050000746901101C
:101A4000C46901108C6A01109C6A0110C06A0110FF
:101A5000451D001048190020C45A0020D46A011006
:101A60000C6A01102C6A011060EA0000546A01102F
:101A700082B070B50492059305008D35FF35832340
:101A80009B00C418473BFF3B9B0004AA2100280091
:101A900006F0E2FC2100280006F088FC70BC08BCBF
:101AA00002B01847F0B5DE4657464E464546E0B50B
:101AB000964CA54406000A00954B1900F1A80AF0BF
:101AC000EBFAC6235B009846B0448C3BFF3BF1AA7F
:101AD000DCA9404606F0E6FB831C06D0002809DBA3
:101AE0008C48F1A900F0C4FCE5E08B48F1A900F0B6
:101AF000BFFC01E18948F1A900F0BAFCFCE0F30069
:101B000016AA9446634458689B6899460BF0B8FA45
:101B100004000D00824F48460BF0B2FA009001918C
:101B200022002B00380000F0A3FC0136002EE6DD79
:101B30007C4800F09DFC7C4800F09AFC0024002CBE
:101B400009DD784800F094FC774800F091FC00240F
:101B5000434615936DE0230116AA94466344D86862
:101B60001D690134230163445E689F680BF088FAA5
:101B700010901191381C0BF083FA04900591301CE1
:101B80000BF07EFA02900391281C0BF079FA00907A
:101B90000191109A119B654800F06AFCCFE7E300C1
:101BA0001B199B0016AA94466344D8691A6A1092BE
:101BB000596A8B46996A8A460134E20012199200EA
:101BC0006244916888461D6B5E6B9F6BDB6B994628
:101BD0000BF056FA1290139148460BF051FA0E9002
:101BE0000F91381C0BF04CFA0C900D91301C0BF03F
:101BF00047FA0A900B91281C0BF042FA08900991C1
:101C000040460BF03DFA0690079150460BF038FA2B
:101C10000490059158460BF033FA02900391109806
:101C20000BF02EFA00900191129A139B404800F09D
:101C30001FFC132CB3DD159B98463A4800F018FCA6
:101C4000394800F015FC00240BE023007533FF3306
:101C50005B0016AA944663449988364800F008FC55
:101C60000134002CF1DD2F4800F002FC2E4800F07A
:101C7000FFFB0024002C31DD2A4F380000F0F8FB78
:101C8000294800F0F5FB16AAC4239B00D15CD49A26
:101C9000D59B29480491D89CD99D02940395D69C44
:101CA000D79D0094019500F0E3FB380000F0E0FBC5
:101CB000224800F0DDFBC624A400230016AADCA9FC
:101CC000404606F09BFBA04212D316991C4800F038
:101CD000CFFB154800F0CCFB002627E72300BC33E0
:101CE0009B0016AA9958134800F0C2FB0134C1E7C3
:101CF000DCA9404606F034FBFF239B009D44F0BC6A
:101D0000BB46B246A946A046F0BDC04604FCFFFF54
:101D10006C690110F06A0110106801103068011040
:101D2000106B01101C6B01100C6B0110206B01106B
:101D3000346B0110646B01106C6B0110C8640110EE
:101D4000046B011010B5C6B0554B186801235B42F7
:101D500000930233002201210FF014FA642012F0E4
:101D600095F85049D12211A80BF094FA11A800F06F
:101D70007FFB0BE04C4800F07BFB4C4B1B689C69E5
:101D8000FEF716FE01002000FFF78CFE282012F05F
:101D90007DF8474800F06CFB00F058FB0300623B05
:101DA000DAB2132A75D89300424AD3589F463F4B64
:101DB0001B689A6998239B00D1583F4800F058FB54
:101DC000E4E73E4800F054FB00F040FB592803D004
:101DD0003B4800F04DFBD9E73A4800F049FB00F0E2
:101DE00035FB4328F4D1384800F042FB80223749C4
:101DF0003748384B0293384B019314230093002348
:101E0000920011F0E3FCC1E7344800F031FBFEF72B
:101E1000CFFD0200324904A80AF03EF9314804A976
:101E200000F026FB304800F023FB00F00FFB5928A0
:101E300003D02E4800F01CFBA8E7234800F018FB55
:101E400080222B492B482C4B02932C4B01931523BA
:101E5000009304AB920011F0B9FC97E7284800F01A
:101E600007FB93E7274800F003FB104B1B689869BA
:101E70002549FFF7BBFC89E7244800F0F9FA0B4B32
:101E80001B689869FFF7F0FC80E711A800F0F0FAF2
:101E90007CE71F4B0100180000F0EAFA76E7C04625
:101EA000C8D70020206D0110806B0110E8AE002023
:101EB0007C6B0110F46D0110946B0110AC6B011080
:101EC000106C0110D46B0110C8640110006C01107B
:101ED0009D160010F815002048520020306C0110AB
:101EE0006C690110586C0110706C0110A86C011025
:101EF0009C6C0110A9150010F01A0020C46200208B
:101F0000C06C0110C86C0110C4690110E06C0110B4
:101F1000F46C01100020704710B5074B18680023BF
:101F2000002200210FF02CFC012801D1002010BD5F
:101F300001204042FBE7C046ECD7002010B5064B1D
:101F4000186814210FF044FE012801D1002010BDB3
:101F500001204042FBE7C046ECD7002000B583B02B
:101F6000436A59438022920394466144009101934D
:101F700001220448524269460EF054FB002003B08F
:101F800000BDC046B91F001000B585B0406A41438E
:101F90008020800384466144891801910293069B46
:101FA000039301220348524201A90EF03BFB00209B
:101FB00005B000BDC51F001010B54168006813F0E2
:101FC000B3FF10BD10B582684168006813F094FF3C
:101FD00010BD10B5406A41438120400584466144EC
:101FE0008918029A18000BF055F9002010BD10B5A1
:101FF000002905D0FA22920000230AF02DF903E00F
:10200000FA2189000AF0EAF810BD000010B5002B93
:1020100002DB0260436010BD024B034A03483F21CC
:1020200008F0B4FEA0610110BC610110F461011060
:1020300010B5040008F0F2F802000B002000FFF7D2
:10204000E5FF200010BD0000F0B58D4CA5448D4B80
:10205000186801235B4200930233002201210FF034
:1020600091F8FA20800011F011FF10F0BFFD864BAF
:102070006B441860CCE00134002C1DDC28220021C8
:10208000C6A80BF001F9814B1B6818680A22C6A983
:102090000FF0F6FC0128EED1E100D0AB5B18043361
:1020A000C6AA1000C0C8C0C3CB23DB006B445B18BA
:1020B000043321CA21C3DEE70024002C01DD002403
:1020C00024E028220021C6A80BF0DEF86F4B1B6825
:1020D00058680A22C6A90FF0D3FC012801D00134A8
:1020E000EBE72101D0AB5B18C6AA0C331000E0C8A7
:1020F000E0C305681D60CB23DB006B445B180C3329
:1021000062CA62C302681A60E9E70134132C2BDC4F
:1021100028220021C6A80BF0B7F85C4B1B68986812
:102120000A22C6A90FF0ACFC0128EED1E000031989
:102130009B00D0AA94466344C6AA1C331100E0C990
:10214000E0C3E0C9E0C3E0C9E0C303199B00CB21B1
:10215000C90069448C4663441C3323CA23C323CA81
:1021600023C323CA23C3D0E7002400E00134002C9A
:102170001DDC28220021C6A80BF086F8434B1B6803
:10218000D8680A22C6A90FF07BFC0128EED12300F3
:102190007533FF335B00D0AAD218C6A90988918095
:1021A000CB22D2006A44944663449980DEE700243F
:1021B000002C49DDC6A8FFF7B1F92022C6A9C72027
:1021C000C00068440BF066F82022C6A995200001E3
:1021D00068440BF05FF82D4B1B689C69C422920089
:1021E000D2A968460BF056F8D09AD19B2000FFF791
:1021F0003FFC274B186800236422CB21C9006944A7
:102200000FF0BEFAFA2189001F48684411F0E2FD80
:10221000C624A40022000021D0A80BF035F822002B
:102220000021CB20C00068440BF02EF8C4A8FFF7B3
:10223000FFFEC498C599FFF7DAFED090CB23DB00F0
:102240006B441860002417E728220021C6A80BF071
:102250001BF80E4B1B6858690A22C6A90FF010FC28
:10226000012801D00134A3E72300BC339B00C69AA8
:10227000D0A95A50CB21C90069445A50F2E7C04650
:1022800084F6FFFFC8D7002074090000E8AE0020E4
:10229000BC70002010B5B0B0164B186801235B422B
:1022A00000930233002201210EF06CFF124B1C68D8
:1022B00010F09CFC0200002300930121200012F08A
:1022C000E3FA03AB74221A7001230C4A10685B42D4
:1022D000B2220D2169440FF0C5FF0028F4D003ABF2
:1022E0001B1800225A7006480D2169440BF0D8F9DA
:1022F000EAE7C046C8D70020847000208C70002018
:10230000606E011080B5084FBD44C7AB64221A70DF
:102310000122064B1868524269460FF0B1FB962025
:10232000400011F0B3FDF3E730FCFFFFBC7000206C
:1023300000B583B008E06B46D91D0870064B1868DD
:10234000002301220FF0ECFE00200BF0BDF9431C2E
:10235000F1D103B000BDC0468870002030B585B013
:10236000254B264AC62100240094890005200FF041
:10237000C9F9234B1860234B872002940194224A09
:10238000009200220121C0000FF04EFE1F4B18608A
:102390001F4B8020029401941E4A009200220121CA
:1023A00040000FF041FE1C4B18601C481C4B019371
:1023B0001C4B009300230122142112F039FA1A4B0E
:1023C00018608024A400194919481A4B02931A4B2B
:1023D0000193032500950023220011F0F7F9174916
:1023E0001748184B0293184B0193009500232200C5
:1023F00011F0ECF905B030BD7C3A0020D04200204D
:10240000BC700020446C0020C46A00208C70002046
:10241000EC6A00209C5A002088700020646E011035
:10242000907000203123001084700020706E011025
:1024300095220010A0170020D03A0020806E0110D5
:1024400005230010501400207C32002010B582B00B
:1024500001236A46D41D054A10685B42012221000F
:102460000FF000FF207802B010BDC0468870002039
:102470000FB430B583B006AB04CB01930B4D0C4CBD
:102480002900200009F01EFE00236355200013F0F0
:1024900047FB0200074B18681E2321000FF040FE87
:1024A00003B030BC08BC04B01847C0463704000075
:1024B000389100208C70002010B5002107F082FDBB
:1024C00010BD0000B0B582B002AF1500531C083239
:1024D000D208D2006C46A21A954602AA10700020BB
:1024E00003E00C18013024781454A842F9D30848AA
:1024F0009621890001910021009177310DF0E8FECD
:10250000023002D00020BD46B0BD0120FBE7C0462E
:10251000C80E0020F0B585B00D0016000F226A44E9
:1025200010700D4C9627BF0001970123009377216F
:1025300020000DF0CDFE01970023009333002A0008
:10254000772120000DF0EFFE023002D0002005B010
:10255000F0BD0120FBE7C046C80E002070B50400A6
:1025600004A8057805A800785326A1555421625483
:102570005022A3545223E554013BE0542000503034
:10258000210001F04BF9104900222000FEF7A2FCC7
:1025900058230122E25402332C32FF32E25202333A
:1025A000C83AE252210058312200012001F0C4FA59
:1025B0000500064902002000FEF78CFC002D01D129
:1025C000012070BD0020FCE78C6E01109C6E011094
:1025D00030B583B0040001230373184B0364184B18
:1025E0004364184B83641423837301F06BF8050074
:1025F000154902002000FEF76DFC002D02D00020DE
:1026000003B030BD20005030210001F077F8050004
:102610000E4902002000FEF75DFC002D01D00020D5
:10262000EEE702230193013B0093043308220021CB
:102630002000FFF793FF0120E2E7C04615250010B8
:10264000C5240010B9240010B46E011040650110BB
:10265000F0B5C64600B582B005008846FDF7AEFE6F
:102660002900012001F07AF8020007002349280020
:10267000FEF730FC002F33D1290050312A00012011
:1026800001F06EF95C23EA5A53019B1A9B009B18D8
:10269000DB00C418FDF782FEFA218900200009F052
:1026A0009DFD013011F0F2FB0026042E1CDCFDF72D
:1026B00085FE2B006A4607324146012001F096F95B
:1026C00004000700FDF76AFE0D4922002800FEF70E
:1026D00001FC002C08D0012011F0D8FB0136E4E702
:1026E000FDF75CFE002002E0002F04D1012002B0C3
:1026F00080BCB846F0BD0020F9E7C046C06E0110AE
:10270000D46E0110F8B50C000AF059FC061CE22149
:1027100089050AF018FC071CE08B0AF050FC051C28
:10272000EA2189050AF00FFC011C381C0AF0EBFBBA
:10273000071C2023E05E0AF047FC011C381C0AF04D
:1027400002FC071CDC218905301C0AF0FCFB061C7E
:10275000E4218905281C0AF0F6FB011C301C0AF054
:10276000D2FB011C0AF0EFFB051C2223E0560AF005
:102770002BFC8321C9050AF0E6FB011C281C0AF08A
:10278000E2FB011C381C0AF0C3FBA06301490AF0FC
:10279000C4FBF8BD0000A045F0B5C64600B582B048
:1027A00007000C00886BFC2189050AF0CCFB6C4902
:1027B0000AF0A9FB051C011C0AF0C5FB061C2E2310
:1027C000E0560AF001FCDC2189050AF0BCFB011C83
:1027D000301C0AF0B8FB061C2C23E05E0AF0F4FB68
:1027E000291C0AF0B0FB011C0AF092FB311C0AF014
:1027F0008FFBFA2189050AF0A6FB061C2A23E05E5E
:102800000AF0E2FB8F21C9050AF09DFB011C301C78
:102810000AF07EFB01902823E0560AF0D5FB291C24
:102820000AF091FB291C0AF08EFBE22189050AF0CF
:102830008AFB061C2623E05E0AF0C6FB291C0AF070
:1028400082FB011C301C0AF063FBD82189050AF0C9
:102850007AFBE02189050AF076FBFE2189050AF062
:1028600057FB051CA08C0AF0AAFB011C281C0AF0CF
:102870006AFB051C38000AF0A2FB011C9320C0056E
:102880000AF041FB071C281C0AF0C0FB002864D09A
:10289000E621890501980AF056FB011C381C0AF054
:1028A00032FB30490AF04FFB291C0AF036FB051CAD
:1028B0003223E05E0AF088FB291C0AF044FB291C45
:1028C0000AF041FBC02189050AF03DFB071C3023BB
:1028D000E05E0AF079FBE02189050AF034FB291C4F
:1028E0000AF031FB8046EE218905281C0AF02BFBFB
:1028F000061C011C0AF027FB011C301C0AF023FBFC
:10290000061C3423E05C0AF05FFBDC2189050AF039
:102910001AFB011C301C0AF016FB061C4146381C31
:102920000AF0F6FA311C0AF0F3FA061C2F23E056DF
:102930000AF04AFB8621C9050AF005FB011C301C80
:102940000AF0E6FAF62189050AF0FDFA291C0AF0D8
:10295000DFFA02B080BCB846F0BD0020F9E7C046FF
:1029600000007A470050C345F0B5C64600B50600E2
:102970000C00886B44490AF0D0FA051C30000AF0BC
:102980001EFB061C208A0AF01AFB8321C9050AF0E7
:10299000DAFA071C142020560AF016FBFC218905E0
:1029A0000AF0D1FA291C0AF0CEFA011C381C0AF0F0
:1029B000AFFA011C301C0AF0A6FA061C608A0AF065
:1029C000FEFADA2189050AF0BEFA071C1520205606
:1029D0000AF0FAFAE22189050AF0B5FA291C0AF090
:1029E000B2FAFE2189050AF093FA80461620205695
:1029F0000AF0EAFAD62189050AF0A5FA291C0AF09C
:102A0000A2FA291C0AF09FFA011C40460AF080FA3B
:102A1000011C381C0AF097FA311C0AF094FA061CC3
:102A2000E07D0AF0CCFAE22189050AF08CFA071C55
:102A3000182020560AF0C8FAD42189050AF083FA32
:102A4000011C281C0AF07FFA391C0AF061FA311CBB
:102A50000AF079FA311C0AF076FA311C0AF058FAB9
:102A6000041C0A490AF0A6FA002807D10021201CFC
:102A70000AF09AFA002802D0002400E0034C201C3F
:102A800080BCB846F0BDC0460000A0450000C8426A
:102A9000F0B5CE46474680B5A1B00C0017000AF04D
:102AA0008EFA80460120A0400AF089FA814610AED5
:102AB000264D4022290030000AF0ECFB290040316D
:102AC000402268460AF0E6FB3E23F8560AF07CFAFC
:102AD0001F490AF038FA1F490AF01AFA051CA40027
:102AE000A0591D490AF019FAFE2189050AF010FAC9
:102AF000291C0AF028FA051C6B46E05816490AF012
:102B00000CFAFE2189050AF003FA14490AF01BFAAF
:102B100049460AF018FA041C8821C90540460AF003
:102B2000F2F9291C0AF0F9F9FE2189050AF0F0F9F9
:102B3000011C201C0AF007FA011CFE2080050AF087
:102B4000ECF921B0C0BCB946B046F0BDEC6E011046
:102B50000000A0400080A7440000C842BD370634F2
:102B600070B503008020C002C8400B4A94466344FD
:102B70005C00E41880235B019C4664440AF01FFA61
:102B800006490AF0E0F9051C20000AF01DFA011CB4
:102B9000281C0AF0C2F970BD00FEFFFF0024744932
:102BA000F0B5C64600B505000C00C8235B0098428E
:102BB00000D91D00192020560AF006FAF6218905D1
:102BC0000AF0C1F932490AF0A3F9071C1A23E05EA2
:102BD0000AF0FAF9E02189050AF0B5F92D490AF061
:102BE000B2F92D490AF094F980461C2020560AF0CB
:102BF000EBF9EA2189050AF0A6F9061C28000AF07B
:102C0000DEF941460AF09FF9FE2189050AF080F9B4
:102C1000391C0AF098F9051C0E2020560AF0D4F948
:102C2000311C0AF090F9291C0AF072F9051C3C23AA
:102C3000E05C0AF0C4F98121C9050AF069F9011CB8
:102C40008120C0050AF069F9291C0AF07CF9051CED
:102C50003D23E0560AF0B8F910490AF074F9FE2154
:102C600089050AF055F9011CFE2080050AF055F986
:102C7000011C281C0AF067F909490AF044F90949BE
:102C80000AF061F90AF0F4F9C0B280BCB846F0BDB0
:102C9000000044426F12033A75021A3B6F12033B65
:102CA0000000C8419A995940FC231B0198420CD25C
:102CB000002302E080080133DBB23F28FAD8C0B21B
:102CC0009B01DBB2C018C0B27047FF20FCE70028B0
:102CD0000AD0036C002B0AD0436C002B0AD0836C03
:102CE000002B0AD00020704701204042FBE7012062
:102CF0004042F8E701204042F5E701204042F2E778
:102D000070B582B006000C000800FFF7E0FF051E5A
:102D100025D176B2002E25DB1023627B9A421ED08D
:102D20006373266C6368012269460731F320B0475C
:102D30004C23E054002817D16B46D91D0B78102284
:102D400093430B70607B024013430B70666C6368A7
:102D500001227320B0474C23E054002807D12800FB
:102D600002B070BD0023D8E702256D42F7E70225C7
:102D70006D42F4E770B582B00400FFF7A8FF051EAE
:102D80000FD1266C6368012269460731F320B047F2
:102D90004C23E054002807D16B46DA791023134006
:102DA0006373280002B070BD02256D42F9E770B56B
:102DB00004000E0015001000FFF789FF002C0BD057
:102DC00000280CD12378B34205D926704D22AB5C84
:102DD00001210B43AB5470BD01204042FBE70120B1
:102DE0004042F8E710B50E4B984216D843011B1A23
:102DF0009B001818C000DE21FF3109F0EFF980B206
:102E0000002302E080080133DBB23F28FAD8C0B2C9
:102E10009B01DBB2C018C0B210BDFF20FCE7C0466A
:102E2000820700008000101803688900521811689A
:102E300001601360704770B583009C58A6788B00C2
:102E40009B589D78247864B2002C04DB1B785BB21D
:102E5000002B0FDB70BD00241C57002CF6DAAD1BD5
:102E6000ABB202339BB2012B01D9022DF2DDFFF789
:102E7000D9FFEFE7FFF7D6FFECE7F0B5DE465746A0
:102E80004E464546E0B587B081468B4690461E00CB
:102E90001422002101A80AF0F7F93000FFF717FF0C
:102EA0008246002849D14B46002B4AD05B46002B76
:102EB0004BD04346013B092B01D8002410E00423EA
:102EC0005B429A4631E063004A46515D01AAD15403
:102ED000630001335A46515D01AAD1540134A4B2B2
:102EE0002500444510D2337B002BECD14B465F19B3
:102EF000585D3100FFF704FF8246630039787F2276
:102F00000A4001A9CA54E3E75346002B0DD1746C63
:102F100043465A007368013A01A9087869460531A9
:102F2000A0474C23F054002813D1504607B0F0BC02
:102F3000BB46B246A946A046F0BD01235B429A4675
:102F4000F3E701235B429A46EFE701235B429A468F
:102F5000EBE702235B429A46E7E7F0B5D6464746E1
:102F600080B58FB005000F001400019298462E2303
:102F700002AA944663446E221A70643A00210BA898
:102F80000AF082F90A22002108A80AF07DF90A2233
:102F9000002105A80AF078F90A22002102A80AF007
:102FA00073F9022F4BD0032F24D0012F00D08FE0D4
:102FB0000BAB5A221A7068884146FFF7F1FD08AB47
:102FC000187005AB64221A70A888FFF76DFE02AB7B
:102FD00018700023237043463A0008A90BA8FFF796
:102FE0004CFF061E00D16BE030000FB0C0BCBA46EB
:102FF000B046F0BDEE68002E6CD0AB68002B6CD0F4
:10300000002416E022005A320BAB1A55AB68670059
:10301000D85B4146FFF7C4FD08AB18552200643267
:1030200005AB1A55F05BFFF73FFE02AB18550134B4
:10303000E4B22F7CA742E5D8019B1F70CBE7EB6879
:103040009A46002B4CD0AB68002B4CD06B8A002BDF
:1030500002D00026002417E00326FBE722005A32A4
:103060000BAB1A55AB686700D85B4146FFF798FD7C
:1030700008AB18552200643205AB1A555346DB5D88
:1030800002AA13550134E4B22B7CA342E6D8019A7C
:1030900013702F7C688AFFF7A5FE2F2302AA94469F
:1030A00063441870002E9FD1434601222F216144B2
:1030B0002E206044FFF7E1FE061E00D094E78AE769
:1030C00043463A0002A905A8FFF7D7FE06008BE7A2
:1030D000012689E70126764286E70126764283E7C4
:1030E0000126764280E7012676427DE7F8B5CE4696
:1030F000474680B507000E0090461C001800FFF7F9
:10310000E6FD051E1FD1002E20D0237B002B0FD003
:10311000236C99466368424631003800C8474C2307
:10312000E054002815D12800C0BCB946B046F8BD0F
:1031300021003800FFF7E4FD051EE9D180235B4242
:103140001F43FFB2E4E701256D42ECE701256D4224
:10315000E9E702256D42E6E710B582B004006B4650
:10316000D91D00230B7003000122F020FFF7BEFFE2
:10317000002803D16B4607331B78A36002B010BD53
:1031800070B58CB004000300172201A98A20FFF754
:10319000ADFF002800D176E0002872D101AB2022DB
:1031A000995CDA7F09020A43E28359781A780902A6
:1031B0000A43228402229A562226A25559791A7964
:1031C00009020A43A284D9799A7909020A43E2845E
:1031D000082159562822A154D97A9A7A09020A4319
:1031E0006285597B1A7B09020A43A2850F21595631
:1031F0002E22A1540E2159560132A154D97C9A7C19
:1032000009020A432286597D1A7D09020A43628611
:10321000997D3422A1545D7E1A7E0F2111402D012B
:1032200029432182D97D090112090A4362821A22A7
:103230009A5622751B229A5662751C229A56A275BE
:103240005A7FE2751E229A56227623229A56627679
:10325000995D21229A5C09020A43628324229A56CC
:1032600022772722995C09320A4012113C216254CC
:10327000252299561832A154143A9B561B11153227
:10328000A3540CB070BD23000E221B216944E13011
:10329000FFF72CFF0028F4D12300052229216944DF
:1032A000FFF724FF78E70000F0B5DE4657464E46AC
:1032B0004546E0B58BB082460C00914611220021B4
:1032C00005A809F0E1FF0526002510E01F32134094
:1032D00062461A431300227005AA117C10220A408C
:1032E000134323705BE0002D66D0013EF6B2002E42
:1032F00000D1A2E0002D00D09FE0534618015044B9
:103300001D30C0B24B46112205A9FFF7EFFE0500A4
:10331000002C00D18FE005AB18787F22010091438B
:103320008C4621700F22104060705978A1709978F6
:103330000903DF783F0139431F793F093943009181
:10334000597909039F793F013943DF793F093943AF
:103350000191197A09025F7A39438B465F7BBF007E
:10336000997B8A093A430292DF7BBF001B7C9A0952
:1033700017430F220A4003920F221A4090464A46F2
:103380009268012AA2D020230B4062461A43130000
:10339000227005AA917B10220A4013432370002358
:1033A000E356002B9FDB002D9FD14B469B6C4A467A
:1033B00051682648984798E7E11C5A304B4601224D
:1033C000FFF794FE051E1BD0002D8ED149460198B3
:1033D000FFF798F9A06049460098FFF7DDF9E06033
:1033E00049465846FFF7C0FA20614B469B68012BBF
:1033F0001BD04A4603990298FFF74AFB60611CE024
:103400006078211D5030C0B24B460122FFF76EFE9E
:10341000051E00D069E76078611D6430C0B24B467C
:103420000122FFF763FE0500CEE741463800FFF7B3
:1034300097FB606101E001256D4228000BB0F0BCF4
:10344000BB46B246A946A046F0BDC04610270000C4
:10345000F0B5DE4657464E464546E0B59FB00400FF
:10346000069089463322002111A809F00DFF1E2283
:10347000002109A809F008FF2368002B0BD04B4658
:10348000332211A91D20FFF731FE019000280DD035
:1034900000231D0057E06368002BF0D1069B9B685A
:1034A000002BECD101235B420193F1E74B461E2236
:1034B00009A95020FFF71AFE0190E9E721688A4622
:1034C00009782020024011435246117021680A7881
:1034D00011A8C35C9C4610236046034013430B7045
:1034E0002368597809AA515C197121684B780A330D
:1034F000D35CCB7021684B781433D35C4B71236859
:103500009A4649460398FFF7FDF8534698602368AA
:103510009A4649460298FFF73FF95346D860266815
:1035200049463800FFF720FA30614B469B68012B73
:1035300000D185E024684A4605990498FFF7A8FA67
:1035400060610135EDB2022D00D980E0019B002BB6
:103550007DD12B01EB18DBB211AAD15CAC0006982F
:103560008446644420687F26B1430170D05C26689D
:103570000F21084070705E1C2068965D8670981C54
:10358000165C3603D81C105C00010643181D105C45
:10359000000906430296581D105C00039F1DD75D6D
:1035A0003F013843DF1DD75D3F09384303901F00BB
:1035B0000837D75D3F02092084469C446046105C72
:1035C00007430D2084469C446046105C800084467E
:1035D0000E2083469B445846105C824680098046F4
:1035E00060464646304304900F2084469C44604623
:1035F000105C800084461033D25C9009804660469F
:103600004646304380465046084005901140079199
:1036100049468968012900D150E721680B782022AA
:103620005046024013430B702268137811A9584684
:10363000095C8C461021604601400B4313704FE734
:10364000246807994046FFF78BFA606179E7019893
:103650001FB0F0BCBB46B246A946A046F0BD000074
:1036600030B583B005006B46E022DA716B462A3A2A
:103670009A71FFF72CFB041E04D12B7B002B04D086
:10368000002C07D0200003B030BD2800FFF772FBEC
:103690000400F5E72B000122694606316846073031
:1036A000FFF7EBFB041EEDD1AB6C6968044898474B
:1036B0002B7B002BE6D12800FFF75CFB0400E1E741
:1036C0001027000010B50400FFF7CAFF23000122F5
:1036D0002100D020FFF70AFD002807D12378612BB5
:1036E00009D12000FFF738FD002800D010BD2000D0
:1036F000FFF746FDFAE703204042F7E710B582B036
:1037000004000B00052269467120FFF7EFFC002C36
:1037100020D0002819D16B465A7807231A4022700E
:103720006A46127992101A40E2706A46D2785109BC
:10373000617092101340A3706B461B785BB2002B34
:1037400005DB6B461B795B09237102B010BD0823B2
:103750002371FAE701204042F7E70000F0B583B09B
:1037600007000D006B4674229A71002603E0002EBC
:1037700022D0002C20D12B00012269460731742071
:10378000FFF7B4FC041EF2D16B46DA7903231E0066
:103790001640134210D06B46D91D03239A430A707A
:1037A0002B00012268460630FFF767FB0400AB6C74
:1037B00069680E489847DAE7002F01D0002C02D044
:1037C000200003B0F0BD6B46DB79032293433A40FF
:1037D00013436A46D3712B000122694607316846BC
:1037E0000630FFF74AFB0400EAE7C0461027000056
:1037F00030B583B004000B0000280CD06A46D51DFC
:10380000012229007420FFF771FC2A78032313405A
:10381000237003B030BD01204042FAE7F0B585B017
:1038200005000C004D4B1A6802921A7902AB1A710E
:1038300005220021684609F027FD21000F20684479
:10384000FFF7D6FF00280ED0002D00D17EE0002823
:103850000DD00F236B441B78002B02D0002800D121
:1038600077E005B0F0BD2100FFF778FFECE702AB91
:103870001878230005226946FFF738FC4D23002203
:10388000E254002851D00028E3D1A81C22000521D1
:10389000FFF78DFA0028DCD1220005212800FFF770
:1038A00086FA0028D5D1281D22000821FFF77FFACB
:1038B0000028CED16B461A79EB789B001C261C2180
:1038C0000B40B2431A436B461A71DF7868781F23A6
:1038D0003B4040010343DBB26846C370A8788000D8
:1038E0000140B3430B436946CB704B7828780721DE
:1038F0008B4301400B4369464B702979082922D03C
:1039000000201F23134049010B436A4613711278AC
:103910007F231340C00103436A461370230005222E
:10392000694602A8FFF7A9FA93E7E81C22000721DD
:10393000FFF73DFA002800D08BE7681C2200052124
:10394000FFF735FA9FE701200021DAE70120404226
:103950007FE721001800FFF701FF82E7E46E011006
:1039600070B582B006000C0015001C4B1A6800925E
:103970009B886A46938000292AD0481C2A0005218A
:10398000FFF715FA002814D0002824D163786A467E
:10399000D25CA3786946CB5C9B1822788A5CD218EB
:1039A0000F4B53430F4A9818022E12D00E4A981804
:1039B0000FE0A01C2A000521FFF7F9F9002801D02B
:1039C000002006E02A0005212000FFF7F0F9DBE7E0
:1039D000002002B070BD0020FBE7C0466C6F0110F4
:1039E000AB070000C5100000AD140000F0B5D646CE
:1039F0004F464646C0B596B004008A461600984623
:103A00000C22002113A809F03FFC01AD482200213F
:103A1000280009F039FC139507AB14930DAB1593EF
:103A20004046FFF754F9002800D079E05346002BB8
:103A300000D179E0012C11D0023CE4B2012C1DD957
:103A4000002401239846002E00D171E034704046D6
:103A500016B0E0BCBA46B146A846F0BD4246514653
:103A6000FFF722FC8046002858D153461B785BB2F2
:103A7000002BE8DB002402239846E4E7414613A824
:103A8000FFF7E6FC80460024002301E00133DBB2AF
:103A9000022B25D84246002A09D19A0013A9525870
:103AA000127852B2002AF1DA0134E4B2EEE70025CE
:103AB0000CE013AA49462800FFF7BDF94B46013335
:103AC000DBB299464B46022BF3D93D00012D0BD8B2
:103AD0004346002B06D16B1CDBB21F009946F1E771
:103AE0000025F3E7002100E00021022911D8434618
:103AF000002B0ED18A0013ABD3584D006D18ED008A
:103B000055442A00A1CBA1C2A1CBA1C20131C9B2A7
:103B1000EBE7002C97D10223984694E7002492E724
:103B200001235B42984692E701235B4298468EE769
:103B300001235B4298468AE770B582B005000E000B
:103B400014006B460022DA71234B6A461380002969
:103B50003FD021000020FFF701FE002801D002B075
:103B600070BD23006A46073229003000FFF7F5F9DF
:103B70000028F4D12300022201A97030FFF7B6FA21
:103B80000028ECD13278012A1CD00022012001A9A2
:103B90000B78C0000825AB4303430B704B78684695
:103BA000C5790F208343284003434B701201302016
:103BB0000240834313434B70230002226846FFF701
:103BC0005CF9CCE7A368012B01D00020DFE70132CC
:103BD000DDE701204042C2E77071000030B50368A4
:103BE0000A68934204D049688B4207D0002030BD58
:103BF00045684C68A542F6D10120F8E743689A422F
:103C000001D00020F3E70120F1E730B5002306E002
:103C10009D00441922684D596A4022600133022BED
:103C2000F6DD30BD03681B0DE022D20013420FD039
:103C300043680A6893420DD08068496888420BD077
:103C40008B420BD0824201D0002002E0012000E034
:103C5000002070470120FCE70120FAE70120F8E787
:103C600082B0019001AB1B68002B03D08B42FAD1CC
:103C7000012000E0002002B07047283000E018006A
:103C80000368002B03D08B42F9D11B680360704797
:103C9000836A0B6081627047004870470100020030
:103CA00010B5FFF7F9FF000C10BD10B5FFF7F4FFDA
:103CB00080B210BDC36E0366704710B500238365E4
:103CC000C365FFF7F7FF10BD10B50400406D081A7B
:103CD000E16E401808F082FAA36D8B4208D9646E39
:103CE000C808235C07221140063A8A401343235434
:103CF000002010BD30B5CB001BD5194C03681A004D
:103D00004A40144217D09A059215013213D0144C30
:103D10000C40144D1D40144A2A4394420BD00C0D04
:103D2000E022D20022408025ED00AA4207D00020E8
:103D300004E00E4CE2E700230360012030BD890A55
:103D40008905890D9A0A9205920D8A4205D364B2BB
:103D5000A4021B1903600020F0E70020EEE7C04634
:103D600000FCFF7F00FC0F000000F04F00FC0F7014
:103D70008B059B1501335A4253415B189B059B0DE4
:103D800004330268D31803600020704710B5836EB7
:103D9000DB6A002B0ADD88680130591C01231943B6
:103DA00008F01CFA002903D0002000E0002010BD1C
:103DB0000120FCE710B5FFF760FF002010BD0B6B82
:103DC0009B0301D4C86A7047CB6A486B9842FAD209
:103DD0001800F8E7036B034A134049020B430363DF
:103DE0007047C046FFFDFFFF30B5036B0D4C23400D
:103DF0000D4CA1420FD08D020C4C2C432343036386
:103E0000094B994209D013684363074B994206D086
:103E10005368836330BD0024F0E70023F4E70023F8
:103E2000F7E7C046FF030080FF0300000000F04FEB
:103E300003680133036000207047000010B5C36EB3
:103E40008B4205D9806EC3689847002807DC10BDF7
:103E5000064B074A8A210748490006F097FF064BA0
:103E6000034A8B210348490006F090FF607001105F
:103E7000C87C0110746F0110A46F011010B5026BA3
:103E800093059C0D002B01D1002911DBFF235B0062
:103E90009C4201D9002911DC891801634B005B08A1
:103EA00089054A1E9141C9070B430363002010BDD9
:103EB000054B064A0648074906F068FF064B034AC9
:103EC0000348064906F062FFB06F0110987C0110AC
:103ED000746F0110D1120000E86F0110D2120000BF
:103EE00010B50C00CB68826E126BFF21180009F030
:103EF000CBF901235B42236010BDF8B50F000E68BB
:103F0000836E5C6A083C2100300008F067F9A64225
:103F100012D3013808F008F902308000301A21006D
:103F200008F05CF905004443341B08F0FDF88000FC
:103F3000241A3C602800F8BD0020FCE7F0B5DE46FE
:103F400057464E464546E0B587B080468B4617003B
:103F50000393109B9946119E139BF218836E5B6A24
:103F60009A4200D9E9E0C36E002B00D1E1E04B4555
:103F700000D8E5E04D4694E05B465C689B68E2183B
:103F8000B24224D9B44207D9A21B0492139B9A428D
:103F900000D892E0049390E0A21B99469144139BB1
:103FA000994500D999465B46D968341B09194A4698
:103FB000129809F06FF9129B4B4412934E44139BD5
:103FC0004A469B1A13936CE0139B049375E0139B72
:103FD000049372E07B68BA689918B14270D9B34211
:103FE00005D99B1B049A9A426AD9049368E0991BED
:103FF00091468944049A914500D99146F968F31A8B
:10400000C9184A46129809F045F9129B4B4412937D
:104010004E44139B4A469B1A139342E0129A524411
:1040200012925644059B049C1C1B139B9C46A44463
:104030006346139335E04346DB6E002B01D0AB4261
:104040006BD93D6043469B6ED969300008F0C6F8D5
:104050000491731A9A467B60039BF41843469B6E47
:104060009946D9696418013C200008F0B7F8641A31
:104070004B465B6AA34200D92300049A921B49462F
:10408000096BD2188A4200D90A00BA604346986E7A
:104090004468FB68009252462900A047002842DC91
:1040A00034D1139B002B46D05B46002B8CD01B6871
:1040B000AB4200D160E7139B04933B68AB4289D0CD
:1040C000139B039A9342B6D343469B6E9946DB6992
:1040D0009A461900300008F081F80029ABD1139BF3
:1040E0009A45A8D85146049C200008F077F805911D
:1040F000621A92464A465268140052460092129B37
:10410000320029004846A047002887D007B0F0BCFD
:10411000BB46B246A946A046F0BD0B4B0B4A0C4825
:104120006B2106F033FE0B4B084A0948762106F056
:104130002DFE4D46B5E70020E8E754204042E5E774
:1041400054204042E2E7C04620700110F07C01108C
:10415000746F0110A46F0110F0B5DE4657464E464D
:104160004546E0B589B080468A4691469B46CE6872
:104170000B6907933C30FFF755FD002800D182E022
:104180004B469B0A9B0500D17FE04346DB6B9B0AB5
:104190009B059B0D5A46920A9205920D934276D941
:1041A000002706E005975B46DB1B63404A461A4240
:1041B00045D0079CA505AD156B1C5A4253411B19F0
:1041C0009B059B0D1A000832B24262D80433F61ADE
:1041D00053461B680422039207AA02920196009399
:1041E0000423424600214046FFF7A8FE002852D192
:1041F000079B1BBA63405B005B0807934B469B0A17
:104200009B05CFD0220DE023DB0013408021C900A5
:104210008B42C7D1A10A8905890D05975B46DB1B37
:10422000980A8005800D8842BCD321491940214855
:104230000143A14236D052B29202BF18B2E7013513
:1042400033D0A3059B0D149D9D4200D91D005346FC
:104250001A68129BF3180395139902910433019382
:1042600000922B00424600214046FFF767FE0028DF
:1042700011D1149B5A1B139B5819002109F004F803
:10428000059B181907E0002793E7002791E70A4FDD
:104290008FE70220404209B0F0BCBB46B246A946B7
:1042A000A046F0BD02204042F5E702204042F2E77E
:1042B00000FC0F000000104000FCFFFF10B584B0B0
:1042C0009C05A40D0294069C019400240094FFF721
:1042D00043FF04B010BD000010B586B0140003AB5E
:1042E0000093084B084AFFF7E9FF002803DA831C14
:1042F00006D1002004E003A92000FFF786FC00207F
:1043000006B010BD0C00F07F0000F07FF0B5DE4677
:1043100057464E464546E0B589B081468A469346A3
:104320001C00139E149F129B002B07D1002009B084
:10433000F0BCBB46B246A946A046F0BD013B079380
:1043400007A9FFF7DAFD050021003800B047002873
:10435000EDD1002DEBD001232B409846022342469D
:104360009B1A9B00039305AA0292002201920094DB
:104370005A4651464846FFF7E1FD041ED7D10123B6
:10438000AB43A34208DDA30005AA99583800B04703
:104390000028CCD10134F2E79B0005AA9C58434683
:1043A000023BED18D0E770B586B00400006801004C
:1043B0001031836E5B6A156852680826039604AE56
:1043C0000296019200950200FFF7B8FD00280ED179
:1043D000049B62689A4208D0059DA1688D4204D072
:1043E0008B4202D0AA4200D00130431E984106B051
:1043F00070BD0000F0B5DE4657464E464546E0B576
:10440000ADB008900E0005921C00369B9B463AAB5F
:104410001B8899463BAB1B8806933CAB00229B5EF6
:104420009A46082200210BA808F02EFF00255F46BF
:10443000A3059B1501335A4253411B199B059B0D44
:104440000433059A90469844F36898455BD3379BAC
:10445000002B00DCF9E03B680D937B689B46083736
:10446000379B013B37930D98A64B389A1340399AE6
:1044700042401900114007911342D9D1389B9B0A41
:104480009B0500D108E1022D5FD80EAB98462A01AA
:10449000531B9B0041465E500992531B9B004344B3
:1044A000059A5A609C60DF60379A1A61389A5A619F
:1044B000399A9A614A469A83069ADA8352461A844E
:1044C0003D9A5A623E9A9A62D8625A461A630BAA79
:1044D000343303CA03C3099A521B92002832424460
:1044E000131D3E930135079B39933893864B3D93BB
:1044F00000239A46069399469AE7079D54465F46DD
:10450000B246464694E73368042203920DAA02920B
:104510004246019200930423089A00211000FFF7FD
:104520000DFD002800D0E5E00D9B1BBA6340802400
:1045300024061C430D9433680B93434604330C93B9
:10454000434605930BAB9B468DE7704B704A714811
:10455000714906F01BFC6C4B3D9A9A4200D167E70B
:104560002B0109935B1B9B000EAA904698443C22AA
:104570000021404608F088FE099B5B1B9B0006AAB1
:1045800020215218D6504346059A5A609C60DF603D
:10459000379A1A61389A5A61399A9A614A469A83C7
:1045A000069ADA8352461A843D9A5A623E9A9A6271
:1045B0000135079A93059B0D9946930A9B059B0D20
:1045C0004A46013206924A469B1A9BB253441BB29A
:1045D0009A465E4680239B053993504B38930023BF
:1045E0003793002701246442059321E700230795B0
:1045F0001D00B0465646A2465C46BB463D9F0D9BFD
:104600009A05920D95421AD26900491989006218DB
:10461000615CC02080008446614409059B0A9B05BB
:104620009B0DF3189B0219439368526819433E98F7
:10463000B84700285EDB00D05FE70135DFE7079D64
:1046400054465F46B2464646F2E60020002D51D061
:10465000013D0EAB2A01511B8900CE585B185A68E8
:1046600005929C68DF681A6937925A6938929A698C
:1046700039929A8B9146DA8B069220215A5E9246A5
:104680005A6A3D929A6A3E92DA6A0D921A6B934682
:104690000BAA343303CB03C2389B9B0A9B050AD079
:1046A0000D9B9B0A9B059B0D994500D9C0E6069A78
:1046B0009A4200D8BCE60D9B07931B0D5B055A0D73
:1046C000002B00D1B4E60223FF339A4200D142E727
:1046D00081235B009A4289D053469902079B9C46EE
:1046E00061445A463E983D9B9847002802DB00D122
:1046F0009EE6ABE72DB0F0BCBB46B246A946A0464D
:10470000F0BDC0460000F07FF53C00105070011075
:10471000687C0110746F0110B303000000FC0F608F
:10472000F0B5DE4657464E464546E0B585B0804674
:104730008B4692461D00119F139BFA18836E5B6A8D
:104740009A4255D9542040427DE053465A689B68AE
:10475000D118B94221D9BA4205D9D21B139B9A422A
:1047600050D91A004EE0D41B1C19139B9C4200D94F
:104770001C005346D968BA1A89182200129808F00A
:1047800089FD129B9C46A444634612933F19139BD8
:104790001B1B13932CE0139A34E0139A32E002238C
:1047A0005B422B6043469B6ED969380007F016FDCB
:1047B0007E1A6E600E9BFC1843469B6E9946D96923
:1047C0006418013C200007F009FD641A4B461B6B7E
:1047D000A34200D92300AB60EA68029301920096DD
:1047E000109B0F9A59464046FFF7B6FC00282ADB7B
:1047F000139B002B26D05346002BCCD01B680233D2
:10480000A3D0139A2B680233C9D16B68AC6819190D
:10481000B942C4D9BB42C2D8D91B6418944200D94A
:104820001400E968FB1AC9182200129808F032FD3A
:10483000129B9C46A444634612933F19139B1B1B77
:104840001393D5E7002005B0F0BCBB46B246A9469D
:10485000A046F0BDF0B5DE4657464E464546E0B5AB
:1048600087B0894690461F00109B9B46139E0024EC
:104870003B0007009A4619E053461B1B039504AA08
:104880000292119AA21801925A4600924246494653
:104890003800FFF753FB002816D1129B19192A0084
:1048A00004A810F08DFF002807D16419B4420AD281
:1048B000351B082DE0D90825DEE7002801DB0220A2
:1048C00002E0012000E0002007B0F0BCBB46B24689
:1048D000A946A046F0BD0000F0B5D646474680B5D3
:1048E00087B007000C00059204930E68F31C40D8B3
:1048F000C36E9E4231D28D68836E9A46196A6D18D6
:10490000013D280007F06AFC6D1A53469B689846E3
:10491000E3686268009531005046C047061E22DCFD
:10492000002827D1049B002B12D001235B42059A5B
:104930001360E3680395029363680193236800930F
:104940002B0000213800FFF785FF002818DB19D164
:1049500021003800FFF7C4FA0CE00C4B0C4A0D485C
:10496000B32106F013FA0C4B094A0A48B72106F0A6
:104970000DFA0026300007B0C0BCBA46B046F0BD04
:104980000600F7E754267642F4E7C0465870011057
:10499000AC7C0110746F0110A46F0110F0B5DE46FD
:1049A000474680B583B007000C00009201930A9B34
:1049B00098460B9D0D9E023302D0C36E43450AD923
:1049C000AB19BA6E526A934218D92D4B2D4A2E4814
:1049D000E92106F0DBF92D4B2A4A2B48E82106F0A5
:1049E000D5F901333ED143462360BB6E196A2800D6
:1049F00007F0F4FB691A61600023A360002E38D031
:104A000023684345EDD16268AA42EAD8B96E096BC2
:104A10005018A842E5D9531B8B469B44B34500D997
:104A2000B346E068AA1A80185A460C9908F032FC7E
:104A30000C9B5B440C935D445B46F61A6268AA1AB1
:104A4000A368934200D21300A360BA6E126B9A421D
:104A5000D4D1019B009A21003800FFF73DFF0028C8
:104A600008D1CBE70A4B074A83210748490006F0E3
:104A70008DF9002003B0C0BCBB46B046F0BDC046B7
:104A8000B4700110BC7C0110746F01107C700110B7
:104A9000D870011010B504000120404210602000C1
:104AA000FFF71AFF002804D1A06E03699847002879
:104AB00000DC10BD024B034A0348DD2106F066F915
:104AC000A46F01105C7C0110746F011070B584B08C
:104AD00006001500006889058C0DB368A34200D953
:104AE00023002A6869680393756802950191009212
:104AF00002000021FFF7AEFE002804D1B368A342F4
:104B000001D002D2013004B070BD0220FBE7F0B545
:104B1000CE46474680B589B0070088469146059342
:104B2000109B002B0BD1013B129A13600023139AA8
:104B30001360002009B0C0BCB946B046F0BD109B60
:104B4000013B079307A9FFF7D8F9050011A9380021
:104B5000FFF7D3F9060012E00423039305AB029399
:104B6000A3000193059B009304234A464146380065
:104B7000FFF7E4F90028DDD10123A340ED1AB54287
:104B80000BD9A81B07F0C4FA1F24241A280007F029
:104B9000C5FA8442E0D90400DEE7059B129A13604F
:104BA000119B139A13600020C4E70000F0B5CE46B5
:104BB000474680B589B080460C0017004A6BC96A29
:104BC0008A426DD28A1A91469A4200D999464E4637
:104BD00037E0DB0241D502235B42A363636BE363EF
:104BE000226B8023DB021343236343469B6E5B6A85
:104BF000E06B1D1AB54200D93500226BD2023FD5B9
:104C000021000831A2889202944622004032079285
:104C10000595049703902548624610430290244866
:104C200001900093079B00224046FFF779FD002882
:104C300037D1636B5B196363E36B5B19E3637F19C4
:104C4000761B002E2AD0236B5A03C2D5E16B424655
:104C5000926E526A9142C8D1BBE7A36A22004032E9
:104C600021003C31039104390291616B0191E16AA9
:104C7000009100214046FFF74AFF0028B0D010E025
:104C800022004032039502970190A16B0091002110
:104C90004046FFF753F90028CBD002E0484600E039
:104CA000002009B0C0BCB946B046F0BD00001020DD
:104CB00000FCF7FFF0B5DE4657464E464546E0B5E8
:104CC00087B083468A4691469846129E139F0024D9
:104CD00017E043461B1B039504AA0292119AA218DF
:104CE0000192109A00924A4651465846FFF726F91B
:104CF00000280ED138682A0004A903F053FC38605C
:104D00006419B44204D2351B082DE2D90825E0E726
:104D1000002007B0F0BCBB46B246A946A046F0BD95
:104D2000F0B5DE4657464E464546E0B597B005001D
:104D30000E0092460693C36E002B08D01268934271
:104D400000D879E252465268934200D878E20023B4
:104D50001293139300279846A9460DE0791CC80FBB
:104D6000091801230B401B1A9B0012A95B58D21A89
:104D7000002A00DDB8460137012F18DCBC0012AD57
:104D80002B190422039202930023019353461B59CB
:104D9000009304234A4600214846FFF7CFF86259A2
:104DA0000028DBD003005433E5D083463CE24D4677
:104DB0004346D90F5B1801221340591A8900534604
:104DC000CB58336043460133D80F1B181A40131ACF
:104DD00099469B0052469B58736012ABCB58B36008
:104DE0000023F3609A46013B9B46B0465346012B95
:104DF00000DD0BE20EAAA14B11CB11C241460831D6
:104E000001277F420422380003F0CCFB0B905B4665
:104E100007930023089309930593002644463DE138
:104E2000A0460300543301D1002322E08346FBE176
:104E3000A0463B0DF022D2001340914A94466344B1
:104E40005A425341DBB214E0042203920DAA0292AB
:104E5000321D0192226800922A0000212800FFF7EB
:104E60006DF800284DD10D9A0B9B9A424FD0A04669
:104E700000234246D468002C00D18AE14646002235
:104E8000B275002B0AD0AF6E396A200007F0A6F980
:104E9000002903D1089B002B00D088E128003C307A
:104EA0003100FEF7BFFE00280FD0EB6B9B0A9BB2D0
:104EB00059468A0A92B210005840800500D093E10A
:104EC00080231B065A461A439346219B002B09D088
:104ED0005B469B0A9B05B28A9B0D934200D9130047
:104EE000219A13805B46002B00DB9DE19B0A9B050A
:104EF0009B0DB28A9A4200D885E102235B429B4611
:104F000092E1A04603005433B2D083468CE10C9F5B
:104F10003F0DFF0743467B401F00E86A04220BA9B0
:104F200003F040FBE8620C9A93059B15013359424C
:104F30004B419B189B059B0D04339B19E360276134
:104F4000059BA3820E9BA3610F9BE361099BE37505
:104F500001235B420B93079B9B469FE0A046030007
:104F6000543301D1002384E783465DE18021C900E9
:104F700088421FD0C023DB00984242D05205520D18
:104F8000404B9A4200D0E9E0AB6E5B6A0822039284
:104F900010AA02920197226800922A00002128009C
:104FA000FEF7CCFF002848D0543000D1EEE00123BA
:104FB0000893D3E052B291B205988446614489B215
:104FC0000591314807990840304901438B4212D07E
:104FD0000798411C00D1C1E09B0A9B059B0D810AEB
:104FE0008905890D994200D2B8E092028446944422
:104FF00063460793B2E080231B06079A1A43079281
:10500000ACE001231A400992AB6E5B6A082203925E
:105010000EAA02920197226800922A00002128001D
:10502000FEF78CFF002800D198E0A046030054331F
:1050300001D100231DE78346F6E0012308938DE0AC
:10504000A0460300543301D1002312E78346EBE06E
:105050000C9B079F3A005F400D490F421AD002286F
:105060001BD1990A8905890D920A9205920D8A42EF
:1050700013D3802212061A4307920EE0147D01100A
:1050800000FBFFFFFF05000000FC0F000000F04FD9
:1050900000FCFF7F01235B4207934746BB059B153E
:1050A00001335A425341DB199B059B0D0433F6181B
:1050B000AB6E5B6A042203920CAA029201962268EC
:1050C00000922A0000212800FEF738FF002800D0B7
:1050D000A6E60B9804220CA903F064FA0B900C9B33
:1050E0001BBA7B4098460C9300D5A1E69A05921511
:1050F000013253425A4142449205920D111D7118DA
:10510000AB6E5B6A99423ED84146090DF020C00063
:105110000140A020C000814200D195E6371D0BA9B7
:10512000039102920197226800922A000021280030
:10513000FFF7C0FD002800D010E70C9B1A0DE021FE
:10514000C900100008400A4200D00FE79B0A9B05E7
:105150009B0D059A9A4201D8013305930C99209B27
:105160004B40069A1A4298D123681493159714AAB3
:105170002398229B9847002800DA61E700D067E770
:105180000C9B079389E7A046002372E6A046002304
:105190006FE61368526841460A604B604B469B00BD
:1051A00012AA9B588B6001239C46E2441EE6012311
:1051B0005B420D937B6A0DAA0392109A02920194AE
:1051C000326800922A002800FFF774FD002804D0FE
:1051D0000300543301D0834626E0119A0D9B9B1A9D
:1051E0005A425341B37559E65846013000D16CE636
:1051F0009B059B0D9205920D9A4200D865E6124BD5
:105200009B468B4461E600239B460DE0464633688F
:105210000E490F480F4A0192726800920E4A08F038
:105220003FFA54235B429B46584617B0F0BCBB463E
:10523000B246A946A046F0BD54235B429B46F3E725
:1052400054235B429B46EFE700FCFFFF746F0110A5
:10525000FC7001100064011056050000F0B5D64640
:105260004F464646C0B58AB007000E001400002322
:1052700093610133D36105AA284B21CB21C20123BD
:105280009846012539E0264B26492748274A08F049
:1052900007FA542040423BE053460593E3690693E6
:1052A00043465B00984600250FE0012300E0012300
:1052B000002B2BD118239946A14405A94846FEF797
:1052C0008DFC0028DFD14545E6D0013507AB0797B7
:1052D00032680892726809920393154B0293002377
:1052E0000193144B0093144B4A4621003800FFF7FA
:1052F00017FD002801D0831C0AD1A3699A46013307
:10530000D5D0E3690133D0D00023D1E70220404259
:105310000AB0E0BCBA46B146A846F0BD147D011003
:1053200000640110746F011034710110B01200009C
:10533000A743001008000020FF03F07F10B584B0E1
:1053400001235B4200240394029401940093FFF72D
:10535000E7FC04B010BD0000F0B5DE4657464E46EF
:105360004546E0B593B005000E000592994620220F
:1053700000210AA807F088FF0123119308AA624BB5
:1053800011CB11C201239B460127109C631C00D145
:1053900080E0119B013300D17AE00023002B00D084
:1053A0007AE008A910A8FEF719FC00280FD15F4584
:1053B00016D001370024012C1ADCA31D9B000AAA79
:1053C00099580598B04700281ED10134F3E74F4B98
:1053D0004F495048504A08F063F95420404213E0C6
:1053E0000894119B09935B465B009B460027E0E70E
:1053F00010AA0AA92800FFF7A1FF8246002803D1BE
:10540000002417E0831C13D013B0F0BCBB46B24697
:10541000A946A046F0BD069B059A02920196079AFE
:1054200000922A0000212800FEF770FF0028EBD12F
:105430000134A4B20AAB9B8AA342A6D9A202374B7D
:10544000134306AA0092364A0AA92800FEF736FF3F
:105450000028D7DB000D4005400D324B9842DAD0D2
:105460004B46002BE4D080239B009842E0D1D046ED
:1054700002E001239C46E0444346012BD8DC43462E
:105480009B0006AAD1580598B0470028F1D0BBE789
:10549000012383E7012381E7AC6A0FE0210040315B
:1054A000A36A059A02920196E26A00922A002800F5
:1054B000FEF72CFF00280ED0A6E72468002C21D090
:1054C000A379012BF9D1236B882252031340802248
:1054D00052029342E2D0236B902252031340802267
:1054E00092029342E9D121004031A36B059A0292C6
:1054F0000196626B00922A002800FEF707FF002841
:10550000DBD081E700207FE7147D011000640110EB
:10551000746F011034710110111200000800002096
:1055200000FC0F700202000070B50400406DE36DD6
:10553000C018E16E06F052FE61650023E365A26EBD
:10554000536B216EDB008B4200D90B00A365606EAC
:10555000526B002107F098FE06490123220020002B
:10556000FFF7FAFE051E01D1280070BD2000FEF7EE
:10557000A4FBF9E7C93C001030B583B004000D006E
:10558000E36DA26D934226D2616EDA088A5C072031
:105590001840C240D20705D50133E365236E013BB5
:1055A0002366EDE7606DC018E16E06F017FE296016
:1055B000E36D0133E365226E013A2266A26D9342E8
:1055C00024D2616EDA088A5C07210B40DA40D207E8
:1055D000EED400201BE0226E002A05D02000FFF749
:1055E000A3FF0028CCD012E0606D1818A36E996A52
:1055F00006F0F4FD0B00074C0748084A0092084AE1
:10560000210008F04DF81C20404200E0002003B0CB
:1056100030BDC046746F011060710110006401104C
:10562000B102000070B584B006000C000025012D09
:105630000DDC0135EB0FEA1801211140C91A890070
:1056400061183000FFF798FF0028F0D02FE000230A
:10565000A36022000832042103910292019323687F
:1056600000930423320000213000FEF767FCA56898
:10567000002802D00300543319D1B26ED16A002938
:1056800009DD0131012211436D18013D280006F0AA
:10569000A5FD6D1AA5600423E360053B236100228C
:1056A000A282A361E3610023A375E375002004B027
:1056B00070BD0000F0B5C64600B58AB005000E000A
:1056C0005BE031004031131B012203921A3202A821
:1056D0008446624402920194B26B00922A00280030
:1056E000FEF72CFC002858D1290010310123039328
:1056F0001A3302AA9446634402930194099B0093CF
:1057000001232A002800FFF749F9002827D1013496
:10571000F26BA24247D9336BDB02D2D5310008319C
:10572000B3889B029C4633004033079301200590C9
:105730001A3002AB984640440490039428486346CC
:105740001843029027480190121B0092079B0022E9
:105750002800FEF7E5FF0028C6D007003BE0030065
:1057600054331CD1099B20492048214A0092214AE8
:1057700007F096FF01235B422B6109A92800FFF780
:10578000FBFE071E27D109992800FEF757FB071ECD
:1057900007D003005433E5D01DE007001BE00700ED
:1057A00019E00024B4E7F06CE969AB6E1A6B07F0FE
:1057B00071FD2B6933646B697364AB69B364290051
:1057C00010312800FEF78CFB099BB363326B8023FA
:1057D0009B021343336338000AB080BCB846F0BD67
:1057E0000000102000FCF7FF746F01108C71011095
:1057F00000640110D60C000070B505000C004B6B66
:10580000CB63FEF757FA21002800FFF753FF00286B
:1058100003D1236B014A1340236370BDFFFFEFFFE9
:10582000F0B5DE4657464E464546E0B58BB004001F
:105830008846150099464EE0149B002B33D0149BEC
:10584000013B089308A92000FEF757FB089B013392
:105850000893A26E526A93425ED000274B46B1462F
:105860001E00089BBB4248D9DB1B0122039209AAF8
:105870000292019700962A0000212000FEF75EFBAD
:10588000002838D10123039309AB02930197079BAA
:10589000009301232A0041462000FFF77FF80028EB
:1058A00008D10137DDE7079B159A13600023169A8C
:1058B000136029E0B146030054331CD1079BBA2280
:1058C00038493948394E0096120107F0E9FE0123A4
:1058D0005B424246136007A92000FFF74DFE061EFB
:1058E00012D107992000FEF7A9FA061EA4D00300E2
:1058F0005433E3D008E0060006E04E46079B159AB5
:105900001360089B169A136030000BB0F0BCBB46C6
:10591000B246A946A046F0BD013006F0FFFB824624
:10592000431C9B464B46099300270593B1462E0026
:10593000250009E02C003500059B994603005433EF
:10594000BCD00600E0E701375F4522D2BC0004234B
:10595000039309AB02930194079B00930123320048
:1059600041462800FFF71AF8099B0028E2D1574565
:10597000E9D00422039209AA02920194009304231D
:10598000320000212800FEF7D9FA0028DBD00600FB
:10599000BAE74E46079B159A13605B469B00169A22
:1059A0001360B1E7746F01108C7101100064011075
:1059B000F0B5C64600B588B006000C001500190009
:1059C0000593236BDB0209D5636BE26A8C46634463
:1059D000934200D21300F26F9A4231D3059B98464E
:1059E0004346002B00D19DE0236B802292021900D8
:1059F0001140134204D0E06BB26E526A904255D10E
:105A0000DB0249D4002902D1626B002A24D1300084
:105A1000FEF750F9A36B2100403122003C32029284
:105A2000043A0192626B009232003000FFF7F8FEF8
:105A3000002836D0226B80231B03134323635FE0CF
:105A400021003000FFF7D8FE0028C7D0226B80234A
:105A50001B031343236353E027004037A36AE16A23
:105A60000020079007A80390200038300290013AE8
:105A7000019200913A0000213000FFF748F8002819
:105A800004D139003000FEF72BFAC0E7226B8023E7
:105A90001B031343236333E002235B42A363636B63
:105AA000E363226B80239B0213432363B36E5F6A1D
:105AB000E36BFF1A474500D9474621004031039761
:105AC0000295E36B0193A36B009301233200300036
:105AD000FEF764FF002817D0030054330BD12100D8
