:020000041000EA
:1000000000B5324B212058609868022188439860DF
:10001000D860186158612E4B002199600221596106
:100020000121F02299502B49196001219960352056
:1000300000F044F80222904214D00621196600F024
:1000400034F8196E01211966002018661A6600F04E
:100050002CF8196E196E196E052000F02FF8012189
:100060000842F9D1002199601B49196000215960AB
:100070001A491B48016001219960EB211966A021F2
:10008000196600F012F800219960164914480160C1
:100090000121996001BC002800D000471248134993
:1000A000086003C880F30888084703B5996A0420EC
:1000B0000142FBD001200142F8D103BD02B5186610
:1000C0001866FFF7F2FF186E186E02BD00000240BE
:1000D000000000180000070000035F00212200005C
:1000E000F4000018222000A00001001008ED00E03C
:1000F00000000000000000000000000074B24E7A12
:1001000000200420F7010010C3010010C5010010F9
:10011000C1010010C1010010C1010010C101001097
:10012000C1010010C1010010C1010010C701001081
:10013000C1010010C1010010C9010010CB01001065
:10014000CD010010CD010010CD010010CD01001037
:10015000CD010010CD010010CD010010CD01001027
:10016000CD010010CD010010CD010010CD01001017
:10017000CD010010CD010010CD010010CD01001007
:10018000CD010010CD010010CD010010CD010010F7
:10019000CD010010CD010010CD010010CD010010E7
:1001A000CD010010CD010010CD010010CD010010D7
:1001B000CD010010CD010010CD010010CD010010C7
:1001C00000BE00BE00BE00BE00BE00BEEFF3058054
:1001D000103800BEF2EB8871D06C0110F86C011081
:1001E0003402001090A31AE700201F49086006C8D7
:1001F00081F3088810471D48006800282FD10DA4FE
:100200000ECC002902D000F012F8F9E71849194A7B
:10021000002000E001C19142FCD1174988471749ED
:1002200088471749884700BEFDE701C901C29A42C5
:10023000FBD37047F86C0110C0000020741300203D
:10024000AC7F01100000042000000420AC7F0110EE
:10025000001004200010042000000000704709482E
:100260000AF080FE0047000008ED00E0000000D02A
:1002700078130020DC280220119C00102D070010AC
:10028000D19B00105756000006005250ABB360538C
:100290002455011006005250861C03023C550110E3
:1002A000060052505422A29D4455011005005250A0
:1002B000DE65F468AC7F0110F8B5C0460448054B14
:1002C00010B5834203D0044B002B00D0984710BDDB
:1002D0007413002074130020000000000648074932
:1002E000091A8B10C90FC91810B5491003D0044B57
:1002F000002B00D0984710BD741300207413002009
:100300000000000010B5074C2378002B09D1FFF73F
:10031000D5FF054B002B02D0044800E000BF0123AD
:10032000237010BD3015002000000000082C0110C3
:10033000054B10B5002B03D00449054800E000BF71
:10034000FFF7CCFF10BDC0460000000034150020B0
:10035000082C0110002070470020704710B50400E1
:10036000202200210BF06EFE200010BD10B50348C6
:1003700000210CF055F800BE10BDC046082C01103D
:1003800010B5034800210CF04BF8FFF7EFFF10BD4C
:100390002C2C011010B58AB0040010F013FD099048
:1003A000206803685B68984721680B689B6868460B
:1003B0009847A368186800230A2269460FF0E2FEF6
:1003C000218A09A810F078FEEAE7000010B50A00BB
:1003D000034800210CF024F8FFF7C8FF10BDC04609
:1003E000442C011070B505000C0007F021FC200022
:1003F00007F01EFC0321280007F01AFB0321200050
:1004000007F016FB00220121280007F029FB00223B
:100410000121200007F024FB024803490EF0DEFD15
:1004200070BDC046F80D0020A086010070B5040024
:100430000022082102200FF05DFE20600022102122
:1004400004200FF057FE6060002202210A200FF006
:1004500051FEA0600022042102200FF04BFE20611B
:100460000022202103200FF045FEE060992080004B
:100470000BF0F4FD050000230370982292008350D6
:1004800000F098FE6561200070BD0000F0B5C64622
:1004900000B504008846164B036000250571154B16
:1004A000036077270773144B036070200BF0D6FDB1
:1004B0000600702200210BF0C5FD6C23F754266165
:1004C00000236361A361E36123622423E5540133C4
:1004D000E554A5620733E5544346002B03D12000C1
:1004E00080BCB846F0BD0321200000F005FCF6E713
:1004F0002C2D0110402D0110D831011070B5244869
:100500000BF05EFF05210420FFF76CFF0EF0D0FD1D
:1005100018200BF0A3FD0400012100F077FA1D4B19
:100520001C6030200BF09AFD04000121FFF7AEFFA4
:10053000194B1C6010200BF091FD0400174E066053
:1005400000250571164B0360032100F07FFC154B5D
:100550001C600C200BF082FD040006600571124B3C
:100560000360032100F0F2FA104B1C6018200BF01E
:1005700075FD0400FFF75AFF0D4B1C600D480BF092
:100580001FFF0D4B186801210FF084FB70BDC046A2
:100590006C2C0110701E0020BC1C00202C2D0110A2
:1005A0000432011090220020582F0110B81C0020A6
:1005B000041E0020802C0110801E0020F0B5D646BD
:1005C0004F464646C0B59CB0FFF798FF17AD1422C2
:1005D000002128000BF036FD434B1893FE239B05AA
:1005E0009A461A93FA239B0099462B823F4B1B682D
:1005F00017933F4B98461B6819938026B6003D49D8
:100600003D4C16AB0193022700972B0032002000CF
:1006100010F0F0FA11AD1422002128000BF012FDA9
:10062000364B12938023DB051493FA235B002B8255
:10063000334B1B68119343461B68043313933149B2
:1006400010AB019300972B003200200010F0D2FA7B
:100650000BAD1422002128000BF0F4FC2A4B0C9364
:100660002A4B0E93C8232B82294B1B680B934346BE
:100670001B6808330D9327490AAB019300972B00A1
:100680003200200010F0B6FA05AD14220021280037
:100690000BF0D8FC204B0693534608934B462B8215
:1006A0001E4B1B68059343461B68103307931C4978
:1006B00004AB019300972B003200200010F09AFA4F
:1006C00080221849184803AB0193032300930023A9
:1006D000520110F08FFA002010F0C8FA1CB0E0BCF4
:1006E000BA46B146A846F0BDA42C0110701E0020E9
:1006F000041E0020AC2C011095030010B82C011032
:10070000BC1C0020C02C0110CC2C01100000A0400B
:1007100090220020D42C0110E82C0110B81C0020DD
:10072000F42C01100C2D0110E917001000B583B056
:100730000BF082FE0C490D2040420EF0F7FC0FF04A
:100740000CFA0A4B1860802209490A4800230193D9
:10075000043300930023D20010F04CFA10F0EEFAAC
:10076000002003B000BDC04681030010801E0020A1
:100770001C2D0110BD05001010B584B00A22002107
:1007800001A80BF05FFC002418E001AB00221A5511
:100790000A200BF0E1FD05E00A200BF0DDFD01ABC6
:1007A00000221A5501A811F097FA04B010BD002CD0
:1007B00017DD0E480BF034FE023C0134092CF1D851
:1007C000E3D00BF041FEC3B20D2BE5D00A2BE3D0F2
:1007D000082BECD001AA1355FF2318400BF0BCFDE9
:1007E000EBE707200BF0B8FD013CE6E74C2D0110CC
:1007F00010B5002905D0FA22920000230AF044FC2B
:1008000003E0FA2189000AF001FC10BD70B5040074
:100810000D00202200210BF015FC2B6923606B6971
:100820006360200070BD000010B5002B02DB026089
:10083000436010BD024B034A03483F2109F0CCF945
:10084000502D01106C2D0110A42D011010B50400C5
:1008500008F03CFC02000B002000FFF7E5FF200041
:1008600010BD000000B585B0017B0A4896239B00AF
:1008700001930023009301330F226A440EF0F9FB29
:10088000002804D00F236B44187805B000BDFF206A
:10089000FBE7C046F80D002070B505000E000024EF
:1008A00006E00A2008F0F3FA0A34A4B2322C0CD87D
:1008B0002800FFF7D7FF000605D5002EF1D00A204B
:1008C00010F056FCF0E7012000E0002070BD0000B1
:1008D000F0B5CE46474680B585B005000E000379D9
:1008E0009846002B07D000239846404605B0C0BC70
:1008F000B946B046F0BD642008F0C9FA03AB394AE6
:100900001188198092789A700B236B44AC221A706C
:10091000002405E034480BF053FD731EBB4255D84C
:100920002700B4425AD201343048320021000BF083
:1009300077FD2F480BF044FD297B2E4896239B0022
:1009400001930023009301330B226A440EF072FBE3
:10095000142008F09CFA00212800FFF79DFF0028D2
:10096000D8D025480BF02CFD297B224896239B00EC
:10097000019300230093033303AA0EF05BFB0021D5
:100980002800FFF789FF8146002808D02800FFF7DC
:1009900069FF030711D419480BF012FDBDE7124897
:1009A0000BF00EFDFA20C00008F071FA731EBB4276
:1009B000B6D913480BF004FDB2E7124B0100180042
:1009C0000BF02EFD01232B71C8468EE7FA20C000E4
:1009D00008F05DFA0A480BF0F3FCA1E70A480BF0B7
:1009E000EFFC82E7142F01103C2E0110E82D0110BE
:1009F0001C2E0110F80D00205C2E0110982E011005
:100A0000802E0110B82E0110F02E011010B5040038
:100A10000A4B036000230371094B036038230373FF
:100A2000084B0360002303614361002901D12000CA
:100A300010BD0321FFF74CFFF9E7C0462C2D011034
:100A4000402D0110242F0110F0B589B00400057964
:100A5000002D02D1280009B0F0BD2A4B1A88694642
:100A60008A839B788B77017B274896239B00019391
:100A700000230093033307AA0EF0DCFA01212000C3
:100A8000FFF70AFF051EE5D005AE217B1E48962321
:100A90009B00019300230093063332000EF0E9FA25
:100AA00072781202B37813431B01F1780F091F43C8
:100AB0000F220A401202337913431B027079184344
:100AC0000BF05BF911490BF01CF9D62189050BF0ED
:100AD00018F90F490BF0F5F8206138000BF04DF9CB
:100AE0000C490BF00EF9D62189050BF00AF960616B
:100AF00002A8FFF7ABFE02980399FFF779FEA0600A
:100B0000A8E7C046182F0110F80D00200000484348
:100B1000000048420000C84201207047024A1368A2
:100B2000013313607047C0464C15002070B50400B7
:100B3000054B1D6800221A60203200210BF082FA5A
:100B40002560200070BDC0464C15002010B503790B
:100B5000002B01D0002010BD0B480BF031FC06200B
:100B600007F066F8D0231B0640229A62002201217A
:100B7000062006F075FF054B01220421062006F031
:100B8000E3FF0120E7E7C046302F01101D0B0010E6
:100B900010B5002905D0FA22920000230AF074FA59
:100BA00003E0FA2189000AF031FA10BD70B50400A3
:100BB0000D00202200210BF045FA6B692360AB6920
:100BC0006360EB69A3602B6AE360200070BD0000E6
:100BD00010B5002B02DB0260436010BD024B034ADC
:100BE00003483F2108F0F8FF502D01106C2D011033
:100BF000A42D011010B5040008F068FA02000B00E3
:100C00002000FFF7E5FF200010BD000010B5531DC8
:100C1000D8B207281BD883000F48C3589F460F48F7
:100C20000BF0FEFB10BD0E480BF0FAFBFAE70D4887
:100C30000BF0F6FBF6E70C480BF0F2FBF2E70B4883
:100C40000BF0EEFBEEE70A480BF0EAFBEAE7094897
:100C50000BF0E6FBE6E7C04678300110642F011088
:100C6000842F0110B02F0110E02F0110043001106B
:100C7000283001105030011030B589B004000079DF
:100C8000002801D109B030BD6846FFF7B3FF0098D6
:100C90000199FFF77DFF0500206902A900F014FF0C
:100CA0000028EFD002AB049A6261059AE261069ACD
:100CB000A261079A226219782C22A1545978083A25
:100CC000A1549A782523E254A3685B1BA362D9E759
:100CD00010B5962164224900FFF7CEFF10BD30B554
:100CE00083B006AC247807AD2D7800690195009497
:100CF00000F070FE03B030BDF0B5D6464F46464614
:100D0000C0B582B007000E0003799946002B08D0C9
:100D100000239946484602B0E0BCBA46B146A84610
:100D2000F0BD0A2008F0B3F8002405E023480BF0DA
:100D300047FB731E434535D8A046A6423AD9013435
:100D40001F48320021000BF06BFB386900F07CFE7D
:100D5000051EEBD039690800503001F0FBFE8246D9
:100D6000386918495246FFF751FF5346002B03D00C
:100D700015480BF025FBDCE714480BF021FB144869
:100D80000BF01EFB0223019301240094033308227D
:100D900000213800FFF7A3FF0E480BF011FB3C7158
:100DA000A946B7E7FA20C00008F071F80A480BF02E
:100DB00007FBC1E709480BF003FBABE7CC300110A0
:100DC00098300110EC300110FC300110243101107A
:100DD000483101106C31011094310110AC31011017
:100DE00002000079002810D0084B1B68E021C901DF
:100DF0000B4007490B60074B04211960034B1B682C
:100E0000DB05FBD5014B5B689381704700C0044054
:100E100000D0044000E0044070B504000D00202222
:100E200000210BF00FF9AB892380200070BD10B5B5
:100E300004001F2106F0FCFD00220021200006F026
:100E40000FFE0021200006F0DBFE10BD10B50400EF
:100E50000EF02EF91A20FFF7EAFF01232371024852
:100E60000BF0AEFA012010BDE431011030B5084B93
:100E70001C685D68046045609C68DD688460C560CE
:100E80001C695D690461456121229B5C037630BD6C
:100E90007813002070B50400274B1B685E69310091
:100EA0005931FF3111F00EFC051E15D0224B1B6885
:100EB00058698D30FF30210006F00DFC831C14D0E2
:100EC000002817DB1D4821000BF0AAFA002D16D0D0
:100ED00000200FF0CBFE70BD83239B00F118300083
:100EE0008D30FF3006F068FCE0E7154821000BF07C
:100EF00097FAEBE7134821000BF092FAE6E70E4C65
:100F00002368586902005932FF328325AD00411928
:100F10008D30FF300C4B06F0F1FB23685869411906
:100F20008D30FF3006F06EFC236859695931FF316E
:100F300006480BF075FACBE7041E00205032011072
:100F4000103201103032011003050000803301100F
:100F500070B505000C0009480BF032FA084928006A
:100F60008D30FF3006F080FB002C02D1002CFDD12B
:100F700070BD04480BF024FAF8E7C0466432011053
:100F8000B00C00208C320110F8B53B4C2368586936
:100F90008326B60081198D30FF3006F00DFC2368E2
:100FA00058698D30FF3006F085FB236858690021B1
:100FB000FFF7CEFF2368586930498D30FF3006F0C7
:100FC00066FB2368586904232D4A011D8D30FF30CC
:100FD000FF3306F093FB236858699827BF00C219B6
:100FE000011D8D30FF30042306F034FC23685A695C
:100FF0000121D1515869011D8D30FF3006F086FC6A
:1010000023685869C219011D8D30FF30042306F092
:101010004FFC23685869011D8D30FF3006F0CCFB72
:1010200023685B69D95917480BF0FAF923685B69A3
:1010300018005930FF30DA59134909F053FF23687B
:10104000586902005932FF3281198D30FF300F4B41
:1010500006F054FB2368586981198D30FF3006F083
:10106000D1FB236859695931FF3109480BF0D8F990
:1010700000200FF0FBFDF8BD041E0020B00C002086
:1010800028330110343301106C33011003050000C4
:101090007433011070B50324002C15DBA000001977
:1010A000400001238340013B8B4201DD013CF3E71B
:1010B000002C0AD00325064BA400E3580A00024185
:1010C000044829000BF0ACF970BD0425F3E7C046D5
:1010D000D03701109433011030B5D1B004000A00AC
:1010E00005008D35FF3543A9280006F023FC0028B4
:1010F0000CD051B030BD13480BF092F9029920008A
:10110000FFF7C8FF104803A90BF08AF901AA43A909
:10111000280006F04CFC0028EBDB0DD001AB1B785F
:10112000012BE8D0022B03D008480BF079F9E5E752
:1011300007480BF075F9E1E743A9280006F024FC05
:10114000D7E7C0469C3301108C330110AC3301103B
:10115000A433011070B504008D30FF3006F03CFC64
:10116000050328000AF009FED62189050AF0C9FD09
:10117000061C0D480BF054F929002000FFF78AFFE8
:101180002F200BF0E9F8802149032000FFF782FFB0
:101190000649301C0AF0B5FD0AF050FE02000B00B3
:1011A00003480BF03DF970BDB43301100000C84294
:1011B000C4330110F0B5CE46474680B583B0040075
:1011C0004C480BF0FDF84C480BF0FAF801200FF0FA
:1011D000ABF84A4B186025008D35FF35484928008B
:1011E00006F055FA002800D06EE046480BF0E8F80B
:1011F0002300583344490B60002398468B60261D1A
:101200000433424A0091FF333100280006F0A4FA6B
:1012100098239B009946A14404234A4631002800A4
:1012200006F018FB9827BF00E3590133E351310062
:10123000280006F06BFB04234A463100280006F024
:1012400037FB3100280006F0B7FAE15930480BF0BF
:10125000E7F85536FF36E2592E49300009F042FED4
:1012600083239B00E7182C4B32003900280006F03E
:1012700045FA3900280006F0C5FA284831000BF07D
:10128000CFF827492000FFF727FF26480BF0C8F8C2
:101290002000FFF75FFF24480BF092F880222349DB
:1012A000234843460193023300930023D2000FF0FA
:1012B000A1FC20480BF084F801232370012003B027
:1012C000C0BCB946B046F0BD1B480BF079F81B48CE
:1012D0000BF076F81A4807F0DAFD1A480BF070F8B0
:1012E000074E3100280006F0BFF93100280006F053
:1012F000CEF97AE7D0330110E8330110841E0020C4
:10130000B00C002068340110501500202833011063
:10131000343301106C3301100305000074330110E5
:101320007C3401108034011090340110B03401106D
:1013300059150010C4340110083401102434011070
:1013400060EA00004C34011082B070B5049205933D
:1013500005008D35FF3583239B00C418AD3BFF3B53
:1013600004AA2100280006F0A3FA2100280006F0B4
:1013700049FA70BC08BC02B018470000F0B5DE4660
:1013800057464E464546E0B5C1B005000A00684BD9
:10139000190033A809F0A6FDC6235B009846A844AF
:1013A0008C3BFF3B33AA1EA9404606F0A7F9831CDD
:1013B00006D0002809DB5F4833A90BF031F887E03D
:1013C0005D4833A90BF02CF8ABE05C4833A90BF077
:1013D00027F8A6E0E30006AA9446634458689B6891
:1013E00099460AF02BFD06000F00554D48460AF0BD
:1013F00025FD0090019132003B0028000BF010F811
:10140000013475E01A0106A98C466244D06812695D
:1014100091465D1C2B0163445A6892469B689B462B
:101420000AF00CFD06000F00464C58460AF006FD77
:101430000490059150460AF001FD02900391484640
:101440000AF0FCFC0090019132003B0020000AF001
:10145000E7FF2B00012BD5DD3B480AF0E1FF5B20C5
:101460000AF07AFF00240AE0230014335B0006AA86
:1014700094466344998835480AF0D2FF0134042C1D
:10148000F2DD31480AF0CCFF5B200AF065FF002452
:10149000002C38DD2C4C20000AF0C2FF5B200AF043
:1014A0005BFF06A95823CE5C169A179B2848049622
:1014B0001A9E1B9F02960397189E199F00960197EC
:1014C0000AF0AEFF20000AF0ABFF0A200AF044FF4A
:1014D000602306AA1EA9404606F0BCF95F281CD965
:1014E00006991C480AF09CFF5B200AF035FF002497
:1014F000002C00DC6EE714480AF092FF5B200AF033
:101500002BFF0023A6E723000E339B0006AA995861
:101510000E480AF085FF0134BAE71EA9404606F0DE
:101520004BF941B0F0BCBB46B246A946A046F0BD5F
:101530006C330110DC340110103201103032011014
:10154000F834011008350110043501101C35011064
:1015500024350110F034011010B5BEB04A49B7224D
:1015600010A80AF075FD10A80AF05AFF0BE04748D2
:101570000AF056FF464B1B685C69FFF7FDF8010057
:101580002000FFF7FBFE28200FF0F2FD41480AF093
:1015900047FF0AF059FFFF2101400B00633B122B6C
:1015A0006ED89B003C4AD3589F463C480AF038FF0F
:1015B0000AF04AFFC0B2592803D039480AF000FFA8
:1015C000E1E738480AF02CFF0AF03EFFC0B243289A
:1015D00003D033480AF0F4FED5E739380AF0BCFEF0
:1015E00080223149314800230193143300930023B2
:1015F00092000FF0FFFAC6E72D480AF011FFFFF73F
:10160000BBF802002B4903A809F06CFC2A4803A987
:101610000AF006FF29480AF003FF0AF015FFC0B2DE
:10162000592803D026480AF0CBFEACE74F380AF021
:1016300093FE80222349244800230193153300930D
:1016400003AB92000FF0D6FA9DE720480AF0E8FEBF
:1016500099E71F480AF0B4FE0D4B1B6858691D49F5
:10166000FFF73AFD8FE71C480AF0DAFE084B1B68CB
:101670005869FFF76FFD86E710A80AF0D1FE82E7F0
:1016800016480AF0CDFE7EE7C0360110383501104D
:10169000041E002034350110783701105035011038
:1016A000B435011078350110A4350110890F0010F0
:1016B000D03501106C330110F835011010360110CF
:1016C000483601103C360110950E001060360110AE
:1016D000683601107C3401108036011094360110F8
:1016E0000020704710B5074B186800230022002126
:1016F0000EF048FD012801D1002010BD012040421C
:10170000FBE7C046841E002010B5064B1868142164
:101710000EF05CFF012801D1002010BD01204042E5
:10172000FBE7C046841E002010B5436A594380225F
:1017300052038818EFF3108472B6190011F01CFAE6
:1017400084F31088002010BD10B50C001900436A06
:101750005C4380235B03E0188018EFF3108472B6BB
:10176000029A11F0E9F984F31088002010BD0000FE
:1017700010B5406A41430548844661448918029A7D
:1017800018000AF065FC002010BDC04600001010D3
:1017900010B5002905D0FA229200002309F074FC4C
:1017A00003E0FA21890009F031FC10BD10B5002BCF
:1017B00002DB0260436010BD024B034A03483F2135
:1017C00008F00AFA502D01106C2D0110A42D011003
:1017D00010B5040007F07AFC02000B002000FFF7B0
:1017E000E5FF200010BD000030B5BBB0FA2080003E
:1017F0000FF0BEFC71E02022002118A80AF022FCA4
:101800004A4B1B6818680A2218A90EF037FE0128F7
:1018100004D00134002CEEDD002409E0E30020AA0E
:1018200094466344043318AA21CA21C3F1E7013462
:10183000012C18DC2022002118A80AF003FC3B4BE5
:101840001B6858680A2218A90EF018FE0128EED16C
:10185000230120AA9446634418AA0C3323CA23C345
:1018600012681A60E3E7002400E00134042C17DC5E
:101870002022002118A80AF0E5FB2C4B1B68986871
:101880000A2218A90EF0FAFD0128EED12300143324
:101890005B0020AA9446634418AA12889A80E4E761
:1018A0000024002C2BDD18A8FFF7E0FA202218A94D
:1018B00030A80AF0CDFB1D4B1B685C69582222A999
:1018C00068460AF0C5FB209A219B2000FFF73CFDEB
:1018D000FA21890039A80FF0EFFB0FF073FA399065
:1018E0006022002120A80AF0ADFB16A8FFF770FFC8
:1018F00016981799FFF74CFF209000248AE72022C2
:10190000002118A80AF09EFB084B1B6818690A22E0
:1019100018A90EF0B3FD012801D00134C1E723005E
:101920000E339B00189920AA9950F6E7041E002058
:1019300010B5002107F09EFA10BD0000B0B582B0CE
:1019400002AF1500531C0832D208D2006C46A21A0E
:10195000954602AA1070002003E00C18013024788C
:101960001454A842F9D30848962189000191002116
:10197000009177310DF05EFB023002D00020BD46B1
:10198000B0BD0120FBE7C046F80D0020F0B585B0E2
:101990000D0016000F226A4410700D4C9627BF00F0
:1019A000019701230093772120000DF043FB01975D
:1019B0000023009333002A00772120000DF059FB0B
:1019C000023002D0002005B0F0BD0120FBE7C04688
:1019D000F80D002070B5040004A8057805A800786B
:1019E0005326A155542162545022A3545223E55446
:1019F000013BE05420005030210001F03BF9104938
:101A000000222000FFF702F958230122E25402339A
:101A10002C32FF32E2520233C83AE25221005831EE
:101A20002200012001F0B4FA05000649020020005E
:101A3000FFF7ECF8002D01D1012070BD0020FCE77C
:101A4000E0370110F037011030B583B004000123F6
:101A50000373184B0364184B4364184B83641423BB
:101A6000837301F05BF80500154902002000FFF7C1
:101A7000CDF8002D02D0002003B030BD2000503042
:101A8000210001F067F805000E4902002000FFF771
:101A9000BDF8002D01D00020EEE702230193013BA9
:101AA00000930433082200212000FFF793FF012058
:101AB000E2E7C0468D1900103D19001031190010E1
:101AC00008380110EC300110F0B583B004000F00AD
:101AD0000100012001F06EF8020006001D492000FF
:101AE000FFF794F8002E02D0002003B0F0BD2100D3
:101AF00050312200012001F05FF95C23E25A5301CA
:101B00009B1A9B009B18DB00C018FA21890009F082
:101B10007DFA01300FF02CFB0025042D13DC23008F
:101B20006A4607323900012001F08CF902000600F4
:101B300009492000FFF76AF8002E04D001200FF0B9
:101B400017FB0135E9E7002E01D10120CDE7002088
:101B5000CBE7C0461438011028380110F8B50C0046
:101B60000AF00BF9061CE22189050AF0CAF8071CE5
:101B7000E08B0AF002F9051CEA2189050AF0C1F898
:101B8000011C381C0AF09DF8071C2023E05E0AF0B7
:101B9000F9F8011C381C0AF0B4F8071CDC2189058F
:101BA000301C0AF0AEF8061CE4218905281C0AF056
:101BB000A8F8011C301C0AF084F8011C0AF0A1F8F6
:101BC000051C2223E0560AF0DDF88321C9050AF03E
:101BD00098F8011C281C0AF094F8011C381C0AF023
:101BE00075F8A06301490AF076F8F8BD0000A04539
:101BF000F0B5C64600B582B007000C00886BFC212A
:101C000089050AF07EF86C490AF05BF8051C011C96
:101C10000AF077F8061C2E23E0560AF0B3F8DC2110
:101C200089050AF06EF8011C301C0AF06AF8061CDF
:101C30002C23E05E0AF0A6F8291C0AF062F8011CC9
:101C40000AF044F8311C0AF041F8FA2189050AF03B
:101C500058F8061C2A23E05E0AF094F88F21C90583
:101C60000AF04FF8011C301C0AF030F801902823CC
:101C7000E0560AF087F8291C0AF043F8291C0AF0FC
:101C800040F8E22189050AF03CF8061C2623E05EB4
:101C90000AF078F8291C0AF034F8011C301C0AF00C
:101CA00015F8D82189050AF02CF8E02189050AF0F9
:101CB00028F8FE2189050AF009F8051CA08C0AF015
:101CC0005CF8011C281C0AF01CF8051C38000AF0FE
:101CD00054F8011C9320C00509F0F3FF071C281CD1
:101CE0000AF072F8002864D0E621890501980AF00C
:101CF00008F8011C381C09F0E4FF30490AF001F82B
:101D0000291C09F0E8FF051C3223E05E0AF03AF8CE
:101D1000291C09F0F6FF291C09F0F3FFC0218905F1
:101D200009F0EFFF071C3023E05E0AF02BF8E021FA
:101D3000890509F0E6FF291C09F0E3FF8046EE2142
:101D40008905281C09F0DDFF061C011C09F0D9FFDC
:101D5000011C301C09F0D5FF061C3423E05C0AF09E
:101D600011F8DC21890509F0CCFF011C301C09F0B9
:101D7000C8FF061C4146381C09F0A8FF311C09F0B9
:101D8000A5FF061C2F23E05609F0FCFF8621C9059C
:101D900009F0B7FF011C301C09F098FFF6218905F6
:101DA00009F0AFFF291C09F091FF02B080BCB846D2
:101DB000F0BD0020F9E7C04600007A470050C34557
:101DC000F0B5C64600B506000C00886B444909F022
:101DD00082FF051C300009F0D0FF061C208A09F0A4
:101DE000CCFF8321C90509F08CFF071C1420205665
:101DF00009F0C8FFFC21890509F083FF291C09F0BF
:101E000080FF011C381C09F061FF011C301C09F027
:101E100058FF061C608A09F0B0FFDA21890509F035
:101E200070FF071C1520205609F0ACFFE221890540
:101E300009F067FF291C09F064FFFE21890509F0FC
:101E400045FF80461620205609F09CFFD6218905C3
:101E500009F057FF291C09F054FF291C09F051FF14
:101E6000011C404609F032FF011C381C09F049FFF3
:101E7000311C09F046FF061CE07D09F07EFFE221DF
:101E8000890509F03EFF071C1820205609F07AFF4B
:101E9000D421890509F035FF011C281C09F031FF08
:101EA000391C09F013FF311C09F02BFF311C09F01C
:101EB00028FF311C09F00AFF041C0A4909F058FFE9
:101EC000002807D10021201C09F04CFF002802D077
:101ED000002400E0034C201C80BCB846F0BDC04686
:101EE0000000A0450000C842F0B5CE46474680B588
:101EF000A1B00C00170009F040FF80460120A0406F
:101F000009F03BFF814610AE264D402229003000EB
:101F10000AF09EF829004031402268460AF098F8FD
:101F20003E23F85609F02EFF1F4909F0EAFE1F492B
:101F300009F0CCFE051CA400A0591D4909F0CBFEF8
:101F4000FE21890509F0C2FE291C09F0DAFE051CF4
:101F50006B46E058164909F0BEFEFE21890509F0DE
:101F6000B5FE144909F0CDFE494609F0CAFE041C2D
:101F70008821C905404609F0A4FE291C09F0ABFEE2
:101F8000FE21890509F0A2FE011C201C09F0B9FE02
:101F9000011CFE20800509F09EFE21B0C0BCB946A0
:101FA000B046F0BD403801100000A0400080A744BA
:101FB0000000C842BD37063470B503008020C0025F
:101FC000C8400B4A944663445C00E41880235B01DC
:101FD0009C46644409F0D1FE064909F092FE051CB6
:101FE000200009F0CFFE011C281C09F074FE70BD12
:101FF00000FEFFFF00247449F0B5C64600B5050099
:102000000C00C8235B00984200D91D0019202056FF
:1020100009F0B8FEF621890509F073FE324909F08E
:1020200055FE071C1A23E05E09F0ACFEE02189058D
:1020300009F067FE2D4909F064FE2D4909F046FEBE
:1020400080461C20205609F09DFEEA21890509F0F2
:1020500058FE061C280009F090FE414609F051FE8A
:10206000FE21890509F032FE391C09F04AFE051CE3
:102070000E20205609F086FE311C09F042FE291C74
:1020800009F024FE051C3C23E05C09F076FE81216A
:10209000C90509F01BFE011C8120C00509F01BFECB
:1020A000291C09F02EFE051C3D23E05609F06AFEAE
:1020B000104909F026FEFE21890509F007FE011CE2
:1020C000FE20800509F007FE011C281C09F019FEFE
:1020D000094909F0F6FD094909F013FE09F0A6FEC9
:1020E000C0B280BCB846F0BD000044426F12033A53
:1020F00075021A3B6F12033B0000C8419A99594080
:10210000FC231B0198420CD2002302E0800801331B
:10211000DBB23F28FAD8C0B29B01DBB2C018C0B214
:102120007047FF20FCE700280AD0036C002B0AD080
:10213000436C002B0AD0836C002B0AD00020704720
:1021400001204042FBE701204042F8E701204042E5
:10215000F5E701204042F2E770B582B006000C00BE
:102160000800FFF7E0FF051E25D176B2002E25DB23
:102170001023627B9A421ED06373266C636801222F
:1021800069460731F320B0474C23E054002817D1AB
:102190006B46D91D0B78102293430B70607B024075
:1021A00013430B70666C636801227320B0474C23A5
:1021B000E054002807D1280002B070BD0023D8E702
:1021C00002256D42F7E702256D42F4E770B582B053
:1021D0000400FFF7A8FF051E0FD1266C63680122DB
:1021E00069460731F320B0474C23E054002807D15B
:1021F0006B46DA79102313406373280002B070BD78
:1022000002256D42F9E770B504000E0015001000BC
:10221000FFF789FF002C0BD000280CD12378B342A4
:1022200005D926704D22AB5C01210B43AB5470BD28
:1022300001204042FBE701204042F8E710B50E4B79
:10224000984216D843011B1A9B001818C000DE21C3
:10225000FF3108F0DBFE80B2002302E0800801338A
:10226000DBB23F28FAD8C0B29B01DBB2C018C0B2C3
:1022700010BDFF20FCE7C046820700008000101858
:10228000036889005218116801601360704770B5C7
:1022900083009C58A6788B009B589D78247864B264
:1022A000002C04DB1B785BB2002B0FDB70BD00241D
:1022B0001C57002CF6DAAD1BABB202339BB2012BDC
:1022C00001D9022DF2DDFFF7D9FFEFE7FFF7D6FFC7
:1022D000ECE7F0B5DE4657464E464546E0B587B0DA
:1022E00081468B4690461E001422002101A809F069
:1022F000A9FE3000FFF717FF8246002849D14B4660
:10230000002B4AD05B46002B4BD04346013B092BA8
:1023100001D8002410E004235B429A4631E06300B8
:102320004A46515D01AAD154630001335A46515DBA
:1023300001AAD1540134A4B22500444510D2337B04
:10234000002BECD14B465F19585D3100FFF704FFBD
:102350008246630039787F220A4001A9CA54E3E724
:102360005346002B0DD1746C43465A007368013AF2
:1023700001A9087869460531A0474C23F05400288C
:1023800013D1504607B0F0BCBB46B246A946A046A2
:10239000F0BD01235B429A46F3E701235B429A4674
:1023A000EFE701235B429A46EBE702235B429A4642
:1023B000E7E7F0B5D646474680B58FB005000F0079
:1023C0001400019298462E2302AA944663446E227A
:1023D0001A70643A00210BA809F034FE0A22002189
:1023E00008A809F02FFE0A22002105A809F02AFEFC
:1023F0000A22002102A809F025FE022F4BD0032F4C
:1024000024D0012F00D08FE00BAB5A221A706888BD
:102410004146FFF7F1FD08AB187005AB64221A7056
:10242000A888FFF76DFE02AB1870002323704346A7
:102430003A0008A90BA8FFF74CFF061E00D16BE07D
:1024400030000FB0C0BCBA46B046F0BDEE68002EFA
:102450006CD0AB68002B6CD0002416E022005A32FE
:102460000BAB1A55AB686700D85B4146FFF7C4FD5C
:1024700008AB18552200643205AB1A55F05BFFF724
:102480003FFE02AB18550134E4B22F7CA742E5D8D9
:10249000019B1F70CBE7EB689A46002B4CD0AB68D2
:1024A000002B4CD06B8A002B02D00026002417E0B2
:1024B0000326FBE722005A320BAB1A55AB686700C4
:1024C000D85B4146FFF798FD08AB185522006432EF
:1024D00005AB1A555346DB5D02AA13550134E4B22D
:1024E0002B7CA342E6D8019A13702F7C688AFFF7F1
:1024F000A5FE2F2302AA944663441870002E9FD194
:10250000434601222F2161442E206044FFF7E1FE63
:10251000061E00D094E78AE743463A0002A905A8C0
:10252000FFF7D7FE06008BE7012689E701267642F2
:1025300086E70126764283E70126764280E7012678
:1025400076427DE7F8B5CE46474680B507000E00D7
:1025500090461C001800FFF7E6FD051E1FD1002E57
:1025600020D0237B002B0FD0236C99466368424612
:1025700031003800C8474C23E054002815D128000A
:10258000C0BCB946B046F8BD21003800FFF7E4FDF5
:10259000051EE9D180235B421F43FFB2E4E701251A
:1025A0006D42ECE701256D42E9E702256D42E6E761
:1025B00010B582B004006B46D91D00230B700300D8
:1025C0000122F020FFF7BEFF002803D16B4607333E
:1025D0001B78A36002B010BD70B58CB0040003007E
:1025E000172201A98A20FFF7ADFF002800D176E06D
:1025F000002872D101AB2022995CDA7F09020A43DC
:10260000E28359781A7809020A43228402229A56F0
:102610002226A25559791A7909020A43A284D97946
:102620009A7909020A43E284082159562822A154C2
:10263000D97A9A7A09020A436285597B1A7B090280
:102640000A43A2850F2159562E22A1540E21595614
:102650000132A154D97C9A7C09020A432286597D11
:102660001A7D09020A436286997D3422A1545D7E57
:102670001A7E0F2111402D0129432182D97D0901A4
:1026800012090A4362821A229A5622751B229A560E
:1026900062751C229A56A2755A7FE2751E229A56BE
:1026A000227623229A566276995D21229A5C09024B
:1026B0000A43628324229A5622772722995C0932A0
:1026C0000A4012113C216254252299561832A15415
:1026D000143A9B561B111532A3540CB070BD230045
:1026E0000E221B216944E130FFF72CFF0028F4D1B2
:1026F0002300052229216944FFF724FF78E7000021
:10270000F0B5DE4657464E464546E0B58BB08246AC
:102710000C0091461122002105A809F093FC052622
:10272000002510E01F32134062461A431300227046
:1027300005AA117C10220A40134323705BE0002D90
:1027400066D0013EF6B2002E00D1A2E0002D00D0EE
:102750009FE05346180150441D30C0B24B46112231
:1027600005A9FFF7EFFE0500002C00D18FE005ABB7
:1027700018787F22010091438C4621700F2210406F
:1027800060705978A17099780903DF783F01394367
:102790001F793F0939430091597909039F793F0116
:1027A0003943DF793F0939430191197A09025F7A88
:1027B00039438B465F7BBF00997B8A093A4302927B
:1027C000DF7BBF001B7C9A0917430F220A4003924C
:1027D0000F221A4090464A469268012AA2D020232E
:1027E0000B4062461A431300227005AA917B102207
:1027F0000A40134323700023E356002B9FDB002D78
:102800009FD14B469B6C4A4651682648984798E7AB
:10281000E11C5A304B460122FFF794FE051E1BD0E7
:10282000002D8ED149460198FFF798F9A0604946DE
:102830000098FFF7DDF9E06049465846FFF7C0FA17
:1028400020614B469B68012B1BD04A460399029896
:10285000FFF74AFB60611CE06078211D5030C0B278
:102860004B460122FFF76EFE051E00D069E7607837
:10287000611D6430C0B24B460122FFF763FE0500C4
:10288000CEE741463800FFF797FB606101E0012584
:102890006D4228000BB0F0BCBB46B246A946A0462C
:1028A000F0BDC04610270000F0B5DE4657464E4644
:1028B0004546E0B59FB004000690894633220021CA
:1028C00011A809F0BFFB1E22002109A809F0BAFBDC
:1028D0002368002B0BD04B46332211A91D20FFF794
:1028E00031FE019000280DD000231D0057E06368E1
:1028F000002BF0D1069B9B68002BECD101235B429F
:102900000193F1E74B461E2209A95020FFF71AFE5A
:102910000190E9E721688A460978202002401143A6
:102920005246117021680A7811A8C35C9C46102396
:102930006046034013430B702368597809AA515C21
:10294000197121684B780A33D35CCB7021684B78BE
:102950001433D35C4B7123689A4649460398FFF7BA
:10296000FDF85346986023689A4649460298FFF757
:102970003FF95346D860266849463800FFF720FAE9
:1029800030614B469B68012B00D185E024684A46A4
:1029900005990498FFF7A8FA60610135EDB2022DA0
:1029A00000D980E0019B002B7DD12B01EB18DBB21D
:1029B00011AAD15CAC0006988446644420687F2646
:1029C000B1430170D05C26680F21084070705E1C16
:1029D0002068965D8670981C165C3603D81C105CC7
:1029E00000010643181D105C000906430296581D9D
:1029F000105C00039F1DD75D3F013843DF1DD75D8D
:102A00003F09384303901F000837D75D3F02092074
:102A100084469C446046105C07430D2084469C44D9
:102A20006046105C800084460E2083469B445846D6
:102A3000105C8246800980466046464630430490DA
:102A40000F2084469C446046105C8000844610330E
:102A5000D25C9009804660464646304380465046E8
:102A6000084005901140079149468968012900D125
:102A700050E721680B7820225046024013430B7028
:102A80002268137811A95846095C8C4610216046CB
:102A900001400B4313704FE7246807994046FFF746
:102AA0008BFA606179E701981FB0F0BCBB46B24673
:102AB000A946A046F0BD000030B583B005006B46C6
:102AC000E022DA716B462A3A9A71FFF72CFB041E5A
:102AD00004D12B7B002B04D0002C07D0200003B0A6
:102AE00030BD2800FFF772FB0400F5E72B00012240
:102AF0006946063168460730FFF7EBFB041EEDD14F
:102B0000AB6C6968044898472B7B002BE6D1280002
:102B1000FFF75CFB0400E1E71027000010B504009C
:102B2000FFF7CAFF230001222100D020FFF70AFD92
:102B3000002807D12378612B09D12000FFF738FD49
:102B4000002800D010BD2000FFF746FDFAE7032063
:102B50004042F7E710B582B004000B000522694639
:102B60007120FFF7EFFC002C20D0002819D16B4614
:102B70005A7807231A4022706A46127992101A4036
:102B8000E2706A46D2785109617092101340A370C6
:102B90006B461B785BB2002B05DB6B461B795B0930
:102BA000237102B010BD08232371FAE701204042CF
:102BB000F7E70000F0B583B007000D006B46742204
:102BC0009A71002603E0002E22D0002C20D12B0089
:102BD0000122694607317420FFF7B4FC041EF2D1CC
:102BE0006B46DA7903231E001640134210D06B4661
:102BF000D91D03239A430A702B0001226846063030
:102C0000FFF767FB0400AB6C69680E489847DAE78A
:102C1000002F01D0002C02D0200003B0F0BD6B4685
:102C2000DB79032293433A4013436A46D3712B0066
:102C300001226946073168460630FFF74AFB040067
:102C4000EAE7C0461027000030B583B004000B004F
:102C500000280CD06A46D51D012229007420FFF7F8
:102C600071FC2A7803231340237003B030BD012088
:102C70004042FAE7F0B585B005000C004D4B1A68EC
:102C800002921A7902AB1A7105220021684609F0F6
:102C9000D9F921000F206844FFF7D6FF00280ED095
:102CA000002D00D17EE000280DD00F236B441B784F
:102CB000002B02D0002800D177E005B0F0BD210044
:102CC000FFF778FFECE702AB18782300052269468E
:102CD000FFF738FC4D230022E254002851D0002891
:102CE000E3D1A81C22000521FFF78DFA0028DCD1D2
:102CF000220005212800FFF786FA0028D5D1281DDB
:102D000022000821FFF77FFA0028CED16B461A79FE
:102D1000EB789B001C261C210B40B2431A436B46E8
:102D20001A71DF7868781F233B4040010343DBB210
:102D30006846C370A87880000140B3430B436946DE
:102D4000CB704B78287807218B4301400B436946B1
:102D50004B702979082922D000201F2313404901F4
:102D60000B436A46137112787F231340C00103435B
:102D70006A46137023000522694602A8FFF7A9FAE4
:102D800093E7E81C22000721FFF73DFA002800D056
:102D90008BE7681C22000521FFF735FA9FE7012029
:102DA0000021DAE7012040427FE721001800FFF709
:102DB00001FF82E73838011070B582B006000C00C0
:102DC00015001C4B1A6800929B886A469380002964
:102DD0002AD0481C2A000521FFF715FA002814D034
:102DE000002824D163786A46D25CA3786946CB5C1C
:102DF0009B1822788A5CD2180F4B53430F4A9818BD
:102E0000022E12D00E4A98180FE0A01C2A000521AD
:102E1000FFF7F9F9002801D0002006E02A0005217B
:102E20002000FFF7F0F9DBE7002002B070BD0020C2
:102E3000FBE7C046C0380110AB070000C51000001A
:102E4000AD140000F0B5D6464F464646C0B596B024
:102E500004008A46160098460C22002113A809F0A7
:102E6000F1F801AD48220021280009F0EBF8139594
:102E700007AB14930DAB15934046FFF754F90028A8
:102E800000D079E05346002B00D179E0012C11D01D
:102E9000023CE4B2012C1DD9002401239846002EE7
:102EA00000D171E03470404616B0E0BCBA46B1467D
:102EB000A846F0BD42465146FFF722FC8046002856
:102EC00058D153461B785BB2002BE8DB0024022369
:102ED0009846E4E7414613A8FFF7E6FC8046002445
:102EE000002301E00133DBB2022B25D84246002A41
:102EF00009D19A0013A95258127852B2002AF1DA75
:102F00000134E4B2EEE700250CE013AA494628009C
:102F1000FFF7BDF94B460133DBB299464B46022B16
:102F2000F3D93D00012D0BD84346002B06D16B1C75
:102F3000DBB21F009946F1E70025F3E7002100E02E
:102F40000021022911D84346002B0ED18A0013AB71
:102F5000D3584D006D18ED0055442A00A1CBA1C2F5
:102F6000A1CBA1C20131C9B2EBE7002C97D102235A
:102F7000984694E7002492E701235B42984692E743
:102F800001235B4298468EE701235B4298468AE71D
:102F900070B582B005000E0014006B460022DA7195
:102FA000234B6A46138000293FD021000020FFF701
:102FB00001FE002801D002B070BD23006A4607322E
:102FC00029003000FFF7F5F90028F4D12300022290
:102FD00001A97030FFF7B6FA0028ECD13278012A47
:102FE0001CD00022012001A90B78C0000825AB43AA
:102FF00003430B704B786846C5790F208343284004
:1030000003434B70120130200240834313434B7043
:10301000230002226846FFF75CF9CCE7A368012B86
:1030200001D00020DFE70132DDE701204042C2E7A6
:103030007071000030B503680A68934204D0496893
:103040008B4207D0002030BD45684C68A542F6D1C0
:103050000120F8E743689A4201D00020F3E70120FD
:10306000F1E730B5002306E09D00441922684D5970
:103070006A4022600133022BF6DD30BD03681B0D70
:10308000E022D20013420FD043680A6893420DD069
:103090008068496888420BD08B420BD0824201D0B5
:1030A000002002E0012000E0002070470120FCE742
:1030B0000120FAE70120F8E782B0019001AB1B681C
:1030C000002B03D08B42FAD1012000E0002002B097
:1030D0007047283000E018000368002B03D08B42B3
:1030E000F9D11B6803607047836A0B608162704787
:1030F000004870470100020010B5FFF7F9FF000C0F
:1031000010BD10B5FFF7F4FF80B210BDC36E0366AB
:10311000704710B500238365C365FFF7F7FF10BD47
:1031200010B50400406D081AE16E401807F06EFFFC
:10313000A36D8B4208D9646EC808235C0722114036
:10314000063A8A4013432354002010BD30B5CB000B
:103150001BD5194C03681A004A40144217D09A052F
:103160009215013213D0144C0C40144D1D40144ADA
:103170002A4394420BD00C0DE022D200224080253D
:10318000ED00AA4207D0002004E00E4CE2E7002345
:103190000360012030BD890A8905890D9A0A9205CC
:1031A000920D8A4205D364B2A4021B190360002069
:1031B000F0E70020EEE7C04600FCFF7F00FC0F00B8
:1031C0000000F04F00FC0F708B059B1501335A4235
:1031D00053415B189B059B0D04330268D3180360B1
:1031E0000020704710B5836EDB6A002B0ADD88680B
:1031F0000130591C0123194307F008FF002903D0AF
:10320000002000E0002010BD0120FCE710B5FFF712
:1032100060FF002010BD0B6B9B0301D4C86A704790
:10322000CB6A486B9842FAD21800F8E7036B034A5E
:10323000134049020B4303637047C046FFFDFFFF85
:1032400030B5036B0D4C23400D4CA1420FD08D02C5
:103250000C4C2C4323430363094B994209D0136858
:103260004363074B994206D05368836330BD002403
:10327000F0E70023F4E70023F7E7C046FF030080F0
:10328000FF0300000000F04F0368013303600020DB
:103290007047000010B5C36E8B4205D9806EC368BD
:1032A0009847002807DC10BD064B074A8A210748CB
:1032B000490006F091FC064B034A8B210348490064
:1032C00006F08AFCB43901101C460110C838011000
:1032D000F838011010B5026B93059C0D002B01D13D
:1032E000002911DBFF235B009C4201D9002911DC7E
:1032F000891801634B005B0889054A1E9141C90783
:103300000B430363002010BD054B064A06480749DE
:1033100006F062FC064B034A0348064906F05CFCD3
:1033200004390110EC450110C8380110D112000019
:103330003C390110D212000010B50C00CB68826E2F
:10334000126BFF21180008F07DFE01235B42236011
:1033500010BDF8B50F000E68836E5C6A083C210052
:10336000300007F053FEA64212D3013807F0F4FDF7
:1033700002308000301A210007F048FE0500444367
:10338000341B07F0E9FD8000241A3C602800F8BDDA
:103390000020FCE7F0B5DE4657464E464546E0B510
:1033A00087B080468B4617000393109B9946119E69
:1033B000139BF218836E5B6A9A4200D9E9E0C36EF0
:1033C000002B00D1E1E04B4500D8E5E04D4694E00C
:1033D0005B465C689B68E218B24224D9B44207D9C4
:1033E000A21B0492139B9A4200D892E0049390E0AF
:1033F000A21B99469144139B994500D999465B4677
:10340000D968341B09194A46129808F021FE129B0C
:103410004B4412934E44139B4A469B1A13936CE001
:10342000139B049375E0139B049372E07B68BA6866
:103430009918B14270D9B34205D99B1B049A9A429C
:103440006AD9049368E0991B91468944049A91458E
:1034500000D99146F968F31AC9184A46129808F03B
:10346000F7FD129B4B4412934E44139B4A469B1A02
:10347000139342E0129A524412925644059B049CC4
:103480001C1B139B9C46A4446346139335E04346A0
:10349000DB6E002B01D0AB426BD93D6043469B6E87
:1034A000D969300007F0B2FD0491731A9A467B6027
:1034B000039BF41843469B6E9946D9696418013CF6
:1034C000200007F0A3FD641A4B465B6AA34200D9B3
:1034D0002300049A921B4946096BD2188A4200D9EC
:1034E0000A00BA604346986E4468FB6800925246F0
:1034F0002900A047002842DC34D1139B002B46D082
:103500005B46002B8CD01B68AB4200D160E7139B5D
:1035100004933B68AB4289D0139B039A9342B6D382
:1035200043469B6E9946DB699A461900300007F0C6
:103530006DFD0029ABD1139B9A45A8D85146049C38
:10354000200007F063FD0591621A92464A465268D0
:10355000140052460092129B320029004846A047B0
:10356000002887D007B0F0BCBB46B246A946A046AB
:10357000F0BD0B4B0B4A0C486B2106F02DFB0B4B9F
:10358000084A0948762106F027FB4D46B5E700209A
:10359000E8E754204042E5E754204042E2E7C046D5
:1035A0007439011044460110C8380110F838011070
:1035B000F0B5DE4657464E464546E0B589B08046F2
:1035C0008A4691469B46CE680B6907933C30FFF7CD
:1035D00055FD002800D182E04B469B0A9B0500D197
:1035E0007FE04346DB6B9B0A9B059B0D5A46920A84
:1035F0009205920D934276D9002706E005975B4627
:10360000DB1B63404A461A4245D0079CA505AD1511
:103610006B1C5A4253411B199B059B0D1A00083223
:10362000B24262D80433F61A53461B68042203924E
:1036300007AA0292019600930423424600214046C5
:10364000FFF7A8FE002852D1079B1BBA63405B001E
:103650005B0807934B469B0A9B05CFD0220DE023C6
:10366000DB0013408021C9008B42C7D1A10A890524
:10367000890D05975B46DB1B980A8005800D884203
:10368000BCD32149194021480143A14236D052B24E
:103690009202BF18B2E7013533D0A3059B0D149DEC
:1036A0009D4200D91D0053461A68129BF3180395DA
:1036B000139902910433019300922B00424600219A
:1036C0004046FFF767FE002811D1149B5A1B139B3D
:1036D0005819002108F0B6FC059B181907E00027CF
:1036E00093E7002791E70A4F8FE70220404209B095
:1036F000F0BCBB46B246A946A046F0BD02204042FF
:10370000F5E702204042F2E700FC0F000000104005
:1037100000FCFFFF10B584B09C05A40D0294069C2C
:10372000019400240094FFF743FF04B010BD000093
:1037300010B586B0140003AB0093084B084AFFF79E
:10374000E9FF002803DA831C06D1002004E003A966
:103750002000FFF786FC002006B010BD0C00F07FB3
:103760000000F07FF0B5DE4657464E464546E0B5D0
:1037700089B081468A4693461C00139E149F129B73
:10378000002B07D1002009B0F0BCBB46B246A946C9
:10379000A046F0BD013B079307A9FFF7DAFD05003E
:1037A00021003800B0470028EDD1002DEBD00123D7
:1037B0002B409846022342469B1A9B00039305AA7E
:1037C00002920022019200945A4651464846FFF761
:1037D000E1FD041ED7D10123AB43A34208DDA300C2
:1037E00005AA99583800B0470028CCD10134F2E737
:1037F0009B0005AA9C584346023BED18D0E770B5E4
:1038000086B00400006801001031836E5B6A1568A1
:1038100052680826039604AE0296019200950200B3
:10382000FFF7B8FD00280ED1049B62689A4208D0C9
:10383000059DA1688D4204D08B4202D0AA4200D0DF
:103840000130431E984106B070BD0000F0B5DE4661
:1038500057464E464546E0B5ADB008900E0005927D
:103860001C00369B9B463AAB1B8899463BAB1B889A
:1038700006933CAB00229B5E9A46082200210BA8CF
:1038800008F0E0FB00255F46A3059B1501335A4273
:1038900053411B199B059B0D0433059A9046984490
:1038A000F36898455BD3379B002B00DCF9E03B685D
:1038B0000D937B689B460837379B013B37930D98E8
:1038C000A64B389A1340399A42401900114007918B
:1038D0001342D9D1389B9B0A9B0500D108E1022DE8
:1038E0005FD80EAB98462A01531B9B0041465E50A1
:1038F0000992531B9B004344059A5A609C60DF6009
:10390000379A1A61389A5A61399A9A614A469A8363
:10391000069ADA8352461A843D9A5A623E9A9A620D
:10392000D8625A461A630BAA343303CA03C3099AEE
:10393000521B920028324244131D3E930135079BCF
:1039400039933893864B3D9300239A4606939946C4
:103950009AE7079D54465F46B246464694E7336869
:10396000042203920DAA029242460192009304237C
:10397000089A00211000FFF70DFD002800D0E5E0B7
:103980000D9B1BBA6340802424061C430D943368AE
:103990000B93434604330C93434605930BAB9B4672
:1039A0008DE7704B704A7148714906F015F96C4B00
:1039B0003D9A9A4200D167E72B0109935B1B9B005C
:1039C0000EAA904698443C220021404608F03AFB5B
:1039D000099B5B1B9B0006AA20215218D650434628
:1039E000059A5A609C60DF60379A1A61389A5A616A
:1039F000399A9A614A469A83069ADA8352461A8419
:103A00003D9A5A623E9A9A620135079A93059B0D38
:103A10009946930A9B059B0D4A46013206924A46F7
:103A20009B1A9BB253441BB29A465E4680239B0569
:103A30003993504B38930023379300270124644275
:103A4000059321E7002307951D00B0465646A24680
:103A50005C46BB463D9F0D9B9A05920D95421AD23E
:103A60006900491989006218615CC02080008446A1
:103A7000614409059B0A9B059B0DF3189B021943A2
:103A80009368526819433E98B84700285EDB00D01F
:103A90005FE70135DFE7079D54465F46B24646467D
:103AA000F2E60020002D51D0013D0EAB2A01511B42
:103AB0008900CE585B185A6805929C68DF681A69BD
:103AC00037925A6938929A6939929A8B9146DA8B71
:103AD000069220215A5E92465A6A3D929A6A3E9216
:103AE000DA6A0D921A6B93460BAA343303CB03C2E6
:103AF000389B9B0A9B050AD00D9B9B0A9B059B0D3F
:103B0000994500D9C0E6069A9A4200D8BCE60D9BBA
:103B100007931B0D5B055A0D002B00D1B4E6022361
:103B2000FF339A4200D142E781235B009A4289D059
:103B300053469902079B9C4661445A463E983D9BDA
:103B40009847002802DB00D19EE6ABE72DB0F0BC21
:103B5000BB46B246A946A046F0BDC0460000F07F75
:103B60004D310010A4390110BC450110C8380110B6
:103B7000B303000000FC0F60F0B5DE4657464E462A
:103B80004546E0B585B080468B4692461D00119FA4
:103B9000139BFA18836E5B6A9A4255D954204042AF
:103BA0007DE053465A689B68D118B94221D9BA4280
:103BB00005D9D21B139B9A4250D91A004EE0D41B50
:103BC0001C19139B9C4200D91C005346D968BA1A91
:103BD00089182200129808F03BFA129B9C46A444D4
:103BE000634612933F19139B1B1B13932CE0139AEC
:103BF00034E0139A32E002235B422B6043469B6E13
:103C0000D969380007F002FA7E1A6E600E9BFC1824
:103C100043469B6E9946D9696418013C200007F021
:103C2000F5F9641A4B461B6BA34200D92300AB6025
:103C3000EA68029301920096109B0F9A59464046FB
:103C4000FFF7B6FC00282ADB139B002B26D0534637
:103C5000002BCCD01B680233A3D0139A2B680233FD
:103C6000C9D16B68AC681919B942C4D9BB42C2D872
:103C7000D91B6418944200D91400E968FB1AC918CA
:103C80002200129808F0E4F9129B9C46A444634673
:103C900012933F19139B1B1B1393D5E7002005B00C
:103CA000F0BCBB46B246A946A046F0BDF0B5DE4624
:103CB00057464E464546E0B587B0894690461F00B8
:103CC000109B9B46139E00243B0007009A4619E078
:103CD00053461B1B039504AA0292119AA218019243
:103CE0005A460092424649463800FFF753FB0028E7
:103CF00016D1129B19192A0004A80EF0B1FB002856
:103D000007D16419B4420AD2351B082DE0D9082521
:103D1000DEE7002801DB022002E0012000E00020B5
:103D200007B0F0BCBB46B246A946A046F0BD0000B5
:103D3000F0B5D646474680B587B007000C0005921F
:103D400004930E68F31C40D8C36E9E4231D28D6836
:103D5000836E9A46196A6D18013D280007F056F9DE
:103D60006D1A53469B689846E36862680095310077
:103D70005046C047061E22DC002827D1049B002B9A
:103D800012D001235B42059A1360E3680395029306
:103D900063680193236800932B0000213800FFF72C
:103DA00085FF002818DB19D121003800FFF7C4FA7D
:103DB0000CE00C4B0C4A0D48B32105F00DFF0C4BE9
:103DC000094A0A48B72105F007FF0026300007B06E
:103DD000C0BCBA46B046F0BD0600F7E754267642AE
:103DE000F4E7C046AC39011000460110C838011094
:103DF000F8380110F0B5DE46474680B583B00700BD
:103E00000C00009201930A9B98460B9D0D9E023375
:103E100002D0C36E43450AD9AB19BA6E526A9342B7
:103E200018D92D4B2D4A2E48E92105F0D5FE2D4BF2
:103E30002A4A2B48E82105F0CFFE01333ED1434604
:103E40002360BB6E196A280007F0E0F8691A616008
:103E50000023A360002E38D023684345EDD162686B
:103E6000AA42EAD8B96E096B5018A842E5D9531B8B
:103E70008B469B44B34500D9B346E068AA1A801824
:103E80005A460C9908F0E4F80C9B5B440C935D4493
:103E90005B46F61A6268AA1AA368934200D213001E
:103EA000A360BA6E126B9A42D4D1019B009A210092
:103EB0003800FFF73DFF002808D1CBE70A4B074A3F
:103EC00083210748490005F087FE002003B0C0BCED
:103ED000BB46B046F0BDC046083A0110104601107E
:103EE000C8380110D03901102C3A011010B5040067
:103EF0000120404210602000FFF71AFF002804D183
:103F0000A06E03699847002800DC10BD024B034AED
:103F10000348DD2105F060FEF8380110B0450110BE
:103F2000C838011070B584B0060015000068890516
:103F30008C0DB368A34200D923002A6869680393F3
:103F4000756802950191009202000021FFF7AEFE14
:103F5000002804D1B368A34201D002D2013004B0DA
:103F600070BD0220FBE7F0B5CE46474680B589B06C
:103F70000700884691460593109B002B0BD1013B0F
:103F8000129A13600023139A1360002009B0C0BC7A
:103F9000B946B046F0BD109B013B079307A9FFF758
:103FA000D8F9050011A93800FFF7D3F9060012E08F
:103FB0000423039305AB0293A3000193059B009395
:103FC00004234A4641463800FFF7E4F90028DDD1D2
:103FD0000123A340ED1AB5420BD9A81B06F0B0FF90
:103FE0001F24241A280006F0B1FF8442E0D90400FF
:103FF000DEE7059B129A1360119B139A1360002051
:10400000C4E70000F0B5CE46474680B589B080468B
:104010000C0017004A6BC96A8A426DD28A1A91460F
:104020009A4200D999464E4637E0DB0241D5022339
:104030005B42A363636BE363226B8023DB02134366
:10404000236343469B6E5B6AE06B1D1AB54200D941
:104050003500226BD2023FD521000831A28892029E
:104060009446220040320792059504970390254814
:10407000624610430290244801900093079B00225F
:104080004046FFF779FD002837D1636B5B19636306
:10409000E36B5B19E3637F19761B002E2AD0236B39
:1040A0005A03C2D5E16B4246926E526A9142C8D120
:1040B000BBE7A36A2200403221003C31039104395E
:1040C0000291616B0191E16A009100214046FFF786
:1040D0004AFF0028B0D010E022004032039502973A
:1040E0000190A16B009100214046FFF753F9002891
:1040F000CBD002E0484600E0002009B0C0BCB94681
:10410000B046F0BD0000102000FCF7FFF0B5DE4621
:1041100057464E464546E0B587B083468A469146A7
:104120009846129E139F002417E043461B1B0395DD
:1041300004AA0292119AA2180192109A00924A4679
:1041400051465846FFF726F900280ED138682A0054
:1041500004A903F053FC38606419B44204D2351B3F
:10416000082DE2D90825E0E7002007B0F0BCBB46E7
:10417000B246A946A046F0BDF0B5DE4657464E46CB
:104180004546E0B597B005000E0092460693C36E13
:10419000002B08D01268934200D879E25246526848
:1041A000934200D878E20023129313930027984695
:1041B000A9460DE0791CC80F091801230B401B1AF2
:1041C0009B0012A95B58D21A002A00DDB8460137BD
:1041D000012F18DCBC0012AD2B19042203920293AC
:1041E0000023019353461B59009304234A460021A0
:1041F0004846FFF7CFF862590028DBD0030054335C
:10420000E5D083463CE24D464346D90F5B18012278
:104210001340591A89005346CB5833604346013343
:10422000D80F1B181A40131A99469B0052469B58E8
:10423000736012ABCB58B3600023F3609A46013B26
:104240009B46B0465346012B00DD0BE20EAAA14B64
:1042500011CB11C24146083101277F4204223800A8
:1042600003F0CCFB0B905B46079300230893099364
:104270000593002644463DE1A0460300543301D196
:10428000002322E08346FBE1A0463B0DF022D20052
:104290001340914A944663445A425341DBB214E0BE
:1042A000042203920DAA0292321D0192226800920A
:1042B0002A0000212800FFF76DF800284DD10D9A43
:1042C0000B9B9A424FD0A04600234246D468002C54
:1042D00000D18AE146460022B275002B0AD0AF6EAB
:1042E000396A200006F092FE002903D1089B002BBA
:1042F00000D088E128003C303100FEF7BFFE0028E6
:104300000FD0EB6B9B0A9BB259468A0A92B21000FF
:104310005840800500D093E180231B065A461A437B
:104320009346219B002B09D05B469B0A9B05B28AD2
:104330009B0D934200D91300219A13805B46002BFA
:1043400000DB9DE19B0A9B059B0DB28A9A4200D837
:1043500085E102235B429B4692E1A0460300543371
:10436000B2D083468CE10C9F3F0DFF0743467B4054
:104370001F00E86A04220BA903F040FBE8620C9AD4
:1043800093059B15013359424B419B189B059B0D8F
:1043900004339B19E3602761059BA3820E9BA361F5
:1043A0000F9BE361099BE37501235B420B93079B22
:1043B0009B469FE0A0460300543301D1002384E7CD
:1043C00083465DE18021C90088421FD0C023DB0005
:1043D000984242D05205520D404B9A4200D0E9E03B
:1043E000AB6E5B6A0822039210AA029201972268C0
:1043F00000922A0000212800FEF7CCFF002848D0B8
:10440000543000D1EEE001230893D3E052B291B2D0
:1044100005988446614489B205913148079908405E
:10442000304901438B4212D00798411C00D1C1E0B2
:104430009B0A9B059B0D810A8905890D994200D233
:10444000B8E092028446944463460793B2E0802326
:104450001B06079A1A430792ACE001231A400992FF
:10446000AB6E5B6A082203920EAA02920197226841
:1044700000922A0000212800FEF78CFF002800D1BE
:1044800098E0A0460300543301D100231DE7834682
:10449000F6E0012308938DE0A0460300543301D1D8
:1044A000002312E78346EBE00C9B079F3A005F4036
:1044B0000D490F421AD002281BD1990A8905890D8E
:1044C000920A9205920D8A4213D3802212061A4351
:1044D00007920EE06846011000FBFFFFFF05000099
:1044E00000FC0F000000F04F00FCFF7F01235B4247
:1044F00007934746BB059B1501335A425341DB19CD
:104500009B059B0D0433F618AB6E5B6A0422039285
:104510000CAA02920196226800922A00002128002B
:10452000FEF738FF002800D0A6E60B9804220CA95D
:1045300003F064FA0B900C9B1BBA7B4098460C93DB
:1045400000D5A1E69A059215013253425A414244E0
:104550009205920D111D7118AB6E5B6A99423ED89F
:104560004146090DF020C0000140A020C00081425A
:1045700000D195E6371D0BA903910292019722689D
:1045800000922A0000212800FFF7C0FD002800D07B
:1045900010E70C9B1A0DE021C900100008400A42E8
:1045A00000D00FE79B0A9B059B0D059A9A4201D804
:1045B000013305930C99209B4B40069A1A4298D1DF
:1045C00023681493159714AA2398229B98470028D0
:1045D00000DA61E700D067E70C9B079389E7A04604
:1045E000002372E6A04600236FE613685268414636
:1045F0000A604B604B469B0012AA9B588B600123BC
:104600009C46E2441EE601235B420D937B6A0DAAA1
:104610000392109A02920194326800922A002800B4
:10462000FFF774FD002804D00300543301D0834603
:1046300026E0119A0D9B9B1A5A425341B37559E6D5
:104640005846013000D16CE69B059B0D9205920DFA
:104650009A4200D865E6124B9B468B4461E60023E4
:104660009B460DE0464633680E490F480F4A0192BB
:10467000726800920E4A07F0D3FE54235B429B46B9
:10468000584617B0F0BCBB46B246A946A046F0BD9E
:1046900054235B429B46F3E754235B429B46EFE780
:1046A00000FCFFFFC8380110503A0110AC2F011078
:1046B00056050000F0B5D6464F464646C0B58AB00E
:1046C00007000E001400002393610133D36105AA93
:1046D000284B21CB21C201239846012539E0264BE6
:1046E00026492748274A07F09BFE542040423BE0DA
:1046F00053460593E369069343465B0098460025BD
:104700000FE0012300E00123002B2BD11823994651
:10471000A14405A94846FEF78DFC0028DFD1454598
:10472000E6D0013507AB07973268089272680992A4
:104730000393154B029300230193144B0093144BE6
:104740004A4621003800FFF717FD002801D0831CDE
:104750000AD1A3699A460133D5D0E3690133D0D099
:104760000023D1E7022040420AB0E0BCBA46B1467D
:10477000A846F0BD68460110AC2F0110C8380110E2
:10478000883A0110B0120000FF3700100800002026
:10479000FF03F07F10B584B001235B420024039433
:1047A000029401940093FFF7E7FC04B010BD0000F1
:1047B000F0B5DE4657464E464546E0B593B0050097
:1047C0000E0005929946202200210AA807F03AFC23
:1047D0000123119308AA624B11CB11C201239B46FE
:1047E0000127109C631C00D180E0119B013300D194
:1047F0007AE00023002B00D07AE008A910A8FEF789
:1048000019FC00280FD15F4516D001370024012C78
:104810001ADCA31D9B000AAA99580598B0470028E6
:104820001ED10134F3E74F4B4F495048504A07F02F
:10483000F7FD5420404213E00894119B09935B4616
:104840005B009B460027E0E710AA0AA92800FFF7B3
:10485000A1FF8246002803D1002417E0831C13D057
:1048600013B0F0BCBB46B246A946A046F0BD069BBD
:10487000059A02920196079A00922A0000212800C8
:10488000FEF770FF0028EBD10134A4B20AAB9B8A7B
:10489000A342A6D9A202374B134306AA0092364A76
:1048A0000AA92800FEF736FF0028D7DB000D4005D7
:1048B000400D324B9842DAD04B46002BE4D0802397
:1048C0009B009842E0D1D04602E001239C46E044A0
:1048D0004346012BD8DC43469B0006AAD1580598D5
:1048E000B0470028F1D0BBE7012383E7012381E72C
:1048F000AC6A0FE021004031A36A059A029201964A
:10490000E26A00922A002800FEF72CFF00280ED051
:10491000A6E72468002C21D0A379012BF9D1236BC1
:10492000882252031340802252029342E2D0236B2A
:10493000902252031340802292029342E9D1210037
:104940004031A36B059A02920196626B00922A0095
:104950002800FEF707FF0028DBD081E700207FE773
:1049600068460110AC2F0110C8380110883A0110B8
:10497000111200000800002000FC0F70020200006D
:1049800070B50400406DE36DC018E16E06F03EFBAB
:1049900061650023E365A26E536B216EDB008B42E1
:1049A00000D90B00A365606E526B002107F04AFB33
:1049B0000649012322002000FFF7FAFE051E01D15F
:1049C000280070BD2000FEF7A4FBF9E7213100109C
:1049D00030B583B004000D00E36DA26D934226D282
:1049E000616EDA088A5C07201840C240D20705D5FC
:1049F0000133E365236E013B2366EDE7606DC0186C
:104A0000E16E06F003FB2960E36D0133E365226E7E
:104A1000013A2266A26D934224D2616EDA088A5C62
:104A200007210B40DA40D207EED400201BE0226EB3
:104A3000002A05D02000FFF7A3FF0028CCD012E009
:104A4000606D1818A36E996A06F0E0FA0B00074C27
:104A50000748084A0092084A210007F0E1FC1C20A0
:104A6000404200E0002003B030BDC046C83801100D
:104A7000B43A0110AC2F0110B102000070B584B03F
:104A800006000C000025012D0DDC0135EB0FEA18A6
:104A900001211140C91A890061183000FFF798FF01
:104AA0000028F0D02FE00023A36022000832042168
:104AB00003910292019323680093042332000021A2
:104AC0003000FEF767FCA568002802D003005433CD
:104AD00019D1B26ED16A002909DD013101221143D9
:104AE0006D18013D280006F091FA6D1AA5600423A7
:104AF000E360053B23610022A282A361E3610023FE
:104B0000A375E375002004B070BD0000F0B5C64683
:104B100000B58AB005000E005BE031004031131B88
:104B2000012203921A3202A884466244029201943E
:104B3000B26B00922A002800FEF72CFC002858D106
:104B400029001031012303931A3302AA94466344C7
:104B500002930194099B009301232A002800FFF788
:104B600049F9002827D10134F26BA24247D9336BAF
:104B7000DB02D2D531000831B3889B029C4633005A
:104B800040330793012005901A3002AB9846404409
:104B900004900394284863461843029027480190E4
:104BA000121B0092079B00222800FEF7E5FF002859
:104BB000C6D007003BE0030054331CD1099B2049B9
:104BC0002048214A0092214A07F02AFC01235B4237
:104BD0002B6109A92800FFF7FBFE071E27D10999C1
:104BE0002800FEF757FB071E07D003005433E5D01B
:104BF0001DE007001BE0070019E00024B4E7F06C9B
:104C0000E969AB6E1A6B07F023FA2B6933646B69A1
:104C10007364AB69B364290010312800FEF78CFB84
:104C2000099BB363326B80239B02134333633800C9
:104C30000AB080BCB846F0BD0000102000FCF7FFB1
:104C4000C8380110E03A0110AC2F0110D60C00005A
:104C500070B505000C004B6BCB63FEF757FA2100D3
:104C60002800FFF753FF002803D1236B014A1340AC
:104C7000236370BDFFFFEFFFF0B5DE4657464E469B
:104C80004546E0B58BB004008846150099464EE0D5
:104C9000149B002B33D0149B013B089308A92000E0
:104CA000FEF757FB089B01330893A26E526A9342AA
:104CB0005ED000274B46B1461E00089BBB4248D938
:104CC000DB1B0122039209AA0292019700962A0097
:104CD00000212000FEF75EFB002838D1012303935A
:104CE00009AB02930197079B009301232A004146D9
:104CF0002000FFF77FF8002808D10137DDE7079B88
:104D0000159A13600023169A136029E0B146030038
:104D100054331CD1079BBA2238493948394E009682
:104D2000120107F07DFB01235B424246136007A995
:104D30002000FFF74DFE061E12D107992000FEF756
:104D4000A9FA061EA4D003005433E3D008E00600FD
:104D500006E04E46079B159A1360089B169A13604F
:104D600030000BB0F0BCBB46B246A946A046F0BD31
:104D7000013006F0EBF88246431C9B464B460993F4
:104D800000270593B1462E00250009E02C003500D0
:104D9000059B994603005433BCD00600E0E7013779
:104DA0005F4522D2BC000423039309AB0293019414
:104DB000079B00930123320041462800FFF71AF8B1
:104DC000099B0028E2D15745E9D00422039209AAA1
:104DD0000292019400930423320000212800FEF780
:104DE000D9FA0028DBD00600BAE74E46079B159A91
:104DF00013605B469B00169A1360B1E7C838011038
:104E0000E03A0110AC2F0110F0B5C64600B588B0ED
:104E100006000C00150019000593236BDB0209D571
:104E2000636BE26A8C466344934200D21300F26FD4
:104E30009A4231D3059B98464346002B00D19DE012
:104E4000236B8022920219001140134204D0E06BC0
:104E5000B26E526A904255D1DB0249D4002902D188
:104E6000626B002A24D13000FEF750F9A36B2100B9
:104E7000403122003C320292043A0192626B00926D
:104E800032003000FFF7F8FE002836D0226B802376
:104E90001B03134323635FE021003000FFF7D8FEBC
:104EA0000028C7D0226B80231B031343236353E0E6
:104EB00027004037A36AE16A0020079007A8039003
:104EC000200038300290013A019200913A0000210E
:104ED0003000FFF748F8002804D139003000FEF711
:104EE0002BFAC0E7226B80231B031343236333E0B9
:104EF00002235B42A363636BE363226B80239B0209
:104F000013432363B36E5F6AE36BFF1A474500D90F
:104F100047462100403103970295E36B0193A36B51
:104F20000093012332003000FEF764FF002817D001
:104F3000030054330BD121003000FFF7E7FD0028B8
:104F4000E7D0226B80231B031343236304E0226B0F
:104F500080231B031343236308B080BCB846F0BD15
:104F6000636BDB196363E36BDB19E363ED194346A2
:104F7000DB1B98463000FEF7C9F85DE70598EBE7C4
:104F8000F0B599B005000C000B6B5A0307D5DA0297
:104F900002D4012252420A64374A13402363236B2E
:104FA0009A0365D5666BDB024ED45422002103A818
:104FB00007F048F8A36A0D93E36A0E9301230F9359
:104FC000636B109313AB2A0083CA83C312681A6001
:104FD00001235B422B60626BE36A9A4219D2012380
:104FE0000B226A4403A92800FFF70CF8002840DBD5
:104FF00001230B226A4421002800FFF705FF002847
:1050000037DB2B680133E6D001235B4213932B601F
:10501000E1E72100403101232A002800FEF788FE45
:10502000002816D00300543323D1A36B134914482E
:10503000144A0092144A07F0F3F921002800FFF700
:1050400065FD0028E5D014E0E36AB34200D23300E6
:105050006363A36BA362636BE362236B0B4A13402E
:10506000236380225202134323636663002000E01F
:10507000002019B0F0BDC046FFFFFBFFC83801108B
:10508000E03A0110AC2F0110250D0000FFFFFDFFDD
:10509000F8B505000C0016001F00096BCB070DD5F5
:1050A000890304D52100FFF76BFF002805D13B00E1
:1050B000320021002800FEF7A5FFF8BD034B044A8B
:1050C000DB210448090104F087FDC046043B0110C0
:1050D00020450110C8380110F0B583B005000C0060
:1050E00016004F6B002B04D0012B21D0022B23D0B4
:1050F0003E006B6FB34237D3BE4224D0236B9B0379
:105100000CD4019701A92800FEF723F907000096A7
:1051100069462800FEF71DF9874216D021002800B5
:10512000FFF72EFF002801D16663300003B0F0BD09
:10513000D74216D4D619DCE7FEF76DF88619D8D514
:1051400016204042F2E73000F0E7636C009A934289
:10515000E4D8A16C5B189A42E0D26663E263300047
:10516000E4E716204042E1E716204042DEE710B5B2
:1051700000230022FFF7B0FF002800DB002010BD55
:10518000F0B585B006000D0001921F000B6B9A0769
:1051900023D55B0327D42B6B1A0504D5696BEA6A08
:1051A000914200D26A636C6BE119726F91422DD803
:1051B0009B031DD4EB6A9C421AD96B636B6B9C42B8
:1051C00016D902ABDA1D0023137001332900300019
:1051D000FFF71AFE0028F1DA16E00E4B0E4A0F48D0
:1051E0000F4904F0F9FCFFF7CBFE0028D3D00BE009
:1051F0003B00019A29003000FFF706FE002803DB80
:105200002B6B084A13402B6305B0F0BD1B204042B6
:10521000FAE7C046343B011000450110C8380110C0
:10522000170E0000FFFFF7FF00B583B000230193C6
:10523000044901AAFFF7BCFA002800D1019803B085
:1052400000BDC04689320010F0B5D646474680B54D
:1052500085B001900E001400002393610133D361E7
:1052600002AA284B81CB81C201250127A369984658
:10527000013336D0E369013331D00023002B32D122
:1052800018239A46A24402A95046FDF7D3FE0028EF
:1052900015D1AF421CD001373368434526D0E169B0
:1052A0007268914228D0424528D0994228D052466F
:1052B00021000198FFF76EFA0028D7D017E0124BB3
:1052C00012491348134A07F0ABF8542040420EE04D
:1052D00043460293E36903936D000027DBE7012354
:1052E000CCE70123CAE70220404200E0002005B0DD
:1052F000C0BCBA46B046F0BD0020F8E70020F6E793
:105300000020F4E768460110AC2F0110C8380110E6
:10531000883A01106F120000F0B585B00C0017003C
:105320001E00010010310393029263680193236809
:10533000009300230200FEF75DFD051E02D0280049
:1053400005B0F0BDE0683200390002F057FBE060C4
:1053500063689B196360F2E7F0B5DE4657464E4638
:105360004546E0B587B00500884699461700940584
:10537000A415013463425C41A418A405A40D231DA7
:105380009A464B68534449698B4247D85600760881
:1053900043469B6873401BBA0593042305AA414604
:1053A000FFF7BAFF834600282ED1002F22DA00270C
:1053B000A74227D25346DB1B4A4611685268043B7A
:1053C00001200390123068440290D219019200919A
:1053D0002A0000212800FDF7DDFF00281CD1012351
:1053E00013226A4441462800FFF796FF002813D194
:1053F0000137DDE723004A4641462800FFF78CFFCE
:1054000000280FD143469E60584607B0F0BCBB460B
:10541000B246A946A046F0BD8346F5E71C235B4291
:105420009B46F1E78346EFE710B50C001300416897
:1054300000682200FFF790FF10BD0000F0B5DE46C7
:1054400057464E464546E0B58BB006000D004F6806
:10545000836E5A6A1437974200D91700196ACF1918
:10546000013F380005F0D2FD7F1A002305939B46CB
:105470006BE0132302AA94466344FF221A70BC42D5
:1054800005D3B36E5A6A1B6AD21AA24270D2132392
:1054900002AA944663441B78DB43DBB2DB09A022FB
:1054A000D200944663441B056A68A21A043A134367
:1054B000654A1A439046AB6853401BBA07AA914607
:1054C0000793E8680422494602F098FAE8604B46E0
:1054D000586010239A46B244083B03934B4602930C
:1054E0006B6801932B680093002332005146300013
:1054F000FEF780FC002800D098E05B46002B04D12A
:105500006B6804339B46EB6805936C60132302AA17
:10551000944663441B78DB431B06DB0FDB074246E4
:105520005340AB6001235B42EB60BC4205D2736920
:10553000B26E126B9B18A34207D80023320051466B
:105540003000FEF7D3FC002870D16C68BC4241D219
:105550003B1B043B3D4A934200D91300E41804343A
:10556000BC4286D23B00143B9C4282D91C0080E79F
:105570000122039212326244029201942A6800923C
:10558000320000213000FDF705FF002802D00300A3
:1055900054334BD1B36E1B6A0793012252420892D7
:1055A00008AA0392029301942A6800923200002113
:1055B0003000FEF7ABFD002802D00300543335D194
:1055C00007AB234A29003000FFF7C6FE002800D1B0
:1055D0005DE72BE02A6901235B4209935B460433B4
:1055E00009A903915946891A029101922A680092E9
:1055F000320000213000FEF789FD002816D1099BFA
:10560000059A934219D109AB0393042302935B4695
:1056100001932B6800930423320000213000FEF731
:1056200075FD002802D1099B002B09D10BB0F0BCFD
:10563000BB46B246A946A046F0BD54204042F5E71D
:1056400054204042F2E7C04600FC0F00FE03000079
:1056500008FCFF5FF0B5DE464F464646C0B59CB03D
:1056600005000C000A920B9324AB80CB1B88984654
:1056700026AB1B889946FDF7B5FD0600A3680133EC
:10568000A360002833D000231693013317932368B7
:10569000002B2CD06268012A29D0012B27D0002AA8
:1056A00025D001235B422B61002E00D10FE10023A6
:1056B0001A9301331B932368002B00D110E1626819
:1056C000012A00D10CE1012B00D109E1002A00D10F
:1056D00006E1211D2800FFF77BF9002827D00300F1
:1056E0001C331ED1002E1CD0B346002601E000233F
:1056F0009B46636810930023119301225242129239
:1057000013921493AA6E536D002B14D0083B15937B
:1057100061682800FDF7BEFD00280FD00300543358
:10572000BFD01CB0E0BCBB46B146A846F0BD0026C9
:1057300001239B46DDE7536A083BE8E72200083275
:10574000042310A92800FFF7E7FD002803D0030079
:105750005433E6D1A5E718AA189510AB1993012385
:105760000892654A07924246524212B206924A464F
:1057700005924246049200220392604A02920B9ADA
:1057800001920A9A00925B42002239002800FEF73B
:105790005DF8002803D003005433C2D181E7A36928
:1057A00001332CD0E369013327D0C00729D50C225F
:1057B00000210DA806F046FC5B46002B36D02900E0
:1057C00048310DA8FDF74DFC0D9B9B0A9B020D93E4
:1057D0000DAA21002800FDF7ABFF0028A1D1022867
:1057E0002FDC830068229B1802AA944663443C3B4A
:1057F0001B68002B35D10130F1E70120D5E70120EE
:10580000D3E7E17DC023DB009C466144090523000A
:1058100018333B4A0A4310A92800FFF79DFD0028D2
:10582000C5D00300543300D07BE73AE729003C3170
:105830000DA8FDF716FC290030310DA8FDF711FC6D
:10584000BDE70123002B0ED10DAB2E4A10A9280075
:10585000FFF782FD002806D00300543300D060E734
:105860001FE70023EEE710A92800FFF7E7FD002857
:1058700004D00300543300D053E712E71198AB6E05
:10588000196A05F0C3FB00291BD1236862682260F6
:1058900063604B4642469B1AA382119BE360129BB6
:1058A0002361280048300C22002106F0CBFB5B4628
:1058B000002B04D12B003C33303507CD07C35846AD
:1058C0002FE7114B114A1248124904F085F9636819
:1058D0000F491148114A0092114A06F0A1FDE6E66F
:1058E00063680B490F480D4A00920F4A06F098FD75
:1058F0001C20404215E7C0462954001000FC0F4010
:1059000008FC0F000CFCFF7F643B0110A045011058
:10591000C838011003080000E03A0110AC2F011054
:10592000150800008C3B01101A080000F0B5DE4697
:105930004F4680B58FB005000C000492059316AB5E
:1059400040CB1988894618AB19888B4606A9FFF702
:1059500095F8071E05D038000FB0C0BCBB46B14655
:10596000F0BDE37D06A9CB75A3698B61E369CB61CB
:1059700058460290484601900096059B049A2800DC
:10598000FFF768FE002817DB0699A161079AE2611C
:105990000123E3752368286A834207D066686C6A2E
:1059A000A64203D0A34201D0B042D4D14B46002B33
:1059B000D1D129626A62CEE70700CCE7F0B5DE46B6
:1059C00057464E464546E0B593B0814615009A4687
:1059D0001CAB04CB1B880C931EAB1F880D912E00B3
:1059E0000A92B8464FE07F08196ACF19013F380084
:1059F00005F00CFB7F1ABE4200D93E000F9BB3425C
:105A00002ED964082D1943465C1B012C28D900208F
:105A10000F90AAB201230FA908915549079151424D
:105A200009B206914146059104920390514A0292AF
:105A3000524601925A4600925B4200220A99484619
:105A4000FDF704FF002869D1FE2CDAD84B469B6E87
:105A50005F6A3E00283E5A6D002AC4D05708C3E74B
:105A60000B9F5E46BD4228D0ADB2434602930195DE
:105A70000A9B0093534632000D994846FFF756FFA4
:105A8000002804D1A8460C9D0B95B346BBE7350012
:105A90000A9B9B4647460D9B984603001C333DD10D
:105AA00043461B6834493548354A0192424652689C
:105AB0000092344A06F0B4FC05E035000A9B9B4690
:105AC00047460D9B984641464846FDF78BFB00280C
:105AD00019D0002310930133119343461A68002A0A
