:020000041000EA
:1000000000B5324B212058609868022188439860DF
:10001000D860186158612E4B002199600221596106
:100020000121F02299502B49196001219960352056
:1000300000F044F80222904214D00621196600F024
:1000400034F8196E01211966002018661A6600F04E
:100050002CF8196E196E196E052000F02FF8012189
:100060000842F9D1002199601B49196000215960AB
:100070001A491B48016001219960EB211966A021F2
:10008000196600F012F800219960164914480160C1
:100090000121996001BC002800D000471248134993
:1000A000086003C880F30888084703B5996A0420EC
:1000B0000142FBD001200142F8D103BD02B5186610
:1000C0001866FFF7F2FF186E186E02BD00000240BE
:1000D000000000180000070000035F00212200005C
:1000E000F4000018222000A00001001008ED00E03C
:1000F00000000000000000000000000074B24E7A12
:1001000000200420F7010010C3010010C5010010F9
:10011000C1010010C1010010C1010010C101001097
:10012000C1010010C1010010C1010010C701001081
:10013000C1010010C1010010C9010010CB01001065
:10014000CD010010CD010010CD010010CD01001037
:10015000CD010010CD010010CD010010CD01001027
:10016000CD010010CD010010CD010010CD01001017
:10017000CD010010CD010010CD010010CD01001007
:10018000CD010010CD010010CD010010CD010010F7
:10019000CD010010CD010010CD010010CD010010E7
:1001A000CD010010CD010010CD010010CD010010D7
:1001B000CD010010CD010010CD010010CD010010C7
:1001C00000BE00BE00BE00BE00BE00BEEFF3058054
:1001D000103800BEF2EB887190680110B868011009
:1001E0003402001090A31AE700201F49086006C8D7
:1001F00081F3088810471D48006800282FD10DA4FE
:100200000ECC002902D000F012F8F9E71849194A7B
:10021000002000E001C19142FCD1174988471749ED
:1002200088471749884700BEFDE701C901C29A42C5
:10023000FBD37047B8680110C00000207413002081
:100240006C7B011000000420000004206C7B011076
:10025000001004200010042000000000704709482E
:100260000AF0C0FC0047000008ED00E0000000D0EC
:10027000781300201028022091980010A506001085
:10028000519800105756000006005250ABB360530F
:10029000E450011006005250861C0302FC5001106D
:1002A000060052505422A29D0451011005005250E4
:1002B000DE65F4686C7B0110F8B5C0460448054B58
:1002C00010B5834203D0044B002B00D0984710BDDB
:1002D0007413002074130020000000000648074932
:1002E000091A8B10C90FC91810B5491003D0044B57
:1002F000002B00D0984710BD741300207413002009
:100300000000000010B5074C2378002B09D1FFF73F
:10031000D5FF054B002B02D0044800E000BF0123AD
:10032000237010BD80140020000000008028011000
:10033000054B10B5002B03D00449054800E000BF71
:10034000FFF7CCFF10BDC046000000008414002061
:1003500080280110002070470020704710B504006D
:10036000102200210BF0AEFC200010BD10B5034898
:1003700000210BF095FE00BE10BDC0468028011084
:1003800010B5034800210BF08BFEFFF7EFFF10BD07
:10039000A428011010B586B0040010F053FB05909E
:1003A000206803685B68984721680B689B6801A810
:1003B0009847A368186800230A2201A90FF022FDBC
:1003C000218A05A810F0B8FCE7E7000010B50A0084
:1003D000034800210BF064FEFFF7C8FF10BDC046C4
:1003E000BC28011070B505000C0007F061FA200070
:1003F00007F05EFA0321280007F010FA032120001D
:1004000007F00CFA00220121280007F01FFA002251
:100410000121200007F01AFA024803490EF01EFCE1
:1004200070BDC046F80D0020A086010070B5040024
:100430000022082102200FF09DFC206000221021E4
:1004400001200FF097FC6060002202210A200FF0CB
:1004500091FCA060992080000BF040FC0500002377
:10046000037098229200835000F006FEE5602000A1
:1004700070BD0000F0B5C64600B504008846164BB6
:10048000036000250571154B036077270773144B34
:10049000036070200BF022FC0600702200210BF09C
:1004A00011FC6C23F754266100236361A361E361AF
:1004B00023622423E5540133E554A5620733E55450
:1004C0004346002B03D1200080BCB846F0BD032179
:1004D000200000F087FBF6E7802901109429011025
:1004E000F82D011010B5FA20400008F010FB1B4851
:1004F0000BF0A6FD05210420FFF774FF0EF018FC99
:1005000018200BF0EBFB0400012100F035FA144B2E
:100510001C6030200BF0E2FB04000121FFF7AAFF72
:10052000104B1C6010200BF0D9FB04000E4B036035
:10053000002303710D4B0360032100F0FDFB0C4B06
:100540001C6010200BF0CAFB0400FFF76FFF094B83
:100550001C6009480BF074FD10BDC046E428011072
:10056000B01D0020041C002080290110242E011041
:10057000CC210020441D0020F8280110F0B5CE4603
:10058000474680B597B0FFF7ADFF11AC14220021AC
:1005900020000BF097FB354B1293FE239B05149321
:1005A000FA239B002382324B1B681193314B9946EF
:1005B0001B6813938027BF002F49304D10AB019368
:1005C00002239846009323003A00280010F052F9C5
:1005D0000BAC1422002120000BF074FB284B0C9371
:1005E000FC239B050E93FA23DB002382254B1B681B
:1005F0000B934B461B6804330D9323490AAB0193BD
:100600000326009623003A00280010F033F905ACC9
:100610001422002120000BF055FB1C4B06931C4BB1
:100620000893C82323821B4B1B6805934B461B680A
:1006300008330793184904AB019343460093230002
:100640003A00280010F016F980221449144803AB30
:10065000019300960023520110F00CF9002010F0D5
:1006600045F917B0C0BCB946B046F0BD1C29011011
:10067000B01D0020441D0020242901109503001006
:1006800030290110041C00203829011044290110D0
:100690000000A040CC2100204C290110602901104D
:1006A0002516001000B583B00BF006FD0A490D2099
:1006B00040420EF07BFB8022084909480023019349
:1006C000043300930023D20010F0D4F810F076F930
:1006D000002003B000BDC046810300107029011046
:1006E0007D05001010B584B00A22002101A80BF08E
:1006F000E9FA002418E001AB00221A550A200BF099
:100700006BFC05E00A200BF067FC01AB00221A55D8
:1007100001A811F01FF904B010BD002C17DD0E4820
:100720000BF0BEFC023C0134092CF1D8E3D00BF0F5
:10073000CBFCC3B20D2BE5D00A2BE3D0082BECD0B9
:1007400001AA1355FF2318400BF046FCEBE70720E6
:100750000BF042FC013CE6E7A029011010B500298E
:1007600005D0FA22920000230AF0CEFA03E0FA2123
:1007700089000AF08BFA10BD70B504000D0010223C
:1007800000210BF09FFA2B6923606B6963602000E6
:1007900070BD000010B5002B02DB0260436010BD8D
:1007A000024B034A03483F2109F056F8A4290110DF
:1007B000C0290110F829011010B5040008F0C6FA8C
:1007C00002000B002000FFF7E5FF200010BD000035
:1007D00000B585B0017B0A4896239B000193002356
:1007E000009301330F226A440EF083FA002804D0EC
:1007F0000F236B44187805B000BDFF20FBE7C0460F
:10080000F80D002070B505000E00002406E00A2057
:1008100008F07DF90A34A4B2322C0CD82800FFF776
:10082000D7FF000605D5002EF1D00A2010F0E0FA1F
:10083000F0E7012000E0002070BD0000F0B5CE46DA
:10084000474680B585B005000E0003799846002B19
:1008500007D000239846404605B0C0BCB946B04614
:10086000F0BD642008F053F903AB394A11881980B0
:1008700092789A700B236B44AC221A70002405E026
:1008800034480BF0DDFB731EBB4255D82700B44241
:100890005AD201343048320021000BF001FC2F48BD
:1008A0000BF0CEFB297B2E4896239B00019300235F
:1008B000009301330B226A440EF0FCF9142008F077
:1008C00026F900212800FFF79DFF0028D8D02548F1
:1008D0000BF0B6FB297B224896239B000193002353
:1008E0000093033303AA0EF0E5F900212800FFF777
:1008F00089FF8146002808D02800FFF769FF030719
:1009000011D419480BF09CFBBDE712480BF098FB83
:10091000FA20C00008F0FBF8731EBB42B6D913489A
:100920000BF08EFBB2E7124B010018000BF0B8FB86
:1009300001232B71C8468EE7FA20C00008F0E7F8C3
:100940000A480BF07DFBA1E70A480BF079FB82E730
:10095000682B0110902A01103C2A0110702A011006
:10096000F80D0020B02A0110EC2A0110D42A011041
:100970000C2B0110442B011010B504000A4B03602E
:1009800000230371094B036038230373084B036092
:10099000002303614361002901D1200010BD032120
:1009A000FFF74CFFF9E7C046802901109429011098
:1009B000782B0110F0B589B004000579002D02D123
:1009C000280009B0F0BD2A4B1A8869468A839B78B3
:1009D0008B77017B274896239B000193002300938C
:1009E000033307AA0EF066F901212000FFF70AFF82
:1009F000051EE5D005AE217B1E4896239B00019382
:100A000000230093063332000EF073F9727812025D
:100A1000B37813431B01F1780F091F430F220A40DB
:100A20001202337913431B02707918430AF0E5FF71
:100A300011490AF0A6FFD62189050AF0A2FF0F4945
:100A40000AF07FFF206138000AF0D7FF0C490AF056
:100A500098FFD62189050AF094FF606102A8FFF78C
:100A6000ABFE02980399FFF779FEA060A8E7C046A5
:100A70006C2B0110F80D0020000048430000484294
:100A80000000C84210B5002905D0FA2292000023C8
:100A90000AF03AF903E0FA2189000AF0F7F810BDEC
:100AA0004B6903608B694360CB6983600B6AC360E9
:100AB0007047000010B5002B02DB0260436010BDE0
:100AC000024B034A03483F2108F0C6FEA429011047
:100AD000C0290110F829011010B5040008F036F9FA
:100AE00002000B002000FFF7E5FF200010BD000012
:100AF00010B5531DD8B207281BD883000F48C35820
:100B00009F460F480BF0CCFA10BD0E480BF0C8FA08
:100B1000FAE70D480BF0C4FAF6E70C480BF0C0FA00
:100B2000F2E70B480BF0BCFAEEE70A480BF0B8FA14
:100B3000EAE709480BF0B4FAE6E7C046982C011042
:100B4000842B0110A42B0110D02B0110002C0110BC
:100B5000242C0110482C0110702C011030B589B0E4
:100B600004000079002801D109B030BD6846FFF7C4
:100B7000B3FF00980199FFF785FF050020699622D1
:100B80006423520002A900F07FFE0028ECD002ABE3
:100B9000049A6261059AE261069AA261079A22624A
:100BA00019782C22A1545978083AA1549A7825230F
:100BB000E254A3685B1BA362D6E710B596216422BA
:100BC0004900FFF7CBFF10BD30B583B006AC2478E9
:100BD00007AD2D7800690195009400F0F7FD03B092
:100BE00030BD0000F0B5D6464F464646C0B582B08F
:100BF00007000E0003799946002B08D00023994680
:100C0000484602B0E0BCBA46B146A846F0BD0A204C
:100C100007F07DFF002405E023480BF011FA731E56
:100C2000434535D8A046A6423AD901341F48320080
:100C300021000BF035FA386900F0E6FD051EEBD017
:100C400039690800503001F07BFE82463869184946
:100C50005246FFF74DFF5346002B03D015480BF0CB
:100C6000EFF9DCE714480BF0EBF914480BF0E8F966
:100C70000223019301240094033308220021380049
:100C8000FFF7A2FF0E480BF0DBF93C71A946B7E76E
:100C9000FA20C00007F03BFF0A480BF0D1F9C1E78A
:100CA00009480BF0CDF9ABE7EC2C0110B82C011082
:100CB0000C2D01101C2D0110442D0110682D011068
:100CC0008C2D0110B42D0110CC2D011002000079E3
:100CD000002810D0084B1B68E021C9010B400749D0
:100CE0000B60074B04211960034B1B68DB05FBD528
:100CF000014B5B689381704700C0044000D0044002
:100D000000E0044070B504000D00102200210AF03C
:100D1000D9FFAB892380200070BD10B504001F21CE
:100D200006F07CFD00220021200006F08FFD00214E
:100D3000200006F0A5FD10BD10B504000DF0F8FF71
:100D40001A20FFF7EAFF0123237102480BF078F91C
:100D5000012010BD042E011070B50400274B1B6844
:100D6000DE6831005931FF3111F0EAFA051E15D065
:100D7000224B1B68D8688D30FF30210006F0A1FBA4
:100D8000831C14D0002817DB1D4821000BF088F9C4
:100D9000002D16D000200FF0A9FD70BD83239B000D
:100DA000F11830008D30FF3006F0FCFBE0E715480D
:100DB00021000BF075F9EBE7134821000BF070F9F7
:100DC000E6E70E4C2368D86802005932FF328325CB
:100DD000AD0041198D30FF300C4B06F085FB2368C8
:100DE000D86841198D30FF3006F002FC2368D968BD
:100DF0005931FF3106480BF053F9CBE7441D002071
:100E0000702E0110302E0110502E0110030500002D
:100E1000A02F011070B505000C0009480BF010F967
:100E2000084928008D30FF3006F014FB002C02D159
:100E3000002CFDD170BD04480BF002F9F8E7C04664
:100E4000842E0110B00C0020AC2E0110F8B53B4CE4
:100E50002368D8688326B60081198D30FF3006F0EC
:100E6000A1FB2368D8688D30FF3006F019FB23689A
:100E7000D8680021FFF7CEFF2368D86830498D304D
:100E8000FF3006F0FAFA2368D86804232D4A011DC2
:100E90008D30FF30FF3306F027FB2368D868982792
:100EA000BF00C219011D8D30FF30042306F0C8FBBE
:100EB0002368DA680121D151D868011D8D30FF30D7
:100EC00006F01AFC2368D868C219011D8D30FF3066
:100ED000042306F0E3FB2368D868011D8D30FF3042
:100EE00006F060FB2368DB68D95917480BF0D8F887
:100EF0002368DB6818005930FF30DA59134909F0CC
:100F000031FE2368D86802005932FF3281198D30D2
:100F1000FF300F4B06F0E8FA2368D86881198D304E
:100F2000FF3006F065FB2368D9685931FF31094865
:100F30000BF0B6F800200FF0D9FCF8BD441D0020DE
:100F4000B00C0020482F0110542F01108C2F0110DD
:100F500003050000942F011070B50324002C15DB4D
:100F6000A0000019400001238340013B8B4201DDBA
:100F7000013CF3E7002C0AD00325064BA400E358FC
:100F80000A000241044829000BF08AF870BD0425CC
:100F9000F3E7C04694330110B42F011030B5D1B03F
:100FA00004000A0005008D35FF3543A9280006F02E
:100FB000B7FB00280CD051B030BD13480BF070F8CF
:100FC00002992000FFF7C8FF104803A90BF068F84A
:100FD00001AA43A9280006F0E0FB0028EBDB0DD0B6
:100FE00001AB1B78012BE8D0022B03D008480BF093
:100FF00057F8E5E707480BF053F8E1E743A9280065
:1010000006F0B8FBD7E7C046BC2F0110AC2F01108B
:10101000CC2F0110C42F011070B504008D30FF30AB
:1010200006F0D0FB050328000AF0E7FCD62189056D
:101030000AF0A7FC061C0D480BF032F8290020002E
:10104000FFF78AFF2F200AF0C7FF80214903200005
:10105000FFF782FF0649301C0AF093FC0AF02EFDD0
:1010600002000B0003480BF01BF870BDD42F0110D9
:101070000000C842E42F0110F0B5CE46474680B5C7
:1010800083B004004B480AF0DBFF4B480AF0D8FF5E
:1010900001200EF089FF494B186025008D35FF3582
:1010A0004749280006F0E9F900286CD145480AF0C4
:1010B000C7FF2300583344490B60002398468B60D8
:1010C000261D0433414A0091FF333100280006F009
:1010D00039FA98239B009946A14404234A463100DB
:1010E000280006F0ADFA9827BF00E3590133E35119
:1010F0003100280006F000FB04234A463100280096
:1011000006F0CCFA3100280006F04CFAE1593048DC
:101110000AF0C6FF5536FF36E2592E49300009F075
:1011200021FD83239B00E7182B4B32003900280058
:1011300006F0DAF93900280006F05AFA274831009B
:101140000AF0AEFF26492000FFF728FF25480AF0E5
:10115000A7FF2000FFF760FF23480AF071FF8022FD
:10116000224923484346019301250095D2000FF000
:1011700081FB20480AF064FF2570012003B0C0BC49
:10118000B946B046F0BD1C480AF05AFF1B480AF0A9
:1011900057FF1B4807F0BBFC1A480AF051FF084EE6
:1011A0003100280006F056F93100280006F065F9F4
:1011B0007CE7C046F02F011008300110C01D002050
:1011C000B00C0020883001109C140020482F011022
:1011D000542F01108C2F011003050000942F0110D3
:1011E0009C300110A0300110B0300110D03001103F
:1011F000BD130010E43001102830011044300110FC
:1012000060EA00006C30011084B070B50591069260
:10121000079305008D35FF3583239B00C418E53BFC
:10122000FF3B05AA2100280006F038FA210028001B
:1012300006F0DEF970BC08BC04B01847F0B5DE4615
:1012400057464E464546E0B5B3B005000A00524B3E
:10125000190025A809F086FCC6235B009846A8441F
:101260008C3BFF3B25AA10A9404606F03DF9831CA4
:1012700006D0002809DB494825A90AF011FF56E0ED
:10128000474825A90AF00CFF7FE0464825A90AF047
:1012900007FF7AE044480AF003FF5B200AF09CFE57
:1012A0000023002B07DD40480AF0FAFE5B200AF01D
:1012B00093FE002433E01A0106A98C466244D068EC
:1012C000126991465D1C2B0163445A6892469B68E3
:1012D0009B460AF0F3FB06000F00344C58460AF018
:1012E000EDFB0490059150460AF0E8FB0290039153
:1012F00048460AF0E3FB0090019132003B002000D9
:101300000AF0CEFE2B00CCE723000C335B0006AACC
:1013100094466344998826480AF0C2FE0134042C9E
:10132000F2DD21480AF0BCFE0A200AF055FE28230F
:1013300006AA10A9404606F083F9272821D9069964
:101340001C480AF0ADFE5B200AF046FE0025002D89
:10135000A0DCEB0006AA9446634458689B68994653
:101360000AF0ACFB06000F00134C48460AF0A6FB3F
:101370000090019132003B0020000AF091FE0135FF
:10138000E5E710A9404606F00DF933B0F0BCBB46C6
:10139000B246A946A046F0BD8C2F0110FC300110CA
:1013A000302E0110502E011024310110283101106F
:1013B0003C310110103101101831011010B5B8B0D6
:1013C0004249A3220FA80AF083FC0FA80AF068FE86
:1013D0000BE03F480AF064FE3E4B1B68DC68FFF7F9
:1013E00081F901002000FFF729FF28200FF000FD00
:1013F00039480AF055FE0AF067FEFF2101400B0054
:10140000643B112B5ED89B00344AD3589F46344826
:101410000AF046FE0AF058FEC0B2592803D03148FF
:101420000AF00EFEE1E74F380AF0D6FD80222E4981
:101430002E480023019314330093002392000FF0F1
:1014400019FAD2E72A480AF02BFEFFF74BF90200FF
:10145000284902A809F086FB274802A90AF020FEC5
:1014600026480AF01DFE0AF02FFEC0B2592803D00C
:1014700023480AF0E5FDB8E74F380AF0ADFD8022B9
:1014800020492148002301931533009302AB9200B9
:101490000FF0F0F9A9E71D480AF0D2FD0D4B1B68CB
:1014A000D8681B49FFF77AFD9FE71A480AF0F8FD54
:1014B000084B1B68D868FFF7AFFD96E70FA80AF046
:1014C000EFFD92E714480AF0EBFD8EE79C32011025
:1014D00048310110441D00204431011040330110F7
:1014E0006031011098310110883101104D0E00104B
:1014F000B43101108C2F0110DC310110F4310110D6
:101500002C32011020320110590D0010443201100C
:101510009C3001105C3201107032011000207047C5
:1015200010B5074B18680023002200210EF06AFC5A
:10153000012801D1002010BD01204042FBE7C04638
:10154000C01D002010B5064B186814210EF07EFE59
:10155000012801D1002010BD01204042FBE7C04618
:10156000C01D002010B5436A5943802252038818D9
:10157000EFF3108472B6190011F032F984F3108879
:10158000002010BD10B50C001900436A5C43802395
:101590005B03E0188018EFF3108472B6029A11F022
:1015A000FFF884F31088002010BD000010B5406AD9
:1015B00041430548844661448918029A18000AF09C
:1015C00087FB002010BDC0460000101010B5002998
:1015D00005D0FA229200002309F096FB03E0FA21DD
:1015E000890009F053FB10BD10B5002B02DB02602F
:1015F000436010BD024B034A03483F2108F02CF919
:10160000A4290110C0290110F829011010B5040007
:1016100007F09CFB02000B002000FFF7E5FF200015
:1016200010BD000030B59BB069E00134002C16DC21
:10163000102200210BA80AF045FB3A4B1B681868E2
:101640000A220BA90EF05AFD0128EED1E3000FAAE1
:101650009446634404330BAA21CA21C3E5E700245E
:10166000002C01DD00241BE0102200210BA80AF051
:1016700029FB2C4B1B6858680A220BA90EF03EFD73
:10168000012801D00134EBE723010FAA94466344FB
:101690000BAA0C3323CA23C312681A60F2E7013481
:1016A000042C17DC102200210BA80AF00BFB1D4BA9
:1016B0001B6898680A220BA90EF020FD0128EED1C4
:1016C00023000C335B000FAA944663440BAA1288D4
:1016D0009A80E4E7134B1B68D86812AB6A4632CB9A
:1016E00032C232CB32C21B6813600F99109A119B21
:1016F000FFF78AFDFA21890019A80FF01DFB0FF0F2
:10170000A1F91990282200210FA80AF0DBFA08A8F5
:10171000FFF77CFF08980999FFF758FF0F90002406
:1017200084E7C046441D002010B5002107F0E2F90F
:1017300010BD0000B0B582B002AF1500531C0832D6
:10174000D208D2006C46A21A954602AA1070002058
:1017500003E00C18013024781454A842F9D3084847
:101760009621890001910021009177310DF0A2FAB4
:10177000023002D00020BD46B0BD0120FBE7C046CC
:10178000F80D0020F0B585B00D0016000F226A4458
:1017900010700D4C9627BF0001970123009377210D
:1017A00020000DF087FA01970023009333002A00F0
:1017B000772120000DF09DFA023002D0002005B004
:1017C000F0BD0120FBE7C046F80D002070B5040015
:1017D00004A8057805A800785326A1555421625421
:1017E0005022A3545223E554013BE05420005030D2
:1017F000210001F035F9034900222000FFF778F9B4
:10180000012070BDA433011030B583B00400012362
:101810000373184B0364184B4364184B83641423FD
:10182000837301F071F80500154902002000FFF7ED
:101830005FF9002D02D0002003B030BD20005030F1
:10184000210001F07DF805000E4902002000FFF79D
:101850004FF9002D01D00020EEE702230193013B58
:1018600000930433082200212000FFF7AFFF01207E
:10187000E2E7C04685170010351700102917001041
:10188000B43301100C2D0110F0B583B004000E002C
:10189000582101206054023162525C22A35221007F
:1018A0005831220001F06AFA0500244902002000A4
:1018B000FFF71EF9002D02D0002003B0F0BD21007B
:1018C000012001F06DF8020007001D492000FFF71C
:1018D0000FF9002F01D00020EFE721005031220046
:1018E000012001F05FF95C23E25A53019B1A9B002F
:1018F0009B18DB00C018FA21890009F0C7F90130F4
:101900000FF076FA042D13DC23006A46073231000B
:10191000012001F08DF9020007000A492000FFF7BD
:10192000E7F8002F04D001200FF062FA0135E9E753
:10193000002F01D10120C0E70020BEE7C033011015
:10194000D8330110EC330110F8B50C000AF055F84B
:10195000061CE22189050AF014F8071CE08B0AF046
:101960004CF8051CEA2189050AF00BF8011C381C0B
:1019700009F0E7FF071C2023E05E0AF043F8011C92
:10198000381C09F0FEFF071CDC218905301C09F01A
:10199000F8FF061CE4218905281C09F0F2FF011C50
:1019A000301C09F0CEFF011C09F0EBFF051C2223BF
:1019B000E0560AF027F88321C90509F0E2FF011C6F
:1019C000281C09F0DEFF011C381C09F0BFFFA063D2
:1019D000014909F0C0FFF8BD0000A045F0B5C646BA
:1019E00000B582B007000C00886BFC21890509F066
:1019F000C8FF6C4909F0A5FF051C011C09F0C1FFD7
:101A0000061C2E23E05609F0FDFFDC21890509F0B4
:101A1000B8FF011C301C09F0B4FF061C2C23E05E4B
:101A200009F0F0FF291C09F0ACFF011C09F08EFF42
:101A3000311C09F08BFFFA21890509F0A2FF061C71
:101A40002A23E05E09F0DEFF8F21C90509F099FF26
:101A5000011C301C09F07AFF01902823E05609F0A0
:101A6000D1FF291C09F08DFF291C09F08AFFE22112
:101A7000890509F086FF061C2623E05E09F0C2FFF7
:101A8000291C09F07EFF011C301C09F05FFFD821E2
:101A9000890509F076FFE021890509F072FFFE2132
:101AA000890509F053FF051CA08C09F0A6FF011C55
:101AB000281C09F066FF051C380009F09EFF011C78
:101AC0009320C00509F03DFF071C281C09F0BCFF4E
:101AD000002864D0E6218905019809F052FF011C15
:101AE000381C09F02EFF304909F04BFF291C09F082
:101AF00032FF051C3223E05E09F084FF291C09F047
:101B000040FF291C09F03DFFC021890509F039FF7C
:101B1000071C3023E05E09F075FFE021890509F01C
:101B200030FF291C09F02DFF8046EE218905281C75
:101B300009F027FF061C011C09F023FF011C301CC3
:101B400009F01FFF061C3423E05C09F05BFFDC2179
:101B5000890509F016FF011C301C09F012FF061C54
:101B60004146381C09F0F2FE311C09F0EFFE061C5C
:101B70002F23E05609F046FF8621C90509F001FF31
:101B8000011C301C09F0E2FEF621890509F0F9FE7E
:101B9000291C09F0DBFE02B080BCB846F0BD002075
:101BA000F9E7C04600007A470050C345F0B5C64685
:101BB00000B506000C00886B444909F0CCFE051CFA
:101BC000300009F01AFF061C208A09F016FF832155
:101BD000C90509F0D6FE071C1420205609F012FF93
:101BE000FC21890509F0CDFE291C09F0CAFE011C63
:101BF000381C09F0ABFE011C301C09F0A2FE061CCB
:101C0000608A09F0FAFEDA21890509F0BAFE071C9C
:101C10001520205609F0F6FEE221890509F0B1FEF3
:101C2000291C09F0AEFEFE21890509F08FFE8046D1
:101C30001620205609F0E6FED621890509F0A1FEFE
:101C4000291C09F09EFE291C09F09BFE011C404640
:101C500009F07CFE011C381C09F093FE311C09F0D0
:101C600090FE061CE07D09F0C8FEE221890509F01E
:101C700088FE071C1820205609F0C4FED4218905CF
:101C800009F07FFE011C281C09F07BFE391C09F0BD
:101C90005DFE311C09F075FE311C09F072FE311C2D
:101CA00009F054FE041C0A4909F0A2FE002807D1DD
:101CB0000021201C09F096FE002802D0002400E03C
:101CC000034C201C80BCB846F0BDC0460000A045B7
:101CD0000000C842F0B5CE46474680B5A1B00C0022
:101CE000170009F08AFE80460120A04009F085FE19
:101CF000814610AE264D40222900300009F0E8FF51
:101D0000290040314022684609F0E2FF3E23F856A0
:101D100009F078FE1F4909F034FE1F4909F016FE4C
:101D2000051CA400A0591D4909F015FEFE218905D6
:101D300009F00CFE291C09F024FE051C6B46E05836
:101D4000164909F008FEFE21890509F0FFFD144936
:101D500009F017FE494609F014FE041C8821C90544
:101D6000404609F0EEFD291C09F0F5FDFE2189052C
:101D700009F0ECFD011C201C09F003FE011CFE20F3
:101D8000800509F0E8FD21B0C0BCB946B046F0BD01
:101D9000043401100000A0400080A7440000C842A5
:101DA000BD37063470B503008020C002C8400B4A1E
:101DB000944663445C00E41880235B019C466444C1
:101DC00009F01BFE064909F0DCFD051C200009F0A6
:101DD00019FE011C281C09F0BEFD70BD00FEFFFFAE
:101DE00000247449F0B5C64600B505000C00C823B0
:101DF0005B00984200D91D001920205609F002FE10
:101E0000F621890509F0BDFD324909F09FFD071C47
:101E10001A23E05E09F0F6FDE021890509F0B1FD25
:101E20002D4909F0AEFD2D4909F090FD80461C209A
:101E3000205609F0E7FDEA21890509F0A2FD061CFC
:101E4000280009F0DAFD414609F09BFDFE218905D5
:101E500009F07CFD391C09F094FD051C0E2020566C
:101E600009F0D0FD311C09F08CFD291C09F06EFD34
:101E7000051C3C23E05C09F0C0FD8121C90509F087
:101E800065FD011C8120C00509F065FD291C09F0D4
:101E900078FD051C3D23E05609F0B4FD104909F01A
:101EA00070FDFE21890509F051FD011CFE20800511
:101EB00009F051FD011C281C09F063FD094909F0D6
:101EC00040FD094909F05DFD09F0F0FDC0B280BC9C
:101ED000B846F0BD000044426F12033A75021A3B47
:101EE0006F12033B0000C8419A995940FC231B0123
:101EF00098420CD2002302E080080133DBB23F2875
:101F0000FAD8C0B29B01DBB2C018C0B27047FF2044
:101F1000FCE700280AD0036C002B0AD0436C002B8E
:101F20000AD0836C002B0AD0002070470120404269
:101F3000FBE701204042F8E701204042F5E701209D
:101F40004042F2E770B582B006000C000800FFF7CF
:101F5000E0FF051E25D176B2002E25DB1023627B23
:101F60009A421ED06373266C63680122694607316A
:101F7000F320B0474C23E054002817D16B46D91DFD
:101F80000B78102293430B70607B024013430B705D
:101F9000666C636801227320B0474C23E05400282C
:101FA00007D1280002B070BD0023D8E702256D429A
:101FB000F7E702256D42F4E770B582B00400FFF741
:101FC000A8FF051E0FD1266C636801226946073100
:101FD000F320B0474C23E054002807D16B46DA7950
:101FE000102313406373280002B070BD02256D42B8
:101FF000F9E770B504000E0015001000FFF789FF27
:10200000002C0BD000280CD12378B34205D92670C0
:102010004D22AB5C01210B43AB5470BD012040420B
:10202000FBE701204042F8E710B50E4B984216D866
:1020300043011B1A9B001818C000DE21FF3108F075
:1020400025FE80B2002302E080080133DBB23F2886
:10205000FAD8C0B29B01DBB2C018C0B210BDFF20DD
:10206000FCE7C04682070000800010180368890062
:102070005218116801601360704770B583009C5856
:10208000A6788B009B589D78247864B2002C04DBE2
:102090001B785BB2002B0FDB70BD00241C57002C9B
:1020A000F6DAAD1BABB202339BB2012B01D9022D84
:1020B000F2DDFFF7D9FFEFE7FFF7D6FFECE7F0B56A
:1020C000DE4657464E464546E0B587B081468B46CC
:1020D00090461E001422002101A809F0F3FD3000F3
:1020E000FFF717FF8246002849D14B46002B4AD004
:1020F0005B46002B4BD04346013B092B01D8002403
:1021000010E004235B429A4631E063004A46515D89
:1021100001AAD154630001335A46515D01AAD1543A
:102120000134A4B22500444510D2337B002BECD1FE
:102130004B465F19585D3100FFF704FF824663008C
:1021400039787F220A4001A9CA54E3E75346002B9D
:102150000DD1746C43465A007368013A01A908789E
:1021600069460531A0474C23F054002813D150464E
:1021700007B0F0BCBB46B246A946A046F0BD01235D
:102180005B429A46F3E701235B429A46EFE701235D
:102190005B429A46EBE702235B429A46E7E7F0B5DB
:1021A000D646474680B58FB005000F001400019257
:1021B00098462E2302AA944663446E221A70643A0B
:1021C00000210BA809F07EFD0A22002108A809F0D1
:1021D00079FD0A22002105A809F074FD0A220021D8
:1021E00002A809F06FFD022F4BD0032F24D0012F3E
:1021F00000D08FE00BAB5A221A7068884146FFF777
:10220000F1FD08AB187005AB64221A70A888FFF7BF
:102210006DFE02AB18700023237043463A0008A9F4
:102220000BA8FFF74CFF061E00D16BE030000FB08B
:10223000C0BCBA46B046F0BDEE68002E6CD0AB68AC
:10224000002B6CD0002416E022005A320BAB1A553A
:10225000AB686700D85B4146FFF7C4FD08AB185573
:102260002200643205AB1A55F05BFFF73FFE02AB6C
:1022700018550134E4B22F7CA742E5D8019B1F70AA
:10228000CBE7EB689A46002B4CD0AB68002B4CD0C8
:102290006B8A002B02D00026002417E00326FBE700
:1022A00022005A320BAB1A55AB686700D85B414627
:1022B000FFF798FD08AB18552200643205AB1A559C
:1022C0005346DB5D02AA13550134E4B22B7CA342D2
:1022D000E6D8019A13702F7C688AFFF7A5FE2F239A
:1022E00002AA944663441870002E9FD143460122EF
:1022F0002F2161442E206044FFF7E1FE061E00D02E
:1023000094E78AE743463A0002A905A8FFF7D7FEFB
:1023100006008BE7012689E70126764286E701263B
:10232000764283E70126764280E7012676427DE702
:10233000F8B5CE46474680B507000E0090461C0013
:102340001800FFF7E6FD051E1FD1002E20D0237BCD
:10235000002B0FD0236C9946636842463100380049
:10236000C8474C23E054002815D12800C0BCB9460A
:10237000B046F8BD21003800FFF7E4FD051EE9D1A5
:1023800080235B421F43FFB2E4E701256D42ECE787
:1023900001256D42E9E702256D42E6E710B582B0FE
:1023A00004006B46D91D00230B7003000122F020AE
:1023B000FFF7BEFF002803D16B4607331B78A360ED
:1023C00002B010BD70B58CB004000300172201A943
:1023D0008A20FFF7ADFF002800D176E0002872D1F7
:1023E00001AB2022995CDA7F09020A43E283597823
:1023F0001A7809020A43228402229A562226A255FA
:1024000059791A7909020A43A284D9799A79090279
:102410000A43E284082159562822A154D97A9A7A8B
:1024200009020A436285597B1A7B09020A43A28585
:102430000F2159562E22A1540E2159560132A15472
:10244000D97C9A7C09020A432286597D1A7D0902A9
:102450000A436286997D3422A1545D7E1A7E0F2143
:1024600011402D0129432182D97D090112090A4316
:1024700062821A229A5622751B229A5662751C2273
:102480009A56A2755A7FE2751E229A562276232208
:102490009A566276995D21229A5C09020A43628308
:1024A00024229A5622772722995C09320A40121177
:1024B0003C216254252299561832A154143A9B5655
:1024C0001B111532A3540CB070BD23000E221B212A
:1024D0006944E130FFF72CFF0028F4D123000522E6
:1024E00029216944FFF724FF78E70000F0B5DE46B4
:1024F00057464E464546E0B58BB082460C009146A5
:102500001122002105A809F0DDFB0526002510E0B9
:102510001F32134062461A431300227005AA117C31
:1025200010220A40134323705BE0002D66D0013E69
:10253000F6B2002E00D1A2E0002D00D09FE053465D
:10254000180150441D30C0B24B46112205A9FFF7B7
:10255000EFFE0500002C00D18FE005AB18787F223C
:10256000010091438C4621700F2210406070597811
:10257000A17099780903DF783F0139431F793F093A
:1025800039430091597909039F793F013943DF7934
:102590003F0939430191197A09025F7A39438B4621
:1025A0005F7BBF00997B8A093A430292DF7BBF00C1
:1025B0001B7C9A0917430F220A4003920F221A40EC
:1025C00090464A469268012AA2D020230B406246D8
:1025D0001A431300227005AA917B10220A4013436C
:1025E00023700023E356002B9FDB002D9FD14B4629
:1025F0009B6C4A4651682648984798E7E11C5A3038
:102600004B460122FFF794FE051E1BD0002D8ED1F4
:1026100049460198FFF798F9A06049460098FFF7EE
:10262000DDF9E06049465846FFF7C0FA20614B46A5
:102630009B68012B1BD04A4603990298FFF74AFB7F
:1026400060611CE06078211D5030C0B24B46012211
:10265000FFF76EFE051E00D069E76078611D6430EB
:10266000C0B24B460122FFF763FE0500CEE74146AC
:102670003800FFF797FB606101E001256D422800FB
:102680000BB0F0BCBB46B246A946A046F0BDC04662
:1026900010270000F0B5DE4657464E464546E0B5E9
:1026A0009FB00400069089463322002111A809F04A
:1026B00009FB1E22002109A809F004FB2368002B56
:1026C0000BD04B46332211A91D20FFF731FE01909C
:1026D00000280DD000231D0057E06368002BF0D1C7
:1026E000069B9B68002BECD101235B420193F1E731
:1026F0004B461E2209A95020FFF71AFE0190E9E778
:1027000021688A4609782020024011435246117000
:1027100021680A7811A8C35C9C46102360460340D8
:1027200013430B702368597809AA515C1971216809
:102730004B780A33D35CCB7021684B781433D35C6D
:102740004B7123689A4649460398FFF7FDF85346B4
:10275000986023689A4649460298FFF73FF9534626
:10276000D860266849463800FFF720FA30614B46AA
:102770009B68012B00D185E024684A46059904989E
:10278000FFF7A8FA60610135EDB2022D00D980E0B3
:10279000019B002B7DD12B01EB18DBB211AAD15C80
:1027A000AC0006988446644420687F26B1430170DB
:1027B000D05C26680F21084070705E1C2068965D12
:1027C0008670981C165C3603D81C105C000106430A
:1027D000181D105C000906430296581D105C00038A
:1027E0009F1DD75D3F013843DF1DD75D3F0938434B
:1027F00003901F000837D75D3F02092084469C44A0
:102800006046105C07430D2084469C446046105C83
:10281000800084460E2083469B445846105C8246C6
:102820008009804660464646304304900F20844627
:102830009C446046105C800084461033D25C900952
:1028400080466046464630438046504608400590E4
:102850001140079149468968012900D150E7216854
:102860000B7820225046024013430B7022681378E5
:1028700011A95846095C8C461021604601400B4363
:1028800013704FE7246807994046FFF78BFA6061A1
:1028900079E701981FB0F0BCBB46B246A946A046F6
:1028A000F0BD000030B583B005006B46E022DA7160
:1028B0006B462A3A9A71FFF72CFB041E04D12B7B3E
:1028C000002B04D0002C07D0200003B030BD28001E
:1028D000FFF772FB0400F5E72B0001226946063181
:1028E00068460730FFF7EBFB041EEDD1AB6C69685F
:1028F000044898472B7B002BE6D12800FFF75CFBB0
:102900000400E1E71027000010B50400FFF7CAFF3C
:10291000230001222100D020FFF70AFD002807D163
:102920002378612B09D12000FFF738FD002800D063
:1029300010BD2000FFF746FDFAE703204042F7E70D
:1029400010B582B004000B00052269467120FFF724
:10295000EFFC002C20D0002819D16B465A780723B1
:102960001A4022706A46127992101A40E2706A4642
:10297000D2785109617092101340A3706B461B7896
:102980005BB2002B05DB6B461B795B09237102B040
:1029900010BD08232371FAE701204042F7E7000049
:1029A000F0B583B007000D006B4674229A710026C3
:1029B00003E0002E22D0002C20D12B0001226946FA
:1029C00007317420FFF7B4FC041EF2D16B46DA79AC
:1029D00003231E001640134210D06B46D91D03235B
:1029E0009A430A702B00012268460630FFF767FB06
:1029F0000400AB6C69680E489847DAE7002F01D0F5
:102A0000002C02D0200003B0F0BD6B46DB7903221E
:102A100093433A4013436A46D3712B00012269461F
:102A2000073168460630FFF74AFB0400EAE7C04674
:102A30001027000030B583B004000B0000280CD034
:102A40006A46D51D012229007420FFF771FC2A78FF
:102A500003231340237003B030BD01204042FAE746
:102A6000F0B585B005000C004D4B1A6802921A793A
:102A700002AB1A7105220021684609F023F92100F2
:102A80000F206844FFF7D6FF00280ED0002D00D19C
:102A90007EE000280DD00F236B441B78002B02D062
:102AA000002800D177E005B0F0BD2100FFF778FFE6
:102AB000ECE702AB1878230005226946FFF738FCE3
:102AC0004D230022E254002851D00028E3D1A81C55
:102AD00022000521FFF78DFA0028DCD12200052114
:102AE0002800FFF786FA0028D5D1281D22000821EA
:102AF000FFF77FFA0028CED16B461A79EB789B005E
:102B00001C261C210B40B2431A436B461A71DF7816
:102B100068781F233B4040010343DBB26846C37023
:102B2000A87880000140B3430B436946CB704B78D3
:102B3000287807218B4301400B4369464B70297964
:102B4000082922D000201F23134049010B436A4665
:102B5000137112787F231340C00103436A46137038
:102B600023000522694602A8FFF7A9FA93E7E81CAB
:102B700022000721FFF73DFA002800D08BE7681CF0
:102B800022000521FFF735FA9FE701200021DAE74F
:102B9000012040427FE721001800FFF701FF82E794
:102BA000FC33011070B582B006000C0015001C4B00
:102BB0001A6800929B886A46938000292AD0481C94
:102BC0002A000521FFF715FA002814D0002824D187
:102BD00063786A46D25CA3786946CB5C9B182278FE
:102BE0008A5CD2180F4B53430F4A9818022E12D00A
:102BF0000E4A98180FE0A01C2A000521FFF7F9F9EA
:102C0000002801D0002006E02A0005212000FFF75F
:102C1000F0F9DBE7002002B070BD0020FBE7C04602
:102C200084340110AB070000C5100000AD14000093
:102C3000F0B5D6464F464646C0B596B004008A4623
:102C4000160098460C22002113A809F03BF801ADAC
:102C500048220021280009F035F8139507AB14939A
:102C60000DAB15934046FFF754F9002800D079E0EA
:102C70005346002B00D179E0012C11D0023CE4B284
:102C8000012C1DD9002401239846002E00D171E0AB
:102C90003470404616B0E0BCBA46B146A846F0BD16
:102CA00042465146FFF722FC8046002858D1534641
:102CB0001B785BB2002BE8DB002402239846E4E794
:102CC000414613A8FFF7E6FC80460024002301E0FC
:102CD0000133DBB2022B25D84246002A09D19A00E3
:102CE00013A95258127852B2002AF1DA0134E4B230
:102CF000EEE700250CE013AA49462800FFF7BDF9CE
:102D00004B460133DBB299464B46022BF3D93D00CB
:102D1000012D0BD84346002B06D16B1CDBB21F00E4
:102D20009946F1E70025F3E7002100E000210229A0
:102D300011D84346002B0ED18A0013ABD3584D0057
:102D40006D18ED0055442A00A1CBA1C2A1CBA1C2B0
:102D50000131C9B2EBE7002C97D10223984694E7E2
:102D6000002492E701235B42984692E701235B42ED
:102D700098468EE701235B4298468AE770B582B099
:102D800005000E0014006B460022DA71234B6A46E0
:102D9000138000293FD021000020FFF701FE00280A
:102DA00001D002B070BD23006A460732290030000E
:102DB000FFF7F5F90028F4D12300022201A97030B1
:102DC000FFF7B6FA0028ECD13278012A1CD0002295
:102DD000012001A90B78C0000825AB4303430B7009
:102DE0004B786846C5790F208343284003434B70D6
:102DF000120130200240834313434B702300022210
:102E00006846FFF75CF9CCE7A368012B01D00020EE
:102E1000DFE70132DDE701204042C2E770710000C8
:102E200030B503680A68934204D049688B4207D0E2
:102E3000002030BD45684C68A542F6D10120F8E776
:102E400043689A4201D00020F3E70120F1E730B552
:102E5000002306E09D00441922684D596A40226013
:102E60000133022BF6DD30BD03681B0DE022D200DA
:102E700013420FD043680A6893420DD080684968B6
:102E800088420BD08B420BD0824201D0002002E05E
:102E9000012000E0002070470120FCE70120FAE754
:102EA0000120F8E782B0019001AB1B68002B03D032
:102EB0008B42FAD1012000E0002002B07047283098
:102EC00000E018000368002B03D08B42F9D11B6887
:102ED00003607047836A0B608162704700487047E7
:102EE0000100020010B5FFF7F9FF000C10BD10B58E
:102EF000FFF7F4FF80B210BDC36E0366704710B5D4
:102F000000238365C365FFF7F7FF10BD10B504000C
:102F1000406D081AE16E401807F0B8FEA36D8B42B1
:102F200008D9646EC808235C07221140063A8A401B
:102F300013432354002010BD30B5CB001BD5194CD2
:102F400003681A004A40144217D09A0592150132BC
:102F500013D0144C0C40144D1D40144A2A43944283
:102F60000BD00C0DE022D20022408025ED00AA42B9
:102F700007D0002004E00E4CE2E7002303600120AC
:102F800030BD890A8905890D9A0A9205920D8A42F7
:102F900005D364B2A4021B1903600020F0E70020EF
:102FA000EEE7C04600FCFF7F00FC0F000000F04F82
:102FB00000FC0F708B059B1501335A4253415B187F
:102FC0009B059B0D04330268D318036000207047F3
:102FD00010B5836EDB6A002B0ADD88680130591C4E
:102FE0000123194307F052FE002903D0002000E01E
:102FF000002010BD0120FCE710B5FFF760FF0020A6
:1030000010BD0B6B9B0301D4C86A7047CB6A486B39
:103010009842FAD21800F8E7036B034A13404902BA
:103020000B4303637047C046FFFDFFFF30B5036BE2
:103030000D4C23400D4CA1420FD08D020C4C2C4363
:1030400023430363094B994209D013684363074B39
:10305000994206D05368836330BD0024F0E7002313
:10306000F4E70023F7E7C046FF030080FF030000FA
:103070000000F04F03680133036000207047000038
:1030800010B5C36E8B4205D9806EC368984700287F
:1030900007DC10BD064B074A8A210748490006F0A5
:1030A000DBFB064B034A8B210348490006F0D4FBA7
:1030B00078350110E04101108C340110BC3401104E
:1030C00010B5026B93059C0D002B01D1002911DB7B
:1030D000FF235B009C4201D9002911DC89180163A0
:1030E0004B005B0889054A1E9141C9070B430363E6
:1030F000002010BD054B064A0648074906F0ACFB08
:10310000064B034A0348064906F0A6FBC8340110E3
:10311000B04101108C340110D112000000350110B3
:10312000D212000010B50C00CB68826E126BFF212A
:10313000180008F0C7FD01235B42236010BDF8B5FD
:103140000F000E68836E5C6A083C2100300007F0B7
:103150009DFDA64212D3013807F03EFD02308000EB
:10316000301A210007F092FD05004443341B07F09C
:1031700033FD8000241A3C602800F8BD0020FCE7E5
:10318000F0B5DE4657464E464546E0B587B0804628
:103190008B4617000393109B9946119E139BF218C0
:1031A000836E5B6A9A4200D9E9E0C36E002B00D1BE
:1031B000E1E04B4500D8E5E04D4694E05B465C68B5
:1031C0009B68E218B24224D9B44207D9A21B0492E8
:1031D000139B9A4200D892E0049390E0A21B994678
:1031E0009144139B994500D999465B46D968341B95
:1031F00009194A46129808F06BFD129B4B44129332
:103200004E44139B4A469B1A13936CE0139B049302
:1032100075E0139B049372E07B68BA689918B14219
:1032200070D9B34205D99B1B049A9A426AD9049378
:1032300068E0991B91468944049A914500D99146CA
:10324000F968F31AC9184A46129808F041FD129B12
:103250004B4412934E44139B4A469B1A139342E0ED
:10326000129A524412925644059B049C1C1B139BB9
:103270009C46A4446346139335E04346DB6E002B23
:1032800001D0AB426BD93D6043469B6ED96930009B
:1032900007F0FCFC0491731A9A467B60039BF418B8
:1032A00043469B6E9946D9696418013C200007F09B
:1032B000EDFC641A4B465B6AA34200D92300049AD2
:1032C000921B4946096BD2188A4200D90A00BA609B
:1032D0004346986E4468FB68009252462900A04716
:1032E000002842DC34D1139B002B46D05B46002BD8
:1032F0008CD01B68AB4200D160E7139B04933B6802
:10330000AB4289D0139B039A9342B6D343469B6E3C
:103310009946DB699A461900300007F0B7FC00298E
:10332000ABD1139B9A45A8D85146049C200007F0C6
:10333000ADFC0591621A92464A4652681400524604
:103340000092129B320029004846A047002887D0EF
:1033500007B0F0BCBB46B246A946A046F0BD0B4B39
:103360000B4A0C486B2106F077FA0B4B084A0948C8
:10337000762106F071FA4D46B5E70020E8E75420C3
:103380004042E5E754204042E2E7C04638350110AC
:10339000084201108C340110BC340110F0B5DE4637
:1033A00057464E464546E0B589B080468A46914626
:1033B0009B46CE680B6907933C30FFF755FD00280C
:1033C00000D182E04B469B0A9B0500D17FE043463B
:1033D000DB6B9B0A9B059B0D5A46920A9205920D48
:1033E000934276D9002706E005975B46DB1B6340D6
:1033F0004A461A4245D0079CA505AD156B1C5A429A
:1034000053411B199B059B0D1A000832B24262D82A
:103410000433F61A53461B680422039207AA029249
:10342000019600930423424600214046FFF7A8FE80
:10343000002852D1079B1BBA63405B005B080793CF
:103440004B469B0A9B05CFD0220DE023DB001340A7
:103450008021C9008B42C7D1A10A8905890D059732
:103460005B46DB1B980A8005800D8842BCD321494E
:10347000194021480143A14236D052B29202BF18EE
:10348000B2E7013533D0A3059B0D149D9D4200D9B1
:103490001D0053461A68129BF31803951399029165
:1034A0000433019300922B00424600214046FFF76F
:1034B00067FE002811D1149B5A1B139B5819002139
:1034C00008F000FC059B181907E0002793E7002788
:1034D00091E70A4F8FE70220404209B0F0BCBB469B
:1034E000B246A946A046F0BD02204042F5E70220C0
:1034F0004042F2E700FC0F000000104000FCFFFF1C
:1035000010B584B09C05A40D0294069C019400247F
:103510000094FFF743FF04B010BD000010B586B063
:10352000140003AB0093084B084AFFF7E9FF00289B
:1035300003DA831C06D1002004E003A92000FFF772
:1035400086FC002006B010BD0C00F07F0000F07F6C
:10355000F0B5DE4657464E464546E0B589B0814651
:103560008A4693461C00139E149F129B002B07D182
:10357000002009B0F0BCBB46B246A946A046F0BD4B
:10358000013B079307A9FFF7DAFD0500210038008A
:10359000B0470028EDD1002DEBD001232B409846F9
:1035A000022342469B1A9B00039305AA0292002223
:1035B000019200945A4651464846FFF7E1FD041E29
:1035C000D7D10123AB43A34208DDA30005AA995834
:1035D0003800B0470028CCD10134F2E79B0005AA9F
:1035E0009C584346023BED18D0E770B586B0040006
:1035F000006801001031836E5B6A15685268082606
:10360000039604AE0296019200950200FFF7B8FD02
:1036100000280ED1049B62689A4208D0059DA168DB
:103620008D4204D08B4202D0AA4200D00130431E0A
:10363000984106B070BD0000F0B5DE4657464E46D4
:103640004546E0B5ADB008900E0005921C00369BD3
:103650009B463AAB1B8899463BAB1B8806933CAB19
:1036600000229B5E9A46082200210BA808F02AFB44
:1036700000255F46A3059B1501335A4253411B1990
:103680009B059B0D0433059A90469844F368984532
:103690005BD3379B002B00DCF9E03B680D937B6824
:1036A0009B460837379B013B37930D98A64B389ABA
:1036B0001340399A42401900114007911342D9D161
:1036C000389B9B0A9B0500D108E1022D5FD80EAB09
:1036D00098462A01531B9B0041465E500992531B9A
:1036E0009B004344059A5A609C60DF60379A1A61D8
:1036F000389A5A61399A9A614A469A83069ADA83C5
:1037000052461A843D9A5A623E9A9A62D8625A4642
:103710001A630BAA343303CA03C3099A521B9200DB
:1037200028324244131D3E930135079B3993389349
:10373000864B3D9300239A46069399469AE7079D48
:1037400054465F46B246464694E7336804220392E5
:103750000DAA02924246019200930423089A002186
:103760001000FFF70DFD002800D0E5E00D9B1BBA0F
:103770006340802424061C430D9433680B93434616
:1037800004330C93434605930BAB9B468DE7704B7C
:10379000704A7148714906F05FF86C4B3D9A9A4245
:1037A00000D167E72B0109935B1B9B000EAA904693
:1037B00098443C220021404608F084FA099B5B1B98
:1037C0009B0006AA20215218D6504346059A5A60FB
:1037D0009C60DF60379A1A61389A5A61399A9A6107
:1037E0004A469A83069ADA8352461A843D9A5A6266
:1037F0003E9A9A620135079A93059B0D9946930A62
:103800009B059B0D4A46013206924A469B1A9BB283
:1038100053441BB29A465E4680239B053993504B16
:10382000389300233793002701246442059321E74E
:10383000002307951D00B0465646A2465C46BB468F
:103840003D9F0D9B9A05920D95421AD26900491928
:1038500089006218615CC0208000844661440905CB
:103860009B0A9B059B0DF3189B02194393685268B2
:1038700019433E98B84700285EDB00D05FE701356A
:10388000DFE7079D54465F46B2464646F2E6002013
:10389000002D51D0013D0EAB2A01511B8900CE589D
:1038A0005B185A6805929C68DF681A6937925A69F2
:1038B00038929A6939929A8B9146DA8B0692202136
:1038C0005A5E92465A6A3D929A6A3E92DA6A0D921E
:1038D0001A6B93460BAA343303CB03C2389B9B0A63
:1038E0009B050AD00D9B9B0A9B059B0D994500D912
:1038F000C0E6069A9A4200D8BCE60D9B07931B0DC2
:103900005B055A0D002B00D1B4E60223FF339A4227
:1039100000D142E781235B009A4289D05346990245
:10392000079B9C4661445A463E983D9B9847002819
:1039300002DB00D19EE6ABE72DB0F0BCBB46B24641
:10394000A946A046F0BDC0460000F07F392F001008
:1039500068350110804101108C340110B303000060
:1039600000FC0F60F0B5DE4657464E464546E0B5D2
:1039700085B080468B4692461D00119F139BFA1816
:10398000836E5B6A9A4255D9542040427DE053468B
:103990005A689B68D118B94221D9BA4205D9D21BBD
:1039A000139B9A4250D91A004EE0D41B1C19139B4A
:1039B0009C4200D91C005346D968BA1A89182200C3
:1039C000129808F085F9129B9C46A4446346129312
:1039D0003F19139B1B1B13932CE0139A34E0139A8B
:1039E00032E002235B422B6043469B6ED96938006C
:1039F00007F04CF97E1A6E600E9BFC1843469B6ED6
:103A00009946D9696418013C200007F03FF9641A0F
:103A10004B461B6BA34200D92300AB60EA680293BC
:103A200001920096109B0F9A59464046FFF7B6FC4C
:103A300000282ADB139B002B26D05346002BCCD02A
:103A40001B680233A3D0139A2B680233C9D16B6869
:103A5000AC681919B942C4D9BB42C2D8D91B641881
:103A6000944200D91400E968FB1AC9182200129880
:103A700008F02EF9129B9C46A444634612933F190A
:103A8000139B1B1B1393D5E7002005B0F0BCBB466E
:103A9000B246A946A046F0BDF0B5DE4657464E46B2
:103AA0004546E0B587B0894690461F00109B9B466F
:103AB000139E00243B0007009A4619E053461B1B47
:103AC000039504AA0292119AA21801925A460092F2
:103AD000424649463800FFF753FB002816D1129B97
:103AE00019192A0004A80EF0F9FA002807D1641960
:103AF000B4420AD2351B082DE0D90825DEE700289C
:103B000001DB022002E0012000E0002007B0F0BC51
:103B1000BB46B246A946A046F0BD0000F0B5D64669
:103B2000474680B587B007000C00059204930E68E5
:103B3000F31C40D8C36E9E4231D28D68836E9A4684
:103B4000196A6D18013D280007F0A0F86D1A534658
:103B50009B689846E3686268009531005046C0470C
:103B6000061E22DC002827D1049B002B12D0012343
:103B70005B42059A1360E3680395029363680193BF
:103B8000236800932B0000213800FFF785FF0028F1
:103B900018DB19D121003800FFF7C4FA0CE00C4BF8
:103BA0000C4A0D48B32105F057FE0C4B094A0A4850
:103BB000B72105F051FE0026300007B0C0BCBA4660
:103BC000B046F0BD0600F7E754267642F4E7C0465B
:103BD00070350110C44101108C340110BC34011047
:103BE000F0B5DE46474680B583B007000C00009272
:103BF00001930A9B98460B9D0D9E023302D0C36E23
:103C000043450AD9AB19BA6E526A934218D92D4B63
:103C10002D4A2E48E92105F01FFE2D4B2A4A2B483C
:103C2000E82105F019FE01333ED143462360BB6E07
:103C3000196A280007F02AF8691A61600023A36056
:103C4000002E38D023684345EDD16268AA42EAD8F5
:103C5000B96E096B5018A842E5D9531B8B469B449B
:103C6000B34500D9B346E068AA1A80185A460C99A1
:103C700008F02EF80C9B5B440C935D445B46F61AEF
:103C80006268AA1AA368934200D21300A360BA6EB6
:103C9000126B9A42D4D1019B009A21003800FFF7A1
:103CA0003DFF002808D1CBE70A4B074A832107488C
:103CB000490005F0D1FD002003B0C0BCBB46B046B2
:103CC000F0BDC046CC350110D44101108C34011038
:103CD00094350110F035011010B504000120404268
:103CE00010602000FFF71AFF002804D1A06E0369BE
:103CF0009847002800DC10BD024B034A0348DD2131
:103D000005F0AAFDBC340110744101108C3401107F
:103D100070B584B006001500006889058C0DB36885
:103D2000A34200D923002A68696803937568029545
:103D30000191009202000021FFF7AEFE002804D19D
:103D4000B368A34201D002D2013004B070BD02209A
:103D5000FBE7F0B5CE46474680B589B007008846F8
:103D600091460593109B002B0BD1013B129A1360D7
:103D70000023139A1360002009B0C0BCB946B046B6
:103D8000F0BD109B013B079307A9FFF7D8F9050089
:103D900011A93800FFF7D3F9060012E004230393BA
:103DA00005AB0293A3000193059B009304234A46AD
:103DB00041463800FFF7E4F90028DDD10123A34094
:103DC000ED1AB5420BD9A81B06F0FAFE1F24241ADF
:103DD000280006F0FBFE8442E0D90400DEE7059BE4
:103DE000129A1360119B139A13600020C4E700001D
:103DF000F0B5CE46474680B589B080460C00170026
:103E00004A6BC96A8A426DD28A1A91469A4200D98F
:103E100099464E4637E0DB0241D502235B42A3635D
:103E2000636BE363226B8023DB021343236343460C
:103E30009B6E5B6AE06B1D1AB54200D93500226BA0
:103E4000D2023FD521000831A28892029446220076
:103E50004032079205950497039025486246104327
:103E60000290244801900093079B00224046FFF7F0
:103E700079FD002837D1636B5B196363E36B5B19D2
:103E8000E3637F19761B002E2AD0236B5A03C2D519
:103E9000E16B4246926E526A9142C8D1BBE7A36A77
:103EA0002200403221003C31039104390291616BC0
:103EB0000191E16A009100214046FFF74AFF002886
:103EC000B0D010E022004032039502970190A16B20
:103ED000009100214046FFF753F90028CBD002E0C3
:103EE000484600E0002009B0C0BCB946B046F0BD6D
:103EF0000000102000FCF7FFF0B5DE4657464E46A6
:103F00004546E0B587B083468A4691469846129E5C
:103F1000139F002417E043461B1B039504AA02923B
:103F2000119AA2180192109A00924A465146584698
:103F3000FFF726F900280ED138682A0004A903F0FB
:103F400053FC38606419B44204D2351B082DE2D901
:103F50000825E0E7002007B0F0BCBB46B246A94602
:103F6000A046F0BDF0B5DE4657464E464546E0B5A4
:103F700097B005000E0092460693C36E002B08D042
:103F80001268934200D879E252465268934200D8B0
:103F900078E200231293139300279846A9460DE078
:103FA000791CC80F091801230B401B1A9B0012A98A
:103FB0005B58D21A002A00DDB8460137012F18DC01
:103FC000BC0012AD2B19042203920293002301932B
:103FD00053461B59009304234A4600214846FFF7E5
:103FE000CFF862590028DBD003005433E5D0834674
:103FF0003CE24D464346D90F5B1801221340591A43
:1040000089005346CB58336043460133D80F1B1801
:104010001A40131A99469B0052469B58736012AB84
:10402000CB58B3600023F3609A46013B9B46B046F1
:104030005346012B00DD0BE20EAAA14B11CB11C29E
:104040004146083101277F420422380003F0CCFBAF
:104050000B905B4607930023089309930593002672
:1040600044463DE1A0460300543301D1002322E041
:104070008346FBE1A0463B0DF022D2001340914A5B
:10408000944663445A425341DBB214E00422039243
:104090000DAA0292321D0192226800922A0000218C
:1040A0002800FFF76DF800284DD10D9A0B9B9A421E
:1040B0004FD0A04600234246D468002C00D18AE1AC
:1040C00046460022B275002B0AD0AF6E396A200036
:1040D00006F0DCFD002903D1089B002B00D088E10D
:1040E00028003C303100FEF7BFFE00280FD0EB6BFC
:1040F0009B0A9BB259468A0A92B21000584080052A
:1041000000D093E180231B065A461A439346219B15
:10411000002B09D05B469B0A9B05B28A9B0D9342FC
:1041200000D91300219A13805B46002B00DB9DE130
:104130009B0A9B059B0DB28A9A4200D885E1022317
:104140005B429B4692E1A04603005433B2D08346C3
:104150008CE10C9F3F0DFF0743467B401F00E86A40
:1041600004220BA903F040FBE8620C9A93059B150F
:10417000013359424B419B189B059B0D04339B19FE
:10418000E3602761059BA3820E9BA3610F9BE36104
:10419000099BE37501235B420B93079B9B469FE0C2
:1041A000A0460300543301D1002384E783465DE138
:1041B0008021C90088421FD0C023DB00984242D032
:1041C0005205520D404B9A4200D0E9E0AB6E5B6A5B
:1041D0000822039210AA02920197226800922A00F4
:1041E00000212800FEF7CCFF002848D0543000D131
:1041F000EEE001230893D3E052B291B205988446D1
:10420000614489B20591314807990840304901431A
:104210008B4212D00798411C00D1C1E09B0A9B053C
:104220009B0D810A8905890D994200D2B8E092025E
:104230008446944463460793B2E080231B06079AA2
:104240001A430792ACE001231A400992AB6E5B6AF5
:10425000082203920EAA02920197226800922A0075
:1042600000212800FEF78CFF002800D198E0A0462E
:104270000300543301D100231DE78346F6E00123F8
:1042800008938DE0A0460300543301D1002312E7C8
:104290008346EBE00C9B079F3A005F400D490F42BD
:1042A0001AD002281BD1990A8905890D920A920514
:1042B000920D8A4213D3802212061A4307920EE00F
:1042C0002C42011000FBFFFFFF05000000FC0F0067
:1042D0000000F04F00FCFF7F01235B42079347463D
:1042E000BB059B1501335A425341DB199B059B0DBE
:1042F0000433F618AB6E5B6A042203920CAA029296
:104300000196226800922A0000212800FEF738FF5B
:10431000002800D0A6E60B9804220CA903F064FA4A
:104320000B900C9B1BBA7B4098460C9300D5A1E6E2
:104330009A059215013253425A4142449205920D18
:10434000111D7118AB6E5B6A99423ED84146090D4A
:10435000F020C0000140A020C000814200D195E6BD
:10436000371D0BA9039102920197226800922A003F
:1043700000212800FFF7C0FD002800D010E70C9BAB
:104380001A0DE021C900100008400A4200D00FE7D2
:104390009B0A9B059B0D059A9A4201D80133059310
:1043A0000C99209B4B40069A1A4298D1236814938B
:1043B000159714AA2398229B9847002800DA61E7F2
:1043C00000D067E70C9B079389E7A046002372E6BD
:1043D000A04600236FE61368526841460A604B60AE
:1043E0004B469B0012AA9B588B6001239C46E244DB
:1043F0001EE601235B420D937B6A0DAA0392109A7D
:1044000002920194326800922A002800FFF774FD9E
:10441000002804D00300543301D0834626E0119ACB
:104420000D9B9B1A5A425341B37559E658460130C9
:1044300000D16CE69B059B0D9205920D9A4200D827
:1044400065E6124B9B468B4461E600239B460DE0DC
:10445000464633680E490F480F4A0192726800922F
:104460000E4A07F01DFE54235B429B46584617B088
:10447000F0BCBB46B246A946A046F0BD54235B4201
:104480009B46F3E754235B429B46EFE700FCFFFFAC
:104490008C34011014360110CC2B0110560500008D
:1044A000F0B5D6464F464646C0B58AB007000E0066
:1044B0001400002393610133D36105AA284B21CB5B
:1044C00021C201239846012539E0264B2649274879
:1044D000274A07F0E5FD542040423BE05346059350
:1044E000E369069343465B00984600250FE00123ED
:1044F00000E00123002B2BD118239946A14405A9E4
:104500004846FEF78DFC0028DFD14545E6D0013551
:1045100007AB079732680892726809920393154BAC
:10452000029300230193144B0093144B4A4621003D
:104530003800FFF717FD002801D0831C0AD1A369BA
:104540009A460133D5D0E3690133D0D00023D1E7B7
:10455000022040420AB0E0BCBA46B146A846F0BDCF
:104560002C420110CC2B01108C3401104C36011060
:10457000B0120000EB35001008000020FF03F07FB0
:1045800010B584B001235B4200240394029401948B
:104590000093FFF7E7FC04B010BD0000F0B5DE4665
:1045A00057464E464546E0B593B005000E000592CD
:1045B0009946202200210AA807F084FB01231193C9
:1045C00008AA624B11CB11C201239B460127109C04
:1045D000631C00D180E0119B013300D17AE00023FD
:1045E000002B00D07AE008A910A8FEF719FC0028DB
:1045F0000FD15F4516D001370024012C1ADCA31D12
:104600009B000AAA99580598B04700281ED101348A
:10461000F3E74F4B4F495048504A07F041FD5420B3
:10462000404213E00894119B09935B465B009B4654
:104630000027E0E710AA0AA92800FFF7A1FF824699
:10464000002803D1002417E0831C13D013B0F0BC62
:10465000BB46B246A946A046F0BD069B059A02920B
:104660000196079A00922A0000212800FEF770FFA9
:104670000028EBD10134A4B20AAB9B8AA342A6D98D
:10468000A202374B134306AA0092364A0AA9280011
:10469000FEF736FF0028D7DB000D4005400D324BFA
:1046A0009842DAD04B46002BE4D080239B009842FE
:1046B000E0D1D04602E001239C46E0444346012B72
:1046C000D8DC43469B0006AAD1580598B04700287D
:1046D000F1D0BBE7012383E7012381E7AC6A0FE058
:1046E00021004031A36A059A02920196E26A009283
:1046F0002A002800FEF72CFF00280ED0A6E7246829
:10470000002C21D0A379012BF9D1236B88225203ED
:104710001340802252029342E2D0236B9022520334
:104720001340802292029342E9D121004031A36BD1
:10473000059A02920196626B00922A002800FEF709
:1047400007FF0028DBD081E700207FE72C42011023
:10475000CC2B01108C3401104C36011011120000CA
:104760000800002000FC0F700202000070B5040079
:10477000406DE36DC018E16E06F088FA61650023B4
:10478000E365A26E536B216EDB008B4200D90B00F8
:10479000A365606E526B002107F094FA064901236D
:1047A00022002000FFF7FAFE051E01D1280070BD8F
:1047B0002000FEF7A4FBF9E70D2F001030B583B001
:1047C00004000D00E36DA26D934226D2616EDA08FB
:1047D0008A5C07201840C240D20705D50133E36543
:1047E000236E013B2366EDE7606DC018E16E06F0B5
:1047F0004DFA2960E36D0133E365226E013A2266CA
:10480000A26D934224D2616EDA088A5C07210B40C4
:10481000DA40D207EED400201BE0226E002A05D039
:104820002000FFF7A3FF0028CCD012E0606D18181D
:10483000A36E996A06F02AFA0B00074C0748084A4B
:104840000092084A210007F02BFC1C20404200E0A7
:10485000002003B030BDC0468C3401107836011002
:10486000CC2B0110B102000070B584B006000C0022
:104870000025012D0DDC0135EB0FEA180121114057
:10488000C91A890061183000FFF798FF0028F0D09E
:104890002FE00023A360220008320421039102923A
:1048A0000193236800930423320000213000FEF7B7
:1048B00067FCA568002802D00300543319D1B26EFA
:1048C000D16A002909DD0131012211436D18013D32
:1048D000280006F0DBF96D1AA5600423E360053BB0
:1048E00023610022A282A361E3610023A375E37523
:1048F000002004B070BD0000F0B5C64600B58AB017
:1049000005000E005BE031004031131B01220392D1
:104910001A3202A88446624402920194B26B009259
:104920002A002800FEF72CFC002858D1290010315D
:10493000012303931A3302AA944663440293019419
:10494000099B009301232A002800FFF749F900285A
:1049500027D10134F26BA24247D9336BDB02D2D5A7
:1049600031000831B3889B029C46330040330793E3
:10497000012005901A3002AB9846404404900394FD
:10498000284863461843029027480190121B009262
:10499000079B00222800FEF7E5FF0028C6D007008D
:1049A0003BE0030054331CD1099B20492048214A95
:1049B0000092214A07F074FB01235B422B6109A995
:1049C0002800FFF7FBFE071E27D109992800FEF7F4
:1049D00057FB071E07D003005433E5D01DE0070046
:1049E0001BE0070019E00024B4E7F06CE969AB6E46
:1049F0001A6B07F06DF92B6933646B697364AB69EB
:104A0000B364290010312800FEF78CFB099BB363C7
:104A1000326B80239B021343336338000AB080BC9F
:104A2000B846F0BD0000102000FCF7FF8C340110E8
:104A3000A4360110CC2B0110D60C000070B5050077
:104A40000C004B6BCB63FEF757FA21002800FFF7F1
:104A500053FF002803D1236B014A1340236370BD29
:104A6000FFFFEFFFF0B5DE4657464E464546E0B540
:104A70008BB004008846150099464EE0149B002B2D
:104A800033D0149B013B089308A92000FEF757FB85
:104A9000089B01330893A26E526A93425ED00027AE
:104AA0004B46B1461E00089BBB4248D9DB1B012286
:104AB000039209AA0292019700962A000021200081
:104AC000FEF75EFB002838D10123039309AB029364
:104AD0000197079B009301232A0041462000FFF71E
:104AE0007FF8002808D10137DDE7079B159A13608E
:104AF0000023169A136029E0B146030054331CD1F9
:104B0000079BBA2238493948394E0096120107F0FE
:104B1000C7FA01235B424246136007A92000FFF752
:104B20004DFE061E12D107992000FEF7A9FA061EB7
:104B3000A4D003005433E3D008E0060006E04E465C
:104B4000079B159A1360089B169A136030000BB0F0
:104B5000F0BCBB46B246A946A046F0BD013006F007
:104B600035F88246431C9B464B4609930027059324
:104B7000B1462E00250009E02C003500059B994622
:104B800003005433BCD00600E0E701375F4522D272
:104B9000BC000423039309AB02930194079B009389
:104BA0000123320041462800FFF71AF8099B00282C
:104BB000E2D15745E9D00422039209AA0292019456
:104BC00000930423320000212800FEF7D9FA0028C0
:104BD000DBD00600BAE74E46079B159A13605B468A
:104BE0009B00169A1360B1E78C340110A4360110B3
:104BF000CC2B0110F0B5C64600B588B006000C00FD
:104C0000150019000593236BDB0209D5636BE26A7B
:104C10008C466344934200D21300F26F9A4231D320
:104C2000059B98464346002B00D19DE0236B8022D4
:104C3000920219001140134204D0E06BB26E526A26
:104C4000904255D1DB0249D4002902D1626B002A7F
:104C500024D13000FEF750F9A36B2100403122002F
:104C60003C320292043A0192626B009232003000B0
:104C7000FFF7F8FE002836D0226B80231B03134376
:104C800023635FE021003000FFF7D8FE0028C7D083
:104C9000226B80231B031343236353E02700403719
:104CA000A36AE16A0020079007A80390200038302B
:104CB0000290013A019200913A0000213000FFF782
:104CC00048F8002804D139003000FEF72BFAC0E77D
:104CD000226B80231B031343236333E002235B42D5
:104CE000A363636BE363226B80239B021343236301
:104CF000B36E5F6AE36BFF1A474500D94746210050
:104D0000403103970295E36B0193A36B009301235A
:104D100032003000FEF764FF002817D00300543340
:104D20000BD121003000FFF7E7FD0028E7D0226B10
:104D300080231B031343236304E0226B80231B03A4
:104D40001343236308B080BCB846F0BD636BDB1926
:104D50006363E36BDB19E363ED194346DB1B9846A2
:104D60003000FEF7C9F85DE70598EBE7F0B599B0BC
:104D700005000C000B6B5A0307D5DA0202D401229E
:104D800052420A64374A13402363236B9A0365D562
:104D9000666BDB024ED45422002103A806F092FF7A
:104DA000A36A0D93E36A0E9301230F93636B109331
:104DB00013AB2A0083CA83C312681A6001235B42C3
:104DC0002B60626BE36A9A4219D201230B226A4478
:104DD00003A92800FFF70CF8002840DB01230B2271
:104DE0006A4421002800FFF705FF002837DB2B6805
:104DF0000133E6D001235B4213932B60E1E72100EE
:104E0000403101232A002800FEF788FE002816D032
:104E10000300543323D1A36B13491448144A00925E
:104E2000144A07F03DF921002800FFF765FD00282E
:104E3000E5D014E0E36AB34200D233006363A36BAE
:104E4000A362636BE362236B0B4A134023638022EC
:104E50005202134323636663002000E0002019B070
:104E6000F0BDC046FFFFFBFF8C340110A4360110DB
:104E7000CC2B0110250D0000FFFFFDFFF8B505004C
:104E80000C0016001F00096BCB070DD5890304D554
:104E90002100FFF76BFF002805D13B003200210005
:104EA0002800FEF7A5FFF8BD034B044ADB210448A8
:104EB000090104F0D1FCC046C8360110E4400110DD
:104EC0008C340110F0B583B005000C0016004F6B58
:104ED000002B04D0012B21D0022B23D03E006B6F7E
:104EE000B34237D3BE4224D0236B9B030CD401972B
:104EF00001A92800FEF723F907000096694628005B
:104F0000FEF71DF9874216D021002800FFF72EFF7B
:104F1000002801D16663300003B0F0BDD74216D43B
:104F2000D619DCE7FEF76DF88619D8D51620404271
:104F3000F2E73000F0E7636C009A9342E4D8A16C8A
:104F40005B189A42E0D26663E2633000E4E7162021
:104F50004042E1E716204042DEE710B50023002280
:104F6000FFF7B0FF002800DB002010BDF0B585B0D2
:104F700006000D0001921F000B6B9A0723D55B03FF
:104F800027D42B6B1A0504D5696BEA6A914200D2CB
:104F90006A636C6BE119726F91422DD89B031DD42B
:104FA000EB6A9C421AD96B636B6B9C4216D902ABBD
:104FB000DA1D00231370013329003000FFF71AFEB9
:104FC0000028F1DA16E00E4B0E4A0F480F4904F0A4
:104FD00043FCFFF7CBFE0028D3D00BE03B00019A47
:104FE00029003000FFF706FE002803DB2B6B084A80
:104FF00013402B6305B0F0BD1B204042FAE7C046CA
:10500000F8360110C44001108C340110170E000056
:10501000FFFFF7FF00B583B000230193044901AA05
:10502000FFF7BCFA002800D1019803B000BDC046CC
:1050300075300010F0B5D646474680B585B0019072
:105040000E001400002393610133D36102AA284BA0
:1050500081CB81C201250127A3699846013336D04F
:10506000E369013331D00023002B32D118239A4653
:10507000A24402A95046FDF7D3FE002815D1AF4245
:105080001CD001373368434526D0E16972689142EC
:1050900028D0424528D0994228D052462100019874
:1050A000FFF76EFA0028D7D017E0124B12491348C9
:1050B000134A06F0F5FF542040420EE043460293A7
:1050C000E36903936D000027DBE70123CCE70123AD
:1050D000CAE70220404200E0002005B0C0BCBA464A
:1050E000B046F0BD0020F8E70020F6E70020F4E726
:1050F0002C420110CC2B01108C3401104C360110C5
:105100006F120000F0B585B00C0017001E00010002
:105110001031039302926368019323680093002384
:105120000200FEF75DFD051E02D0280005B0F0BDAF
:10513000E0683200390002F057FBE06063689B19B9
:105140006360F2E7F0B5DE4657464E464546E0B5A9
:1051500087B005008846994617009405A4150134C8
:1051600063425C41A418A405A40D231D9A464B6814
:10517000534449698B4247D85600760843469B689A
:1051800073401BBA0593042305AA4146FFF7BAFFF3
:10519000834600282ED1002F22DA0027A74227D2EB
:1051A0005346DB1B4A4611685268043B01200390BA
:1051B000123068440290D219019200912A00002115
:1051C0002800FDF7DDFF00281CD1012313226A44CB
:1051D00041462800FFF796FF002813D10137DDE78D
:1051E00023004A4641462800FFF78CFF00280FD1D4
:1051F00043469E60584607B0F0BCBB46B246A9463F
:10520000A046F0BD8346F5E71C235B429B46F1E7D1
:105210008346EFE710B50C001300416800682200D8
:10522000FFF790FF10BD0000F0B5DE4657464E4632
:105230004546E0B58BB006000D004F68836E5A6A94
:105240001437974200D91700196ACF19013F380067
:1052500005F01CFD7F1A002305939B466BE013238A
:1052600002AA94466344FF221A70BC4205D3B36E6F
:105270005A6A1B6AD21AA24270D2132302AA944617
:1052800063441B78DB43DBB2DB09A022D2009446E7
:1052900063441B056A68A21A043A1343654A1A4319
:1052A0009046AB6853401BBA07AA91460793E8683B
:1052B0000422494602F098FAE8604B4658601023F1
:1052C0009A46B244083B03934B4602936B680193A2
:1052D0002B6800930023320051463000FEF780FC1B
:1052E000002800D098E05B46002B04D16B680433A3
:1052F0009B46EB6805936C60132302AA94466344B3
:105300001B78DB431B06DB0FDB0742465340AB60D9
:1053100001235B42EB60BC4205D27369B26E126B33
:105320009B18A34207D80023320051463000FEF7F5
:10533000D3FC002870D16C68BC4241D23B1B043BBB
:105340003D4A934200D91300E4180434BC4286D28B
:105350003B00143B9C4282D91C0080E7012203924F
:1053600012326244029201942A68009232000021B3
:105370003000FDF705FF002802D0030054334BD165
:10538000B36E1B6A079301225242089208AA039245
:10539000029301942A680092320000213000FEF747
:1053A000ABFD002802D00300543335D107AB234AAC
:1053B00029003000FFF7C6FE002800D15DE72BE092
:1053C0002A6901235B4209935B46043309A90391CF
:1053D0005946891A029101922A68009232000021EE
:1053E0003000FEF789FD002816D1099B059A9342EB
:1053F00019D109AB0393042302935B4601932B68F5
:1054000000930423320000213000FEF775FD0028D0
:1054100002D1099B002B09D10BB0F0BCBB46B246B0
:10542000A946A046F0BD54204042F5E75420404232
:10543000F2E7C04600FC0F00FE03000008FCFF5F1F
:10544000F0B5DE464F464646C0B59CB005000C00A0
:105450000A920B9324AB80CB1B88984626AB1B8803
:105460009946FDF7B5FD0600A3680133A360002847
:1054700033D000231693013317932368002B2CD0CD
:105480006268012A29D0012B27D0002A25D00123C8
:105490005B422B61002E00D10FE100231A930133F0
:1054A0001B932368002B00D110E16268012A00D110
:1054B0000CE1012B00D109E1002A00D106E1211DF8
:1054C0002800FFF77BF9002827D003001C331ED1EA
:1054D000002E1CD0B346002601E000239B466368E3
:1054E00010930023119301225242129213921493AB
:1054F000AA6E536D002B14D0083B159361682800E9
:10550000FDF7BEFD00280FD003005433BFD01CB000
:10551000E0BCBB46B146A846F0BD002601239B4631
:10552000DDE7536A083BE8E722000832042310A9AC
:105530002800FFF7E7FD002803D003005433E6D12D
:10554000A5E718AA189510AB199301230892654A8C
:1055500007924246524212B206924A46059242468B
:10556000049200220392604A02920B9A01920A9AD4
:1055700000925B42002239002800FEF75DF8002807
:1055800003D003005433C2D181E7A36901332CD087
:10559000E369013327D0C00729D50C2200210DA8CB
:1055A00006F090FB5B46002B36D0290048310DA851
:1055B000FDF74DFC0D9B9B0A9B020D930DAA21004C
:1055C0002800FDF7ABFF0028A1D102282FDC8300C3
:1055D00068229B1802AA944663443C3B1B68002B3C
:1055E00035D10130F1E70120D5E70120D3E7E17D96
:1055F000C023DB009C4661440905230018333B4A65
:105600000A4310A92800FFF79DFD0028C5D003001C
:10561000543300D07BE73AE729003C310DA8FDF771
:1056200016FC290030310DA8FDF711FCBDE7012360
:10563000002B0ED10DAB2E4A10A92800FFF782FDDA
:10564000002806D00300543300D060E71FE7002392
:10565000EEE710A92800FFF7E7FD002804D00300BB
:10566000543300D053E712E71198AB6E196A05F076
:105670000DFB00291BD123686268226063604B46E2
:1056800042469B1AA382119BE360129B2361280070
:1056900048300C22002106F015FB5B46002B04D19C
:1056A0002B003C33303507CD07C358462FE7114B4D
:1056B000114A1248124904F0CFF863680F491148A3
:1056C000114A0092114A06F0EBFCE6E663680B49CA
:1056D0000F480D4A00920F4A06F0E2FC1C2040429F
:1056E00015E7C0461552001000FC0F4008FC0F00E3
:1056F0000CFCFF7F28370110644101108C3401102D
:1057000003080000A4360110CC2B0110150800007E
:10571000503701101A080000F0B5DE464F4680B53C
:105720008FB005000C000492059316AB40CB19888E
:10573000894618AB19888B4606A9FFF795F8071E0E
:1057400005D038000FB0C0BCBB46B146F0BDE37D0C
:1057500006A9CB75A3698B61E369CB6158460290BA
:10576000484601900096059B049A2800FFF768FEC2
:10577000002817DB0699A161079AE2610123E3750E
:105780002368286A834207D066686C6AA64203D001
:10579000A34201D0B042D4D14B46002BD1D12962D3
:1057A0006A62CEE70700CCE7F0B5DE4657464E46C4
:1057B0004546E0B593B0814615009A461CAB04CB34
:1057C0001B880C931EAB1F880D912E000A92B846C1
:1057D0004FE07F08196ACF19013F380005F056FAEB
:1057E0007F1ABE4200D93E000F9BB3422ED96408F7
:1057F0002D1943465C1B012C28D900200F90AAB21A
:1058000001230FA9089155490791514209B2069108
:105810004146059104920390514A029252460192E8
:105820005A4600925B4200220A994846FDF704FF5F
:10583000002869D1FE2CDAD84B469B6E5F6A3E0089
:10584000283E5A6D002AC4D05708C3E70B9F5E4616
:10585000BD4228D0ADB24346029301950A9B009306
:10586000534632000D994846FFF756FF002804D1F1
:10587000A8460C9D0B95B346BBE735000A9B9B469B
:1058800047460D9B984603001C333DD143461B6899
:1058900034493548354A0192424652680092344AAA
:1058A00006F0FEFB05E035000A9B9B4647460D9B34
:1058B000984641464846FDF78BFB002819D0002347
:1058C00010930133119343461A68002A06D05B688F
:1058D000012B03D0012A01D0002B0AD14846FFF743
:1058E00099FB002810DB4B46DB6E181ADB08984248
:1058F00011D802970C9B01935B46009353462A00F4
:1059000041464846FFF79CFD13B0F0BCBB46B2468B
:10591000A946A046F0BD43469B6812491548134A64
:105920000092154A06F0BCFB02970C9B01935B4664
:10593000009353462A0041464846FFF7EDFE0028F3
:1059400009D003001C33DFD1084B06490B480C4A31
:1059500006F0A6FBCDE70C9FCBE7C046B52F0010A5
:1059600000FC0F408C34011088370110CC2B011043
:105970006D080000B837011083080000E8370110F7
:105980008D080000F0B5DE4657464E464546E0B568
:105990009DB081460E0092461F00269B00200025E8
:1059A000AC461D0003E0B38A0133B3820130A84244
:1059B0002CDAC10079180B681B0D5A05520DAC4C3E
:1059C000A242F0D0AB4CA24212D0E022D20013404F
:1059D000013AFF3A9342E9D14B681B68B3614B68C7
:1059E0005B68F3610A68120D01231340F375DDE76C
:1059F000B38A002B04D0013BB38201239C46D5E738
:105A00009D4B9E4A9E489F4903F026FFA846654647
:105A1000002D1BD0B38A002B18D1279B002B0AD056
:105A2000279A31004846FFF705FB051E09D0831C65
:105A300000D064E10AE0944B904A9148934903F006
:105A40000BFF279BDB7D002B00D0C6E0B47D002C34
:105A500030D033681293F3681393326914920122A1
:105A60005242159216934B469A6E536D002B42D0BC
:105A7000083B12A81793F26833691AA94D461A9584
:105A80001B9008918249079100210691059104918C
:105A90000391029141460191009731004846FDF77C
:105AA000CBFD051E2AD003001C3303D00300543362
:105AB00000D024E101235B424A461361B38A02937A
:105AC00000230193009643463A0031004846FFF711
:105AD0006BFE031E00DA1DE15246126893461892CF
