:020000041000EA
:1000000000B5324B212058609868022188439860DF
:10001000D860186158612E4B002199600221596106
:100020000121F02299502B49196001219960352056
:1000300000F044F80222904214D00621196600F024
:1000400034F8196E01211966002018661A6600F04E
:100050002CF8196E196E196E052000F02FF8012189
:100060000842F9D1002199601B49196000215960AB
:100070001A491B48016001219960EB211966A021F2
:10008000196600F012F800219960164914480160C1
:100090000121996001BC002800D000471248134993
:1000A000086003C880F30888084703B5996A0420EC
:1000B0000142FBD001200142F8D103BD02B5186610
:1000C0001866FFF7F2FF186E186E02BD00000240BE
:1000D000000000180000070000035F00212200005C
:1000E000F4000018222000A00001001008ED00E03C
:1000F00000000000000000000000000074B24E7A12
:1001000000200420F7010010C3010010C5010010F9
:10011000C1010010C1010010C1010010C101001097
:10012000C1010010C1010010C1010010C701001081
:10013000C1010010C1010010C9010010CB01001065
:10014000CD010010CD010010CD010010CD01001037
:10015000CD010010CD010010CD010010CD01001027
:10016000CD010010CD010010CD010010CD01001017
:10017000CD010010CD010010CD010010CD01001007
:10018000CD010010CD010010CD010010CD010010F7
:10019000CD010010CD010010CD010010CD010010E7
:1001A000CD010010CD010010CD010010CD010010D7
:1001B000CD010010CD010010CD010010CD010010C7
:1001C00000BE00BE00BE00BE00BE00BEEFF3058054
:1001D000103800BEF2EB8871703D0210903D0210A5
:1001E0003402001090A31AE700201F49086006C8D7
:1001F00081F3088810471D48006800282FD10DA4FE
:100200000ECC002902D000F012F8F9E71849194A7B
:10021000002000E001C19142FCD1174988471749ED
:1002200088471749884700BEFDE701C901C29A42C5
:10023000FBD37047903D0210C0000020BC17002087
:100240008C54021000000420000004208C54021082
:10025000001004200010042000000000704709482E
:1002600016F060FD0047000008ED00E0000000D03F
:10027000C017002004510020015A01101104001081
:10028000C15901105756000006005250ABB36053DD
:10029000F42D021006005250861C03020C2E021090
:1002A000060052505422A29D302E021005005250DA
:1002B000DE65F4688C540210F8B5C0460448054B5E
:1002C00010B5834203D0044B002B00D0984710BDDB
:1002D000BC170020BC17002000000000064807499A
:1002E000091A8B10C90FC91810B5491003D0044B57
:1002F000002B00D0984710BDBC170020BC17002071
:100300000000000010B5074C2378002B09D1FFF73F
:10031000D5FF054B002B02D0044800E000BF0123AD
:10032000237010BDD01800200000000088F70110D5
:10033000054B10B5002B03D00449054800E000BF71
:10034000FFF7CCFF10BDC04600000000D41800200D
:1003500088F7011010B51AF0BDFB074B02221A6096
:10036000064B1A688023DB015340E022D201134080
:10037000034A136010BDC04600E0044000C00440C2
:1003800000D0044010B5184B1A688023DB0153409D
:10039000E022D2011340154A1360154B04221A6063
:1003A000114B1B68DB05FBD50F4B58680004000C94
:1003B00017F0DEFC0F4917F09EFC0F4917F085FC83
:1003C00017F032FD0D4A0E4B16F03BFF0D4A0E4B57
:1003D00016F049FF02000B0000200C4916F031FF17
:1003E00017F058F810BDC04600C0044000D00440CB
:1003F00000E004403333534000F07F45643BDF4F5F
:100400008D97E63F7FC2D9AD65325C3F00003B402F
:1004100010B582B017F0AAFF002019F0C7FB002822
:10042000FAD03E4817F066FF192013F07FFCD02366
:100430001B06802292045A62FFF78CFF384817F09F
:1004400089FF384A3848082100F01AFB002808DBE9
:10045000364817F04FFF364817F07CFF00F01EFBC0
:100460000AE0344817F046FFFEE7FA20800000F06B
:100470003BFB2E2017F00AFF00F015FB0028F4D0FC
:100480002D4817F037FF19E02A4817F033FF2BE00B
:100490002A4B195D2A4817F05DFF0134294B1B6870
:1004A000A342F5DC0A2017F0F1FE244B1B78002B49
:1004B0002ED0D0231B06802292045A61FFF762FFE0
:1004C00017F078FC41B26B46DC1DD9711E480A005A
:1004D00017F040FF02220121200000F02BFB002832
:1004E000D2DB124817F006FF184800F0FDFA041E90
:1004F000E4D1174A1148F22100F02EFB011E114BE6
:100500001860DBDB124B1A78124817F023FFC5E79F
:10051000D0231B06802292049A61CFE788F701104E
:10052000B4F70110A4F80110B4F80110DCF70110C1
:10053000E8F70110D0F7011004F80110BC4D0020BD
:1005400078F80110B04E00201CF801103075000042
:10055000FF50002050F80110014B01221A70704723
:10056000F650002070470000014B18607047C046ED
:1005700060300020014B98707047C046D00C0020BE
:10058000024B421E904118737047C046D00C0020A9
:1005900010B5044B1B78002B00D110BD00F08EFD70
:1005A000FBE7C046F450002000B583B0084B1B7831
:1005B000002B0AD100236A46137053700193002167
:1005C000684601F04FF803B000BD00F0C9FDF1E747
:1005D000F450002070B50400084B1B78002B0AD1A2
:1005E000074D68686168627817F016FD63786B7074
:1005F00023782B7070BD00F0F3FCF1E7F45000207D
:10060000B80C002010B5044B1B78002B00D110BD96
:1006100000F020FCFBE7C046F450002010B50400B9
:10062000084B1B78002B07D10523E356013306D076
:10063000002001F015F910BD00F0D0FBF4E700F048
:10064000D5FFF8E7F450002010B5044B1B78002BC1
:1006500000D110BD00F062FBFBE7C046F450002063
:1006600010B5044B1B78002B00D110BD00F004FB2B
:10067000FBE7C046F4500020F0B5DE4657464E4634
:100680004546E0B593B08046994B1D68002D2DD0AE
:10069000012303702B689A466B689946AF68ED6832
:1006A000944B1C68002C5BD000239B4643465A4663
:1006B0001A702668A368019363680093E568342381
:1006C00002AA13778C4B0A9309A80EF0C1FA0623ED
:1006D00002AA13775B460A9309A80EF0B9FA002E16
:1006E00032D000234246D361002411E02F00A946F6
:1006F000AA46D5E760008149301805AA1AF010FF14
:100700004346DB691B02059A13434246D361013419
:10071000032CEFDD09A8072303704346DB69436020
:100720000EF096FA019C5346002B29D00026072E86
:1007300018DC70007249504403AA1AF0F1FE039AC3
:1007400005AB9A550136F2E76E4B9B68984702F06D
:10075000FFFE6D49002002F001FF4346D861D9E752
:100760000094E0E709AE0223337005AB0A93300032
:100770000EF06EFA4346581C0A99082202F0F9FE60
:100780004B46002B1BD00026072E0ADC70005C496C
:10079000484403AA1AF0C4FE039A05AB9A550136E1
:1007A000F2E709AE0323337005AB0A9330000EF075
:1007B0004FFA0A9908224046093002F0DAFE002F6B
:1007C0001CD0002609E070004D49381803AA1AF021
:1007D000A7FE039A05AB9A5501360F2EF3DD0823C9
:1007E00002AA137705AF0A9709A80EF031FA092378
:1007F00002AA13770A9709A80EF02AFA002C14D03F
:10080000002709E078003E49201803AA1AF088FE64
:10081000039A05ABDA5501370F2FF3DD09A80F2333
:10082000037005AB43600EF013FA009B002B25D03C
:1008300000240BE060003249009B9C46604403AA00
:100840001AF06EFE039A05AB1A5501340F2CF1DD38
:100850000C2302AA137705AC0A9409A80EF0F8F944
:100860000D2302AA13770A9409A80EF0F1F90E23BA
:1008700002AA13770A9409A80EF0EAF9002D27D0EE
:10088000002614E0B4001E4F281903AA39001AF0FC
:1008900047FE0234281904AA39001AF041FE039BCE
:1008A000049A1B021343720005A98B520136052ED0
:1008B000E8DD232302AA137705AC0A9409A80EF0F9
:1008C000C7F9242302AA13770A9409A80EF0C0F9E5
:1008D0000E4B1B78002B06D113B0F0BCBB46B246C2
:1008E000A946A046F0BD404600F086F9F4E7C046B0
:1008F000442D0020EC18002000040001D4F8011061
:10090000DCF80110E00C0020FFFFFF01F450002094
:1009100010B5054B1B78002B02D112F05FFE10BD05
:1009200000F054F9F9E7C046F450002010B5002B50
:1009300002DB0260436010BD024B034A03483F21C3
:1009400015F042F8E0F8011040F90110FCF8011030
:1009500010B582B0040014F03DFB02000B006846A5
:10096000FFF7E4FF009A019B22606360200002B061
:1009700010BD000070B582B0060014001D00FA2200
:10098000920000230698002117F078F902000B006E
:1009900012196B41002B09DB6846FFF7C7FF009A6D
:1009A000019B32607360300002B070BD0122524280
:1009B000004BF1E7FFFFFF7F30B585B004000D006D
:1009C00002A8FFF7C5FF029A039B00952000FFF7DE
:1009D000D1FF200005B030BD70B582B004000E001C
:1009E00012F0DAFD12F0F8FE20680823E356042224
:1009F000A2561E498C466044411E8841C1B21C4823
:100A000001256D4201950C2565570095050012F0F2
:100A10004BFF1022A2568C3DCC23EA541423E356FC
:100A20002B701823E3562B751C22A2562823EA5458
:100A300012F0E8FF422010F0F6FF122810D10D4905
:100A40000E700D4800F036FD00280CD1143001F076
:100A500035F80A49002001F041F8002002B070BDCD
:100A600001204042FAE701204042F7E70040FCBF86
:100A7000682F0020D00C0020E00C0020C00C0020CB
:100A800010B5044B00241C60034B1A60FFF7A4FF51
:100A900010BDC046EC180020442D002010B500F019
:100AA000A5FD002010BD10B500F0A8FD013843429F
:100AB000584110BD10B582B001F07AF801A812F0CB
:100AC00057FD084B1B78012B06D0012401A812F01A
:100AD00054FD200002B010BD024B00221A70002409
:100AE000F4E7C046F650002070B582B001006846B9
:100AF000FFF762FF009C019DFFF7D5FF431E984161
:100B0000C6B2FFF7D7FF0A4B1B78002B0BD1FFF7BC
:100B1000CAFF86420AD12000290014F0D5F9002826
:100B2000EFD0012000E0002002B070BD0020FBE704
:100B3000B80C002000B583B06B461A705970019054
:100B40000021684600F08EFD002801D103B000BDF1
:100B500001204042FAE7000070B50B4B1B78137080
:100B6000002B0DD0084B5C788C4200D90C00064D50
:100B70006968220017F050FA00232B70200070BD26
:100B800001246442FAE7C046B80C0020F8B507001B
:100B90000E000024002506E00A2017F077FB002550
:100BA00005E00134E4B2B4420AD2002DF4D1395D3B
:100BB000054817F0CFFB631C1B07F2D10125F0E7B6
:100BC0000A2017F063FBF8BD58F9011010B50C00AE
:100BD000012807D0054817F08DFB0548210017F0C4
:100BE000B9FB10BD034817F085FBF6E798F9011033
:100BF000D0F9011060F9011070B50500417819486D
:100C000017F0A8FB012405E02B195978164817F0B6
:100C1000A1FB0134072CF7DD0A2017F037FB697AB6
:100C2000124817F097FB012405E02B19597A0E485A
:100C300017F090FB0134072CF7DD0A2017F026FB94
:100C4000697C0B4817F086FB0124032C06DC2B196A
:100C5000597C054817F07EFB0134F6E7054817F08C
:100C600049FB70BDE4F90110F8F9011000FA011018
:100C700014FA011034FD011070B5040015000B7852
:100C8000012B0DD0032B27D0002B1BD01A4817F0B7
:100C900031FB1A4817F02EFB194817F02BFB08E020
:100CA000154817F027FB174817F024FB144817F0D6
:100CB00021FB154BA200D158144817F04BFB0B2C0D
:100CC00014D070BD0C4817F015FB114817F012FB3B
:100CD0000B4817F00FFBECE7074817F00BFB0D482C
:100CE00017F008FB064817F005FBE2E70A48290061
:100CF00017F030FBE5E7C04628FA011030FB011081
:100D000094FA011060FA0110580D002064FB0110E4
:100D1000C8FA0110FCFA011078FB011070B504004C
:100D200015000B78052B2CD00DD8012B17D0042BD8
:100D300031D1204817F0DEFA1F4817F0DBFA1F48C0
:100D400017F0D8FA14E0092B25D11A4817F0D2FA77
:100D50001B4817F0CFFA194817F0CCFA08E01548ED
:100D600017F0C8FA174817F0C5FA144817F0C2FA76
:100D7000154BA200D158154817F0ECFA0B2C14D0E3
:100D800070BD0C4817F0B6FA114817F0B3FA0B48CB
:100D900017F0B0FAECE7074817F0ACFA0D4817F077
:100DA000A9FA064817F0A6FAE2E70B48290017F05F
:100DB000D1FAE5E790FB0110FCFB011094FA011059
:100DC00030FC0110C8FB0110580D002064FB01101D
:100DD00064FC011098FC011078FB011010B50400B0
:100DE00003681B78002B18D00523C356002B00D0B6
:100DF00010BD114817F07EFA104817F07BFA2368EF
:100E0000D9690F4817F0A6FA0E4817F073FA0421B3
:100E100061560D4817F09EFAEAE7074817F06AFA9C
:100E20000A4817F067FA2368D969094817F092FA57
:100E3000044817F05FFADBE7CCFC011000FD01105D
:100E400008FD011034FD011020FD011038FD0110D6
:100E500040FD011010B58AB004000378002B41D08A
:100E60004B4817F047FA62784A4B9200D1584A48EB
:100E700017F070FAE168494817F06CFA0A2017F089
:100E800005FA00F03BFD464B195C464817F062FA44
:100E90000A2017F0FBF9217C434817F05BFA637CCA
:100EA000002B2AD10A2017F0F1F90A2161563F4898
:100EB00017F050FA01A81E2303700DF0D3FD00288F
:100EC00033D0182161563A4817F044FA01A8232379
:100ED00003700DF0C7FD041E31D00A2017F0D6F9BB
:100EE0000AB010BD334817F005FA6278294B92001A
:100EF000D158294817F02EFAF2E72F4817F02AFAAE
:100F0000237A012B0DD1637A002B08D02B492C4872
:100F100017F020FA617C6069FFF738FEC2E72949C3
:100F2000F5E7294817F0E6F9F4E70299627E5300E5
:100F30009B189B00C958254817F00CFAC1E72448B4
:100F400017F008FA00F0B4FD092808D801238340FF
:100F5000204A134207D1F43AFF3A134214D11E48F3
:100F600017F0F8F904E0029B19881C4817F0F2F911
:100F70000A2017F08BF9B0E7029B6200D15A17489C
:100F800017F0E8F90134E4B2042CF5D9F0E7C046D3
:100F90009CFD0110180D002064FB0110D4FD011010
:100FA000ECFE011008FE01101CFE01105CFE011099
:100FB00088FE011064FD011030FE011058FD011083
:100FC00040FE01105CFD011050FE011074FE011086
:100FD0009CFE0110F9020000B4FE0110ACFE0110ED
:100FE000F0B587B005000C006946284B0A00C1CB5C
:100FF000C1C243CB43C22378002B33D0244817F01F
:1010000079F96278234B9200D158234817F0A2F95E
:10101000E168224817F09EF91023E3569B006A46C8
:1010200099581F4817F096F929781E4817F092F939
:101030006B78002B21D10A2017F028F9082161567E
:10104000194817F087F909216156184817F082F9F5
:101050000A216156164817F07DF90A2017F016F993
:1010600007B0F0BD134817F045F96278094B9200BC
:10107000D158094817F06EF9F2E70F4817F03AF91E
:1010800069786868FFF782FDD5E7C046340402102E
:1010900028FF0110180D002064FB011060FF0110F3
:1010A00094FF0110A8FF01105CFE0110CCFF01109D
:1010B000E0FF0110F0FE0110BCFF011010B50400AC
:1010C0004378022B0BD0032B32D0012B03D01A48CC
:1010D00017F010F910BD194817F00CF9FAE741683C
:1010E000174817F037F9A17D164817F033F916485D
:1010F00017F030F9200017300621FFF747FD0A20CE
:1011000017F0C4F8E168114817F024F9217C104861
:1011100017F020F91223E15E0E4817F01BF9142195
:1011200061560D4817F016F90A2017F0AFF8D1E70D
:101130000A4817F0DFF8CDE7F4FF01102C00021089
:10114000640002108C000210A0000210B000021017
:101150005CFE0110CCFF0110E0FF0110C400021082
:1011600010B5034B195C034817F0F4F810BDC046E6
:10117000ECFE0110FC000210014B18807047C046C5
:10118000F250002030B58BB001AC33232370200027
:101190000DF068FC029D3C4B1C88002C02D1200005
:1011A0000BB030BD0DF0DAFB00286AD1364B1B883E
:1011B000012214001C401A421DD1334B1B889B078F
:1011C00020D4314B1B885B0725D42F4B1B881B0772
:1011D0002BD42D4B1B88DB0633D42B4B1B889B0653
:1011E0003AD4294B1B885B0642D4274B00221A8035
:1011F0000DF0AAFBD3E700223421280011F01AFFDA
:101200000400DAE7280034303422182111F012FFEC
:101210002418A4B2D5E728004C30AC214C22490058
:1012200011F008FF2418A4B2CFE72800A530FF3042
:10123000D222D0215200490011F0FCFE2418A4B2A1
:10124000C7E7D1239B00E818D1229200A42111F016
:10125000F1FE2418A4B2C0E7FA239B00E818FA2292
:1012600094219200C90011F0E5FE2418A4B2B8E759
:10127000064BE8181A00182111F0DCFE2418A4B25D
:10128000B3E700248BE7C046F25000208808000036
:1012900030B58BB001AC3323237020000DF0E2FB9E
:1012A000029C0021342011F0E1FE002802D1002030
:1012B0000BB030BD3421182011F0D8FE002801D128
:1012C0000020F5E7AC204C21400011F0CFFE0028B3
:1012D00001D10020ECE7D221D0204900400011F0DC
:1012E000C5FE002801D10020E2E7D1218900A42019
:1012F00011F0BCFE002801D10020D9E7FA2194208A
:101300008900C00011F0B2FE002801D10020CFE713
:101310000949182011F0AAFE002801D10020C7E7D2
:101320008A252D0100222900200011F091FEA842FB
:10133000BED00020BCE7C0468808000070B505009C
:101340000E0000240EE0032D0AD11B6A002B07D0EB
:101350003000984704E05B69002B01D030009847CB
:10136000013464B2032C17DC0C4BA200D358002BC1
:10137000F6D0022D0AD0E6D8002DECD0012DEFD109
:101380009B69002BECD030009847E9E7DB69002B24
:10139000E6D030009847E3E770BDC0465C1E0020F1
:1013A00010B504000C4801230370637843700223D6
:1013B000E3568372E368C3600323E356037623692D
:1013C000437623794372054B1B685B6A984721007B
:1013D0000020FFF7B3FF10BDCC0D0020581E0020E9
:1013E00030B587B001AC0923237020000EF044F81B
:1013F0000500084B1B68DB69059A21009847059A90
:10140000054B1A60002D02D1002007B030BD01202D
:101410004042FAE7581E0020941D002030B587B0E6
:1014200001AC0B23237020000EF026F80500084BBA
:101430001B68DB69059A21009847059A054B1A60DD
:10144000002D02D1002007B030BD01204042FAE754
:10145000581E0020941D002010B586B001AB01225B
:101460001A70104A1268D2785A71002812D00222DB
:101470001A710D4B013A1A700C4B1B68DC6901A8FC
:101480000DF0FAFF059A01A9A047059A084B1A60CA
:1014900006B010BD01AB01221A71034B00221A7075
:1014A000EAE7C0466C1E0020F00D0020581E002008
:1014B000941D002030B58BB003000A003C490A603F
:1014C0003C4908603C483D4901603D4941603D4917
:1014D00081603D49C1601C683C490C605C684C609F
:1014E0003B4C8C60DB68CB603A4B00241C7012785C
:1014F0000DF054F8002852D1FFF7CAFE011E04D0A7
:101500002C4B1B681B690020984701AC02232370F9
:1015100020000DF0A7FA61682F4D0822280002F084
:1015200028F80323237020000DF09CFA616828003E
:101530000830082202F01DF80423237020000DF06B
:1015400091FA616828001030042202F012F81D237D
:101550002370174D2B681B79237120000DF078FB49
:10156000052323702B685B78237120000DF070FB3E
:101570002B6858790EF084F90DF0E6F901232370F9
:1015800020000DF06FFA00280CD12379002B0CD12C
:10159000084B1B685B6911489847002003E0012055
:1015A000404200E000200BB030BD0020FBE7C04609
:1015B0006C1E0020581E0020A81E0020A113001041
:1015C00015190010D119001011170010981E0020D5
:1015D00079110010F5500020F10D0020F00D0020D1
:1015E000014B18687047C046941D002010B5024B8F
:1015F0001878FFF731FF10BDF00D002000B58BB05B
:1016000001A8012303700DF02DFA002805D101ABCC
:101610001879002802D0012000E000200BB000BDA6
:1016200070B50CF029F8051E01D0280070BDFFF739
:10163000E5FF012801D1002405E0FFF7D7FF0135C0
:10164000F3E7013464B2032CEFDC054BA200D3585E
:10165000002BF6D0DB6898470028F2D00500E4E7BD
:101660005C1E002030B587B004000D00FFF7C6FFF8
:10167000012831D1214B1D726B1E9D4101AB1D70A4
:101680001F4A1268D27852B29A73607869460DF098
:101690007DF9002827D001AB00221A7003929A81AD
:1016A000164A1300103303CC03C3154B1B68DB78B9
:1016B0005BB2937201A80DF0DBFF0400114B1B68B5
:1016C0009B69059A01A99847059A0F4B1A60002C4F
:1016D00011D1002007B030BD0C4B1878FFF7BCFECD
:1016E00001204042F6E7227801AB1A7162789A81B4
:1016F00062680392D4E701204042EBE7CC0D002062
:101700006C1E0020581E0020941D0020F00D0020AB
:1017100030B58BB00400334B00221A7042785A70F7
:101720000D2A05D0304B1B689B6A2E490020984734
:1017300021000320FFF702FE23780A2B2ED00E2B68
:101740000ED0062B0AD100236A46137153710293FF
:10175000264B1B68997801A8FFF784FF0BB030BDBA
:1017600000256B461D711D7201A80DF071FA204C09
:10177000012363706560A5752000173006220021E3
:1017800001F00FFF184D2B68DB6A002098472B688B
:101790001B6B20009847FFF723FEDFE763780D2BD4
:1017A0000FD0134803234370031D043426CC26C3F3
:1017B00026CC26C322681A600B4B1B681B6B98470C
:1017C000CCE70B480B3B4370031D043426CC26C3E7
:1017D00026CC26C322681A60034B1B681B6B9847F4
:1017E000BCE7C046B80D0020581E00206C1E00202B
:1017F000D81A002030B589B003AC0C232370053B08
:1018000002001A4020790721884310432071C2B298
:101810001340237120000DF02FFE05000D4B1B68B7
:10182000DB69079A21009847079A0B4B1A60002D35
:101830000CD100236A46137153710293074B1B6846
:10184000997801A8FFF70EFF09B030BD0120404292
:10185000FAE7C046581E0020941D00206C1E002090
:1018600010B58AB0040000236A46137101A80DF078
:10187000F9F86B461B7AA3422FD0012C13D0022C0F
:1018800018D0002C2DD1002B01D1002426E001A876
:10189000002303710DF0DCF9002824D1154B1B68DF
:1018A000DB6A98471AE0FFF79BFD0400124B012208
:1018B0001A7013E0002B0DD1002401A8022303713C
:1018C0000DF0C6F9002811D10A4B1B68DB6A023003
:1018D000984703E001246442EFE7002420000AB0A7
:1018E00010BD0024FAE701246442F7E701246442B2
:1018F000F4E7C046581E0020F550002000B58BB01C
:1019000000236A46137101A80DF0ACF86B46187AF3
:101910000BB000BD10B584B00400234B01221A7037
:1019200042785A70002A38D10423C3561E490B72DC
:101930000E22835E4B721023C3568B724369CB60B9
:101940001123C3560B74C3786A461372037B537218
:1019500083680393154B1B689B6A02A89847237FF3
:10196000002B05D0114B1B685B6B002101209847B1
:1019700021000120FFF7E2FC6379012B0FD0236ADD
:10198000002B0AD000236A46137053700193084B52
:101990001B6899786846FFF765FE04B010BDFFF735
:1019A000ADFF0028EED0EAE7B80D0020581E002059
:1019B0006C1E002000B58BB02C236A46137101A861
:1019C0000DF050F86B46082018560BB000BD000013
:1019D00070B58AB004003148002303706378437007
:1019E0002F4B1B685B6A984721000220FFF7A6FC7B
:1019F00023780B2B3FD00AD8012B1ED0092B34D1D2
:101A0000284B1B78002B30D0FFF708FD2DE00C2B66
:101A10002BD16378002B3AD100246B461C71012333
:101A20006A46137201A80DF013F91D4B1B68DB6A9F
:101A3000012098471B4B1C7017E001AD07232B704A
:101A400028000DF00FF8184E3368029ADA61FFF79C
:101A5000B1FF30716378002B09D1134B00225A710A
:101A60000F4B1B681B6A104898470AB070BD0E4B9D
:101A7000FF225A71F4E76378002B05D10B4B1B68EA
:101A8000187BFFF7B7FEF0E7FFF7AAFCEDE7074B7F
:101A90001B68187BFFF7AEFEE7E7C046CC0D0020C1
:101AA000581E0020F5500020E80D00206C1E00207C
:101AB000014B1B68187870476C1E002000B58BB076
:101AC00001AB2F221A70029018000DF0C1F8002807
:101AD00001D10BB000BD01204042FAE770B504000F
:101AE0000D00022828D006D8002809D0012826D1C8
:101AF00000F0BAFC06E0032821D101F057FA01E01A
:101B000001F018F800281AD00E4BA400E0500E4B3C
:101B10001B689A694262DA6982620C4AC2620C4AA4
:101B200002635B6B436344680A4B1B689A7999684C
:101B30002800A047002070BD01F0F0FCE2E7012082
:101B40004042F8E75C1E0020581E00205914001087
:101B5000E11300106C1E002010B5054B8000C35827
:101B60009B68002B01D0984710BD0020FCE7C046C1
:101B70005C1E002070B5002401E0013464B2032C27
:101B800012DC0A4BA200D358002BF6D01B69002BA5
:101B9000F3D0E0B2FFF7E0FF0028EED0034BA50042
:101BA000EB581B699847E8E770BDC0465C1E0020F3
:101BB00010B5094B1B6E002B00D098470CF0B4FCFD
:101BC000FFF7E0FA011E04D0044B1B681B690120DB
:101BD0009847FFF7CFFF10BDA01F0210581E00202E
:101BE00010B5030005480068002806D00468002CE2
:101BF00003D0514308001900A04710BD981D0020D4
:101C000010B5030005480068002806D04468002C81
:101C100003D0514308001900A04710BD981D0020B3
:101C20000300C208885C07229A4310410123184030
:101C3000704710B5072484430123A340DBB2A240C0
:101C4000D2B2C0080C5C9C4312190A5410BD002289
:101C5000002107E0012393400340D340C918C9B2D3
:101C60000132D2B21F2AF5D9012901D000207047D4
:101C70000120FCE730B5002304E0C45CCD5C6C407F
:101C8000C45401339342F8DB30BDF8B5CE46474625
:101C900080B5070089469046002510E0AEB23900B5
:101CA0003000FFF7BDFF040049463000FFF7B8FFE2
:101CB0004440E2B239003000FFF7BBFF0135454533
:101CC000ECDBC0BCB946B046F8BD431142104340FE
:101CD0009B058021C9030B40D0187047F0B5C6465C
:101CE00000B504000D0090460800FFF7B0FF002883
:101CF00009D00126E3001B191B011B1BDC00E41AA1
:101D00000134002307E00026F4E74246D218002100
:101D100011700133DBB2EA109A42F6DA00270EE0C6
:101D20002000FFF7D2FF0400711915F027F8A9422F
:101D3000F6DA88B201224146FFF77BFF01376B10CC
:101D4000BB4202DD80214902F1E780BCB846F0BD0C
:101D500070B506000D00002401E00134A4B2AC42CD
:101D600006D231002000FFF75BFF0128F5D100E02B
:101D70000024200070BD70B506000D00002401E0B5
:101D80000134A4B2AC4207D231002000FFF748FF73
:101D90000128F5D1002000E0012070BD10B5124BE4
:101DA00042229B5A00E00133421E9A420FDD0E4A46
:101DB00092889A42F7DD0C4A4024115B013189B2C6
:101DC00011531C000834640012195180EBE7064AD5
:101DD00092889A4203DD044B4222985210BD013290
:101DE000014B42215A52F9E7981D002001000020C2
:101DF00001E0013080B2084B9B88834209D9064B31
:101E00000200083252009B185A884B1C9A42F0D1AB
:101E100000E000207047C046981D0020F8B5CE466F
:101E2000474680B506000C1E90461CD04A1E4A4309
:101E3000521043464B439B1ADF10DA17520F9B1880
:101E400007251D40AD1A002C12D000239946A1454C
:101E50000ED2002231004846FFF7EBFE4B4601331D
:101E60009BB29946F3E700250027ECE70134A4B2C2
:101E7000444511D20A4BDB191A7B07235B1B1A411D
:101E800001231A4031002000FFF7D3FE0135082D51
:101E9000ECD101370025E9E7C0BCB946B046F8BD32
:101EA000981D0020F0B5C64600B507000C001600CE
:101EB00000292CD04A1E4A4352100B0073439B1A30
:101EC000DA109046DA17520F9B1807251D40AD1AFD
:101ED00004E00135082D15D00134A4B2B4421AD261
:101EE00039002000FFF79CFE0028F2D10B4A424443
:101EF000107B0721491B01238B40DB435BB203406E
:101F00001373E6E701239C46E0440025E4E700253F
:101F100000239846E2E780BCB846F0BD981D00203B
:101F200070B582B005000E00234B1A60988099713D
:101F3000002242215A5202395A529A60002308E084
:101F40001D4A1C000834640012190121518001331C
:101F50009BB2142BF4D90023002B01D000230BE0FB
:101F6000154AD2183C32002111700133F4E7124AAD
:101F7000D218FF2111730133042BF8D9002400E09B
:101F8000013433006B43A3420ED90B4B1B68002B6B
:101F9000F6D01B68002BF3D001A9084A12780A700A
:101FA000012220009847EBE7034B002240215A52C0
:101FB00002315A5202B070BD981D00204C0402102C
:101FC000004870471A040000F0B5DE4657464E46FA
:101FD0004546E0B591B004008946032200210FA8D0
:101FE00001F0DFFA3222002102A801F0DAFA012220
:101FF000002101A801F0D5FA01220021684601F074
:10200000D0FA904BDC8742229B5AA34200D913E1BD
:102010008C4B9B88A34210D28A4B40229B5A052BA3
:102020001DD9884B043201219954002011B0F0BC15
:10203000BB46B246A946A046F0BD824DAA79611EB4
:1020400089B24846FFF7CCFDE31D5B00ED18002385
:102050006B802000FFF7A2FE01204042E6E720004F
:10206000FFF79CFE774B4022985A0028DED09988D3
:10207000601A0FAAFFF732FE0024002609E001389B
:1020800080B2012201A9FFF7D4FD002E00D1013654
:1020900001346C4B9B88A3421FDDA5B20FA9280019
:1020A000FFF7BEFD0128F3D1664B22000832520033
:1020B0009B1858880028E2D100220FA92800FFF7BA
:1020C000B8FD604FBA79290002A8FFF799FDBA79E7
:1020D00002A94846FFF7CEFDDAE75A4B4022995A4B
:1020E00001A8FFF735FE0500002E2BDD564928001C
:1020F000FFF796FD012828D1524C4026A25B29000B
:102100006846FFF78BFEA25B694601A8FFF7BDFD9D
:102110002800FFF76BFE0100A27902A8FFF770FD0F
:10212000A27902A94846FFF7A5FDA45B210001A8FA
:10213000FFF721FE002817D1210001A8FFF708FEB4
:102140000500D3E70120404270E70023002B0DD0AB
:102150003C4B9A684021585A824270D1012800D8DD
:1021600064E7831E98464FE00123EFE7354C403388
:10217000E25A290001A8FFF795FE2800FFF736FE76
:102180000100A2794846FFF72BFD21003C310122D6
:102190002800FFF74EFDA3680133A360D8E7294C60
:1021A0004023E25A01A96846FFF76FFD3000FFF7B0
:1021B0001DFE0100A2794846FFF722FDA27949469B
:1021C00002A8FFF757FD013DA84513DA1D4C402733
:1021D000E25B51466846FFF721FEAEB2E25B31009A
:1021E00001A8FFF71BFE69463000FFF719FD012823
:1021F000E9D1D4E7134B9A79594602A8FFF7F0FCCE
:1022000001235B429C46E0444346002B10DB4346DF
:102210009BB29A461800FFF7E9FD8346094CA27964
:10222000010002A8FFF7ECFC4023E55A013DCBE793
:10223000044B4022985AF9E601204042F6E601207C
:102240004042F3E6981D0020D41D002010B5040084
:102250000249082215F0E0FE200010BDD61D002026
:10226000002908D0064B59609A7001221A70044B5D
:1022700000225A707047024B00221A70F7E7C046DE
:10228000701E0020014B18787047C046701E002059
:10229000014B58787047C046701E0020F0B5C64606
:1022A00000B582B00600C378CA2B00D0A0E000259C
:1022B00000241CE00C001AE0032B07D10234E4B226
:1022C000525C07231340524A537310E00C000EE097
:1022D0004F4B5A68681CC0B2531900241C70AB1CC9
:1022E000DBB2013414540335EDB2D4540C00337B0B
:1022F000A3427BD9B268611CC9B2135D022B4ED0D8
:10230000DAD8002BE4D0012BD4D1414B00205873F4
:10231000337F002B02D00634E4B2E8E7A01CC0B241
:10232000535CE11CC9B2105C00021B18201DC0B236
:10233000515C09045B18611DC9B2105C00061F18CE
:102340000634E4B2515C324B1B7A1B071B0F0F2281
:102350000A409A42CBD1002300936A469380684694
:1023600010F022FF009838180090019910F000FF3B
:102370002748037A1A07120F01320F210A408B43B4
:1023800013430372234B5B6B002BB0D07A1C0020ED
:102390000D3991424041C0B239009847A7E7023455
:1023A000E4B21B4B98465A686B1CDBB202215155B4
:1023B000AF1CFFB20139D154684610F0F5FE009B06
:1023C000154A94466344009342465268E91CC9B2D8
:1023D000D3551F0A281DC0B257541F0C691DC9B21E
:1023E00017541B0E0635EDB2535480E7002D03D170
:1023F00002B080BCB846F0BDCA236A46137055705F
:10240000034B5B68019300216846FFF72BF9EFE768
:10241000701E0020100E002080C22AED30B58BB057
:10242000104B5B7A002B01D10BB030BD01AC052302
:1024300023700C4DAB7A237120000CF009FC25238E
:102440002370EB7A237120000CF002FC2C23237004
:102450000C23EB56237120000CF0FAFB00236B7267
:10246000E2E7C046701E002000487047100E0020B2
:1024700030B58FB0FFF7D4F8002853D12B4B5B7ADF
:10248000002B2AD00CA810F08FFE0C9B284A9446F3
:1024900063440C9325494A680120107053701C0A4C
:1024A00094701C0CD4701B0E13710B7A1024A34370
:1024B0000B72DBB25371CA236C4628256419237052
:1024C000C43B6C460135641923700B92487200219D
:1024D0000AA8FFF7C7F80FB030BD01AC0533237071
:1024E00020000CF0BFFA2379104DAB72002323714A
:1024F00020000CF0ADFB2523237020000CF0B2FA75
:102500002379EB720123237120000CF0A1FB2C2313
:10251000237020000CF0A6FA23792B73054B1B6B5C
:102520009847AFE701204042D5E7C046701E002023
:1025300080C22AED100E002010B5074B5B7B002BEC
:1025400000D110BDFFF794FF0028FAD1024A537B57
:10255000013B5373F5E7C046701E0020014B18780D
:102560007047C0462C1D0020014B58787047C0466C
:102570002C1D002070B5504C206A642114F026FCFC
:102580000023A372E3680122A27240211970257D05
:10259000E168A37A5E1CA672CD54E168A37A5D1C43
:1025A000A572A57DCD54E38AE568A17A4E1CA6727A
:1025B0001B0A6B54E168A37A5D1CA572C854050A16
:1025C000E168A37A5E1CA672CD54000CE168A37A80
:1025D0005D1CA572C854E168A37A581CA07224201F
:1025E000205CC8542623E05EE168A37A5D1CA572D6
:1025F000C8542621635EE068A17A4D1CA5721B12A7
:1026000043542823E056E168A37A5D1CA572C854A0
:10261000E168A37A581CA0722920205CC854E168A4
:10262000A37A581CA072207EC854A3691B0AE068D4
:10263000A17A4D1CA5724354E168A37A581CA0727C
:10264000A07EC854E168A37A581CA072E07EC854EA
:10265000E168A37A581CA0722A20205CC854E16863
:10266000A37A581CA0722B20205CC854E168A37A7E
:10267000581CA0722C20205CC854E168A37A581C16
:10268000A0722D20205CC854E168A37A581CA07267
:102690002E20205CC854E168A37A581CA0722F2019
:1026A000205CC854E168A37A581CA0723020205CDA
:1026B000C854627070BDC0462C1D002010B5154B6B
:1026C0001B78002B0BD003780A2B09D00E2B06D1D8
:1026D00011482022002100F064FFFFF74BFF10BDDE
:1026E00043780D2B0AD00D4B043016C816C316C8FC
:1026F00016C302681A60FFF73DFFF0E7054B1B7D2C
:10270000002B02D1034B01221A75024AD38A0133EE
:10271000D382E8E72C1D0020401D0020441D00202E
:1027200010B503780B2B00D010BD4378002B05D0DB
:10273000074B00221A75FFF71DFFF5E7054C202215
:102740000021200000F02DFF01232370F3E7C04695
:102750002C1D0020401D002010B5002809D00029A4
:1027600007D00E4B18600E4BD9605A7201221A70B6
:1027700004E00A4B00221A60094B1A70084C00232F
:102780002382200014302022002100F00AFF0023C1
:10279000637000223423E25410BDC046281D00207F
:1027A0002C1D0020F0B595B0C04B1B78002B32D00B
:1027B000C378002B02D1837C002B03D0BB4A138A41
:1027C00001331382437B002B25D0C378E02B22D129
:1027D000B64B00229A72826813787F2B14D89B0024
:1027E000B349CB589F46B14BDA680121997200205A
:1027F0001070D8689A7A541C9C7206248454D86845
:102800009A7A541C9C728154A84B9B7A002B02D05C
:10281000A64B01225A7015B0F0BDA44B3422012101
:102820009954F1E7A34BDB6A01209847ECE70023BA
:1028300069460B7053780B7168460CF009FAE3E7B0
:10284000052369460B7053785A1E93410B716846F5
:102850000CF0FEF9D8E75078431E9841C0B20DF055
:102860000FF8D1E76846944B010070CB70C131CBB3
:1028700031C131CB31C111CB11C15378152BC3D824
:102880008E4A12685268002ABED09B00694658588A
:102890009047B9E753785A1ED2B2012AB4D8013B07
:1028A0005A1E9341D8B2814B1872844B1B689B68A7
:1028B0009847A9E77D4BDA680121997208231370C4
:1028C000073B01240FE0D2B29A429DD98268651C71
:1028D000125D7649CE688C7A671C8F720132325550
:1028E0000133DBB2ECB2714A517A057B0A1CA94272
:1028F000E9D92A1CE7E76D4BDA68012199720831A2
:102900001170188AD9689A7A541C9C7288541A8A51
:10291000D868997A4C1C9C72120A425474E7634B33
:1029200000221A8270E704236A461370614B9C6A86
:1029300068460CF0A1FD049A6946A04764E75D4B28
:102940001B6B984760E75078584B58755B4B1B687A
:10295000DB68984758E7554BDA6801219972403196
:102960001170D88AD9689A7A541C9C728854DA8A71
:10297000D868997A4C1C9C72120A425444E74B4B1B
:102980000022DA8240E7037B072B00D03CE7023BC2
:1029900069460B705378917809020B4369468B8026
:1029A000D378117909020B4352791204134364223C
:1029B0005343029383689B795BB26A4613733D4B22
:1029C0009C6A68460CF058FD049A6946A0471BE7CC
:1029D00043236A462C215218137000236A4604319F
:1029E000521813700BA80CF033F9304B342201212C
:1029F000995409E735236A46137068460CF032F89B
:102A00000199029A294BDC68987A451C9D727F25B2
:102A100025542A480068DD689C7A661C9E72C67838
:102A20002E55DD689C7A661C9E7286782E55DD6870
:102A30009C7A661C9E7246782E55DD689C7A661CD0
:102A40009E7200782855DC68987A451C9D720D0EA0
:102A50002554DD689C7A601C98720802000E285587
:102A6000DD689C7A601C98720804000E2855DC68AA
:102A7000987A451C9D722154D868997A4C1C9C7296
:102A8000140E4454DC68987A411C99721102090EA4
:102A90002154DC68987A411C99721104090E215462
:102AA000D868997A4C1C9C724254ADE62C1D0020CB
:102AB00050040210480E002050060210281D00206D
:102AC00030B583B01A4B5B78002B06D1184B3422FB
:102AD0009B5C002B25D103B030BD10F010FD05002C
:102AE000134B5C68FEF77CFD2418A542EED9104C10
:102AF0000023637010F003FD6060A37A002BE5D023
:102B0000E02269460A704B70094BDA680192197A23
:102B10006846FEF7A7FD0028D8D0054B01225A7061
:102B2000D4E7034B0021995410F02BFDD3E7C046A6
:102B30002C1D002000487047480E0020014B1878DB
:102B40007047C046841E0020014B58787047C0462D
:102B5000841E0020F0B5DE4657464E464546E0B599
:102B60008DB00600C378C92B00D18DE10DB0F0BC4B
:102B7000BB46B246A946A046F0BDB378012B00D1B2
:102B80004DE1D64B5A68791CC9B2D3190020187090
:102B9000BB1CDBB2033050540337FFB20121D154C8
:102BA0003DE10233DBB29B464D5D01242C406D08B4
:102BB000CB486B005B19DB0082469A4402A8FFF702
:102BC00045FB50460C30082202A915F025FA002CCE
:102BD00008D1C34B6A005219D2009B18DB89002B25
:102BE00000D14FE1BD4B5C687A1CD2B20123E355A2
:102BF000BB486B009C465919C90041188B899946FE
:102C0000BB1CDBB298464B46A3548A89130A3F2269
:102C10001A40FB1CDBB29946AB011A434346E2540F
:102C2000CA893B1DDBB298464B46E254897C053786
:102C3000FFB201220A404346E2542B006344DB000A
:102C4000C3185B795B075B0F98465D460123994685
:102C5000E5E0B278012A00D1E1E0981CC0B24C5DF9
:102C600004AA5470DD1CEDB20C5C5480181DC0B277
:102C70004D5D2D022C43019454805D1DEDB2085C26
:102C800081461071981DC0B24D5DAC465571DD1D79
:102C9000EDB2085C907118000830C0B24D5DAA46D4
:102CA00006951D000935ECB2085C00025044069000
:102CB0000A25AA469A445546EDB2AA460D5D2D0452
:102CC000401906900B33DDB25346CB5C1B06C0188F
:102CD0000690382362461A4092466246134201D05B
:102CE000373B9A46019B152B02D84B46322B1CD9F9
:102CF000022352461A43D3B29A4604AB5B789B0632
:102D00009B0F9A01514611438B465246120714D02D
:102D1000724B5A687B1CDBB20221D1550237FFB2DD
:102D20005946D1540023994679E0FFF749F94B46BB
:102D3000019A53438342E0D9DAE704A901220A70D9
:102D4000023A0992664A5800C018C000131815C903
:102D500015C315C915C3634B1A6849460198FFF797
:102D6000DFF8D5E7B278012A59D00233DBB2495DEA
:102D700003220A405A4851008918C900095C0029F9
:102D80000FD104210A43D2B254494868791CC9B210
:102D90000324C4550237FFB242541D000023994654
:102DA0003DE04F4851008918C90000240C54EBE75E
:102DB0009A1CD2B2485D0333DDB28C5C24022043FE
:102DC000A40B8004800C464B62001219D2009B18A1
:102DD0005B695A1C31D0002B19DB414B6200121980
:102DE000D2009B18022252425A613E4B1B68DA689D
:102DF000002A0CD03A4B61000919C9005B185888A9
:102E0000197941439B79C91A022040429047344BBB
:102E100062001219D2009B181B795D19EDB22B00CC
:102E2000327B9A4235D9B1685D1CEDB2CA5C082A82
:102E3000F5D892002C48825897464919FFF7C4F8F4
:102E4000274B62001219D2009A46924453465861A9
:102E500002A8FFF7FBF950460C30082202A915F032
:102E6000DBF8204B1B689B689A46002BCFD01C4890
:102E700063001B19DB00C018C3890279418880896F
:102E8000D047C4E75D46CAE7002398469946002725
:102E9000C6E7002F00D169E6104B5A680AAB0B92C7
:102EA0005F70C9221A704B46002B11D0FA2189009D
:102EB000002000F053FB4346043398400B4B18604E
:102EC0000B4B0AAA11CA11C3044B01229A704DE69A
:102ED00000210AA8FEF7C6FB48E6C046841E002073
:102EE000E01D0020801E00207C06021058300020CB
:102EF0008C1D002010B582B001A810F039FB0D4BDD
:102F00009C7800229A7001A810F037FB012C06D0A3
:102F1000022C0DD108480021FEF7A4FB08E0074B66
:102F20001968074C200010F0D9FA200010F00AFAB6
:102F300002B010BD841E00208C1D002058300020DF
:102F4000401E002010B5002810D000290ED00C4BD8
:102F500018600C4B5960DA7001221A700A4B00227B
:102F60001A600A490A4810F0E3F904E0044B002211
:102F70001A60044B1A70034B00225A7010BDC046F1
:102F8000801E0020841E002058300020952F001045
:102F9000401E002010B5034810F058FA024B0222E0
:102FA0009A7010BD401E0020841E0020004870470B
:102FB000800E0020014B18787047C046901E0020FC
:102FC000014B58787047C046901E0020F0B5DE4691
:102FD00057464E464546E0B58DB00500C378C82B30
:102FE00000D0C7E100260024ACE00400AAE0042BD6
:102FF00000D095E002AB07339B4600235A4613707E
:10300000A31CDBB2085C03270740E01CC0B2CB5C0A
:103010009946DC4B34210A007A439C460092904644
:1030200043444A465A62AA689246221DD2B290464A
:103030005246105C000248445862AA689246621DDB
:10304000D2B2914652464146525C120490464044E8
:103050005862AA689246A21DD2B29046524649468C
:10306000525C1206914648445862C74A9146484409
:103070005862A868E21DD2B291464246825C0F2097
:10308000104028229046984442461070AA682000BA
:103090000830C0B24946525C9146DA62AA6890464E
:1030A00009229246A2445246D2B292464246105C4F
:1030B00000024A4602439146DA62A8680A22904614
:1030C000A0444246D2B290465246805C00044A4632
:1030D0001043D86264225043D862A8680B34E4B22B
:1030E0004246805630331870A84B5B68701CC2B2E1
:1030F00090460420985500992831614404315A467D
:1031000038000CF041F9002800D1F4E09F4B5B68D7
:103110000236F6B202AA0732127841465A5411E03A
:1031200004000FE0994B5A68711CC9B2931900242E
:103130001C70B31CDBB2023454540336F6B20121C6
:10314000D15404002B7BA34200D811E1A968601C74
:10315000C0B20B5D032B00D1B2E000D947E7002BD2
:10316000E0D0022B00D040E7A31CDBB20A5C904603
:1031700084493422404642435054A868E71CFFB2B9
:10318000C35C89184B60AA68201DC0B2D25D1202D0
:103190009B184B60AF68621DD2B2385C00041B18EC
:1031A0004B60A8680634E4B2825C120699469144EA
:1031B0004B464B60002247460BE0AB68601C1C5D31
:1031C000704B342179435B189B181C72013252B248
:1031D000C4B20F2AF1DDB846AB68601CC0B2195DFD
:1031E000684B34225743BA46019353449961AF6800
:1031F000A21CD2B2385C000209189961A868E71CC9
:10320000FFB2825C120452189A61A968201DC0B2F4
:10321000C95D0906511800919961AA68611DC9B27A
:10322000125CDA61AF68A01DC0B2795C0902521865
:10323000DA61AF68E11DC9B2385C00041218DA61C6
:10324000A8680834E4B2415C090693468B445846AA
:10325000D86104AF20220021380014F0D7FE0123EA
:103260003B7002227A70BB70019A53469B5C9B07AD
:103270009B0FFB704B4605935346083394466344BB
:103280000693009908915B46099338000BF0E0FF24
:10329000031E00D001233D4A5768721CD2B29446E7
:1032A0000221B9553749342042465043405C8007DB
:1032B000800F0236F6B29B0018436346F85441E78C
:1032C0000234E4B20B5C03271F40304B5B68721C76
:1032D000D2B2904603229A5538000CF023F8002809
:1032E00002D004231F43FFB2284B5B680236F6B2BC
:1032F00042469F5426E704A80023049383800FF0DE
:1033000053FF204B34227A439B185F6A049BFF1AB9
:10331000002F06DC02ABDA1DDB7910210B431370A2
:10332000F4E67B01DB1B9B00DB19DB009946184BA5
:1033300049469A46180010F0D1F8504610F002F8AD
:103340001448494615F006F8104B5B68B21CD2B21F
:103350005946097840461954F11CC9B29F54381295
:10336000321DD2B258543F140536F6B29F54E9E6E6
:10337000002E11D10DB0F0BCBB46B246A946A04606
:10338000F0BDC046D4230020803DD512901E002001
:1033900024300020A0060210C82302AA137256721D
:1033A0001F4B5B680593002104A8FEF75BF91D4CD9
:1033B00021788907890F1C4814F0CCFF61681B48ED
:1033C00014F0C8FF217A1A4814F0C4FF012406E063
:1033D000144B1B19197A174814F0BCFF01340F2C39
:1033E000F6DD0A2014F052FF0E4CA169124814F0C9
:1033F000B1FFE169114814F0ADFF616A104814F0A3
:10340000A9FF2823E15C0F4814F0A4FFE16A0E48ED
:1034100014F0A0FF3023E1560C4814F09BFFA9E7FD
:10342000901E0020D4230020BC060210D0060210FB
:10343000E8060210F8F90110FC060210100702104D
:1034400024070210380702104C0702106007021010
:1034500010B582B001A810F08BF8104B9C780022B8
:103460009A7001A810F089F8012C05D0022C13D114
:103470000020FEF7F5F90FE00220FEF7F1F9084B06
:1034800028229B5CFA2189009940064C200010F00C
:1034900025F820000FF056FF02B010BD901E00204E
:1034A000D42300203C30002010B5002910D00A4B56
:1034B0005960DA7001221A70084909480FF038FF84
:1034C000084909480FF034FF034B00225A7010BD21
:1034D000014B00221A70F7E7901E002005350010FE
:1034E00024300020ED3400103C30002010B503489B
:1034F0000FF0ACFF024B02229A7010BD3C3000204E
:10350000901E002010B503480FF0A0FF024B0122CF
:103510009A7010BD24300020901E00200048704793
:10352000B80E002010B5064B1A6806485043064AEC
:10353000944660441860054913F048FC080010BD2B
:10354000F00E00206D4EC64139300000FFFFFF7FB6
:10355000014B18607047C046F00E002070B50500A2
:103560000C00FFF7DFFF611B013113F007FC481966
:1035700070BD04E00A7802701A0001310130531E58
:103580009BB2002AF6D17047531EC01804E00A7897
:1035900002701A0001310138531E9BB2002AF6D185
:1035A000704702E001701A000130531E9BB2002ADE
:1035B000F8D1704770B5061E18D000250120404292
:1035C0000CE04408012210404042094A104060408B
:1035D00001339BB2072BF4D90135ADB28D4203D232
:1035E000735D58400023F5E7C04370BD0020FCE741
:1035F0002083B8ED012040427047000070B50029DB
:1036000014D000260CE04508012303405B42084823
:10361000184068400134A4B2072CF4D90136B6B280
:10362000964204D28B5D58400024F5E7002070BD1F
:103630002083B8EDC0437047092801D801207047A6
:103640000020FCE700B583B00300080000220092D0
:10365000092B2DD89B00184AD3589F4600F074FBC5
:103660000190019803B000BD01F044F90190F8E722
:1036700002F0A2F80190F4E703F052F80190F0E7AD
:1036800004F0E2F90190ECE704F0BAFF0190E8E7FA
:1036900006F02AFB0190E4E705F074FD0190E0E7F5
:1036A00007F05CFE0190DCE707F0A0F80190D8E796
:1036B000009B0193D5E7C0467807021010B50300C0
:1036C0000800092B05D89B00104AD3589F4600F0EC
:1036D00005FC10BD01F0ECF9FBE702F07BF9F8E71F
:1036E00003F0C8F8F5E704F057FAF2E705F030F810
:1036F000EFE706F09FFBECE705F0ECFDE9E707F0EC
:10370000E7FEE6E707F01CF9E3E7C046A007021072
:1037100010B503000800092B05D89B00104AD358A8
:103720009F4600F0F9FB10BD01F0E0F9FBE702F065
:103730006FF9F8E703F0BCF8F5E704F04BFAF2E7AD
:1037400005F024F8EFE706F093FBECE705F0E0FD69
:10375000E9E707F0DBFEE6E707F010F9E3E7C0462C
:10376000C807021010B5030008001100092B21D86A
:103770009B00114AD3589F4600F026FC10BD01F073
:1037800069FAFBE702F0CAF9F8E703F0EFF8F5E7AA
:1037900004F07EFAF2E705F063F8EFE706F0C6FB07
:1037A000ECE705F013FEE9E707F064FFE6E707F052
:1037B0003DF9E3E70020E1E7F007021010B5030050
:1037C0000800092B05D89B00104AD3589F4600F0EB
:1037D000CBFF10BD01F08CFAFBE702F0D3F9F8E75C
:1037E00003F07EFCF5E704F00DFEF2E705F00CFCBB
:1037F000EFE706F03DFFECE706F0B4F9E9E707F084
:1038000071FFE6E707F0D0FCE3E7C04618080210B6
:1038100010B503000800092B21D89B00114AD3588A
:103820009F4600F023FC10BD01F0A6FAFBE702F072
:10383000F7F9F8E703F0D4F8F5E704F063FAF2E7F4
:1038400005F04EF8EFE706F0A9FBECE705F0FEFD0A
:10385000E9E707F08BFFE6E707F022F9E3E700204E
:10386000E1E7C0464008021010B50400080011004E
:103870001A00092C06D8A400154B1B599F46029B21
:1038800000F018FC10BD029B01F0BCFAFAE7029BA5
:1038900002F000FAF6E7029B03F0C6F8F2E7029B9B
:1038A00004F054FAEEE7029B05F03EF8EAE7029BCB
:1038B00006F098FBE6E7029B05F0ECFDE2E7029BD1
:1038C00007F0A2FFDEE7029B07F00EF9DAE7C04639
:1038D0006808021010B5030008001100092B21D858
:1038E0009B00114AD3589F4600F01CFC10BD01F00C
:1038F000B9FAFBE702F0FEF9F8E703F0CDF8F5E7D7
:1039000004F05CFAF2E705F047F8EFE706F09AFBFF
:10391000ECE705F0F7FDE9E707F0A6FFE6E707F0BB
:103920001BF9E3E70020E1E79008021010B504005E
:10393000080011001A00092C21D8A400114B1B59B2
:103940009F4600F06BFC10BD01F0DCFAFBE702F0D3
:103950003BFAF8E703F01CF9F5E704F0ABFAF2E7FD
:1039600005F096F8EFE706F0C3FBECE705F046FE3E
:10397000E9E707F0C9FFE6E707F06AF9E3E70020A7
:10398000E1E7C046B808021010B582B00400080094
:1039900011001A00092C40D8A400214B1B599F4646
:1039A000059B0093049B00F0C9FC02B010BD059B71
:1039B0000093049B01F016FBF7E7059B0093049B23
:1039C00002F092FAF1E7059B0093049B03F070F973
:1039D000EBE7059B0093049B04F0FCFAE5E7059BED
:1039E0000093049B05F0E4F8DFE7059B0093049B3C
:1039F00006F000FCD9E7059B0093049B05F08EFEC2
:103A0000D3E7059B0093049B07F0F4FFCDE7059BEC
:103A10000093049B07F0ACF9C7E70020C5E7C04658
:103A2000E008021010B503000800092B21D89B0004
:103A3000114AD3589F4600F049FD10BD01F018FC13
:103A4000FBE702F025FBF8E703F0FAF9F5E704F0ED
:103A500089FBF2E705F074F9EFE706F093FCECE779
:103A600005F02CFFE9E708F00BF9E6E707F04CFA60
:103A7000E3E70020E1E7C0460809021010B50300A3
:103A80000800092B21D89B00114AD3589F4600F00B
:103A9000AAFE10BD01F014FCFBE702F019FBF8E7E9
:103AA00003F05DFBF5E704F0ECFCF2E705F0EBFA60
:103AB000EFE706F01CFEECE706F093F8E9E708F004
:103AC0000DF9E6E707F0AFFBE3E70020E1E7C046CA
:103AD0003009021010B503000800092B21D89B0003
:103AE000114AD3589F4600F011FD10BD01F0EBFBC9
:103AF000FBE702F0F0FAF8E703F0C2F9F5E704F0AB
:103B000051FBF2E705F042F9EFE706F05BFCECE76A
:103B100005F0F8FEE9E708F0E4F8E6E707F014FA44
:103B2000E3E70020E1E7C0465809021010B50300A2
:103B30000800092B21D89B00114AD3589F4600F05A
:103B4000E7FC10BD01F0C1FBFBE702F0C7FAF8E7A4
:103B500003F09AF9F5E704F029FBF2E705F01AF90A
:103B6000EFE706F033FCECE705F0D0FEE9E708F0FC
:103B7000BBF8E6E707F0ECF9E3E70020E1E7C04631
:103B80008009021010B5030008001100092B21D88C
:103B90009B00114AD3589F4600F0DCFC10BD01F099
:103BA00097FBFBE702F09DFAF8E703F08FF9F5E7E2
:103BB00004F01EFBF2E705F015F9EFE706F028FC2C
:103BC000ECE705F0C5FEE9E708F092F8E6E707F054
:103BD000E1F9E3E70020E1E7A809021010B50400CD
:103BE000080011001A00092C2BD8A400164B1B59F1
:103BF0009F46029B00F0B0FC10BD029B01F088FBC9
:103C0000FAE7029B02F06EFAF6E7029B03F060F916
:103C1000F2E7029B04F0EEFAEEE7029B05F0E4F80F
:103C2000EAE7029B06F0F6FBE6E7029B05F092FE50
:103C3000E2E7029B08F07CF8DEE7029B07F0ACF9B4
:103C4000DAE70920D8E7C046D009021010B5040011
:103C5000080011001A00092C21D8A400114B1B598F
:103C60009F4600F0EBFD10BD01F006FCFBE702F003
:103C7000E7FAF8E703F09EFAF5E704F02DFCF2E727
:103C800005F02CFAEFE706F05DFDECE705F0D4FF58
:103C9000E9E708F001F9E6E707F0F0FAE3E7C8B270
:103CA000E1E7C046F8090210004870470100010230
:103CB00010B50400064B1B6A9847002805D0054B39
:103CC0009C466444044B9C4200D810BD0020FCE795
:103CD000A01F0210403576C9405DC60070B584B0A3
:103CE00005000C00154B1E56154903F04FFE010050
:103CF000072D0FD0134B5D6A01230393E4B20294A6
:103D00000023019308330093073B32000120A847AA
:103D100004B070BD0B4B5D6A7201921B9200921948
:103D2000D20001230393E4B20294002301930533EC
:103D3000009300230020A847EAE7C046DC0B0210EE
:103D4000BC0B0210A01F021000B587B00023049323
:103D50000378372B11D89B00524AD3589F46C3781B
:103D6000002B0AD00223049307E08378002B04D0B1
:103D70000223049301E0022304930498059007B002
:103D800000BD0122825601AB1A7007225A70837857
:103D9000002B00D002236A4693711023D371424B4B
:103DA0001B689022D2009A180292039301A803F094
:103DB000C7FD0490E1E740230493DEE7202304934A
:103DC000DBE78378002B05D10123C356374AD35C48
:103DD0000493D2E70123C356354AD35C0493CCE75E
:103DE000344B0493C9E7FA239B000493C5E7FA23F5
:103DF000DB000493C1E7304B0493BEE72F4B0493E1
:103E0000BBE7FA2189002E48FFF7A8FBFA23DB0065
:103E10009C4660440490B0E72A4B0493ADE702232C
:103E20000493AAE7204B1B689022D2009446634477
:103E30000493A2E71C4B1B68234A944663440493F3
:103E40009BE71023049398E7174B1B68049394E7B0
:103E50000123049391E78323DB0504938DE71B4B38
:103E600004938AE71A4B049387E704AB11221A7074
:103E7000103A5A7081E7032304937EE7144B0493AE
:103E80007BE70323049378E70123C356114AD35CED
:103E9000049372E7407840B20F4903F077FD049035
:103EA0006BE7C046200A0210742D0020B40B0210EC
:103EB000AC0B0210B80B0000881300007017000054
:103EC00018FCFFFF00EA06378C0400009A990940AD
:103ED00040F70937DC0B0210BC0B021030B583B081
:103EE00003000B4A10680B4A11681C786200121913
:103EF00092008A18557A5A7899686C006419E4001F
:103F000000191C690094DB6803F0C7FA03B030BDE8
:103F10004C2D0020742D002070B586B064236A46B5
:103F200013800023937001930293039304931375FA
:103F3000037A012B25D0022B33D0002B2FD103681D
:103F4000002B2CD04268002A29D01B490B601B4C47
:103F50002260182269461800FFF70BFB2168184BF6
:103F60000A0031CB31C270CB70C2164B0322CA5249
:103F70000C3BC818134B9C466144023A03F07EFA8E
:103F80000DE00E4B196800234B600B619023DB00A2
:103F9000C8180C4B9C466144012203F06FFA06B02E
:103FA00070BD064B1B689021C9005A5A0548185A23
:103FB00002435A52F3E7C0464C2D0020742D0020D6
:103FC000E40B02108C04000010B50A2949D88900BE
:103FD000254B5B589F460068FFF76AFE42E08378F6
:103FE000002B09D1007840B20722002103F0CAF962
:103FF000431E9841C0B235E0007840B2072202214A
:1040000003F0C0F9431E9841C0B22BE0007840B2E3
:104010000522002103F0B6F9431E9841C0B221E009
:104020004378002B09D1007840B20722002103F029
:10403000A9F9431E9841C0B214E0007840B20722AB
:10404000022103F09FF9431E9841C0B20AE00078B4
:1040500040B20722002103F095F9431E9841C0B2F7
:1040600000E0002010BDC046000B021010B5030098
:104070000279002A03D0012A0DD000200AE00B4A61
:1040800010689022D200944660441968012203F01F
:10409000F5F9012010BD054A1068054A94466044B0
:1040A0001968012203F0EAF90120F3E7742D0020DA
:1040B0008C040000F0B583B00E0017001C00031C38
:1040C000072800DD072358B26370134903F05EFC34
:1040D000A0700123E356072B17D0104AD05C0E4A7C
:1040E0009B00995803F006FB05000D4BDB6D9847CC
:1040F000030022000C320192083400943A0031008F
:10410000280003F009FB03B0F0BD044AD05C03F0C3
:10411000FBFA0500E9E7C046BC0B0210DC0B0210FD
:10412000A01F0210F0B5CE46474680B58DB0040002
:104130000B910127C7574668324B5B689847051EAD
:104140005ED1A37C002B0DD12F4B1A6821784B0038
:104150005818800080585B189B00D2185668002EB3
:1041600000D10600294BDB579946264BDB6830000F
:104170009847072F26D0234B9D69A178637C09932C
:104180000123089300230793069305930493039355
:104190002289029208220192009301334A460120AB
:1041A000A8470125174B5B6D194AD15D0D31C9B286
:1041B000280098470B9B1F7001200DB0C0BCB9466A
:1041C000B046F0BD0F4B9B6998464B465A01D21A38
:1041D00092004A44D200637C09930023089307931A
:1041E00006930121059104930393238902930523E8
:1041F0000193084B0093002307490020C047D1E7F3
:104200000020DAE7A01F0210742D0020DC0B021042
:10421000B40B02108545010050C30000F0B5DE4626
:1042200057464E464546E0B58BB004008B46904657
:104230000123C3563B4AD7563B4B1A683B4D29686E
:10424000007843001B189B00CB18597A4B005B1871
:10425000DB00D318022159560220205603F08FFBB1
:10426000060001202056324903F090FB8246A268E6
:104270006168300003F08EFA81462E4BDB682968B6
:1042800022785500AD18AD00685898470123E356D1
:10429000072B2BD0274BDD69FA231B010893002342
:1042A0000793069305930122049203930833029324
:1042B000019200975346002249460120A847012554
:1042C000A18901202056FFF709FD43461860194BCC
:1042D0005B6D217B280098475B461E7001200BB068
:1042E000F0BCBB46B246A946A046F0BD114BDD6905
:1042F0007B01DB1B9B00DB19DB00FA221201089219
:104300000022079206920592012104910392043142
:104310000291019200935346074A49460020A8475C
:104320000025CDE7DC0B02104C2D0020742D002061
:10433000BC0B0210A01F0210A8610000F0B5D64609
:104340004F464646C0B58EB006008A46914698460E
:10435000062200210CA813F059FE2E236B440022E4
:104360001A80002507272BE00024072710E0564B72
:10437000196863001B199B005B58002B06D00120B5
:10438000A0402E2169440B8803430B800134E4B222
:104390000F2C15D8062AEAD02E236B441B88234104
:1043A000DB07F3D5484B196863001B199B005B586A
:1043B000002BEBD101339F43E8E7062700E00627F7
:1043C000337AAB421AD9706840190CA903F010F97E
:1043D000002813D02D18EDB20CAB99882E226A4418
:1043E0001180DA78002A01D10029E6D0531EDBB211
:1043F000042BE4D9062AB7D90627E1E702236A4647
:10440000282152181370737A6A46023152181370B9
:104410000AA8FFF799FC0200099001A80771B37A76
:1044200043710CAB01215956817102215956C1715A
:10443000197801720B21715641720C2171568172EB
:104440000D217156C172102101731E316944016141
:104450000275072242751C490968816102770022B2
:1044600042773268019232226A443121694403F072
:10447000DFF80400072814D00CAB01229A565146ED
:104480000A7002229A5649460A701B7842461370F7
:10449000169B1D7020000EB0E0BCBA46B146A8467F
:1044A000F0BD094E30689023DB009C4660440C222E
:1044B0000021FFF776F832682E236B441988902389
:1044C000DB00D152D8E7C046742D002070B504003F
:1044D0004068FFF7EDFB002816D007250020205686
:1044E0000722002102F04EFF002801D102239D4344
:1044F000012020560722002102F044FF002801D1AC
:1045000004239D43280070BD0625E7E7002070477F
:1045100010B504004068FFF7CBFB00280DD0032244
:104520000B4B186821784B005B189B001B58002B25
:1045300005D102339A4350B210BD0222F0E7032A9C
:10454000F9D164684B005B189B00C0184460F2E727
:10455000742D002002207047F0B5C64600B598B013
:1045600004000391170098460023572202A98C46A5
:10457000624413705622624413701022002113A863
:1045800013F044FD0A2302AA9446634403221A80CE
:10459000374B18689023DB009C466044023A0021A8
:1045A00002F055FF002807D1314B19689022D20044
:1045B0008B5A032003438B52637A05AD2B70237A09
:1045C0006B702B4B1B689022D2009A1806920793AF
:1045D000284B1B68089310232B82063B02AA9446A3
:1045E00063440A9323680BAE0B9363680C93A37A1E
:1045F0003372012373720EA821000C310CC90CC058
:10460000237D3375E18A08202056FFF767FB119060
:1046100012950197562302AA9446634400935723A8
:10462000634413AA4146300003F03BF90400031E23
:1046300006D00C2812D0200018B080BCB846F0BDBF
:10464000573302AA94466344197801390020FEF7D3
:1046500085FF13AB1B5C039A1370ECE7044B1968DE
:104660009022D2008B5A032003438B52E3E7C046CB
:10467000742D00204C2D0020F8B504000579012D83
:104680004DD90F2D4DD80368187A000140B20011A2
:104690000722002102F076FE002821D000262368A0
:1046A0000820185600110722002102F06BFE002896
:1046B00000D1012621680B7A1A0152B212115BB2A5
:1046C0001B119A4200DD01260868FFF7F1FA002865
:1046D00008D00023002E07D0002B24D0062021E094
:1046E0000126DCE70123F5E7002B1ED1104F3868C7
:1046F0006E0073199B00C01821680C22FEF739FF69
:104700003B687619B6009E19002272729020C00094
:104710001A5A0121A9400A431A52002002E0062039
:1047200000E00320F8BD0520FCE70420FAE7C046BE
:10473000742D002070B50478012C11D9094B1D6827
:1047400060000019800028180C22002113F05EFC84
:104750009023DB00E8181022210002F061FE70BDFA
:104760000020FCE7742D002070B586B0060003AB76
:1047700050221A72037A102B33D14368DD7B002D4F
:104780002FD102241AE07268535D039352195178B5
:1047900009020B4303939278120413430393642298
:1047A000534303930023049311E06B461C70684647
:1047B000FFF7C0FF0335EDB20134E4B20F2C10D87F
:1047C000062CE0D903AA0023039313720493039BDE
:1047D000002BEAD001A803AB01930471FFF74CFF53
:1047E000E8E706B070BD00B585B003000268116847
:1047F00000290AD1037901A80370FFF79BFF002865
:1048000012D0032040B205B000BD02A802921B796D
:104810000371FFF731FF052808D009D8002809D017
:10482000042809D10238EDE70020EBE70120E9E791
:104830000020E7E70320E5E70020E3E7002805D1B3
:10484000054BC9005B189856C0B27047034BC900AE
:104850005B189856F8E7C0466C0B02102C0B021040
:1048600070B504000D4B1B6A9847051E12D00C4B07
:10487000E0180C4B98420CD80B4912F0A7FA00290B
:104880000AD10A4B9C466444094B9C4202D900253C
:1048900000E00025280070BD0025FBE7A01F0210E6
:1048A000608FF7C840164000C0270900002873C970
:1048B000C042C00070B584B00C000B4B1E560B49B3
:1048C00003F064F801000A4B5D6A01230393E4B22C
:1048D00002940023019308330093073B3200012028
:1048E000A84704B070BDC046680D0210280D021024
:1048F000A01F021000B587B0002304930378372B64
:1049000014D89B005B4AD3589F46C378002B02D132
:10491000083304930AE00223049307E08378002B12
:1049200004D00223049301E0022304930498059029
:1049300007B000BD0122825601AB1A700D225A70D9
:104940008378002B00D002236A4693714823D371E9
:10495000494B1B689022D2009A180292039301A837
:1049600002F0EEFF0490E1E740230493DEE720230A
:104970000493DBE78378002B05D10123C3563F4A1C
:10498000D35C0493D2E70123C3563D4AD35C04931E
:10499000CCE73C4B0493C9E7FA239B000493C5E79B
:1049A000FA23DB000493C1E7374B0493BEE7374B90
:1049B0000493BBE7FA2189003548FEF7CFFDFA23BF
:1049C000DB009C4660440490B0E7324B0493ADE7B3
:1049D00008230493AAE7284B1B689022D200944630
:1049E00063440493A2E7244B1B682B4A9446634418
:1049F00004939BE74823049398E71F4B1B68049399
:104A000094E70123049391E7244B04938EE7244B0E
:104A100004938BE70079234A1E4900F0C1FD0490FE
:104A200084E704AB17221A70133A5A70013A9A704D
:104A30007CE70823049379E70823049376E7007959
:104A4000184A144900F0ACFD04906FE70823049362
:104A50006CE70823049369E70123C356124AD35C29
:104A6000049363E7407840B2104902F08FFF04904E
:104A70005CE7C046FC0B0210782D0020EC0C021005
:104A8000DC0C0210B80B0000881300007017000047
:104A900018FCFFFFA07008378C0400000000F041F4
:104AA0009A990940C0270900680D0210280D0210CC
:104AB00030B583B003000B4A10680B4A11681C78AC
:104AC0006200121992008A18557A5A7899686C0017
:104AD0006419E40000191C690094DB6802F0DDFC35
:104AE00003B030BD502D0020782D002030B587B0A8
:104AF00001236A461380002393700193029303936A
:104B000004931375047A002C11D0013CE4B2012CFB
:104B100000D986E0444B19689023DB00C818434B4A
:104B20009C466144062202F0A9FC002377E003685A
:104B3000002B76D04268002A73D03D490B603A4979
:104B40000A6000229C215A5401315A541832694695
:104B50001800FEF70EFD11E036496143324B1A682A
:104B6000354B9C4661446300181980008150111830
:104B70005020087200234B720134E4B23F2CEBD971
:104B80004023472B14D81A00403A2C485043264A59
:104B900011682B4A944660445A00D418A40060500F
:104BA000081966240472002242720133DBB2E8E77E
:104BB0001D4C216801235B421C4A8B52214A8B52B7
:104BC00002328B52204A8B52204BFF22CA52204B7A
:104BD0000022CA52163BC818144B9C466144063248
:104BE00002F04CFC124B1868903021689023DB00D7
:104BF0009C466144062202F041FC12E00C4A106817
:104C00001A0048325200145A07490D689021890051
:104C100059184900495B214011520133DBB2052B81
:104C2000ECD907B030BDC046782D00208C040000C0
:104C3000502D0020400D030000D88C36006A18006B
:104C4000608697368E0400009204000094040000F1
:104C50009604000010B507292FD012D800291ED0C5
:104C60000539C9B201293FD88378002B1BD10078C0
:104C700040B20D22002102F085FB431E9841C0B2D4
:104C800010E00939C9B2012930D8007840B20E22AB
:104C9000002102F077FB431E9841C0B202E0006899
:104CA000FFF7DEFD10BD007840B20D22022102F0B8
:104CB00069FB431E9841C0B2F4E78378002B09D109
:104CC000007840B20D22082102F05CFB431E98419F
:104CD000C0B2E7E7007840B20D22022102F052FB99
:104CE000431E9841C0B2DDE70020DBE70020D9E792
:104CF000F0B5C64600B5037A102B36D14368DB7B8E
:104D0000012B32D10021002313E0194C2568140037
:104D100048346400675BB8469027BF00BC466244D5
:104D20005200925B4646324062530133DBB202319D
:104D3000C9B2042B19D84268545C0E4A16681A008E
:104D40009025AD005D196D00AC5347687F187F78E2
:104D50003F023C43AC53042BD7D1FF252540902480
:104D6000A4001C196400A553CFE780BCB846F0BD71
:104D7000502D0020782D002070B503000479002C00
:104D800003D0012C28D0002025E0194D286890225E
:104D9000D200944660441968062202F06FFB2D6829
:104DA000144AA95AFF230B40AB52134B0022EA527C
:104DB0000EE0124B1968230048335B00585A9022CA
:104DC0009200A2185200525B02405A520134E4B2DF
:104DD000052CEED9012070BD054A1068084A94469A
:104DE00060441968062202F049FB0120F3E7C0463F
:104DF000782D00209404000096040000502D00201F
:104E00008C040000F0B583B00E0017001C00031CDA
:104E10000D2800DD0D2358B263700F4D290002F0FC
:104E2000B5FDA0700123E3560C4AD05C9B00595994
:104E300002F060FC05000A4BDB6D9847030022007E
:104E40000C320192083400943A003100280002F03C
:104E500063FC03B0F0BDC046280D0210680D0210BF
:104E6000A01F0210F0B5CE4600B58CB004000B9127
:104E70000127C75746681E4B5B689847002834D106
:104E8000A37C002B07D1227807331340194E5E43D1
:104E9000194B9C466644194BDB579946144DEB68F9
:104EA00030009847AE69A178637C09930123089389
:104EB0000023079306930593049303932289029298
:104EC00008220192009301334A460120B0476B6DDE
:104ED0000B4AD15D0D31C9B2012098470B9B1F7061
:104EE00001200CB080BCB946F0BD0020F9E7C046F7
:104EF000A01F0210C0270900A0700837680D02101B
:104F0000EC0C0210F0B5DE4657464E464546E0B57D
:104F10008DB004000B9117000123C3562C4AD356C1
:104F20009B462C4B1A682C4B9A4619680078430014
:104F30001B189B00CB18597A4B005B18DB00D31869
:104F4000022159560220205602F019FD05000120C9
:104F50002056224902F01AFD8146A26861682800A5
:104F600002F018FC80461E4EF268534619682078FD
:104F700043001B189B0058589047F3699A46FA2340
:104F80001B010893002307930693059301220492C3
:104F900003930833029301925B4600934B46002231
:104FA00041460120D047736D217B01209847A1899C
:104FB00001202056FFF77EFC38600B9B1D700120FE
:104FC0000DB0F0BCBB46B246A946A046F0BDC046F7
:104FD000680D0210502D0020782D0020280D0210A1
:104FE000A01F0210F0B5DE4657464E464546E0B5D6
:104FF00091B00500884693469946062200210EA8E6
:1050000013F004F80C2200210BA812F0FFFF914BC3
:1050100019689023DB009C46614406220BA802F02D
:105020002DFA00260AE00BAA073B138053809380D9
:10503000D3800EAB9988FF230B4013812B7AB342A8
:105040006FD9686880190EA902F0D2FA002868D0DA
:105050003618F6B20EABDB78062BE4D0072B07D060
:10506000052B5AD00EAA91885B000BAA9952E5E74E
:105070000BAB00221A805A809A80DA800EAA91889F
:10508000FF220A401A81D9E70BAB61464F00F95A5B
:1050900071480843F852188920431881614601314C
:1050A000CBB29C460132D2B2072AC7D80EAB988841
:1050B000FF230340012494401C420ED0D307E3D4C5
:1050C0000BAB61464F00F85AFF218A465146084310
:1050D000F852188920431881E4E7D3070CD40BABAE
:1050E00061464F00F85AFF218843F8521889E4437B
:1050F00024B204401C81D5E70BAB61464F00F95A3E
:10510000FF200840F8521889E44324B204401C816F
:1051100061460131CBB29C46C4E7002200239C4685
:10512000C2E70EAB5B785BB2052B56DD072402238A
:105130006A462421521813706B7A6A46023152185B
:10514000137009A8FFF7D6FB08906B461C71AB7A69
:105150006A4653710EAB01229A5669468A71022241
:105160009A56CA711A780A720B22AA564A720C22EF
:10517000AA568A720D22AA56CA7248220A730BAA2C
:10518000049208750D224A75324A126806920E2260
:105190000A7700224A772A6800923A226A44392123
:1051A0006944684602F044FA0400072820D00EAB98
:1051B00001229A5641460A7002229A5659460A70AE
:1051C0001B784A4613701A9B1E70200011B0F0BC69
:1051D000BB46B246A946A046F0BD042200210BA85A
:1051E00002F035F9012801D90724A0E706249EE73B
:1051F000184D28689023DB009C46604406220BA9CA
:1052000002F03CF9154B1B6890201A5A94462A6804
:105210009021C900515A65462940195202301D5A41
:105220000F49515A2940195202301D5A0D49515AFD
:105230002940195202301D5A0B49515A294019521E
:105240009121C900505A982158520849515A9A221E
:105250009952ACE7782D002000FFFFFF502D002071
:105260008204000084040000860400008A04000018
:1052700070B504004068FFF7F3FA00281ED0072538
:10528000002020560D22082102F07CF8002801D1D0
:1052900002239D430023E356072B01D00D2B01DD94
:1052A00002239D43012020560522002102F06AF8C6
:1052B000002801D104239D43280070BD0625DFE7A7
:1052C0000120404270470020704701204042704753
:1052D00010B5002911D10D4B19689D228B5C01334B
:1052E0008B540A4B1A689D23D05C092111F06EFD86
:1052F000C9B2002908D1062010BD044B19689D22AF
:105300008B5C013B8B54ECE70220F5E7502D00202D
:10531000F0B5CE46474680B5A5B006000C009146D4
:10532000984600238F226A4413708E226A441370B9
:105330004822002111A812F069FE4D4B18689030E8
:105340000422002102F083F800285BD00823F356E2
:10535000052B0DDD464B1B6898229A5AFF211142FE
:1053600006D1444A11689122D200895A9822995252
:10537000737A03AD2B70337A6B703D4B1B681A0048
:10538000903204923B4A12680592069348232B827E
:1053900000230893336809AF099373680A93B37ABB
:1053A0003B7201237B720CA831000C310CC90CC07C
:1053B000337D3B75F18A08203056FFF77BFA0F905A
:1053C00010954B4601938E236B4400938F236B44BF
:1053D00011AA4146380002F064FA051E42D1737AE0
:1053E000002B20D10823F356022B29D1204B19681A
:1053F000080090309C31220000F06EF803282AD17A
:1054000005002FE01A4D286890301A4B1968902338
:10541000DB009C466144042202F030F82A689C2399
:105420000021D15492E78F236B4419780139002071
:10543000FEF794F811AB1B5C23700CE00130C0B296
:105440000B4B1A689823D25A673313400341DB078A
:10545000F4D540302070064B1868903021784822EF
:1054600001F0DEFF280025B0C0BCB946B046F0BD53
:10547000502D0020782D002010B5084B4C006118ED
:1054800049005B189B56002B01DBD8B210BD0028E9
:1054900001D10023F9E70223F7E7C046FC0C021014
:1054A00010B5002914D0002A14D00023137001E095
:1054B0000133DBB2072B09D804001C41E407F7D500
:1054C00014780B55147801341470F1E7002010BDE6
:1054D0000320FCE70320FAE7F0B585B006000D00D5
:1054E00017000822002102A812F090FD6B4600224E
:1054F000DA71002E3BD0002D3BD0002F3BD02C7812
:1055000015E05B00985B000A18E001390020FEF707
:1055100025F802AB1B5CE2009B183B7019E06B4660
:1055200007331B78002B1AD12A78A24217D06308C0
:10553000E207E6D45B009B5BFF2018406B46DA1D58
:1055400002A9FFF7ADFF03280CD06B46D9790029DB
:10555000DBD10134E4B2072CE1D90024DFE7002BD2
:1055600002D1032005B0F0BD2C700020FAE7032023
:10557000F8E70320F6E70320F4E710B5884209D3E3
:10558000904209D8401A190011F020FC002905D1D9
:10559000012000E0002010BD0020FCE70020FAE719
:1055A000504340187047000003284CD01BD80128F6
:1055B00032D002285ED104230B704B70033B8B70FA
:1055C0001F33CB70374B4B60374B8B60374BCB6007
:1055D000374B0B61374B4B61374B8B61374BCB6193
:1055E000374B0B622EE0042844D103230B704B7021
:1055F000023B8B70CB70334B4B60334B8B60334B28
:10560000CB60334B0B61334B4B61334B8B61334B73
:10561000CB61334B0B6215E004230B704B700433EA
:105620008B70CB702F4B4B602F4B8B602F4BCB6015
:105630002F4B0B612F4B4B612F4B8B612F4BCB6152
:105640002F4B0B62704703230B704B70023B8B7028
:10565000CB702C4B4B602C4B8B602C4BCB602C4B72
:105660000B612C4B4B612C4B8B612C4BCB612C4B2E
:105670000B62E7E704230B704B7004338B70CB7025
:10568000184B4B60184B8B60184BCB60184B0B6161
:10569000184B4B61184B8B61184BCB61184B0B624D
:1056A000D0E7C046AD650010D1640010D964001089
:1056B000E16400101D65001081650010896500100F
:1056C000CD650010F5650010FD6500100166001045
:1056D000096600102566001059660010616600100A
:1056E000816600108D6300105D620010636200101F
:1056F000D5620010F162001055630010696300105C
:1057000095630010C5630010CD630010D1630010D5
:10571000456400106164001095640010A9640010D5
:10572000C964001007280FD90300083BDBB2012B26
:105730000CD903000A3BDBB2042B09D90F38C0B2E5
:10574000042807D9002000E0012070470220FCE770
:105750000320FAE70420F8E710B50400044B1B6AA5
:105760009847002803D0034B1B692000984710BDC1
:10577000A01F0210F81A002070B584B00C000B4B6B
:105780001E560B4902F002F901000A4B5D6A012323
:105790000393E4B202940023019308330093073B80
:1057A00032000120A84704B070BDC046B00E021000
:1057B000900E0210A01F021010B586B000230493B3
:1057C0000378372B05D89B00724AD3589F46012394
:1057D00004930498059006B010BD01230493F8E7E4
:1057E00001230493F5E70123C35601A803700523A1
:1057F0004370043B83705F33C370674B1B68902218
:10580000D2009A184260836002F09AF80490E0E7B0
:1058100040230493DDE720230493DAE70123C356F2
:105820005E4AD35C0493D4E75D4B0493D1E7FA233B
:105830009B000493CDE7FA23DB000493C9E7594B9F
:105840000493C6E7584B0493C3E7FA2189005748ED
:10585000FDF784FEFA23DB009C4660440490B8E721
:10586000534B04934C4B1B689322D2009A5C002A42
:10587000AFD0504A126A5049595C5048185C904762
:105880000490A6E701230493A3E7434B1B689022EF
:10589000D2009446634404939BE73F4B1B68484AFD
:1058A00094466344049394E76023049391E73A4B4E
:1058B0001B6804938DE7434B04938AE7424B0493A0
:1058C00087E73B4B0493344B1B689322D2009A5CCE
:1058D000002A00D17DE7374A5468384A995C00793C
:1058E0000022A047049074E704AB13221A70113A07
:1058F0005A70013A9A706CE70223049369E7264BC9
:105900001A689323DB00D35C002B00D161E7294B9D
:105910009B7804935DE7204B1B689322D2009A5C2E
:10592000002A00D155E7234A92682449585C9047E1
:1059300004904EE71E4B0493174B1B689322D20032
:105940009A5C002A00D144E71A4A54681B4A995CC1
:1059500000790122A04704903BE70223049338E733
:105960000D4B1A689323DB00D35C002B00D130E78A
:10597000104BDB7804932CE70123C356134AD35C06
:10598000049326E7407840B2114901F0FFFF0490EC
:105990001FE7C046780D02107C2D0020580E021023
:1059A000B80B0000881300007017000018FCFFFF00
:1059B0002081051DF81A00209A04000099040000B7
:1059C0008C040000333399419A990940B00E0210BB
:1059D000900E021030B583B003000B4A10680B4ADA
:1059E00011681C786200121992008A18557A5A7848
:1059F00099686C006419E40000191C690094DB6864
:105A000001F04BFD03B030BD542D00207C2D002053
:105A100030B587B001236A46138000239370019349
:105A20000293039304931375037A002B10D0013B68
:105A3000DBB2012B64D8334B19689023DB00C81804
:105A4000314B9C466144062201F018FD002355E0CD
:105A50000368002B54D04268002A51D02B490B60B8
:105A6000284C2260182269461800FDF782FD236841
:105A70009322D2009A5C002A08D19322D2000121FD
:105A80009954002222495A5422495A54224C9322B2
:105A9000D200985C2100FFF787FD6369194D2868E3
:105AA0009847A3692868184A94466044984729682B
:105AB0009023DB00C818144B9C466144062201F079
:105AC000DDFC124B1868903029689023DB009C465F
:105AD0006144062201F0D2FC12E00C4A10681A0060
